{
	"data": {
		"bytecode": {
			"linkReferences": {},
			"object": "608060405234801561001057600080fd5b5061017a806100206000396000f300608060405260043610610057576000357c0100000000000000000000000000000000000000000000000000000000900463ffffffff16806312065fe01461005c5780633ccfd60b14610087578063b6b55f251461009e575b600080fd5b34801561006857600080fd5b506100716100be565b6040518082815260200191505060405180910390f35b34801561009357600080fd5b5061009c6100dd565b005b6100bc6004803603810190808035906020019092919050505061013d565b005b60003073ffffffffffffffffffffffffffffffffffffffff1631905090565b3373ffffffffffffffffffffffffffffffffffffffff166108fc3073ffffffffffffffffffffffffffffffffffffffff16319081150290604051600060405180830381858888f1935050505015801561013a573d6000803e3d6000fd5b50565b803414151561014b57600080fd5b505600a165627a7a723058205065745de8952062bb49669ffa8a307daf709453246b55ed2234fadc7ea1550f0029",
			"opcodes": "PUSH1 0x80 PUSH1 0x40 MSTORE CALLVALUE DUP1 ISZERO PUSH2 0x10 JUMPI PUSH1 0x0 DUP1 REVERT JUMPDEST POP PUSH2 0x17A DUP1 PUSH2 0x20 PUSH1 0x0 CODECOPY PUSH1 0x0 RETURN STOP PUSH1 0x80 PUSH1 0x40 MSTORE PUSH1 0x4 CALLDATASIZE LT PUSH2 0x57 JUMPI PUSH1 0x0 CALLDATALOAD PUSH29 0x100000000000000000000000000000000000000000000000000000000 SWAP1 DIV PUSH4 0xFFFFFFFF AND DUP1 PUSH4 0x12065FE0 EQ PUSH2 0x5C JUMPI DUP1 PUSH4 0x3CCFD60B EQ PUSH2 0x87 JUMPI DUP1 PUSH4 0xB6B55F25 EQ PUSH2 0x9E JUMPI JUMPDEST PUSH1 0x0 DUP1 REVERT JUMPDEST CALLVALUE DUP1 ISZERO PUSH2 0x68 JUMPI PUSH1 0x0 DUP1 REVERT JUMPDEST POP PUSH2 0x71 PUSH2 0xBE JUMP JUMPDEST PUSH1 0x40 MLOAD DUP1 DUP3 DUP2 MSTORE PUSH1 0x20 ADD SWAP2 POP POP PUSH1 0x40 MLOAD DUP1 SWAP2 SUB SWAP1 RETURN JUMPDEST CALLVALUE DUP1 ISZERO PUSH2 0x93 JUMPI PUSH1 0x0 DUP1 REVERT JUMPDEST POP PUSH2 0x9C PUSH2 0xDD JUMP JUMPDEST STOP JUMPDEST PUSH2 0xBC PUSH1 0x4 DUP1 CALLDATASIZE SUB DUP2 ADD SWAP1 DUP1 DUP1 CALLDATALOAD SWAP1 PUSH1 0x20 ADD SWAP1 SWAP3 SWAP2 SWAP1 POP POP POP PUSH2 0x13D JUMP JUMPDEST STOP JUMPDEST PUSH1 0x0 ADDRESS PUSH20 0xFFFFFFFFFFFFFFFFFFFFFFFFFFFFFFFFFFFFFFFF AND BALANCE SWAP1 POP SWAP1 JUMP JUMPDEST CALLER PUSH20 0xFFFFFFFFFFFFFFFFFFFFFFFFFFFFFFFFFFFFFFFF AND PUSH2 0x8FC ADDRESS PUSH20 0xFFFFFFFFFFFFFFFFFFFFFFFFFFFFFFFFFFFFFFFF AND BALANCE SWAP1 DUP2 ISZERO MUL SWAP1 PUSH1 0x40 MLOAD PUSH1 0x0 PUSH1 0x40 MLOAD DUP1 DUP4 SUB DUP2 DUP6 DUP9 DUP9 CALL SWAP4 POP POP POP POP ISZERO DUP1 ISZERO PUSH2 0x13A JUMPI RETURNDATASIZE PUSH1 0x0 DUP1 RETURNDATACOPY RETURNDATASIZE PUSH1 0x0 REVERT JUMPDEST POP JUMP JUMPDEST DUP1 CALLVALUE EQ ISZERO ISZERO PUSH2 0x14B JUMPI PUSH1 0x0 DUP1 REVERT JUMPDEST POP JUMP STOP LOG1 PUSH6 0x627A7A723058 KECCAK256 POP PUSH6 0x745DE8952062 0xbb 0x49 PUSH7 0x9FFA8A307DAF70 SWAP5 MSTORE8 0x24 PUSH12 0x55ED2234FADC7EA1550F0029 "
		},
		"gasEstimates": {
			"creation": {
				"codeDepositCost": "75600",
				"executionCost": "123",
				"totalCost": "75723"
			},
			"external": {
				"deposit(uint256)": "239",
				"getBalance()": "607",
				"withdraw()": "infinite"
			}
		},
		"methodIdentifiers": {
			"deposit(uint256)": "b6b55f25",
			"getBalance()": "12065fe0",
			"withdraw()": "3ccfd60b"
		}
	},
	"abi": [
		{
			"constant": true,
			"inputs": [],
			"name": "getBalance",
			"outputs": [
				{
					"name": "",
					"type": "uint256"
				}
			],
			"payable": false,
			"stateMutability": "view",
			"type": "function"
		},
		{
			"constant": false,
			"inputs": [],
			"name": "withdraw",
			"outputs": [],
			"payable": false,
			"stateMutability": "nonpayable",
			"type": "function"
		},
		{
			"constant": false,
			"inputs": [
				{
					"name": "amount",
					"type": "uint256"
				}
			],
			"name": "deposit",
			"outputs": [],
			"payable": true,
			"stateMutability": "payable",
			"type": "function"
		}
	]
}