{
	"data": {
		"bytecode": {
			"linkReferences": {
				"contracts/LibraryRandomWords.sol": {
					"WordGenerator": [
						{
							"length": 20,
							"start": 2920
						}
					]
				}
			},
			"object": "6080604052604051806060016040528061c35062ffffff16815260200162015f9062ffffff1681526020016201d4c062ffffff168152506001906003620000489291906200008f565b50336000806101000a81548173ffffffffffffffffffffffffffffffffffffffff021916908373ffffffffffffffffffffffffffffffffffffffff160217905550620000fa565b8260038101928215620000c8579160200282015b82811115620000c7578251829062ffffff16905591602001919060010190620000a3565b5b509050620000d79190620000db565b5090565b5b80821115620000f6576000816000905550600101620000dc565b5090565b6148f7806200010a6000396000f3fe60806040526004361061007f5760003560e01c8063a27633f01161004e578063a27633f014610137578063c3d72cc714610162578063fd33209a1461019f578063ff92c89f146101ca57610086565b80632adcea85146100885780634bada13c146100b85780635bb9fae1146100e157806369fd50f51461010c57610086565b3661008657005b005b6100a2600480360381019061009d91906136a3565b6101f5565b6040516100af9190613ed0565b60405180910390f35b3480156100c457600080fd5b506100df60048036038101906100da9190613676565b61044f565b005b3480156100ed57600080fd5b506100f6610c5e565b6040516101039190613f2f565b60405180910390f35b34801561011857600080fd5b50610121610e25565b60405161012e9190614053565b60405180910390f35b34801561014357600080fd5b5061014c610f04565b6040516101599190613f2f565b60405180910390f35b34801561016e57600080fd5b5061018960048036038101906101849190613600565b610f8e565b6040516101969190613f2f565b60405180910390f35b3480156101ab57600080fd5b506101b461167d565b6040516101c19190613eeb565b60405180910390f35b3480156101d657600080fd5b506101df611c02565b6040516101ec9190614031565b60405180910390f35b6000600160006003811061020c5761020b61453b565b5b015484101561021e5760009050610448565b83341461022a57600080fd5b61023384612053565b6040518060200160405280600081525080519060200120600460003373ffffffffffffffffffffffffffffffffffffffff1673ffffffffffffffffffffffffffffffffffffffff1681526020019081526020016000206001016040516102999190613e24565b604051809103902014156102b2576102b183836120bd565b5b60016002600381106102c7576102c661453b565b5b01548410610360576000600360016002600381106102e8576102e761453b565b5b0154866102f59190614200565b6102ff9190614231565b905080600460003373ffffffffffffffffffffffffffffffffffffffff1673ffffffffffffffffffffffffffffffffffffffff16815260200190815260200160002060020160008282546103539190614173565b9250508190555050610443565b600180600381106103745761037361453b565b5b015484106103e15760006002905080600460003373ffffffffffffffffffffffffffffffffffffffff1673ffffffffffffffffffffffffffffffffffffffff16815260200190815260200160002060020160008282546103d49190614173565b9250508190555050610442565b60006001905080600460003373ffffffffffffffffffffffffffffffffffffffff1673ffffffffffffffffffffffffffffffffffffffff16815260200190815260200160002060020160008282546104399190614173565b92505081905550505b5b600190505b9392505050565b7fc5d2460186f7233c927e7db2dcc703c0e500b653ca82273b7bfad8045d85a470600460003373ffffffffffffffffffffffffffffffffffffffff1673ffffffffffffffffffffffffffffffffffffffff1681526020019081526020016000206001016040516020016104c29190613e3b565b604051602081830303815290604052805190602001201415610519576040517f08c379a000000000000000000000000000000000000000000000000000000000815260040161051090613f71565b60405180910390fd5b6000600281111561052d5761052c6144dd565b5b8160028111156105405761053f6144dd565b5b10158015610572575060028081111561055c5761055b6144dd565b5b81600281111561056f5761056e6144dd565b5b11155b6105b1576040517f08c379a00000000000000000000000000000000000000000000000000000000081526004016105a890613ff1565b60405180910390fd5b600460003373ffffffffffffffffffffffffffffffffffffffff1673ffffffffffffffffffffffffffffffffffffffff16815260200190815260200160002060040160000160009054906101000a900460ff1615610644576040517f08c379a000000000000000000000000000000000000000000000000000000000815260040161063b90613f91565b60405180910390fd5b6000600460003373ffffffffffffffffffffffffffffffffffffffff1673ffffffffffffffffffffffffffffffffffffffff16815260200190815260200160002060020154116106c9576040517f08c379a00000000000000000000000000000000000000000000000000000000081526004016106c090613f51565b60405180910390fd5b6000600460003373ffffffffffffffffffffffffffffffffffffffff1673ffffffffffffffffffffffffffffffffffffffff1681526020019081526020016000206004016040518060e00160405290816000820160009054906101000a900460ff1615151515815260200160018201805461074390614398565b80601f016020809104026020016040519081016040528092919081815260200182805461076f90614398565b80156107bc5780601f10610791576101008083540402835291602001916107bc565b820191906000526020600020905b81548152906001019060200180831161079f57829003601f168201915b505050505081526020016002820180546107d590614398565b80601f016020809104026020016040519081016040528092919081815260200182805461080190614398565b801561084e5780601f106108235761010080835404028352916020019161084e565b820191906000526020600020905b81548152906001019060200180831161083157829003601f168201915b5050505050815260200160038201805461086790614398565b80601f016020809104026020016040519081016040528092919081815260200182805461089390614398565b80156108e05780601f106108b5576101008083540402835291602001916108e0565b820191906000526020600020905b8154815290600101906020018083116108c357829003601f168201915b5050505050815260200160048201548152602001600582015481526020016006820160009054906101000a900460ff166002811115610922576109216144dd565b5b6002811115610934576109336144dd565b5b8152505090506001600460003373ffffffffffffffffffffffffffffffffffffffff1673ffffffffffffffffffffffffffffffffffffffff168152602001908152602001600020600201600082825461098d919061428b565b92505081905550818160c0019060028111156109ac576109ab6144dd565b5b908160028111156109c0576109bf6144dd565b5b815250506001816000019015159081151581525050600060028111156109e9576109e86144dd565b5b8260028111156109fc576109fb6144dd565b5b1415610a125760058160a0018181525050610a5c565b60016002811115610a2657610a256144dd565b5b826002811115610a3957610a386144dd565b5b1415610a4f5760038160a0018181525050610a5b565b60018160a00181815250505b5b73__$2b6706dabec950b317ee88d4c8081ae11f$__63f56841836040518163ffffffff1660e01b815260040160006040518083038186803b158015610aa057600080fd5b505af4158015610ab4573d6000803e3d6000fd5b505050506040513d6000823e3d601f19601f82011682018060405250810190610add919061362d565b8160200181905250806020015151816080018181525050610b02816020015151612341565b816040018190525060005b8160800151811015610b58578160400151604051602001610b2e9190613e02565b60405160208183030381529060405282604001819052508080610b50906143fb565b915050610b0d565b5080600460003373ffffffffffffffffffffffffffffffffffffffff1673ffffffffffffffffffffffffffffffffffffffff16815260200190815260200160002060040160008201518160000160006101000a81548160ff0219169083151502179055506020820151816001019080519060200190610bd8929190613336565b506040820151816002019080519060200190610bf5929190613336565b506060820151816003019080519060200190610c12929190613336565b506080820151816004015560a0820151816005015560c08201518160060160006101000a81548160ff02191690836002811115610c5257610c516144dd565b5b02179055509050505050565b6060600460003373ffffffffffffffffffffffffffffffffffffffff1673ffffffffffffffffffffffffffffffffffffffff16815260200190815260200160002060040160000160009054906101000a900460ff16610cf2576040517f08c379a0000000000000000000000000000000000000000000000000000000008152600401610ce990614011565b60405180910390fd5b7fc5d2460186f7233c927e7db2dcc703c0e500b653ca82273b7bfad8045d85a470600460003373ffffffffffffffffffffffffffffffffffffffff1673ffffffffffffffffffffffffffffffffffffffff168152602001908152602001600020600101604051602001610d659190613e3b565b604051602081830303815290604052805190602001201415610dbc576040517f08c379a0000000000000000000000000000000000000000000000000000000008152600401610db390613f71565b60405180910390fd5b600460003373ffffffffffffffffffffffffffffffffffffffff1673ffffffffffffffffffffffffffffffffffffffff168152602001908152602001600020600401600201604051602001610e119190613f0d565b604051602081830303815290604052905090565b6000600460003373ffffffffffffffffffffffffffffffffffffffff1673ffffffffffffffffffffffffffffffffffffffff16815260200190815260200160002060040160000160009054906101000a900460ff16610eb9576040517f08c379a0000000000000000000000000000000000000000000000000000000008152600401610eb090614011565b60405180910390fd5b600460003373ffffffffffffffffffffffffffffffffffffffff1673ffffffffffffffffffffffffffffffffffffffff16815260200190815260200160002060040160050154905090565b60606000610f276001600060038110610f2057610f1f61453b565b5b015461241f565b610f4560018060038110610f3e57610f3d61453b565b5b015461241f565b610f646001600260038110610f5d57610f5c61453b565b5b015461241f565b604051602001610f7693929190613e52565b60405160208183030381529060405290508091505090565b60607fc5d2460186f7233c927e7db2dcc703c0e500b653ca82273b7bfad8045d85a470600460003373ffffffffffffffffffffffffffffffffffffffff1673ffffffffffffffffffffffffffffffffffffffff1681526020019081526020016000206001016040516020016110039190613e3b565b60405160208183030381529060405280519060200120141561105a576040517f08c379a000000000000000000000000000000000000000000000000000000000815260040161105190613f71565b60405180910390fd5b600460003373ffffffffffffffffffffffffffffffffffffffff1673ffffffffffffffffffffffffffffffffffffffff16815260200190815260200160002060040160000160009054906101000a900460ff166110ec576040517f08c379a00000000000000000000000000000000000000000000000000000000081526004016110e390613fb1565b60405180910390fd5b6110f5826125a8565b15611135576040517f08c379a000000000000000000000000000000000000000000000000000000000815260040161112c90613fd1565b60405180910390fd5b6000600460003373ffffffffffffffffffffffffffffffffffffffff1673ffffffffffffffffffffffffffffffffffffffff1681526020019081526020016000206004016040518060e00160405290816000820160009054906101000a900460ff161515151581526020016001820180546111af90614398565b80601f01602080910402602001604051908101604052809291908181526020018280546111db90614398565b80156112285780601f106111fd57610100808354040283529160200191611228565b820191906000526020600020905b81548152906001019060200180831161120b57829003601f168201915b5050505050815260200160028201805461124190614398565b80601f016020809104026020016040519081016040528092919081815260200182805461126d90614398565b80156112ba5780601f1061128f576101008083540402835291602001916112ba565b820191906000526020600020905b81548152906001019060200180831161129d57829003601f168201915b505050505081526020016003820180546112d390614398565b80601f01602080910402602001604051908101604052809291908181526020018280546112ff90614398565b801561134c5780601f106113215761010080835404028352916020019161134c565b820191906000526020600020905b81548152906001019060200180831161132f57829003601f168201915b5050505050815260200160048201548152602001600582015481526020016006820160009054906101000a900460ff16600281111561138e5761138d6144dd565b5b60028111156113a05761139f6144dd565b5b8152505090506000805b826080015181101561148257826020015181815181106113cd576113cc61453b565b5b602001015160f81c60f81b7effffffffffffffffffffffffffffffffffffffffffffffffffffffffffffff1916857effffffffffffffffffffffffffffffffffffffffffffffffffffffffffffff1916141561146f57848360400151828151811061143b5761143a61453b565b5b60200101907effffffffffffffffffffffffffffffffffffffffffffffffffffffffffffff1916908160001a905350600191505b808061147a906143fb565b9150506113aa565b50806114a35760018260a00181815161149b919061428b565b915081815250505b81600460003373ffffffffffffffffffffffffffffffffffffffff1673ffffffffffffffffffffffffffffffffffffffff16815260200190815260200160002060040160008201518160000160006101000a81548160ff0219169083151502179055506020820151816001019080519060200190611522929190613336565b50604082015181600201908051906020019061153f929190613336565b50606082015181600301908051906020019061155c929190613336565b506080820151816004015560a0820151816005015560c08201518160060160006101000a81548160ff0219169083600281111561159c5761159b6144dd565b5b0217905550905050600060405180602001604052806000815250905060008360a0015114156115d6576115cf6000612721565b9050611672565b6115de61302a565b156115f4576115ed6001612721565b9050611671565b8115611637576040518060400160405280601381526020017f546865206c6574746572206f6363757265642e000000000000000000000000008152509050611670565b6040518060400160405280601881526020017f546865206c657474657220646964206e6f74206f63637572000000000000000081525090505b5b5b809350505050919050565b60607fc5d2460186f7233c927e7db2dcc703c0e500b653ca82273b7bfad8045d85a470600460003373ffffffffffffffffffffffffffffffffffffffff1673ffffffffffffffffffffffffffffffffffffffff1681526020019081526020016000206001016040516020016116f29190613e3b565b604051602081830303815290604052805190602001201415611749576040517f08c379a000000000000000000000000000000000000000000000000000000000815260040161174090613f71565b60405180910390fd5b6000600460003373ffffffffffffffffffffffffffffffffffffffff1673ffffffffffffffffffffffffffffffffffffffff1681526020019081526020016000206004016040518060e00160405290816000820160009054906101000a900460ff161515151581526020016001820180546117c390614398565b80601f01602080910402602001604051908101604052809291908181526020018280546117ef90614398565b801561183c5780601f106118115761010080835404028352916020019161183c565b820191906000526020600020905b81548152906001019060200180831161181f57829003601f168201915b5050505050815260200160028201805461185590614398565b80601f016020809104026020016040519081016040528092919081815260200182805461188190614398565b80156118ce5780601f106118a3576101008083540402835291602001916118ce565b820191906000526020600020905b8154815290600101906020018083116118b157829003601f168201915b505050505081526020016003820180546118e790614398565b80601f016020809104026020016040519081016040528092919081815260200182805461191390614398565b80156119605780601f1061193557610100808354040283529160200191611960565b820191906000526020600020905b81548152906001019060200180831161194357829003601f168201915b5050505050815260200160048201548152602001600582015481526020016006820160009054906101000a900460ff1660028111156119a2576119a16144dd565b5b60028111156119b4576119b36144dd565b5b81525050905060018160a0018181516119cd919061428b565b91508181525050600081608001516119e3613303565b6119ed919061444e565b9050600082602001518281518110611a0857611a0761453b565b5b602001015160f81c60f81b90505b611a1f816125a8565b15611a66578260800151611a31613303565b611a3b919061444e565b915082602001518281518110611a5457611a5361453b565b5b602001015160f81c60f81b9050611a16565b82600460003373ffffffffffffffffffffffffffffffffffffffff1673ffffffffffffffffffffffffffffffffffffffff16815260200190815260200160002060040160008201518160000160006101000a81548160ff0219169083151502179055506020820151816001019080519060200190611ae5929190613336565b506040820151816002019080519060200190611b02929190613336565b506060820151816003019080519060200190611b1f929190613336565b506080820151816004015560a0820151816005015560c08201518160060160006101000a81548160ff02191690836002811115611b5f57611b5e6144dd565b5b02179055509050506040518060400160405280600181526020017f2000000000000000000000000000000000000000000000000000000000000000815250935060008360a0015111611bb857611bb56000612721565b93505b8084600081518110611bcd57611bcc61453b565b5b60200101907effffffffffffffffffffffffffffffffffffffffffffffffffffffffffffff1916908160001a90535050505090565b611c0a6133bc565b7fc5d2460186f7233c927e7db2dcc703c0e500b653ca82273b7bfad8045d85a470600460003373ffffffffffffffffffffffffffffffffffffffff1673ffffffffffffffffffffffffffffffffffffffff168152602001908152602001600020600101604051602001611c7d9190613e3b565b604051602081830303815290604052805190602001201415611cd4576040517f08c379a0000000000000000000000000000000000000000000000000000000008152600401611ccb90613f71565b60405180910390fd5b600460003373ffffffffffffffffffffffffffffffffffffffff1673ffffffffffffffffffffffffffffffffffffffff1681526020019081526020016000206040518060a00160405290816000820160009054906101000a900473ffffffffffffffffffffffffffffffffffffffff1673ffffffffffffffffffffffffffffffffffffffff1673ffffffffffffffffffffffffffffffffffffffff168152602001600182018054611d8490614398565b80601f0160208091040260200160405190810160405280929190818152602001828054611db090614398565b8015611dfd5780601f10611dd257610100808354040283529160200191611dfd565b820191906000526020600020905b815481529060010190602001808311611de057829003601f168201915b505050505081526020016002820154815260200160038201548152602001600482016040518060e00160405290816000820160009054906101000a900460ff16151515158152602001600182018054611e5590614398565b80601f0160208091040260200160405190810160405280929190818152602001828054611e8190614398565b8015611ece5780601f10611ea357610100808354040283529160200191611ece565b820191906000526020600020905b815481529060010190602001808311611eb157829003601f168201915b50505050508152602001600282018054611ee790614398565b80601f0160208091040260200160405190810160405280929190818152602001828054611f1390614398565b8015611f605780601f10611f3557610100808354040283529160200191611f60565b820191906000526020600020905b815481529060010190602001808311611f4357829003601f168201915b50505050508152602001600382018054611f7990614398565b80601f0160208091040260200160405190810160405280929190818152602001828054611fa590614398565b8015611ff25780601f10611fc757610100808354040283529160200191611ff2565b820191906000526020600020905b815481529060010190602001808311611fd557829003601f168201915b5050505050815260200160048201548152602001600582015481526020016006820160009054906101000a900460ff166002811115612034576120336144dd565b5b6002811115612046576120456144dd565b5b8152505081525050905090565b60008054906101000a900473ffffffffffffffffffffffffffffffffffffffff1673ffffffffffffffffffffffffffffffffffffffff166108fc829081150290604051600060405180830381858888f193505050501580156120b9573d6000803e3d6000fd5b5050565b60006040518060a001604052803373ffffffffffffffffffffffffffffffffffffffff16815260200184848080601f016020809104026020016040519081016040528093929190818152602001838380828437600081840152601f19601f82011690508083019250505050505050815260200160008152602001600081526020016040518060e001604052806000151581526020016040518060200160405280600081525081526020016040518060200160405280600081525081526020016040518060200160405280600081525081526020016000815260200160008152602001600060028111156121b3576121b26144dd565b5b815250815250905080600460003373ffffffffffffffffffffffffffffffffffffffff1673ffffffffffffffffffffffffffffffffffffffff16815260200190815260200160002060008201518160000160006101000a81548173ffffffffffffffffffffffffffffffffffffffff021916908373ffffffffffffffffffffffffffffffffffffffff160217905550602082015181600101908051906020019061225e929190613407565b50604082015181600201556060820151816003015560808201518160040160008201518160000160006101000a81548160ff02191690831515021790555060208201518160010190805190602001906122b8929190613336565b5060408201518160020190805190602001906122d5929190613336565b5060608201518160030190805190602001906122f2929190613336565b506080820151816004015560a0820151816005015560c08201518160060160006101000a81548160ff02191690836002811115612332576123316144dd565b5b02179055505050905050505050565b606060008267ffffffffffffffff81111561235f5761235e61456a565b5b6040519080825280601f01601f1916602001820160405280156123915781602001600182028036833780820191505090505b50905060005b83811015612415577f2d000000000000000000000000000000000000000000000000000000000000008282815181106123d3576123d261453b565b5b60200101907effffffffffffffffffffffffffffffffffffffffffffffffffffffffffffff1916908160001a905350808061240d906143fb565b915050612397565b5080915050919050565b60606000821415612467576040518060400160405280600181526020017f300000000000000000000000000000000000000000000000000000000000000081525090506125a3565b600082905060005b60008214612499578080612482906143fb565b915050600a826124929190614200565b915061246f565b60008167ffffffffffffffff8111156124b5576124b461456a565b5b6040519080825280601f01601f1916602001820160405280156124e75781602001600182028036833780820191505090505b50905060008290505b6000861461259b57600181612505919061428b565b90506000600a80886125179190614200565b6125219190614231565b8761252c919061428b565b603061253891906141c9565b905060008160f81b9050808484815181106125565761255561453b565b5b60200101907effffffffffffffffffffffffffffffffffffffffffffffffffffffffffffff1916908160001a905350600a886125929190614200565b975050506124f0565b819450505050505b919050565b6000806000905060005b600460003373ffffffffffffffffffffffffffffffffffffffff1673ffffffffffffffffffffffffffffffffffffffff168152602001908152602001600020600401600301805461260290614398565b905081101561271757600460003373ffffffffffffffffffffffffffffffffffffffff1673ffffffffffffffffffffffffffffffffffffffff16815260200190815260200160002060040160030181815461265c90614398565b811061266b5761266a61453b565b5b81546001161561268a5790600052602060002090602091828204019190065b9054901a7f0100000000000000000000000000000000000000000000000000000000000000027effffffffffffffffffffffffffffffffffffffffffffffffffffffffffffff1916847effffffffffffffffffffffffffffffffffffffffffffffffffffffffffffff191614156127045760019150612717565b808061270f906143fb565b9150506125b2565b5080915050919050565b6060806000600460003373ffffffffffffffffffffffffffffffffffffffff1673ffffffffffffffffffffffffffffffffffffffff1681526020019081526020016000206040518060a00160405290816000820160009054906101000a900473ffffffffffffffffffffffffffffffffffffffff1673ffffffffffffffffffffffffffffffffffffffff1673ffffffffffffffffffffffffffffffffffffffff1681526020016001820180546127d690614398565b80601f016020809104026020016040519081016040528092919081815260200182805461280290614398565b801561284f5780601f106128245761010080835404028352916020019161284f565b820191906000526020600020905b81548152906001019060200180831161283257829003601f168201915b505050505081526020016002820154815260200160038201548152602001600482016040518060e00160405290816000820160009054906101000a900460ff161515151581526020016001820180546128a790614398565b80601f01602080910402602001604051908101604052809291908181526020018280546128d390614398565b80156129205780601f106128f557610100808354040283529160200191612920565b820191906000526020600020905b81548152906001019060200180831161290357829003601f168201915b5050505050815260200160028201805461293990614398565b80601f016020809104026020016040519081016040528092919081815260200182805461296590614398565b80156129b25780601f10612987576101008083540402835291602001916129b2565b820191906000526020600020905b81548152906001019060200180831161299557829003601f168201915b505050505081526020016003820180546129cb90614398565b80601f01602080910402602001604051908101604052809291908181526020018280546129f790614398565b8015612a445780601f10612a1957610100808354040283529160200191612a44565b820191906000526020600020905b815481529060010190602001808311612a2757829003601f168201915b5050505050815260200160048201548152602001600582015481526020016006820160009054906101000a900460ff166002811115612a8657612a856144dd565b5b6002811115612a9857612a976144dd565b5b815250508152505090508315612c8e576040518060400160405280601981526020017f436f6e67726174756c6174696f6e2c20796f7520776f6e2e0a000000000000008152506040518060400160405280600981526020017f54686520776f72642000000000000000000000000000000000000000000000008152508260800151602001516040518060400160405280600d81526020017f20697320636f7272656374210a000000000000000000000000000000000000008152506040518060400160405280601181526020017f596f752068617665206e6f7720776f6e20000000000000000000000000000000815250612b96866060015161241f565b6040518060400160405280601281526020017f2067616d657320696e20746f74616c2e0a0a00000000000000000000000000008152506040518060400160405280600981526020017f596f752068617665200000000000000000000000000000000000000000000000815250612c0f896040015161241f565b6040518060400160405280601281526020017f20667265652067616d6573206c6566742e0a0000000000000000000000000000815250604051602001612c5e9a99989796959493929190613d76565b6040516020818303038152906040529150600181606001818151612c829190614173565b91508181525050612e1f565b6040518060400160405280601781526020017f57656c6c2c20796f7520646964206e6f742077696e2e0a0000000000000000008152506040518060400160405280600d81526020017f54686520776f72642077617320000000000000000000000000000000000000008152508260800151602001516040518060400160405280601f81526020017f0a416e79776179732c20796f75206861766520616c726561647920776f6e2000815250612d46856060015161241f565b6040518060400160405280601281526020017f2067616d657320696e20746f74616c2e0a0a00000000000000000000000000008152506040518060400160405280600981526020017f596f752068617665200000000000000000000000000000000000000000000000815250612dbf886040015161241f565b6040518060400160405280601281526020017f20667265652067616d6573206c6566742e0a0000000000000000000000000000815250604051602001612e0d99989796959493929190613cf7565b60405160208183030381529060405291505b6040518060e00160405280600015158152602001604051806020016040528060008152508152602001604051806020016040528060008152508152602001604051806020016040528060008152508152602001600081526020016000815260200160006002811115612e9457612e936144dd565b5b815250816080018190525080600460003373ffffffffffffffffffffffffffffffffffffffff1673ffffffffffffffffffffffffffffffffffffffff16815260200190815260200160002060008201518160000160006101000a81548173ffffffffffffffffffffffffffffffffffffffff021916908373ffffffffffffffffffffffffffffffffffffffff1602179055506020820151816001019080519060200190612f42929190613407565b50604082015181600201556060820151816003015560808201518160040160008201518160000160006101000a81548160ff0219169083151502179055506020820151816001019080519060200190612f9c929190613336565b506040820151816002019080519060200190612fb9929190613336565b506060820151816003019080519060200190612fd6929190613336565b506080820151816004015560a0820151816005015560c08201518160060160006101000a81548160ff02191690836002811115613016576130156144dd565b5b021790555050509050508192505050919050565b600080600190506000600460003373ffffffffffffffffffffffffffffffffffffffff1673ffffffffffffffffffffffffffffffffffffffff1681526020019081526020016000206004016040518060e00160405290816000820160009054906101000a900460ff161515151581526020016001820180546130ab90614398565b80601f01602080910402602001604051908101604052809291908181526020018280546130d790614398565b80156131245780601f106130f957610100808354040283529160200191613124565b820191906000526020600020905b81548152906001019060200180831161310757829003601f168201915b5050505050815260200160028201805461313d90614398565b80601f016020809104026020016040519081016040528092919081815260200182805461316990614398565b80156131b65780601f1061318b576101008083540402835291602001916131b6565b820191906000526020600020905b81548152906001019060200180831161319957829003601f168201915b505050505081526020016003820180546131cf90614398565b80601f01602080910402602001604051908101604052809291908181526020018280546131fb90614398565b80156132485780601f1061321d57610100808354040283529160200191613248565b820191906000526020600020905b81548152906001019060200180831161322b57829003601f168201915b5050505050815260200160048201548152602001600582015481526020016006820160009054906101000a900460ff16600281111561328a576132896144dd565b5b600281111561329c5761329b6144dd565b5b81525050905080602001516040516020016132b79190613ce0565b6040516020818303038152906040528051906020012081604001516040516020016132e29190613ce0565b60405160208183030381529060405280519060200120149150819250505090565b60004442604051602001613318929190613ea4565b6040516020818303038152906040528051906020012060001c905090565b82805461334290614398565b90600052602060002090601f01602090048101928261336457600085556133ab565b82601f1061337d57805160ff19168380011785556133ab565b828001600101855582156133ab579182015b828111156133aa57825182559160200191906001019061338f565b5b5090506133b8919061348d565b5090565b6040518060a00160405280600073ffffffffffffffffffffffffffffffffffffffff1681526020016060815260200160008152602001600081526020016134016134aa565b81525090565b82805461341390614398565b90600052602060002090601f016020900481019282613435576000855561347c565b82601f1061344e57805160ff191683800117855561347c565b8280016001018555821561347c579182015b8281111561347b578251825591602001919060010190613460565b5b509050613489919061348d565b5090565b5b808211156134a657600081600090555060010161348e565b5090565b6040518060e001604052806000151581526020016060815260200160608152602001606081526020016000815260200160008152602001600060028111156134f5576134f46144dd565b5b81525090565b600061350e61350984614093565b61406e565b90508281526020810184848401111561352a576135296145a8565b5b613535848285614365565b509392505050565b60008135905061354c81614883565b92915050565b600082601f8301126135675761356661459e565b5b81516135778482602086016134fb565b91505092915050565b60008135905061358f8161489a565b92915050565b60008083601f8401126135ab576135aa61459e565b5b8235905067ffffffffffffffff8111156135c8576135c7614599565b5b6020830191508360018202830111156135e4576135e36145a3565b5b9250929050565b6000813590506135fa816148aa565b92915050565b600060208284031215613616576136156145b2565b5b60006136248482850161353d565b91505092915050565b600060208284031215613643576136426145b2565b5b600082015167ffffffffffffffff811115613661576136606145ad565b5b61366d84828501613552565b91505092915050565b60006020828403121561368c5761368b6145b2565b5b600061369a84828501613580565b91505092915050565b6000806000604084860312156136bc576136bb6145b2565b5b60006136ca868287016135eb565b935050602084013567ffffffffffffffff8111156136eb576136ea6145ad565b5b6136f786828701613595565b92509250509250925092565b61370c816142bf565b82525050565b61371b816142d1565b82525050565b61372a816142d1565b82525050565b600061373b82614103565b6137458185614119565b9350613755818560208601614365565b61375e816145b7565b840191505092915050565b600061377482614103565b61377e818561412a565b935061378e818560208601614365565b613797816145b7565b840191505092915050565b60006137ad82614103565b6137b7818561413b565b93506137c7818560208601614365565b80840191505092915050565b600081546137e081614398565b6137ea818661413b565b94506001821660008114613805576001811461381657613849565b60ff19831686528186019350613849565b61381f856140d9565b60005b8381101561384157815481890152600182019150602081019050613822565b838801955050505b50505092915050565b6000815461385f81614398565b613869818661412a565b945060018216600081146138845760018114613896576138c9565b60ff19831686526020860193506138c9565b61389f856140c4565b60005b838110156138c1578154818901526001820191506020810190506138a2565b808801955050505b50505092915050565b6138db81614353565b82525050565b60006138ec8261410e565b6138f68185614146565b9350613906818560208601614365565b61390f816145b7565b840191505092915050565b60006139258261410e565b61392f8185614157565b935061393f818560208601614365565b613948816145b7565b840191505092915050565b600061395e8261410e565b6139688185614168565b9350613978818560208601614365565b80840191505092915050565b6000815461399181614398565b61399b8186614168565b945060018216600081146139b657600181146139c7576139fa565b60ff198316865281860193506139fa565b6139d0856140ee565b60005b838110156139f2578154818901526001820191506020810190506139d3565b838801955050505b50505092915050565b6000613a10602783614157565b9150613a1b826145c8565b604082019050919050565b6000613a33600b83614168565b9150613a3e82614617565b600b82019050919050565b6000613a56601583614168565b9150613a6182614640565b601582019050919050565b6000613a79602b83614157565b9150613a8482614669565b604082019050919050565b6000613a9c602b83614157565b9150613aa7826146b8565b604082019050919050565b6000613abf602f83614157565b9150613aca82614707565b604082019050919050565b6000613ae2602383614157565b9150613aed82614756565b604082019050919050565b6000613b05600083614168565b9150613b10826147a5565b600082019050919050565b6000613b28605e83614157565b9150613b33826147a8565b606082019050919050565b6000613b4b601d83614157565b9150613b568261481d565b602082019050919050565b6000613b6e600b83614168565b9150613b7982614846565b600b82019050919050565b600060e083016000830151613b9c6000860182613712565b5060208301518482036020860152613bb48282613730565b91505060408301518482036040860152613bce8282613730565b91505060608301518482036060860152613be88282613730565b9150506080830151613bfd6080860182613cab565b5060a0830151613c1060a0860182613cab565b5060c0830151613c2360c08601826138d2565b508091505092915050565b600060a083016000830151613c466000860182613703565b5060208301518482036020860152613c5e82826138e1565b9150506040830151613c736040860182613cab565b506060830151613c866060860182613cab565b5060808301518482036080860152613c9e8282613b84565b9150508091505092915050565b613cb48161433c565b82525050565b613cc38161433c565b82525050565b613cda613cd58261433c565b614444565b82525050565b6000613cec82846137a2565b915081905092915050565b6000613d03828c6137a2565b9150613d0f828b6137a2565b9150613d1b828a6137a2565b9150613d2782896137a2565b9150613d3382886137a2565b9150613d3f82876137a2565b9150613d4b82866137a2565b9150613d5782856137a2565b9150613d6382846137a2565b91508190509a9950505050505050505050565b6000613d82828d6137a2565b9150613d8e828c6137a2565b9150613d9a828b6137a2565b9150613da6828a6137a2565b9150613db282896137a2565b9150613dbe82886137a2565b9150613dca82876137a2565b9150613dd682866137a2565b9150613de282856137a2565b9150613dee82846137a2565b91508190509b9a5050505050505050505050565b6000613e0e82846137a2565b9150613e1982613af8565b915081905092915050565b6000613e3082846137d3565b915081905092915050565b6000613e478284613984565b915081905092915050565b6000613e5d82613a49565b9150613e698286613953565b9150613e7482613b61565b9150613e808285613953565b9150613e8b82613a26565b9150613e978284613953565b9150819050949350505050565b6000613eb08285613cc9565b602082019150613ec08284613cc9565b6020820191508190509392505050565b6000602082019050613ee56000830184613721565b92915050565b60006020820190508181036000830152613f058184613769565b905092915050565b60006020820190508181036000830152613f278184613852565b905092915050565b60006020820190508181036000830152613f49818461391a565b905092915050565b60006020820190508181036000830152613f6a81613a03565b9050919050565b60006020820190508181036000830152613f8a81613a6c565b9050919050565b60006020820190508181036000830152613faa81613a8f565b9050919050565b60006020820190508181036000830152613fca81613ab2565b9050919050565b60006020820190508181036000830152613fea81613ad5565b9050919050565b6000602082019050818103600083015261400a81613b1b565b9050919050565b6000602082019050818103600083015261402a81613b3e565b9050919050565b6000602082019050818103600083015261404b8184613c2e565b905092915050565b60006020820190506140686000830184613cba565b92915050565b6000614078614089565b905061408482826143ca565b919050565b6000604051905090565b600067ffffffffffffffff8211156140ae576140ad61456a565b5b6140b7826145b7565b9050602081019050919050565b60008190508160005260206000209050919050565b60008190508160005260206000209050919050565b60008190508160005260206000209050919050565b600081519050919050565b600081519050919050565b600082825260208201905092915050565b600082825260208201905092915050565b600081905092915050565b600082825260208201905092915050565b600082825260208201905092915050565b600081905092915050565b600061417e8261433c565b91506141898361433c565b9250827fffffffffffffffffffffffffffffffffffffffffffffffffffffffffffffffff038211156141be576141bd61447f565b5b828201905092915050565b60006141d482614346565b91506141df83614346565b92508260ff038211156141f5576141f461447f565b5b828201905092915050565b600061420b8261433c565b91506142168361433c565b925082614226576142256144ae565b5b828204905092915050565b600061423c8261433c565b91506142478361433c565b9250817fffffffffffffffffffffffffffffffffffffffffffffffffffffffffffffffff04831182151516156142805761427f61447f565b5b828202905092915050565b60006142968261433c565b91506142a18361433c565b9250828210156142b4576142b361447f565b5b828203905092915050565b60006142ca8261431c565b9050919050565b60008115159050919050565b60007fff0000000000000000000000000000000000000000000000000000000000000082169050919050565b60008190506143178261486f565b919050565b600073ffffffffffffffffffffffffffffffffffffffff82169050919050565b6000819050919050565b600060ff82169050919050565b600061435e82614309565b9050919050565b60005b83811015614383578082015181840152602081019050614368565b83811115614392576000848401525b50505050565b600060028204905060018216806143b057607f821691505b602082108114156143c4576143c361450c565b5b50919050565b6143d3826145b7565b810181811067ffffffffffffffff821117156143f2576143f161456a565b5b80604052505050565b60006144068261433c565b91507fffffffffffffffffffffffffffffffffffffffffffffffffffffffffffffffff8214156144395761443861447f565b5b600182019050919050565b6000819050919050565b60006144598261433c565b91506144648361433c565b925082614474576144736144ae565b5b828206905092915050565b7f4e487b7100000000000000000000000000000000000000000000000000000000600052601160045260246000fd5b7f4e487b7100000000000000000000000000000000000000000000000000000000600052601260045260246000fd5b7f4e487b7100000000000000000000000000000000000000000000000000000000600052602160045260246000fd5b7f4e487b7100000000000000000000000000000000000000000000000000000000600052602260045260246000fd5b7f4e487b7100000000000000000000000000000000000000000000000000000000600052603260045260246000fd5b7f4e487b7100000000000000000000000000000000000000000000000000000000600052604160045260246000fd5b600080fd5b600080fd5b600080fd5b600080fd5b600080fd5b600080fd5b6000601f19601f8301169050919050565b7f596f752068617665206e6f20667265652067616d6573206c6566742e2050617960008201527f2066697273742e00000000000000000000000000000000000000000000000000602082015250565b7f0a20332067616d65733a20000000000000000000000000000000000000000000600082015250565b7f47616d6520636f7374733a0a20312067616d653a200000000000000000000000600082015250565b7f596f752068617665206e6f74207061796564207965742e2043616c6c2070617960008201527f5f67616d65206669727374000000000000000000000000000000000000000000602082015250565b7f596f75206861766520616c7265616479207374617274656420612067616d652c60008201527f2066696e6973682069742e000000000000000000000000000000000000000000602082015250565b7f4e6f2067616d652069732072756e6e696e67207269676874206e6f772c20796f60008201527f752063616e6e6f742067756573732e0000000000000000000000000000000000602082015250565b7f596f7527766520616c726561647920677565737365642074686174206c65747460008201527f65722e0000000000000000000000000000000000000000000000000000000000602082015250565b50565b7f526571756573746564206c6576656c206f6620646966666963756c7479206e6f60008201527f7420617661696c61626c652e2043686f6f7365206265747765656e202845617360208201527f793a302c204e6f726d616c3a312c204368616c6c656e67696e673a32292e0000604082015250565b7f4e6f2067616d652069732072756e6e696e67207269676874206e6f772e000000600082015250565b7f0a20322067616d65733a20000000000000000000000000000000000000000000600082015250565b600381106148805761487f6144dd565b5b50565b61488c816142dd565b811461489757600080fd5b50565b600381106148a757600080fd5b50565b6148b38161433c565b81146148be57600080fd5b5056fea2646970667358221220b2bd6118ec39e2b2330200aa0b6fbf6bcee1bd1d9545a28db20a01117657df5664736f6c63430008070033",
			"opcodes": "PUSH1 0x80 PUSH1 0x40 MSTORE PUSH1 0x40 MLOAD DUP1 PUSH1 0x60 ADD PUSH1 0x40 MSTORE DUP1 PUSH2 0xC350 PUSH3 0xFFFFFF AND DUP2 MSTORE PUSH1 0x20 ADD PUSH3 0x15F90 PUSH3 0xFFFFFF AND DUP2 MSTORE PUSH1 0x20 ADD PUSH3 0x1D4C0 PUSH3 0xFFFFFF AND DUP2 MSTORE POP PUSH1 0x1 SWAP1 PUSH1 0x3 PUSH3 0x48 SWAP3 SWAP2 SWAP1 PUSH3 0x8F JUMP JUMPDEST POP CALLER PUSH1 0x0 DUP1 PUSH2 0x100 EXP DUP2 SLOAD DUP2 PUSH20 0xFFFFFFFFFFFFFFFFFFFFFFFFFFFFFFFFFFFFFFFF MUL NOT AND SWAP1 DUP4 PUSH20 0xFFFFFFFFFFFFFFFFFFFFFFFFFFFFFFFFFFFFFFFF AND MUL OR SWAP1 SSTORE POP PUSH3 0xFA JUMP JUMPDEST DUP3 PUSH1 0x3 DUP2 ADD SWAP3 DUP3 ISZERO PUSH3 0xC8 JUMPI SWAP2 PUSH1 0x20 MUL DUP3 ADD JUMPDEST DUP3 DUP2 GT ISZERO PUSH3 0xC7 JUMPI DUP3 MLOAD DUP3 SWAP1 PUSH3 0xFFFFFF AND SWAP1 SSTORE SWAP2 PUSH1 0x20 ADD SWAP2 SWAP1 PUSH1 0x1 ADD SWAP1 PUSH3 0xA3 JUMP JUMPDEST JUMPDEST POP SWAP1 POP PUSH3 0xD7 SWAP2 SWAP1 PUSH3 0xDB JUMP JUMPDEST POP SWAP1 JUMP JUMPDEST JUMPDEST DUP1 DUP3 GT ISZERO PUSH3 0xF6 JUMPI PUSH1 0x0 DUP2 PUSH1 0x0 SWAP1 SSTORE POP PUSH1 0x1 ADD PUSH3 0xDC JUMP JUMPDEST POP SWAP1 JUMP JUMPDEST PUSH2 0x48F7 DUP1 PUSH3 0x10A PUSH1 0x0 CODECOPY PUSH1 0x0 RETURN INVALID PUSH1 0x80 PUSH1 0x40 MSTORE PUSH1 0x4 CALLDATASIZE LT PUSH2 0x7F JUMPI PUSH1 0x0 CALLDATALOAD PUSH1 0xE0 SHR DUP1 PUSH4 0xA27633F0 GT PUSH2 0x4E JUMPI DUP1 PUSH4 0xA27633F0 EQ PUSH2 0x137 JUMPI DUP1 PUSH4 0xC3D72CC7 EQ PUSH2 0x162 JUMPI DUP1 PUSH4 0xFD33209A EQ PUSH2 0x19F JUMPI DUP1 PUSH4 0xFF92C89F EQ PUSH2 0x1CA JUMPI PUSH2 0x86 JUMP JUMPDEST DUP1 PUSH4 0x2ADCEA85 EQ PUSH2 0x88 JUMPI DUP1 PUSH4 0x4BADA13C EQ PUSH2 0xB8 JUMPI DUP1 PUSH4 0x5BB9FAE1 EQ PUSH2 0xE1 JUMPI DUP1 PUSH4 0x69FD50F5 EQ PUSH2 0x10C JUMPI PUSH2 0x86 JUMP JUMPDEST CALLDATASIZE PUSH2 0x86 JUMPI STOP JUMPDEST STOP JUMPDEST PUSH2 0xA2 PUSH1 0x4 DUP1 CALLDATASIZE SUB DUP2 ADD SWAP1 PUSH2 0x9D SWAP2 SWAP1 PUSH2 0x36A3 JUMP JUMPDEST PUSH2 0x1F5 JUMP JUMPDEST PUSH1 0x40 MLOAD PUSH2 0xAF SWAP2 SWAP1 PUSH2 0x3ED0 JUMP JUMPDEST PUSH1 0x40 MLOAD DUP1 SWAP2 SUB SWAP1 RETURN JUMPDEST CALLVALUE DUP1 ISZERO PUSH2 0xC4 JUMPI PUSH1 0x0 DUP1 REVERT JUMPDEST POP PUSH2 0xDF PUSH1 0x4 DUP1 CALLDATASIZE SUB DUP2 ADD SWAP1 PUSH2 0xDA SWAP2 SWAP1 PUSH2 0x3676 JUMP JUMPDEST PUSH2 0x44F JUMP JUMPDEST STOP JUMPDEST CALLVALUE DUP1 ISZERO PUSH2 0xED JUMPI PUSH1 0x0 DUP1 REVERT JUMPDEST POP PUSH2 0xF6 PUSH2 0xC5E JUMP JUMPDEST PUSH1 0x40 MLOAD PUSH2 0x103 SWAP2 SWAP1 PUSH2 0x3F2F JUMP JUMPDEST PUSH1 0x40 MLOAD DUP1 SWAP2 SUB SWAP1 RETURN JUMPDEST CALLVALUE DUP1 ISZERO PUSH2 0x118 JUMPI PUSH1 0x0 DUP1 REVERT JUMPDEST POP PUSH2 0x121 PUSH2 0xE25 JUMP JUMPDEST PUSH1 0x40 MLOAD PUSH2 0x12E SWAP2 SWAP1 PUSH2 0x4053 JUMP JUMPDEST PUSH1 0x40 MLOAD DUP1 SWAP2 SUB SWAP1 RETURN JUMPDEST CALLVALUE DUP1 ISZERO PUSH2 0x143 JUMPI PUSH1 0x0 DUP1 REVERT JUMPDEST POP PUSH2 0x14C PUSH2 0xF04 JUMP JUMPDEST PUSH1 0x40 MLOAD PUSH2 0x159 SWAP2 SWAP1 PUSH2 0x3F2F JUMP JUMPDEST PUSH1 0x40 MLOAD DUP1 SWAP2 SUB SWAP1 RETURN JUMPDEST CALLVALUE DUP1 ISZERO PUSH2 0x16E JUMPI PUSH1 0x0 DUP1 REVERT JUMPDEST POP PUSH2 0x189 PUSH1 0x4 DUP1 CALLDATASIZE SUB DUP2 ADD SWAP1 PUSH2 0x184 SWAP2 SWAP1 PUSH2 0x3600 JUMP JUMPDEST PUSH2 0xF8E JUMP JUMPDEST PUSH1 0x40 MLOAD PUSH2 0x196 SWAP2 SWAP1 PUSH2 0x3F2F JUMP JUMPDEST PUSH1 0x40 MLOAD DUP1 SWAP2 SUB SWAP1 RETURN JUMPDEST CALLVALUE DUP1 ISZERO PUSH2 0x1AB JUMPI PUSH1 0x0 DUP1 REVERT JUMPDEST POP PUSH2 0x1B4 PUSH2 0x167D JUMP JUMPDEST PUSH1 0x40 MLOAD PUSH2 0x1C1 SWAP2 SWAP1 PUSH2 0x3EEB JUMP JUMPDEST PUSH1 0x40 MLOAD DUP1 SWAP2 SUB SWAP1 RETURN JUMPDEST CALLVALUE DUP1 ISZERO PUSH2 0x1D6 JUMPI PUSH1 0x0 DUP1 REVERT JUMPDEST POP PUSH2 0x1DF PUSH2 0x1C02 JUMP JUMPDEST PUSH1 0x40 MLOAD PUSH2 0x1EC SWAP2 SWAP1 PUSH2 0x4031 JUMP JUMPDEST PUSH1 0x40 MLOAD DUP1 SWAP2 SUB SWAP1 RETURN JUMPDEST PUSH1 0x0 PUSH1 0x1 PUSH1 0x0 PUSH1 0x3 DUP2 LT PUSH2 0x20C JUMPI PUSH2 0x20B PUSH2 0x453B JUMP JUMPDEST JUMPDEST ADD SLOAD DUP5 LT ISZERO PUSH2 0x21E JUMPI PUSH1 0x0 SWAP1 POP PUSH2 0x448 JUMP JUMPDEST DUP4 CALLVALUE EQ PUSH2 0x22A JUMPI PUSH1 0x0 DUP1 REVERT JUMPDEST PUSH2 0x233 DUP5 PUSH2 0x2053 JUMP JUMPDEST PUSH1 0x40 MLOAD DUP1 PUSH1 0x20 ADD PUSH1 0x40 MSTORE DUP1 PUSH1 0x0 DUP2 MSTORE POP DUP1 MLOAD SWAP1 PUSH1 0x20 ADD KECCAK256 PUSH1 0x4 PUSH1 0x0 CALLER PUSH20 0xFFFFFFFFFFFFFFFFFFFFFFFFFFFFFFFFFFFFFFFF AND PUSH20 0xFFFFFFFFFFFFFFFFFFFFFFFFFFFFFFFFFFFFFFFF AND DUP2 MSTORE PUSH1 0x20 ADD SWAP1 DUP2 MSTORE PUSH1 0x20 ADD PUSH1 0x0 KECCAK256 PUSH1 0x1 ADD PUSH1 0x40 MLOAD PUSH2 0x299 SWAP2 SWAP1 PUSH2 0x3E24 JUMP JUMPDEST PUSH1 0x40 MLOAD DUP1 SWAP2 SUB SWAP1 KECCAK256 EQ ISZERO PUSH2 0x2B2 JUMPI PUSH2 0x2B1 DUP4 DUP4 PUSH2 0x20BD JUMP JUMPDEST JUMPDEST PUSH1 0x1 PUSH1 0x2 PUSH1 0x3 DUP2 LT PUSH2 0x2C7 JUMPI PUSH2 0x2C6 PUSH2 0x453B JUMP JUMPDEST JUMPDEST ADD SLOAD DUP5 LT PUSH2 0x360 JUMPI PUSH1 0x0 PUSH1 0x3 PUSH1 0x1 PUSH1 0x2 PUSH1 0x3 DUP2 LT PUSH2 0x2E8 JUMPI PUSH2 0x2E7 PUSH2 0x453B JUMP JUMPDEST JUMPDEST ADD SLOAD DUP7 PUSH2 0x2F5 SWAP2 SWAP1 PUSH2 0x4200 JUMP JUMPDEST PUSH2 0x2FF SWAP2 SWAP1 PUSH2 0x4231 JUMP JUMPDEST SWAP1 POP DUP1 PUSH1 0x4 PUSH1 0x0 CALLER PUSH20 0xFFFFFFFFFFFFFFFFFFFFFFFFFFFFFFFFFFFFFFFF AND PUSH20 0xFFFFFFFFFFFFFFFFFFFFFFFFFFFFFFFFFFFFFFFF AND DUP2 MSTORE PUSH1 0x20 ADD SWAP1 DUP2 MSTORE PUSH1 0x20 ADD PUSH1 0x0 KECCAK256 PUSH1 0x2 ADD PUSH1 0x0 DUP3 DUP3 SLOAD PUSH2 0x353 SWAP2 SWAP1 PUSH2 0x4173 JUMP JUMPDEST SWAP3 POP POP DUP2 SWAP1 SSTORE POP POP PUSH2 0x443 JUMP JUMPDEST PUSH1 0x1 DUP1 PUSH1 0x3 DUP2 LT PUSH2 0x374 JUMPI PUSH2 0x373 PUSH2 0x453B JUMP JUMPDEST JUMPDEST ADD SLOAD DUP5 LT PUSH2 0x3E1 JUMPI PUSH1 0x0 PUSH1 0x2 SWAP1 POP DUP1 PUSH1 0x4 PUSH1 0x0 CALLER PUSH20 0xFFFFFFFFFFFFFFFFFFFFFFFFFFFFFFFFFFFFFFFF AND PUSH20 0xFFFFFFFFFFFFFFFFFFFFFFFFFFFFFFFFFFFFFFFF AND DUP2 MSTORE PUSH1 0x20 ADD SWAP1 DUP2 MSTORE PUSH1 0x20 ADD PUSH1 0x0 KECCAK256 PUSH1 0x2 ADD PUSH1 0x0 DUP3 DUP3 SLOAD PUSH2 0x3D4 SWAP2 SWAP1 PUSH2 0x4173 JUMP JUMPDEST SWAP3 POP POP DUP2 SWAP1 SSTORE POP POP PUSH2 0x442 JUMP JUMPDEST PUSH1 0x0 PUSH1 0x1 SWAP1 POP DUP1 PUSH1 0x4 PUSH1 0x0 CALLER PUSH20 0xFFFFFFFFFFFFFFFFFFFFFFFFFFFFFFFFFFFFFFFF AND PUSH20 0xFFFFFFFFFFFFFFFFFFFFFFFFFFFFFFFFFFFFFFFF AND DUP2 MSTORE PUSH1 0x20 ADD SWAP1 DUP2 MSTORE PUSH1 0x20 ADD PUSH1 0x0 KECCAK256 PUSH1 0x2 ADD PUSH1 0x0 DUP3 DUP3 SLOAD PUSH2 0x439 SWAP2 SWAP1 PUSH2 0x4173 JUMP JUMPDEST SWAP3 POP POP DUP2 SWAP1 SSTORE POP POP JUMPDEST JUMPDEST PUSH1 0x1 SWAP1 POP JUMPDEST SWAP4 SWAP3 POP POP POP JUMP JUMPDEST PUSH32 0xC5D2460186F7233C927E7DB2DCC703C0E500B653CA82273B7BFAD8045D85A470 PUSH1 0x4 PUSH1 0x0 CALLER PUSH20 0xFFFFFFFFFFFFFFFFFFFFFFFFFFFFFFFFFFFFFFFF AND PUSH20 0xFFFFFFFFFFFFFFFFFFFFFFFFFFFFFFFFFFFFFFFF AND DUP2 MSTORE PUSH1 0x20 ADD SWAP1 DUP2 MSTORE PUSH1 0x20 ADD PUSH1 0x0 KECCAK256 PUSH1 0x1 ADD PUSH1 0x40 MLOAD PUSH1 0x20 ADD PUSH2 0x4C2 SWAP2 SWAP1 PUSH2 0x3E3B JUMP JUMPDEST PUSH1 0x40 MLOAD PUSH1 0x20 DUP2 DUP4 SUB SUB DUP2 MSTORE SWAP1 PUSH1 0x40 MSTORE DUP1 MLOAD SWAP1 PUSH1 0x20 ADD KECCAK256 EQ ISZERO PUSH2 0x519 JUMPI PUSH1 0x40 MLOAD PUSH32 0x8C379A000000000000000000000000000000000000000000000000000000000 DUP2 MSTORE PUSH1 0x4 ADD PUSH2 0x510 SWAP1 PUSH2 0x3F71 JUMP JUMPDEST PUSH1 0x40 MLOAD DUP1 SWAP2 SUB SWAP1 REVERT JUMPDEST PUSH1 0x0 PUSH1 0x2 DUP2 GT ISZERO PUSH2 0x52D JUMPI PUSH2 0x52C PUSH2 0x44DD JUMP JUMPDEST JUMPDEST DUP2 PUSH1 0x2 DUP2 GT ISZERO PUSH2 0x540 JUMPI PUSH2 0x53F PUSH2 0x44DD JUMP JUMPDEST JUMPDEST LT ISZERO DUP1 ISZERO PUSH2 0x572 JUMPI POP PUSH1 0x2 DUP1 DUP2 GT ISZERO PUSH2 0x55C JUMPI PUSH2 0x55B PUSH2 0x44DD JUMP JUMPDEST JUMPDEST DUP2 PUSH1 0x2 DUP2 GT ISZERO PUSH2 0x56F JUMPI PUSH2 0x56E PUSH2 0x44DD JUMP JUMPDEST JUMPDEST GT ISZERO JUMPDEST PUSH2 0x5B1 JUMPI PUSH1 0x40 MLOAD PUSH32 0x8C379A000000000000000000000000000000000000000000000000000000000 DUP2 MSTORE PUSH1 0x4 ADD PUSH2 0x5A8 SWAP1 PUSH2 0x3FF1 JUMP JUMPDEST PUSH1 0x40 MLOAD DUP1 SWAP2 SUB SWAP1 REVERT JUMPDEST PUSH1 0x4 PUSH1 0x0 CALLER PUSH20 0xFFFFFFFFFFFFFFFFFFFFFFFFFFFFFFFFFFFFFFFF AND PUSH20 0xFFFFFFFFFFFFFFFFFFFFFFFFFFFFFFFFFFFFFFFF AND DUP2 MSTORE PUSH1 0x20 ADD SWAP1 DUP2 MSTORE PUSH1 0x20 ADD PUSH1 0x0 KECCAK256 PUSH1 0x4 ADD PUSH1 0x0 ADD PUSH1 0x0 SWAP1 SLOAD SWAP1 PUSH2 0x100 EXP SWAP1 DIV PUSH1 0xFF AND ISZERO PUSH2 0x644 JUMPI PUSH1 0x40 MLOAD PUSH32 0x8C379A000000000000000000000000000000000000000000000000000000000 DUP2 MSTORE PUSH1 0x4 ADD PUSH2 0x63B SWAP1 PUSH2 0x3F91 JUMP JUMPDEST PUSH1 0x40 MLOAD DUP1 SWAP2 SUB SWAP1 REVERT JUMPDEST PUSH1 0x0 PUSH1 0x4 PUSH1 0x0 CALLER PUSH20 0xFFFFFFFFFFFFFFFFFFFFFFFFFFFFFFFFFFFFFFFF AND PUSH20 0xFFFFFFFFFFFFFFFFFFFFFFFFFFFFFFFFFFFFFFFF AND DUP2 MSTORE PUSH1 0x20 ADD SWAP1 DUP2 MSTORE PUSH1 0x20 ADD PUSH1 0x0 KECCAK256 PUSH1 0x2 ADD SLOAD GT PUSH2 0x6C9 JUMPI PUSH1 0x40 MLOAD PUSH32 0x8C379A000000000000000000000000000000000000000000000000000000000 DUP2 MSTORE PUSH1 0x4 ADD PUSH2 0x6C0 SWAP1 PUSH2 0x3F51 JUMP JUMPDEST PUSH1 0x40 MLOAD DUP1 SWAP2 SUB SWAP1 REVERT JUMPDEST PUSH1 0x0 PUSH1 0x4 PUSH1 0x0 CALLER PUSH20 0xFFFFFFFFFFFFFFFFFFFFFFFFFFFFFFFFFFFFFFFF AND PUSH20 0xFFFFFFFFFFFFFFFFFFFFFFFFFFFFFFFFFFFFFFFF AND DUP2 MSTORE PUSH1 0x20 ADD SWAP1 DUP2 MSTORE PUSH1 0x20 ADD PUSH1 0x0 KECCAK256 PUSH1 0x4 ADD PUSH1 0x40 MLOAD DUP1 PUSH1 0xE0 ADD PUSH1 0x40 MSTORE SWAP1 DUP2 PUSH1 0x0 DUP3 ADD PUSH1 0x0 SWAP1 SLOAD SWAP1 PUSH2 0x100 EXP SWAP1 DIV PUSH1 0xFF AND ISZERO ISZERO ISZERO ISZERO DUP2 MSTORE PUSH1 0x20 ADD PUSH1 0x1 DUP3 ADD DUP1 SLOAD PUSH2 0x743 SWAP1 PUSH2 0x4398 JUMP JUMPDEST DUP1 PUSH1 0x1F ADD PUSH1 0x20 DUP1 SWAP2 DIV MUL PUSH1 0x20 ADD PUSH1 0x40 MLOAD SWAP1 DUP2 ADD PUSH1 0x40 MSTORE DUP1 SWAP3 SWAP2 SWAP1 DUP2 DUP2 MSTORE PUSH1 0x20 ADD DUP3 DUP1 SLOAD PUSH2 0x76F SWAP1 PUSH2 0x4398 JUMP JUMPDEST DUP1 ISZERO PUSH2 0x7BC JUMPI DUP1 PUSH1 0x1F LT PUSH2 0x791 JUMPI PUSH2 0x100 DUP1 DUP4 SLOAD DIV MUL DUP4 MSTORE SWAP2 PUSH1 0x20 ADD SWAP2 PUSH2 0x7BC JUMP JUMPDEST DUP3 ADD SWAP2 SWAP1 PUSH1 0x0 MSTORE PUSH1 0x20 PUSH1 0x0 KECCAK256 SWAP1 JUMPDEST DUP2 SLOAD DUP2 MSTORE SWAP1 PUSH1 0x1 ADD SWAP1 PUSH1 0x20 ADD DUP1 DUP4 GT PUSH2 0x79F JUMPI DUP3 SWAP1 SUB PUSH1 0x1F AND DUP3 ADD SWAP2 JUMPDEST POP POP POP POP POP DUP2 MSTORE PUSH1 0x20 ADD PUSH1 0x2 DUP3 ADD DUP1 SLOAD PUSH2 0x7D5 SWAP1 PUSH2 0x4398 JUMP JUMPDEST DUP1 PUSH1 0x1F ADD PUSH1 0x20 DUP1 SWAP2 DIV MUL PUSH1 0x20 ADD PUSH1 0x40 MLOAD SWAP1 DUP2 ADD PUSH1 0x40 MSTORE DUP1 SWAP3 SWAP2 SWAP1 DUP2 DUP2 MSTORE PUSH1 0x20 ADD DUP3 DUP1 SLOAD PUSH2 0x801 SWAP1 PUSH2 0x4398 JUMP JUMPDEST DUP1 ISZERO PUSH2 0x84E JUMPI DUP1 PUSH1 0x1F LT PUSH2 0x823 JUMPI PUSH2 0x100 DUP1 DUP4 SLOAD DIV MUL DUP4 MSTORE SWAP2 PUSH1 0x20 ADD SWAP2 PUSH2 0x84E JUMP JUMPDEST DUP3 ADD SWAP2 SWAP1 PUSH1 0x0 MSTORE PUSH1 0x20 PUSH1 0x0 KECCAK256 SWAP1 JUMPDEST DUP2 SLOAD DUP2 MSTORE SWAP1 PUSH1 0x1 ADD SWAP1 PUSH1 0x20 ADD DUP1 DUP4 GT PUSH2 0x831 JUMPI DUP3 SWAP1 SUB PUSH1 0x1F AND DUP3 ADD SWAP2 JUMPDEST POP POP POP POP POP DUP2 MSTORE PUSH1 0x20 ADD PUSH1 0x3 DUP3 ADD DUP1 SLOAD PUSH2 0x867 SWAP1 PUSH2 0x4398 JUMP JUMPDEST DUP1 PUSH1 0x1F ADD PUSH1 0x20 DUP1 SWAP2 DIV MUL PUSH1 0x20 ADD PUSH1 0x40 MLOAD SWAP1 DUP2 ADD PUSH1 0x40 MSTORE DUP1 SWAP3 SWAP2 SWAP1 DUP2 DUP2 MSTORE PUSH1 0x20 ADD DUP3 DUP1 SLOAD PUSH2 0x893 SWAP1 PUSH2 0x4398 JUMP JUMPDEST DUP1 ISZERO PUSH2 0x8E0 JUMPI DUP1 PUSH1 0x1F LT PUSH2 0x8B5 JUMPI PUSH2 0x100 DUP1 DUP4 SLOAD DIV MUL DUP4 MSTORE SWAP2 PUSH1 0x20 ADD SWAP2 PUSH2 0x8E0 JUMP JUMPDEST DUP3 ADD SWAP2 SWAP1 PUSH1 0x0 MSTORE PUSH1 0x20 PUSH1 0x0 KECCAK256 SWAP1 JUMPDEST DUP2 SLOAD DUP2 MSTORE SWAP1 PUSH1 0x1 ADD SWAP1 PUSH1 0x20 ADD DUP1 DUP4 GT PUSH2 0x8C3 JUMPI DUP3 SWAP1 SUB PUSH1 0x1F AND DUP3 ADD SWAP2 JUMPDEST POP POP POP POP POP DUP2 MSTORE PUSH1 0x20 ADD PUSH1 0x4 DUP3 ADD SLOAD DUP2 MSTORE PUSH1 0x20 ADD PUSH1 0x5 DUP3 ADD SLOAD DUP2 MSTORE PUSH1 0x20 ADD PUSH1 0x6 DUP3 ADD PUSH1 0x0 SWAP1 SLOAD SWAP1 PUSH2 0x100 EXP SWAP1 DIV PUSH1 0xFF AND PUSH1 0x2 DUP2 GT ISZERO PUSH2 0x922 JUMPI PUSH2 0x921 PUSH2 0x44DD JUMP JUMPDEST JUMPDEST PUSH1 0x2 DUP2 GT ISZERO PUSH2 0x934 JUMPI PUSH2 0x933 PUSH2 0x44DD JUMP JUMPDEST JUMPDEST DUP2 MSTORE POP POP SWAP1 POP PUSH1 0x1 PUSH1 0x4 PUSH1 0x0 CALLER PUSH20 0xFFFFFFFFFFFFFFFFFFFFFFFFFFFFFFFFFFFFFFFF AND PUSH20 0xFFFFFFFFFFFFFFFFFFFFFFFFFFFFFFFFFFFFFFFF AND DUP2 MSTORE PUSH1 0x20 ADD SWAP1 DUP2 MSTORE PUSH1 0x20 ADD PUSH1 0x0 KECCAK256 PUSH1 0x2 ADD PUSH1 0x0 DUP3 DUP3 SLOAD PUSH2 0x98D SWAP2 SWAP1 PUSH2 0x428B JUMP JUMPDEST SWAP3 POP POP DUP2 SWAP1 SSTORE POP DUP2 DUP2 PUSH1 0xC0 ADD SWAP1 PUSH1 0x2 DUP2 GT ISZERO PUSH2 0x9AC JUMPI PUSH2 0x9AB PUSH2 0x44DD JUMP JUMPDEST JUMPDEST SWAP1 DUP2 PUSH1 0x2 DUP2 GT ISZERO PUSH2 0x9C0 JUMPI PUSH2 0x9BF PUSH2 0x44DD JUMP JUMPDEST JUMPDEST DUP2 MSTORE POP POP PUSH1 0x1 DUP2 PUSH1 0x0 ADD SWAP1 ISZERO ISZERO SWAP1 DUP2 ISZERO ISZERO DUP2 MSTORE POP POP PUSH1 0x0 PUSH1 0x2 DUP2 GT ISZERO PUSH2 0x9E9 JUMPI PUSH2 0x9E8 PUSH2 0x44DD JUMP JUMPDEST JUMPDEST DUP3 PUSH1 0x2 DUP2 GT ISZERO PUSH2 0x9FC JUMPI PUSH2 0x9FB PUSH2 0x44DD JUMP JUMPDEST JUMPDEST EQ ISZERO PUSH2 0xA12 JUMPI PUSH1 0x5 DUP2 PUSH1 0xA0 ADD DUP2 DUP2 MSTORE POP POP PUSH2 0xA5C JUMP JUMPDEST PUSH1 0x1 PUSH1 0x2 DUP2 GT ISZERO PUSH2 0xA26 JUMPI PUSH2 0xA25 PUSH2 0x44DD JUMP JUMPDEST JUMPDEST DUP3 PUSH1 0x2 DUP2 GT ISZERO PUSH2 0xA39 JUMPI PUSH2 0xA38 PUSH2 0x44DD JUMP JUMPDEST JUMPDEST EQ ISZERO PUSH2 0xA4F JUMPI PUSH1 0x3 DUP2 PUSH1 0xA0 ADD DUP2 DUP2 MSTORE POP POP PUSH2 0xA5B JUMP JUMPDEST PUSH1 0x1 DUP2 PUSH1 0xA0 ADD DUP2 DUP2 MSTORE POP POP JUMPDEST JUMPDEST PUSH20 0x0 PUSH4 0xF5684183 PUSH1 0x40 MLOAD DUP2 PUSH4 0xFFFFFFFF AND PUSH1 0xE0 SHL DUP2 MSTORE PUSH1 0x4 ADD PUSH1 0x0 PUSH1 0x40 MLOAD DUP1 DUP4 SUB DUP2 DUP7 DUP1 EXTCODESIZE ISZERO DUP1 ISZERO PUSH2 0xAA0 JUMPI PUSH1 0x0 DUP1 REVERT JUMPDEST POP GAS DELEGATECALL ISZERO DUP1 ISZERO PUSH2 0xAB4 JUMPI RETURNDATASIZE PUSH1 0x0 DUP1 RETURNDATACOPY RETURNDATASIZE PUSH1 0x0 REVERT JUMPDEST POP POP POP POP PUSH1 0x40 MLOAD RETURNDATASIZE PUSH1 0x0 DUP3 RETURNDATACOPY RETURNDATASIZE PUSH1 0x1F NOT PUSH1 0x1F DUP3 ADD AND DUP3 ADD DUP1 PUSH1 0x40 MSTORE POP DUP2 ADD SWAP1 PUSH2 0xADD SWAP2 SWAP1 PUSH2 0x362D JUMP JUMPDEST DUP2 PUSH1 0x20 ADD DUP2 SWAP1 MSTORE POP DUP1 PUSH1 0x20 ADD MLOAD MLOAD DUP2 PUSH1 0x80 ADD DUP2 DUP2 MSTORE POP POP PUSH2 0xB02 DUP2 PUSH1 0x20 ADD MLOAD MLOAD PUSH2 0x2341 JUMP JUMPDEST DUP2 PUSH1 0x40 ADD DUP2 SWAP1 MSTORE POP PUSH1 0x0 JUMPDEST DUP2 PUSH1 0x80 ADD MLOAD DUP2 LT ISZERO PUSH2 0xB58 JUMPI DUP2 PUSH1 0x40 ADD MLOAD PUSH1 0x40 MLOAD PUSH1 0x20 ADD PUSH2 0xB2E SWAP2 SWAP1 PUSH2 0x3E02 JUMP JUMPDEST PUSH1 0x40 MLOAD PUSH1 0x20 DUP2 DUP4 SUB SUB DUP2 MSTORE SWAP1 PUSH1 0x40 MSTORE DUP3 PUSH1 0x40 ADD DUP2 SWAP1 MSTORE POP DUP1 DUP1 PUSH2 0xB50 SWAP1 PUSH2 0x43FB JUMP JUMPDEST SWAP2 POP POP PUSH2 0xB0D JUMP JUMPDEST POP DUP1 PUSH1 0x4 PUSH1 0x0 CALLER PUSH20 0xFFFFFFFFFFFFFFFFFFFFFFFFFFFFFFFFFFFFFFFF AND PUSH20 0xFFFFFFFFFFFFFFFFFFFFFFFFFFFFFFFFFFFFFFFF AND DUP2 MSTORE PUSH1 0x20 ADD SWAP1 DUP2 MSTORE PUSH1 0x20 ADD PUSH1 0x0 KECCAK256 PUSH1 0x4 ADD PUSH1 0x0 DUP3 ADD MLOAD DUP2 PUSH1 0x0 ADD PUSH1 0x0 PUSH2 0x100 EXP DUP2 SLOAD DUP2 PUSH1 0xFF MUL NOT AND SWAP1 DUP4 ISZERO ISZERO MUL OR SWAP1 SSTORE POP PUSH1 0x20 DUP3 ADD MLOAD DUP2 PUSH1 0x1 ADD SWAP1 DUP1 MLOAD SWAP1 PUSH1 0x20 ADD SWAP1 PUSH2 0xBD8 SWAP3 SWAP2 SWAP1 PUSH2 0x3336 JUMP JUMPDEST POP PUSH1 0x40 DUP3 ADD MLOAD DUP2 PUSH1 0x2 ADD SWAP1 DUP1 MLOAD SWAP1 PUSH1 0x20 ADD SWAP1 PUSH2 0xBF5 SWAP3 SWAP2 SWAP1 PUSH2 0x3336 JUMP JUMPDEST POP PUSH1 0x60 DUP3 ADD MLOAD DUP2 PUSH1 0x3 ADD SWAP1 DUP1 MLOAD SWAP1 PUSH1 0x20 ADD SWAP1 PUSH2 0xC12 SWAP3 SWAP2 SWAP1 PUSH2 0x3336 JUMP JUMPDEST POP PUSH1 0x80 DUP3 ADD MLOAD DUP2 PUSH1 0x4 ADD SSTORE PUSH1 0xA0 DUP3 ADD MLOAD DUP2 PUSH1 0x5 ADD SSTORE PUSH1 0xC0 DUP3 ADD MLOAD DUP2 PUSH1 0x6 ADD PUSH1 0x0 PUSH2 0x100 EXP DUP2 SLOAD DUP2 PUSH1 0xFF MUL NOT AND SWAP1 DUP4 PUSH1 0x2 DUP2 GT ISZERO PUSH2 0xC52 JUMPI PUSH2 0xC51 PUSH2 0x44DD JUMP JUMPDEST JUMPDEST MUL OR SWAP1 SSTORE POP SWAP1 POP POP POP POP JUMP JUMPDEST PUSH1 0x60 PUSH1 0x4 PUSH1 0x0 CALLER PUSH20 0xFFFFFFFFFFFFFFFFFFFFFFFFFFFFFFFFFFFFFFFF AND PUSH20 0xFFFFFFFFFFFFFFFFFFFFFFFFFFFFFFFFFFFFFFFF AND DUP2 MSTORE PUSH1 0x20 ADD SWAP1 DUP2 MSTORE PUSH1 0x20 ADD PUSH1 0x0 KECCAK256 PUSH1 0x4 ADD PUSH1 0x0 ADD PUSH1 0x0 SWAP1 SLOAD SWAP1 PUSH2 0x100 EXP SWAP1 DIV PUSH1 0xFF AND PUSH2 0xCF2 JUMPI PUSH1 0x40 MLOAD PUSH32 0x8C379A000000000000000000000000000000000000000000000000000000000 DUP2 MSTORE PUSH1 0x4 ADD PUSH2 0xCE9 SWAP1 PUSH2 0x4011 JUMP JUMPDEST PUSH1 0x40 MLOAD DUP1 SWAP2 SUB SWAP1 REVERT JUMPDEST PUSH32 0xC5D2460186F7233C927E7DB2DCC703C0E500B653CA82273B7BFAD8045D85A470 PUSH1 0x4 PUSH1 0x0 CALLER PUSH20 0xFFFFFFFFFFFFFFFFFFFFFFFFFFFFFFFFFFFFFFFF AND PUSH20 0xFFFFFFFFFFFFFFFFFFFFFFFFFFFFFFFFFFFFFFFF AND DUP2 MSTORE PUSH1 0x20 ADD SWAP1 DUP2 MSTORE PUSH1 0x20 ADD PUSH1 0x0 KECCAK256 PUSH1 0x1 ADD PUSH1 0x40 MLOAD PUSH1 0x20 ADD PUSH2 0xD65 SWAP2 SWAP1 PUSH2 0x3E3B JUMP JUMPDEST PUSH1 0x40 MLOAD PUSH1 0x20 DUP2 DUP4 SUB SUB DUP2 MSTORE SWAP1 PUSH1 0x40 MSTORE DUP1 MLOAD SWAP1 PUSH1 0x20 ADD KECCAK256 EQ ISZERO PUSH2 0xDBC JUMPI PUSH1 0x40 MLOAD PUSH32 0x8C379A000000000000000000000000000000000000000000000000000000000 DUP2 MSTORE PUSH1 0x4 ADD PUSH2 0xDB3 SWAP1 PUSH2 0x3F71 JUMP JUMPDEST PUSH1 0x40 MLOAD DUP1 SWAP2 SUB SWAP1 REVERT JUMPDEST PUSH1 0x4 PUSH1 0x0 CALLER PUSH20 0xFFFFFFFFFFFFFFFFFFFFFFFFFFFFFFFFFFFFFFFF AND PUSH20 0xFFFFFFFFFFFFFFFFFFFFFFFFFFFFFFFFFFFFFFFF AND DUP2 MSTORE PUSH1 0x20 ADD SWAP1 DUP2 MSTORE PUSH1 0x20 ADD PUSH1 0x0 KECCAK256 PUSH1 0x4 ADD PUSH1 0x2 ADD PUSH1 0x40 MLOAD PUSH1 0x20 ADD PUSH2 0xE11 SWAP2 SWAP1 PUSH2 0x3F0D JUMP JUMPDEST PUSH1 0x40 MLOAD PUSH1 0x20 DUP2 DUP4 SUB SUB DUP2 MSTORE SWAP1 PUSH1 0x40 MSTORE SWAP1 POP SWAP1 JUMP JUMPDEST PUSH1 0x0 PUSH1 0x4 PUSH1 0x0 CALLER PUSH20 0xFFFFFFFFFFFFFFFFFFFFFFFFFFFFFFFFFFFFFFFF AND PUSH20 0xFFFFFFFFFFFFFFFFFFFFFFFFFFFFFFFFFFFFFFFF AND DUP2 MSTORE PUSH1 0x20 ADD SWAP1 DUP2 MSTORE PUSH1 0x20 ADD PUSH1 0x0 KECCAK256 PUSH1 0x4 ADD PUSH1 0x0 ADD PUSH1 0x0 SWAP1 SLOAD SWAP1 PUSH2 0x100 EXP SWAP1 DIV PUSH1 0xFF AND PUSH2 0xEB9 JUMPI PUSH1 0x40 MLOAD PUSH32 0x8C379A000000000000000000000000000000000000000000000000000000000 DUP2 MSTORE PUSH1 0x4 ADD PUSH2 0xEB0 SWAP1 PUSH2 0x4011 JUMP JUMPDEST PUSH1 0x40 MLOAD DUP1 SWAP2 SUB SWAP1 REVERT JUMPDEST PUSH1 0x4 PUSH1 0x0 CALLER PUSH20 0xFFFFFFFFFFFFFFFFFFFFFFFFFFFFFFFFFFFFFFFF AND PUSH20 0xFFFFFFFFFFFFFFFFFFFFFFFFFFFFFFFFFFFFFFFF AND DUP2 MSTORE PUSH1 0x20 ADD SWAP1 DUP2 MSTORE PUSH1 0x20 ADD PUSH1 0x0 KECCAK256 PUSH1 0x4 ADD PUSH1 0x5 ADD SLOAD SWAP1 POP SWAP1 JUMP JUMPDEST PUSH1 0x60 PUSH1 0x0 PUSH2 0xF27 PUSH1 0x1 PUSH1 0x0 PUSH1 0x3 DUP2 LT PUSH2 0xF20 JUMPI PUSH2 0xF1F PUSH2 0x453B JUMP JUMPDEST JUMPDEST ADD SLOAD PUSH2 0x241F JUMP JUMPDEST PUSH2 0xF45 PUSH1 0x1 DUP1 PUSH1 0x3 DUP2 LT PUSH2 0xF3E JUMPI PUSH2 0xF3D PUSH2 0x453B JUMP JUMPDEST JUMPDEST ADD SLOAD PUSH2 0x241F JUMP JUMPDEST PUSH2 0xF64 PUSH1 0x1 PUSH1 0x2 PUSH1 0x3 DUP2 LT PUSH2 0xF5D JUMPI PUSH2 0xF5C PUSH2 0x453B JUMP JUMPDEST JUMPDEST ADD SLOAD PUSH2 0x241F JUMP JUMPDEST PUSH1 0x40 MLOAD PUSH1 0x20 ADD PUSH2 0xF76 SWAP4 SWAP3 SWAP2 SWAP1 PUSH2 0x3E52 JUMP JUMPDEST PUSH1 0x40 MLOAD PUSH1 0x20 DUP2 DUP4 SUB SUB DUP2 MSTORE SWAP1 PUSH1 0x40 MSTORE SWAP1 POP DUP1 SWAP2 POP POP SWAP1 JUMP JUMPDEST PUSH1 0x60 PUSH32 0xC5D2460186F7233C927E7DB2DCC703C0E500B653CA82273B7BFAD8045D85A470 PUSH1 0x4 PUSH1 0x0 CALLER PUSH20 0xFFFFFFFFFFFFFFFFFFFFFFFFFFFFFFFFFFFFFFFF AND PUSH20 0xFFFFFFFFFFFFFFFFFFFFFFFFFFFFFFFFFFFFFFFF AND DUP2 MSTORE PUSH1 0x20 ADD SWAP1 DUP2 MSTORE PUSH1 0x20 ADD PUSH1 0x0 KECCAK256 PUSH1 0x1 ADD PUSH1 0x40 MLOAD PUSH1 0x20 ADD PUSH2 0x1003 SWAP2 SWAP1 PUSH2 0x3E3B JUMP JUMPDEST PUSH1 0x40 MLOAD PUSH1 0x20 DUP2 DUP4 SUB SUB DUP2 MSTORE SWAP1 PUSH1 0x40 MSTORE DUP1 MLOAD SWAP1 PUSH1 0x20 ADD KECCAK256 EQ ISZERO PUSH2 0x105A JUMPI PUSH1 0x40 MLOAD PUSH32 0x8C379A000000000000000000000000000000000000000000000000000000000 DUP2 MSTORE PUSH1 0x4 ADD PUSH2 0x1051 SWAP1 PUSH2 0x3F71 JUMP JUMPDEST PUSH1 0x40 MLOAD DUP1 SWAP2 SUB SWAP1 REVERT JUMPDEST PUSH1 0x4 PUSH1 0x0 CALLER PUSH20 0xFFFFFFFFFFFFFFFFFFFFFFFFFFFFFFFFFFFFFFFF AND PUSH20 0xFFFFFFFFFFFFFFFFFFFFFFFFFFFFFFFFFFFFFFFF AND DUP2 MSTORE PUSH1 0x20 ADD SWAP1 DUP2 MSTORE PUSH1 0x20 ADD PUSH1 0x0 KECCAK256 PUSH1 0x4 ADD PUSH1 0x0 ADD PUSH1 0x0 SWAP1 SLOAD SWAP1 PUSH2 0x100 EXP SWAP1 DIV PUSH1 0xFF AND PUSH2 0x10EC JUMPI PUSH1 0x40 MLOAD PUSH32 0x8C379A000000000000000000000000000000000000000000000000000000000 DUP2 MSTORE PUSH1 0x4 ADD PUSH2 0x10E3 SWAP1 PUSH2 0x3FB1 JUMP JUMPDEST PUSH1 0x40 MLOAD DUP1 SWAP2 SUB SWAP1 REVERT JUMPDEST PUSH2 0x10F5 DUP3 PUSH2 0x25A8 JUMP JUMPDEST ISZERO PUSH2 0x1135 JUMPI PUSH1 0x40 MLOAD PUSH32 0x8C379A000000000000000000000000000000000000000000000000000000000 DUP2 MSTORE PUSH1 0x4 ADD PUSH2 0x112C SWAP1 PUSH2 0x3FD1 JUMP JUMPDEST PUSH1 0x40 MLOAD DUP1 SWAP2 SUB SWAP1 REVERT JUMPDEST PUSH1 0x0 PUSH1 0x4 PUSH1 0x0 CALLER PUSH20 0xFFFFFFFFFFFFFFFFFFFFFFFFFFFFFFFFFFFFFFFF AND PUSH20 0xFFFFFFFFFFFFFFFFFFFFFFFFFFFFFFFFFFFFFFFF AND DUP2 MSTORE PUSH1 0x20 ADD SWAP1 DUP2 MSTORE PUSH1 0x20 ADD PUSH1 0x0 KECCAK256 PUSH1 0x4 ADD PUSH1 0x40 MLOAD DUP1 PUSH1 0xE0 ADD PUSH1 0x40 MSTORE SWAP1 DUP2 PUSH1 0x0 DUP3 ADD PUSH1 0x0 SWAP1 SLOAD SWAP1 PUSH2 0x100 EXP SWAP1 DIV PUSH1 0xFF AND ISZERO ISZERO ISZERO ISZERO DUP2 MSTORE PUSH1 0x20 ADD PUSH1 0x1 DUP3 ADD DUP1 SLOAD PUSH2 0x11AF SWAP1 PUSH2 0x4398 JUMP JUMPDEST DUP1 PUSH1 0x1F ADD PUSH1 0x20 DUP1 SWAP2 DIV MUL PUSH1 0x20 ADD PUSH1 0x40 MLOAD SWAP1 DUP2 ADD PUSH1 0x40 MSTORE DUP1 SWAP3 SWAP2 SWAP1 DUP2 DUP2 MSTORE PUSH1 0x20 ADD DUP3 DUP1 SLOAD PUSH2 0x11DB SWAP1 PUSH2 0x4398 JUMP JUMPDEST DUP1 ISZERO PUSH2 0x1228 JUMPI DUP1 PUSH1 0x1F LT PUSH2 0x11FD JUMPI PUSH2 0x100 DUP1 DUP4 SLOAD DIV MUL DUP4 MSTORE SWAP2 PUSH1 0x20 ADD SWAP2 PUSH2 0x1228 JUMP JUMPDEST DUP3 ADD SWAP2 SWAP1 PUSH1 0x0 MSTORE PUSH1 0x20 PUSH1 0x0 KECCAK256 SWAP1 JUMPDEST DUP2 SLOAD DUP2 MSTORE SWAP1 PUSH1 0x1 ADD SWAP1 PUSH1 0x20 ADD DUP1 DUP4 GT PUSH2 0x120B JUMPI DUP3 SWAP1 SUB PUSH1 0x1F AND DUP3 ADD SWAP2 JUMPDEST POP POP POP POP POP DUP2 MSTORE PUSH1 0x20 ADD PUSH1 0x2 DUP3 ADD DUP1 SLOAD PUSH2 0x1241 SWAP1 PUSH2 0x4398 JUMP JUMPDEST DUP1 PUSH1 0x1F ADD PUSH1 0x20 DUP1 SWAP2 DIV MUL PUSH1 0x20 ADD PUSH1 0x40 MLOAD SWAP1 DUP2 ADD PUSH1 0x40 MSTORE DUP1 SWAP3 SWAP2 SWAP1 DUP2 DUP2 MSTORE PUSH1 0x20 ADD DUP3 DUP1 SLOAD PUSH2 0x126D SWAP1 PUSH2 0x4398 JUMP JUMPDEST DUP1 ISZERO PUSH2 0x12BA JUMPI DUP1 PUSH1 0x1F LT PUSH2 0x128F JUMPI PUSH2 0x100 DUP1 DUP4 SLOAD DIV MUL DUP4 MSTORE SWAP2 PUSH1 0x20 ADD SWAP2 PUSH2 0x12BA JUMP JUMPDEST DUP3 ADD SWAP2 SWAP1 PUSH1 0x0 MSTORE PUSH1 0x20 PUSH1 0x0 KECCAK256 SWAP1 JUMPDEST DUP2 SLOAD DUP2 MSTORE SWAP1 PUSH1 0x1 ADD SWAP1 PUSH1 0x20 ADD DUP1 DUP4 GT PUSH2 0x129D JUMPI DUP3 SWAP1 SUB PUSH1 0x1F AND DUP3 ADD SWAP2 JUMPDEST POP POP POP POP POP DUP2 MSTORE PUSH1 0x20 ADD PUSH1 0x3 DUP3 ADD DUP1 SLOAD PUSH2 0x12D3 SWAP1 PUSH2 0x4398 JUMP JUMPDEST DUP1 PUSH1 0x1F ADD PUSH1 0x20 DUP1 SWAP2 DIV MUL PUSH1 0x20 ADD PUSH1 0x40 MLOAD SWAP1 DUP2 ADD PUSH1 0x40 MSTORE DUP1 SWAP3 SWAP2 SWAP1 DUP2 DUP2 MSTORE PUSH1 0x20 ADD DUP3 DUP1 SLOAD PUSH2 0x12FF SWAP1 PUSH2 0x4398 JUMP JUMPDEST DUP1 ISZERO PUSH2 0x134C JUMPI DUP1 PUSH1 0x1F LT PUSH2 0x1321 JUMPI PUSH2 0x100 DUP1 DUP4 SLOAD DIV MUL DUP4 MSTORE SWAP2 PUSH1 0x20 ADD SWAP2 PUSH2 0x134C JUMP JUMPDEST DUP3 ADD SWAP2 SWAP1 PUSH1 0x0 MSTORE PUSH1 0x20 PUSH1 0x0 KECCAK256 SWAP1 JUMPDEST DUP2 SLOAD DUP2 MSTORE SWAP1 PUSH1 0x1 ADD SWAP1 PUSH1 0x20 ADD DUP1 DUP4 GT PUSH2 0x132F JUMPI DUP3 SWAP1 SUB PUSH1 0x1F AND DUP3 ADD SWAP2 JUMPDEST POP POP POP POP POP DUP2 MSTORE PUSH1 0x20 ADD PUSH1 0x4 DUP3 ADD SLOAD DUP2 MSTORE PUSH1 0x20 ADD PUSH1 0x5 DUP3 ADD SLOAD DUP2 MSTORE PUSH1 0x20 ADD PUSH1 0x6 DUP3 ADD PUSH1 0x0 SWAP1 SLOAD SWAP1 PUSH2 0x100 EXP SWAP1 DIV PUSH1 0xFF AND PUSH1 0x2 DUP2 GT ISZERO PUSH2 0x138E JUMPI PUSH2 0x138D PUSH2 0x44DD JUMP JUMPDEST JUMPDEST PUSH1 0x2 DUP2 GT ISZERO PUSH2 0x13A0 JUMPI PUSH2 0x139F PUSH2 0x44DD JUMP JUMPDEST JUMPDEST DUP2 MSTORE POP POP SWAP1 POP PUSH1 0x0 DUP1 JUMPDEST DUP3 PUSH1 0x80 ADD MLOAD DUP2 LT ISZERO PUSH2 0x1482 JUMPI DUP3 PUSH1 0x20 ADD MLOAD DUP2 DUP2 MLOAD DUP2 LT PUSH2 0x13CD JUMPI PUSH2 0x13CC PUSH2 0x453B JUMP JUMPDEST JUMPDEST PUSH1 0x20 ADD ADD MLOAD PUSH1 0xF8 SHR PUSH1 0xF8 SHL PUSH31 0xFFFFFFFFFFFFFFFFFFFFFFFFFFFFFFFFFFFFFFFFFFFFFFFFFFFFFFFFFFFFFF NOT AND DUP6 PUSH31 0xFFFFFFFFFFFFFFFFFFFFFFFFFFFFFFFFFFFFFFFFFFFFFFFFFFFFFFFFFFFFFF NOT AND EQ ISZERO PUSH2 0x146F JUMPI DUP5 DUP4 PUSH1 0x40 ADD MLOAD DUP3 DUP2 MLOAD DUP2 LT PUSH2 0x143B JUMPI PUSH2 0x143A PUSH2 0x453B JUMP JUMPDEST JUMPDEST PUSH1 0x20 ADD ADD SWAP1 PUSH31 0xFFFFFFFFFFFFFFFFFFFFFFFFFFFFFFFFFFFFFFFFFFFFFFFFFFFFFFFFFFFFFF NOT AND SWAP1 DUP2 PUSH1 0x0 BYTE SWAP1 MSTORE8 POP PUSH1 0x1 SWAP2 POP JUMPDEST DUP1 DUP1 PUSH2 0x147A SWAP1 PUSH2 0x43FB JUMP JUMPDEST SWAP2 POP POP PUSH2 0x13AA JUMP JUMPDEST POP DUP1 PUSH2 0x14A3 JUMPI PUSH1 0x1 DUP3 PUSH1 0xA0 ADD DUP2 DUP2 MLOAD PUSH2 0x149B SWAP2 SWAP1 PUSH2 0x428B JUMP JUMPDEST SWAP2 POP DUP2 DUP2 MSTORE POP POP JUMPDEST DUP2 PUSH1 0x4 PUSH1 0x0 CALLER PUSH20 0xFFFFFFFFFFFFFFFFFFFFFFFFFFFFFFFFFFFFFFFF AND PUSH20 0xFFFFFFFFFFFFFFFFFFFFFFFFFFFFFFFFFFFFFFFF AND DUP2 MSTORE PUSH1 0x20 ADD SWAP1 DUP2 MSTORE PUSH1 0x20 ADD PUSH1 0x0 KECCAK256 PUSH1 0x4 ADD PUSH1 0x0 DUP3 ADD MLOAD DUP2 PUSH1 0x0 ADD PUSH1 0x0 PUSH2 0x100 EXP DUP2 SLOAD DUP2 PUSH1 0xFF MUL NOT AND SWAP1 DUP4 ISZERO ISZERO MUL OR SWAP1 SSTORE POP PUSH1 0x20 DUP3 ADD MLOAD DUP2 PUSH1 0x1 ADD SWAP1 DUP1 MLOAD SWAP1 PUSH1 0x20 ADD SWAP1 PUSH2 0x1522 SWAP3 SWAP2 SWAP1 PUSH2 0x3336 JUMP JUMPDEST POP PUSH1 0x40 DUP3 ADD MLOAD DUP2 PUSH1 0x2 ADD SWAP1 DUP1 MLOAD SWAP1 PUSH1 0x20 ADD SWAP1 PUSH2 0x153F SWAP3 SWAP2 SWAP1 PUSH2 0x3336 JUMP JUMPDEST POP PUSH1 0x60 DUP3 ADD MLOAD DUP2 PUSH1 0x3 ADD SWAP1 DUP1 MLOAD SWAP1 PUSH1 0x20 ADD SWAP1 PUSH2 0x155C SWAP3 SWAP2 SWAP1 PUSH2 0x3336 JUMP JUMPDEST POP PUSH1 0x80 DUP3 ADD MLOAD DUP2 PUSH1 0x4 ADD SSTORE PUSH1 0xA0 DUP3 ADD MLOAD DUP2 PUSH1 0x5 ADD SSTORE PUSH1 0xC0 DUP3 ADD MLOAD DUP2 PUSH1 0x6 ADD PUSH1 0x0 PUSH2 0x100 EXP DUP2 SLOAD DUP2 PUSH1 0xFF MUL NOT AND SWAP1 DUP4 PUSH1 0x2 DUP2 GT ISZERO PUSH2 0x159C JUMPI PUSH2 0x159B PUSH2 0x44DD JUMP JUMPDEST JUMPDEST MUL OR SWAP1 SSTORE POP SWAP1 POP POP PUSH1 0x0 PUSH1 0x40 MLOAD DUP1 PUSH1 0x20 ADD PUSH1 0x40 MSTORE DUP1 PUSH1 0x0 DUP2 MSTORE POP SWAP1 POP PUSH1 0x0 DUP4 PUSH1 0xA0 ADD MLOAD EQ ISZERO PUSH2 0x15D6 JUMPI PUSH2 0x15CF PUSH1 0x0 PUSH2 0x2721 JUMP JUMPDEST SWAP1 POP PUSH2 0x1672 JUMP JUMPDEST PUSH2 0x15DE PUSH2 0x302A JUMP JUMPDEST ISZERO PUSH2 0x15F4 JUMPI PUSH2 0x15ED PUSH1 0x1 PUSH2 0x2721 JUMP JUMPDEST SWAP1 POP PUSH2 0x1671 JUMP JUMPDEST DUP2 ISZERO PUSH2 0x1637 JUMPI PUSH1 0x40 MLOAD DUP1 PUSH1 0x40 ADD PUSH1 0x40 MSTORE DUP1 PUSH1 0x13 DUP2 MSTORE PUSH1 0x20 ADD PUSH32 0x546865206C6574746572206F6363757265642E00000000000000000000000000 DUP2 MSTORE POP SWAP1 POP PUSH2 0x1670 JUMP JUMPDEST PUSH1 0x40 MLOAD DUP1 PUSH1 0x40 ADD PUSH1 0x40 MSTORE DUP1 PUSH1 0x18 DUP2 MSTORE PUSH1 0x20 ADD PUSH32 0x546865206C657474657220646964206E6F74206F636375720000000000000000 DUP2 MSTORE POP SWAP1 POP JUMPDEST JUMPDEST JUMPDEST DUP1 SWAP4 POP POP POP POP SWAP2 SWAP1 POP JUMP JUMPDEST PUSH1 0x60 PUSH32 0xC5D2460186F7233C927E7DB2DCC703C0E500B653CA82273B7BFAD8045D85A470 PUSH1 0x4 PUSH1 0x0 CALLER PUSH20 0xFFFFFFFFFFFFFFFFFFFFFFFFFFFFFFFFFFFFFFFF AND PUSH20 0xFFFFFFFFFFFFFFFFFFFFFFFFFFFFFFFFFFFFFFFF AND DUP2 MSTORE PUSH1 0x20 ADD SWAP1 DUP2 MSTORE PUSH1 0x20 ADD PUSH1 0x0 KECCAK256 PUSH1 0x1 ADD PUSH1 0x40 MLOAD PUSH1 0x20 ADD PUSH2 0x16F2 SWAP2 SWAP1 PUSH2 0x3E3B JUMP JUMPDEST PUSH1 0x40 MLOAD PUSH1 0x20 DUP2 DUP4 SUB SUB DUP2 MSTORE SWAP1 PUSH1 0x40 MSTORE DUP1 MLOAD SWAP1 PUSH1 0x20 ADD KECCAK256 EQ ISZERO PUSH2 0x1749 JUMPI PUSH1 0x40 MLOAD PUSH32 0x8C379A000000000000000000000000000000000000000000000000000000000 DUP2 MSTORE PUSH1 0x4 ADD PUSH2 0x1740 SWAP1 PUSH2 0x3F71 JUMP JUMPDEST PUSH1 0x40 MLOAD DUP1 SWAP2 SUB SWAP1 REVERT JUMPDEST PUSH1 0x0 PUSH1 0x4 PUSH1 0x0 CALLER PUSH20 0xFFFFFFFFFFFFFFFFFFFFFFFFFFFFFFFFFFFFFFFF AND PUSH20 0xFFFFFFFFFFFFFFFFFFFFFFFFFFFFFFFFFFFFFFFF AND DUP2 MSTORE PUSH1 0x20 ADD SWAP1 DUP2 MSTORE PUSH1 0x20 ADD PUSH1 0x0 KECCAK256 PUSH1 0x4 ADD PUSH1 0x40 MLOAD DUP1 PUSH1 0xE0 ADD PUSH1 0x40 MSTORE SWAP1 DUP2 PUSH1 0x0 DUP3 ADD PUSH1 0x0 SWAP1 SLOAD SWAP1 PUSH2 0x100 EXP SWAP1 DIV PUSH1 0xFF AND ISZERO ISZERO ISZERO ISZERO DUP2 MSTORE PUSH1 0x20 ADD PUSH1 0x1 DUP3 ADD DUP1 SLOAD PUSH2 0x17C3 SWAP1 PUSH2 0x4398 JUMP JUMPDEST DUP1 PUSH1 0x1F ADD PUSH1 0x20 DUP1 SWAP2 DIV MUL PUSH1 0x20 ADD PUSH1 0x40 MLOAD SWAP1 DUP2 ADD PUSH1 0x40 MSTORE DUP1 SWAP3 SWAP2 SWAP1 DUP2 DUP2 MSTORE PUSH1 0x20 ADD DUP3 DUP1 SLOAD PUSH2 0x17EF SWAP1 PUSH2 0x4398 JUMP JUMPDEST DUP1 ISZERO PUSH2 0x183C JUMPI DUP1 PUSH1 0x1F LT PUSH2 0x1811 JUMPI PUSH2 0x100 DUP1 DUP4 SLOAD DIV MUL DUP4 MSTORE SWAP2 PUSH1 0x20 ADD SWAP2 PUSH2 0x183C JUMP JUMPDEST DUP3 ADD SWAP2 SWAP1 PUSH1 0x0 MSTORE PUSH1 0x20 PUSH1 0x0 KECCAK256 SWAP1 JUMPDEST DUP2 SLOAD DUP2 MSTORE SWAP1 PUSH1 0x1 ADD SWAP1 PUSH1 0x20 ADD DUP1 DUP4 GT PUSH2 0x181F JUMPI DUP3 SWAP1 SUB PUSH1 0x1F AND DUP3 ADD SWAP2 JUMPDEST POP POP POP POP POP DUP2 MSTORE PUSH1 0x20 ADD PUSH1 0x2 DUP3 ADD DUP1 SLOAD PUSH2 0x1855 SWAP1 PUSH2 0x4398 JUMP JUMPDEST DUP1 PUSH1 0x1F ADD PUSH1 0x20 DUP1 SWAP2 DIV MUL PUSH1 0x20 ADD PUSH1 0x40 MLOAD SWAP1 DUP2 ADD PUSH1 0x40 MSTORE DUP1 SWAP3 SWAP2 SWAP1 DUP2 DUP2 MSTORE PUSH1 0x20 ADD DUP3 DUP1 SLOAD PUSH2 0x1881 SWAP1 PUSH2 0x4398 JUMP JUMPDEST DUP1 ISZERO PUSH2 0x18CE JUMPI DUP1 PUSH1 0x1F LT PUSH2 0x18A3 JUMPI PUSH2 0x100 DUP1 DUP4 SLOAD DIV MUL DUP4 MSTORE SWAP2 PUSH1 0x20 ADD SWAP2 PUSH2 0x18CE JUMP JUMPDEST DUP3 ADD SWAP2 SWAP1 PUSH1 0x0 MSTORE PUSH1 0x20 PUSH1 0x0 KECCAK256 SWAP1 JUMPDEST DUP2 SLOAD DUP2 MSTORE SWAP1 PUSH1 0x1 ADD SWAP1 PUSH1 0x20 ADD DUP1 DUP4 GT PUSH2 0x18B1 JUMPI DUP3 SWAP1 SUB PUSH1 0x1F AND DUP3 ADD SWAP2 JUMPDEST POP POP POP POP POP DUP2 MSTORE PUSH1 0x20 ADD PUSH1 0x3 DUP3 ADD DUP1 SLOAD PUSH2 0x18E7 SWAP1 PUSH2 0x4398 JUMP JUMPDEST DUP1 PUSH1 0x1F ADD PUSH1 0x20 DUP1 SWAP2 DIV MUL PUSH1 0x20 ADD PUSH1 0x40 MLOAD SWAP1 DUP2 ADD PUSH1 0x40 MSTORE DUP1 SWAP3 SWAP2 SWAP1 DUP2 DUP2 MSTORE PUSH1 0x20 ADD DUP3 DUP1 SLOAD PUSH2 0x1913 SWAP1 PUSH2 0x4398 JUMP JUMPDEST DUP1 ISZERO PUSH2 0x1960 JUMPI DUP1 PUSH1 0x1F LT PUSH2 0x1935 JUMPI PUSH2 0x100 DUP1 DUP4 SLOAD DIV MUL DUP4 MSTORE SWAP2 PUSH1 0x20 ADD SWAP2 PUSH2 0x1960 JUMP JUMPDEST DUP3 ADD SWAP2 SWAP1 PUSH1 0x0 MSTORE PUSH1 0x20 PUSH1 0x0 KECCAK256 SWAP1 JUMPDEST DUP2 SLOAD DUP2 MSTORE SWAP1 PUSH1 0x1 ADD SWAP1 PUSH1 0x20 ADD DUP1 DUP4 GT PUSH2 0x1943 JUMPI DUP3 SWAP1 SUB PUSH1 0x1F AND DUP3 ADD SWAP2 JUMPDEST POP POP POP POP POP DUP2 MSTORE PUSH1 0x20 ADD PUSH1 0x4 DUP3 ADD SLOAD DUP2 MSTORE PUSH1 0x20 ADD PUSH1 0x5 DUP3 ADD SLOAD DUP2 MSTORE PUSH1 0x20 ADD PUSH1 0x6 DUP3 ADD PUSH1 0x0 SWAP1 SLOAD SWAP1 PUSH2 0x100 EXP SWAP1 DIV PUSH1 0xFF AND PUSH1 0x2 DUP2 GT ISZERO PUSH2 0x19A2 JUMPI PUSH2 0x19A1 PUSH2 0x44DD JUMP JUMPDEST JUMPDEST PUSH1 0x2 DUP2 GT ISZERO PUSH2 0x19B4 JUMPI PUSH2 0x19B3 PUSH2 0x44DD JUMP JUMPDEST JUMPDEST DUP2 MSTORE POP POP SWAP1 POP PUSH1 0x1 DUP2 PUSH1 0xA0 ADD DUP2 DUP2 MLOAD PUSH2 0x19CD SWAP2 SWAP1 PUSH2 0x428B JUMP JUMPDEST SWAP2 POP DUP2 DUP2 MSTORE POP POP PUSH1 0x0 DUP2 PUSH1 0x80 ADD MLOAD PUSH2 0x19E3 PUSH2 0x3303 JUMP JUMPDEST PUSH2 0x19ED SWAP2 SWAP1 PUSH2 0x444E JUMP JUMPDEST SWAP1 POP PUSH1 0x0 DUP3 PUSH1 0x20 ADD MLOAD DUP3 DUP2 MLOAD DUP2 LT PUSH2 0x1A08 JUMPI PUSH2 0x1A07 PUSH2 0x453B JUMP JUMPDEST JUMPDEST PUSH1 0x20 ADD ADD MLOAD PUSH1 0xF8 SHR PUSH1 0xF8 SHL SWAP1 POP JUMPDEST PUSH2 0x1A1F DUP2 PUSH2 0x25A8 JUMP JUMPDEST ISZERO PUSH2 0x1A66 JUMPI DUP3 PUSH1 0x80 ADD MLOAD PUSH2 0x1A31 PUSH2 0x3303 JUMP JUMPDEST PUSH2 0x1A3B SWAP2 SWAP1 PUSH2 0x444E JUMP JUMPDEST SWAP2 POP DUP3 PUSH1 0x20 ADD MLOAD DUP3 DUP2 MLOAD DUP2 LT PUSH2 0x1A54 JUMPI PUSH2 0x1A53 PUSH2 0x453B JUMP JUMPDEST JUMPDEST PUSH1 0x20 ADD ADD MLOAD PUSH1 0xF8 SHR PUSH1 0xF8 SHL SWAP1 POP PUSH2 0x1A16 JUMP JUMPDEST DUP3 PUSH1 0x4 PUSH1 0x0 CALLER PUSH20 0xFFFFFFFFFFFFFFFFFFFFFFFFFFFFFFFFFFFFFFFF AND PUSH20 0xFFFFFFFFFFFFFFFFFFFFFFFFFFFFFFFFFFFFFFFF AND DUP2 MSTORE PUSH1 0x20 ADD SWAP1 DUP2 MSTORE PUSH1 0x20 ADD PUSH1 0x0 KECCAK256 PUSH1 0x4 ADD PUSH1 0x0 DUP3 ADD MLOAD DUP2 PUSH1 0x0 ADD PUSH1 0x0 PUSH2 0x100 EXP DUP2 SLOAD DUP2 PUSH1 0xFF MUL NOT AND SWAP1 DUP4 ISZERO ISZERO MUL OR SWAP1 SSTORE POP PUSH1 0x20 DUP3 ADD MLOAD DUP2 PUSH1 0x1 ADD SWAP1 DUP1 MLOAD SWAP1 PUSH1 0x20 ADD SWAP1 PUSH2 0x1AE5 SWAP3 SWAP2 SWAP1 PUSH2 0x3336 JUMP JUMPDEST POP PUSH1 0x40 DUP3 ADD MLOAD DUP2 PUSH1 0x2 ADD SWAP1 DUP1 MLOAD SWAP1 PUSH1 0x20 ADD SWAP1 PUSH2 0x1B02 SWAP3 SWAP2 SWAP1 PUSH2 0x3336 JUMP JUMPDEST POP PUSH1 0x60 DUP3 ADD MLOAD DUP2 PUSH1 0x3 ADD SWAP1 DUP1 MLOAD SWAP1 PUSH1 0x20 ADD SWAP1 PUSH2 0x1B1F SWAP3 SWAP2 SWAP1 PUSH2 0x3336 JUMP JUMPDEST POP PUSH1 0x80 DUP3 ADD MLOAD DUP2 PUSH1 0x4 ADD SSTORE PUSH1 0xA0 DUP3 ADD MLOAD DUP2 PUSH1 0x5 ADD SSTORE PUSH1 0xC0 DUP3 ADD MLOAD DUP2 PUSH1 0x6 ADD PUSH1 0x0 PUSH2 0x100 EXP DUP2 SLOAD DUP2 PUSH1 0xFF MUL NOT AND SWAP1 DUP4 PUSH1 0x2 DUP2 GT ISZERO PUSH2 0x1B5F JUMPI PUSH2 0x1B5E PUSH2 0x44DD JUMP JUMPDEST JUMPDEST MUL OR SWAP1 SSTORE POP SWAP1 POP POP PUSH1 0x40 MLOAD DUP1 PUSH1 0x40 ADD PUSH1 0x40 MSTORE DUP1 PUSH1 0x1 DUP2 MSTORE PUSH1 0x20 ADD PUSH32 0x2000000000000000000000000000000000000000000000000000000000000000 DUP2 MSTORE POP SWAP4 POP PUSH1 0x0 DUP4 PUSH1 0xA0 ADD MLOAD GT PUSH2 0x1BB8 JUMPI PUSH2 0x1BB5 PUSH1 0x0 PUSH2 0x2721 JUMP JUMPDEST SWAP4 POP JUMPDEST DUP1 DUP5 PUSH1 0x0 DUP2 MLOAD DUP2 LT PUSH2 0x1BCD JUMPI PUSH2 0x1BCC PUSH2 0x453B JUMP JUMPDEST JUMPDEST PUSH1 0x20 ADD ADD SWAP1 PUSH31 0xFFFFFFFFFFFFFFFFFFFFFFFFFFFFFFFFFFFFFFFFFFFFFFFFFFFFFFFFFFFFFF NOT AND SWAP1 DUP2 PUSH1 0x0 BYTE SWAP1 MSTORE8 POP POP POP POP SWAP1 JUMP JUMPDEST PUSH2 0x1C0A PUSH2 0x33BC JUMP JUMPDEST PUSH32 0xC5D2460186F7233C927E7DB2DCC703C0E500B653CA82273B7BFAD8045D85A470 PUSH1 0x4 PUSH1 0x0 CALLER PUSH20 0xFFFFFFFFFFFFFFFFFFFFFFFFFFFFFFFFFFFFFFFF AND PUSH20 0xFFFFFFFFFFFFFFFFFFFFFFFFFFFFFFFFFFFFFFFF AND DUP2 MSTORE PUSH1 0x20 ADD SWAP1 DUP2 MSTORE PUSH1 0x20 ADD PUSH1 0x0 KECCAK256 PUSH1 0x1 ADD PUSH1 0x40 MLOAD PUSH1 0x20 ADD PUSH2 0x1C7D SWAP2 SWAP1 PUSH2 0x3E3B JUMP JUMPDEST PUSH1 0x40 MLOAD PUSH1 0x20 DUP2 DUP4 SUB SUB DUP2 MSTORE SWAP1 PUSH1 0x40 MSTORE DUP1 MLOAD SWAP1 PUSH1 0x20 ADD KECCAK256 EQ ISZERO PUSH2 0x1CD4 JUMPI PUSH1 0x40 MLOAD PUSH32 0x8C379A000000000000000000000000000000000000000000000000000000000 DUP2 MSTORE PUSH1 0x4 ADD PUSH2 0x1CCB SWAP1 PUSH2 0x3F71 JUMP JUMPDEST PUSH1 0x40 MLOAD DUP1 SWAP2 SUB SWAP1 REVERT JUMPDEST PUSH1 0x4 PUSH1 0x0 CALLER PUSH20 0xFFFFFFFFFFFFFFFFFFFFFFFFFFFFFFFFFFFFFFFF AND PUSH20 0xFFFFFFFFFFFFFFFFFFFFFFFFFFFFFFFFFFFFFFFF AND DUP2 MSTORE PUSH1 0x20 ADD SWAP1 DUP2 MSTORE PUSH1 0x20 ADD PUSH1 0x0 KECCAK256 PUSH1 0x40 MLOAD DUP1 PUSH1 0xA0 ADD PUSH1 0x40 MSTORE SWAP1 DUP2 PUSH1 0x0 DUP3 ADD PUSH1 0x0 SWAP1 SLOAD SWAP1 PUSH2 0x100 EXP SWAP1 DIV PUSH20 0xFFFFFFFFFFFFFFFFFFFFFFFFFFFFFFFFFFFFFFFF AND PUSH20 0xFFFFFFFFFFFFFFFFFFFFFFFFFFFFFFFFFFFFFFFF AND PUSH20 0xFFFFFFFFFFFFFFFFFFFFFFFFFFFFFFFFFFFFFFFF AND DUP2 MSTORE PUSH1 0x20 ADD PUSH1 0x1 DUP3 ADD DUP1 SLOAD PUSH2 0x1D84 SWAP1 PUSH2 0x4398 JUMP JUMPDEST DUP1 PUSH1 0x1F ADD PUSH1 0x20 DUP1 SWAP2 DIV MUL PUSH1 0x20 ADD PUSH1 0x40 MLOAD SWAP1 DUP2 ADD PUSH1 0x40 MSTORE DUP1 SWAP3 SWAP2 SWAP1 DUP2 DUP2 MSTORE PUSH1 0x20 ADD DUP3 DUP1 SLOAD PUSH2 0x1DB0 SWAP1 PUSH2 0x4398 JUMP JUMPDEST DUP1 ISZERO PUSH2 0x1DFD JUMPI DUP1 PUSH1 0x1F LT PUSH2 0x1DD2 JUMPI PUSH2 0x100 DUP1 DUP4 SLOAD DIV MUL DUP4 MSTORE SWAP2 PUSH1 0x20 ADD SWAP2 PUSH2 0x1DFD JUMP JUMPDEST DUP3 ADD SWAP2 SWAP1 PUSH1 0x0 MSTORE PUSH1 0x20 PUSH1 0x0 KECCAK256 SWAP1 JUMPDEST DUP2 SLOAD DUP2 MSTORE SWAP1 PUSH1 0x1 ADD SWAP1 PUSH1 0x20 ADD DUP1 DUP4 GT PUSH2 0x1DE0 JUMPI DUP3 SWAP1 SUB PUSH1 0x1F AND DUP3 ADD SWAP2 JUMPDEST POP POP POP POP POP DUP2 MSTORE PUSH1 0x20 ADD PUSH1 0x2 DUP3 ADD SLOAD DUP2 MSTORE PUSH1 0x20 ADD PUSH1 0x3 DUP3 ADD SLOAD DUP2 MSTORE PUSH1 0x20 ADD PUSH1 0x4 DUP3 ADD PUSH1 0x40 MLOAD DUP1 PUSH1 0xE0 ADD PUSH1 0x40 MSTORE SWAP1 DUP2 PUSH1 0x0 DUP3 ADD PUSH1 0x0 SWAP1 SLOAD SWAP1 PUSH2 0x100 EXP SWAP1 DIV PUSH1 0xFF AND ISZERO ISZERO ISZERO ISZERO DUP2 MSTORE PUSH1 0x20 ADD PUSH1 0x1 DUP3 ADD DUP1 SLOAD PUSH2 0x1E55 SWAP1 PUSH2 0x4398 JUMP JUMPDEST DUP1 PUSH1 0x1F ADD PUSH1 0x20 DUP1 SWAP2 DIV MUL PUSH1 0x20 ADD PUSH1 0x40 MLOAD SWAP1 DUP2 ADD PUSH1 0x40 MSTORE DUP1 SWAP3 SWAP2 SWAP1 DUP2 DUP2 MSTORE PUSH1 0x20 ADD DUP3 DUP1 SLOAD PUSH2 0x1E81 SWAP1 PUSH2 0x4398 JUMP JUMPDEST DUP1 ISZERO PUSH2 0x1ECE JUMPI DUP1 PUSH1 0x1F LT PUSH2 0x1EA3 JUMPI PUSH2 0x100 DUP1 DUP4 SLOAD DIV MUL DUP4 MSTORE SWAP2 PUSH1 0x20 ADD SWAP2 PUSH2 0x1ECE JUMP JUMPDEST DUP3 ADD SWAP2 SWAP1 PUSH1 0x0 MSTORE PUSH1 0x20 PUSH1 0x0 KECCAK256 SWAP1 JUMPDEST DUP2 SLOAD DUP2 MSTORE SWAP1 PUSH1 0x1 ADD SWAP1 PUSH1 0x20 ADD DUP1 DUP4 GT PUSH2 0x1EB1 JUMPI DUP3 SWAP1 SUB PUSH1 0x1F AND DUP3 ADD SWAP2 JUMPDEST POP POP POP POP POP DUP2 MSTORE PUSH1 0x20 ADD PUSH1 0x2 DUP3 ADD DUP1 SLOAD PUSH2 0x1EE7 SWAP1 PUSH2 0x4398 JUMP JUMPDEST DUP1 PUSH1 0x1F ADD PUSH1 0x20 DUP1 SWAP2 DIV MUL PUSH1 0x20 ADD PUSH1 0x40 MLOAD SWAP1 DUP2 ADD PUSH1 0x40 MSTORE DUP1 SWAP3 SWAP2 SWAP1 DUP2 DUP2 MSTORE PUSH1 0x20 ADD DUP3 DUP1 SLOAD PUSH2 0x1F13 SWAP1 PUSH2 0x4398 JUMP JUMPDEST DUP1 ISZERO PUSH2 0x1F60 JUMPI DUP1 PUSH1 0x1F LT PUSH2 0x1F35 JUMPI PUSH2 0x100 DUP1 DUP4 SLOAD DIV MUL DUP4 MSTORE SWAP2 PUSH1 0x20 ADD SWAP2 PUSH2 0x1F60 JUMP JUMPDEST DUP3 ADD SWAP2 SWAP1 PUSH1 0x0 MSTORE PUSH1 0x20 PUSH1 0x0 KECCAK256 SWAP1 JUMPDEST DUP2 SLOAD DUP2 MSTORE SWAP1 PUSH1 0x1 ADD SWAP1 PUSH1 0x20 ADD DUP1 DUP4 GT PUSH2 0x1F43 JUMPI DUP3 SWAP1 SUB PUSH1 0x1F AND DUP3 ADD SWAP2 JUMPDEST POP POP POP POP POP DUP2 MSTORE PUSH1 0x20 ADD PUSH1 0x3 DUP3 ADD DUP1 SLOAD PUSH2 0x1F79 SWAP1 PUSH2 0x4398 JUMP JUMPDEST DUP1 PUSH1 0x1F ADD PUSH1 0x20 DUP1 SWAP2 DIV MUL PUSH1 0x20 ADD PUSH1 0x40 MLOAD SWAP1 DUP2 ADD PUSH1 0x40 MSTORE DUP1 SWAP3 SWAP2 SWAP1 DUP2 DUP2 MSTORE PUSH1 0x20 ADD DUP3 DUP1 SLOAD PUSH2 0x1FA5 SWAP1 PUSH2 0x4398 JUMP JUMPDEST DUP1 ISZERO PUSH2 0x1FF2 JUMPI DUP1 PUSH1 0x1F LT PUSH2 0x1FC7 JUMPI PUSH2 0x100 DUP1 DUP4 SLOAD DIV MUL DUP4 MSTORE SWAP2 PUSH1 0x20 ADD SWAP2 PUSH2 0x1FF2 JUMP JUMPDEST DUP3 ADD SWAP2 SWAP1 PUSH1 0x0 MSTORE PUSH1 0x20 PUSH1 0x0 KECCAK256 SWAP1 JUMPDEST DUP2 SLOAD DUP2 MSTORE SWAP1 PUSH1 0x1 ADD SWAP1 PUSH1 0x20 ADD DUP1 DUP4 GT PUSH2 0x1FD5 JUMPI DUP3 SWAP1 SUB PUSH1 0x1F AND DUP3 ADD SWAP2 JUMPDEST POP POP POP POP POP DUP2 MSTORE PUSH1 0x20 ADD PUSH1 0x4 DUP3 ADD SLOAD DUP2 MSTORE PUSH1 0x20 ADD PUSH1 0x5 DUP3 ADD SLOAD DUP2 MSTORE PUSH1 0x20 ADD PUSH1 0x6 DUP3 ADD PUSH1 0x0 SWAP1 SLOAD SWAP1 PUSH2 0x100 EXP SWAP1 DIV PUSH1 0xFF AND PUSH1 0x2 DUP2 GT ISZERO PUSH2 0x2034 JUMPI PUSH2 0x2033 PUSH2 0x44DD JUMP JUMPDEST JUMPDEST PUSH1 0x2 DUP2 GT ISZERO PUSH2 0x2046 JUMPI PUSH2 0x2045 PUSH2 0x44DD JUMP JUMPDEST JUMPDEST DUP2 MSTORE POP POP DUP2 MSTORE POP POP SWAP1 POP SWAP1 JUMP JUMPDEST PUSH1 0x0 DUP1 SLOAD SWAP1 PUSH2 0x100 EXP SWAP1 DIV PUSH20 0xFFFFFFFFFFFFFFFFFFFFFFFFFFFFFFFFFFFFFFFF AND PUSH20 0xFFFFFFFFFFFFFFFFFFFFFFFFFFFFFFFFFFFFFFFF AND PUSH2 0x8FC DUP3 SWAP1 DUP2 ISZERO MUL SWAP1 PUSH1 0x40 MLOAD PUSH1 0x0 PUSH1 0x40 MLOAD DUP1 DUP4 SUB DUP2 DUP6 DUP9 DUP9 CALL SWAP4 POP POP POP POP ISZERO DUP1 ISZERO PUSH2 0x20B9 JUMPI RETURNDATASIZE PUSH1 0x0 DUP1 RETURNDATACOPY RETURNDATASIZE PUSH1 0x0 REVERT JUMPDEST POP POP JUMP JUMPDEST PUSH1 0x0 PUSH1 0x40 MLOAD DUP1 PUSH1 0xA0 ADD PUSH1 0x40 MSTORE DUP1 CALLER PUSH20 0xFFFFFFFFFFFFFFFFFFFFFFFFFFFFFFFFFFFFFFFF AND DUP2 MSTORE PUSH1 0x20 ADD DUP5 DUP5 DUP1 DUP1 PUSH1 0x1F ADD PUSH1 0x20 DUP1 SWAP2 DIV MUL PUSH1 0x20 ADD PUSH1 0x40 MLOAD SWAP1 DUP2 ADD PUSH1 0x40 MSTORE DUP1 SWAP4 SWAP3 SWAP2 SWAP1 DUP2 DUP2 MSTORE PUSH1 0x20 ADD DUP4 DUP4 DUP1 DUP3 DUP5 CALLDATACOPY PUSH1 0x0 DUP2 DUP5 ADD MSTORE PUSH1 0x1F NOT PUSH1 0x1F DUP3 ADD AND SWAP1 POP DUP1 DUP4 ADD SWAP3 POP POP POP POP POP POP POP DUP2 MSTORE PUSH1 0x20 ADD PUSH1 0x0 DUP2 MSTORE PUSH1 0x20 ADD PUSH1 0x0 DUP2 MSTORE PUSH1 0x20 ADD PUSH1 0x40 MLOAD DUP1 PUSH1 0xE0 ADD PUSH1 0x40 MSTORE DUP1 PUSH1 0x0 ISZERO ISZERO DUP2 MSTORE PUSH1 0x20 ADD PUSH1 0x40 MLOAD DUP1 PUSH1 0x20 ADD PUSH1 0x40 MSTORE DUP1 PUSH1 0x0 DUP2 MSTORE POP DUP2 MSTORE PUSH1 0x20 ADD PUSH1 0x40 MLOAD DUP1 PUSH1 0x20 ADD PUSH1 0x40 MSTORE DUP1 PUSH1 0x0 DUP2 MSTORE POP DUP2 MSTORE PUSH1 0x20 ADD PUSH1 0x40 MLOAD DUP1 PUSH1 0x20 ADD PUSH1 0x40 MSTORE DUP1 PUSH1 0x0 DUP2 MSTORE POP DUP2 MSTORE PUSH1 0x20 ADD PUSH1 0x0 DUP2 MSTORE PUSH1 0x20 ADD PUSH1 0x0 DUP2 MSTORE PUSH1 0x20 ADD PUSH1 0x0 PUSH1 0x2 DUP2 GT ISZERO PUSH2 0x21B3 JUMPI PUSH2 0x21B2 PUSH2 0x44DD JUMP JUMPDEST JUMPDEST DUP2 MSTORE POP DUP2 MSTORE POP SWAP1 POP DUP1 PUSH1 0x4 PUSH1 0x0 CALLER PUSH20 0xFFFFFFFFFFFFFFFFFFFFFFFFFFFFFFFFFFFFFFFF AND PUSH20 0xFFFFFFFFFFFFFFFFFFFFFFFFFFFFFFFFFFFFFFFF AND DUP2 MSTORE PUSH1 0x20 ADD SWAP1 DUP2 MSTORE PUSH1 0x20 ADD PUSH1 0x0 KECCAK256 PUSH1 0x0 DUP3 ADD MLOAD DUP2 PUSH1 0x0 ADD PUSH1 0x0 PUSH2 0x100 EXP DUP2 SLOAD DUP2 PUSH20 0xFFFFFFFFFFFFFFFFFFFFFFFFFFFFFFFFFFFFFFFF MUL NOT AND SWAP1 DUP4 PUSH20 0xFFFFFFFFFFFFFFFFFFFFFFFFFFFFFFFFFFFFFFFF AND MUL OR SWAP1 SSTORE POP PUSH1 0x20 DUP3 ADD MLOAD DUP2 PUSH1 0x1 ADD SWAP1 DUP1 MLOAD SWAP1 PUSH1 0x20 ADD SWAP1 PUSH2 0x225E SWAP3 SWAP2 SWAP1 PUSH2 0x3407 JUMP JUMPDEST POP PUSH1 0x40 DUP3 ADD MLOAD DUP2 PUSH1 0x2 ADD SSTORE PUSH1 0x60 DUP3 ADD MLOAD DUP2 PUSH1 0x3 ADD SSTORE PUSH1 0x80 DUP3 ADD MLOAD DUP2 PUSH1 0x4 ADD PUSH1 0x0 DUP3 ADD MLOAD DUP2 PUSH1 0x0 ADD PUSH1 0x0 PUSH2 0x100 EXP DUP2 SLOAD DUP2 PUSH1 0xFF MUL NOT AND SWAP1 DUP4 ISZERO ISZERO MUL OR SWAP1 SSTORE POP PUSH1 0x20 DUP3 ADD MLOAD DUP2 PUSH1 0x1 ADD SWAP1 DUP1 MLOAD SWAP1 PUSH1 0x20 ADD SWAP1 PUSH2 0x22B8 SWAP3 SWAP2 SWAP1 PUSH2 0x3336 JUMP JUMPDEST POP PUSH1 0x40 DUP3 ADD MLOAD DUP2 PUSH1 0x2 ADD SWAP1 DUP1 MLOAD SWAP1 PUSH1 0x20 ADD SWAP1 PUSH2 0x22D5 SWAP3 SWAP2 SWAP1 PUSH2 0x3336 JUMP JUMPDEST POP PUSH1 0x60 DUP3 ADD MLOAD DUP2 PUSH1 0x3 ADD SWAP1 DUP1 MLOAD SWAP1 PUSH1 0x20 ADD SWAP1 PUSH2 0x22F2 SWAP3 SWAP2 SWAP1 PUSH2 0x3336 JUMP JUMPDEST POP PUSH1 0x80 DUP3 ADD MLOAD DUP2 PUSH1 0x4 ADD SSTORE PUSH1 0xA0 DUP3 ADD MLOAD DUP2 PUSH1 0x5 ADD SSTORE PUSH1 0xC0 DUP3 ADD MLOAD DUP2 PUSH1 0x6 ADD PUSH1 0x0 PUSH2 0x100 EXP DUP2 SLOAD DUP2 PUSH1 0xFF MUL NOT AND SWAP1 DUP4 PUSH1 0x2 DUP2 GT ISZERO PUSH2 0x2332 JUMPI PUSH2 0x2331 PUSH2 0x44DD JUMP JUMPDEST JUMPDEST MUL OR SWAP1 SSTORE POP POP POP SWAP1 POP POP POP POP POP JUMP JUMPDEST PUSH1 0x60 PUSH1 0x0 DUP3 PUSH8 0xFFFFFFFFFFFFFFFF DUP2 GT ISZERO PUSH2 0x235F JUMPI PUSH2 0x235E PUSH2 0x456A JUMP JUMPDEST JUMPDEST PUSH1 0x40 MLOAD SWAP1 DUP1 DUP3 MSTORE DUP1 PUSH1 0x1F ADD PUSH1 0x1F NOT AND PUSH1 0x20 ADD DUP3 ADD PUSH1 0x40 MSTORE DUP1 ISZERO PUSH2 0x2391 JUMPI DUP2 PUSH1 0x20 ADD PUSH1 0x1 DUP3 MUL DUP1 CALLDATASIZE DUP4 CALLDATACOPY DUP1 DUP3 ADD SWAP2 POP POP SWAP1 POP JUMPDEST POP SWAP1 POP PUSH1 0x0 JUMPDEST DUP4 DUP2 LT ISZERO PUSH2 0x2415 JUMPI PUSH32 0x2D00000000000000000000000000000000000000000000000000000000000000 DUP3 DUP3 DUP2 MLOAD DUP2 LT PUSH2 0x23D3 JUMPI PUSH2 0x23D2 PUSH2 0x453B JUMP JUMPDEST JUMPDEST PUSH1 0x20 ADD ADD SWAP1 PUSH31 0xFFFFFFFFFFFFFFFFFFFFFFFFFFFFFFFFFFFFFFFFFFFFFFFFFFFFFFFFFFFFFF NOT AND SWAP1 DUP2 PUSH1 0x0 BYTE SWAP1 MSTORE8 POP DUP1 DUP1 PUSH2 0x240D SWAP1 PUSH2 0x43FB JUMP JUMPDEST SWAP2 POP POP PUSH2 0x2397 JUMP JUMPDEST POP DUP1 SWAP2 POP POP SWAP2 SWAP1 POP JUMP JUMPDEST PUSH1 0x60 PUSH1 0x0 DUP3 EQ ISZERO PUSH2 0x2467 JUMPI PUSH1 0x40 MLOAD DUP1 PUSH1 0x40 ADD PUSH1 0x40 MSTORE DUP1 PUSH1 0x1 DUP2 MSTORE PUSH1 0x20 ADD PUSH32 0x3000000000000000000000000000000000000000000000000000000000000000 DUP2 MSTORE POP SWAP1 POP PUSH2 0x25A3 JUMP JUMPDEST PUSH1 0x0 DUP3 SWAP1 POP PUSH1 0x0 JUMPDEST PUSH1 0x0 DUP3 EQ PUSH2 0x2499 JUMPI DUP1 DUP1 PUSH2 0x2482 SWAP1 PUSH2 0x43FB JUMP JUMPDEST SWAP2 POP POP PUSH1 0xA DUP3 PUSH2 0x2492 SWAP2 SWAP1 PUSH2 0x4200 JUMP JUMPDEST SWAP2 POP PUSH2 0x246F JUMP JUMPDEST PUSH1 0x0 DUP2 PUSH8 0xFFFFFFFFFFFFFFFF DUP2 GT ISZERO PUSH2 0x24B5 JUMPI PUSH2 0x24B4 PUSH2 0x456A JUMP JUMPDEST JUMPDEST PUSH1 0x40 MLOAD SWAP1 DUP1 DUP3 MSTORE DUP1 PUSH1 0x1F ADD PUSH1 0x1F NOT AND PUSH1 0x20 ADD DUP3 ADD PUSH1 0x40 MSTORE DUP1 ISZERO PUSH2 0x24E7 JUMPI DUP2 PUSH1 0x20 ADD PUSH1 0x1 DUP3 MUL DUP1 CALLDATASIZE DUP4 CALLDATACOPY DUP1 DUP3 ADD SWAP2 POP POP SWAP1 POP JUMPDEST POP SWAP1 POP PUSH1 0x0 DUP3 SWAP1 POP JUMPDEST PUSH1 0x0 DUP7 EQ PUSH2 0x259B JUMPI PUSH1 0x1 DUP2 PUSH2 0x2505 SWAP2 SWAP1 PUSH2 0x428B JUMP JUMPDEST SWAP1 POP PUSH1 0x0 PUSH1 0xA DUP1 DUP9 PUSH2 0x2517 SWAP2 SWAP1 PUSH2 0x4200 JUMP JUMPDEST PUSH2 0x2521 SWAP2 SWAP1 PUSH2 0x4231 JUMP JUMPDEST DUP8 PUSH2 0x252C SWAP2 SWAP1 PUSH2 0x428B JUMP JUMPDEST PUSH1 0x30 PUSH2 0x2538 SWAP2 SWAP1 PUSH2 0x41C9 JUMP JUMPDEST SWAP1 POP PUSH1 0x0 DUP2 PUSH1 0xF8 SHL SWAP1 POP DUP1 DUP5 DUP5 DUP2 MLOAD DUP2 LT PUSH2 0x2556 JUMPI PUSH2 0x2555 PUSH2 0x453B JUMP JUMPDEST JUMPDEST PUSH1 0x20 ADD ADD SWAP1 PUSH31 0xFFFFFFFFFFFFFFFFFFFFFFFFFFFFFFFFFFFFFFFFFFFFFFFFFFFFFFFFFFFFFF NOT AND SWAP1 DUP2 PUSH1 0x0 BYTE SWAP1 MSTORE8 POP PUSH1 0xA DUP9 PUSH2 0x2592 SWAP2 SWAP1 PUSH2 0x4200 JUMP JUMPDEST SWAP8 POP POP POP PUSH2 0x24F0 JUMP JUMPDEST DUP2 SWAP5 POP POP POP POP POP JUMPDEST SWAP2 SWAP1 POP JUMP JUMPDEST PUSH1 0x0 DUP1 PUSH1 0x0 SWAP1 POP PUSH1 0x0 JUMPDEST PUSH1 0x4 PUSH1 0x0 CALLER PUSH20 0xFFFFFFFFFFFFFFFFFFFFFFFFFFFFFFFFFFFFFFFF AND PUSH20 0xFFFFFFFFFFFFFFFFFFFFFFFFFFFFFFFFFFFFFFFF AND DUP2 MSTORE PUSH1 0x20 ADD SWAP1 DUP2 MSTORE PUSH1 0x20 ADD PUSH1 0x0 KECCAK256 PUSH1 0x4 ADD PUSH1 0x3 ADD DUP1 SLOAD PUSH2 0x2602 SWAP1 PUSH2 0x4398 JUMP JUMPDEST SWAP1 POP DUP2 LT ISZERO PUSH2 0x2717 JUMPI PUSH1 0x4 PUSH1 0x0 CALLER PUSH20 0xFFFFFFFFFFFFFFFFFFFFFFFFFFFFFFFFFFFFFFFF AND PUSH20 0xFFFFFFFFFFFFFFFFFFFFFFFFFFFFFFFFFFFFFFFF AND DUP2 MSTORE PUSH1 0x20 ADD SWAP1 DUP2 MSTORE PUSH1 0x20 ADD PUSH1 0x0 KECCAK256 PUSH1 0x4 ADD PUSH1 0x3 ADD DUP2 DUP2 SLOAD PUSH2 0x265C SWAP1 PUSH2 0x4398 JUMP JUMPDEST DUP2 LT PUSH2 0x266B JUMPI PUSH2 0x266A PUSH2 0x453B JUMP JUMPDEST JUMPDEST DUP2 SLOAD PUSH1 0x1 AND ISZERO PUSH2 0x268A JUMPI SWAP1 PUSH1 0x0 MSTORE PUSH1 0x20 PUSH1 0x0 KECCAK256 SWAP1 PUSH1 0x20 SWAP2 DUP3 DUP3 DIV ADD SWAP2 SWAP1 MOD JUMPDEST SWAP1 SLOAD SWAP1 BYTE PUSH32 0x100000000000000000000000000000000000000000000000000000000000000 MUL PUSH31 0xFFFFFFFFFFFFFFFFFFFFFFFFFFFFFFFFFFFFFFFFFFFFFFFFFFFFFFFFFFFFFF NOT AND DUP5 PUSH31 0xFFFFFFFFFFFFFFFFFFFFFFFFFFFFFFFFFFFFFFFFFFFFFFFFFFFFFFFFFFFFFF NOT AND EQ ISZERO PUSH2 0x2704 JUMPI PUSH1 0x1 SWAP2 POP PUSH2 0x2717 JUMP JUMPDEST DUP1 DUP1 PUSH2 0x270F SWAP1 PUSH2 0x43FB JUMP JUMPDEST SWAP2 POP POP PUSH2 0x25B2 JUMP JUMPDEST POP DUP1 SWAP2 POP POP SWAP2 SWAP1 POP JUMP JUMPDEST PUSH1 0x60 DUP1 PUSH1 0x0 PUSH1 0x4 PUSH1 0x0 CALLER PUSH20 0xFFFFFFFFFFFFFFFFFFFFFFFFFFFFFFFFFFFFFFFF AND PUSH20 0xFFFFFFFFFFFFFFFFFFFFFFFFFFFFFFFFFFFFFFFF AND DUP2 MSTORE PUSH1 0x20 ADD SWAP1 DUP2 MSTORE PUSH1 0x20 ADD PUSH1 0x0 KECCAK256 PUSH1 0x40 MLOAD DUP1 PUSH1 0xA0 ADD PUSH1 0x40 MSTORE SWAP1 DUP2 PUSH1 0x0 DUP3 ADD PUSH1 0x0 SWAP1 SLOAD SWAP1 PUSH2 0x100 EXP SWAP1 DIV PUSH20 0xFFFFFFFFFFFFFFFFFFFFFFFFFFFFFFFFFFFFFFFF AND PUSH20 0xFFFFFFFFFFFFFFFFFFFFFFFFFFFFFFFFFFFFFFFF AND PUSH20 0xFFFFFFFFFFFFFFFFFFFFFFFFFFFFFFFFFFFFFFFF AND DUP2 MSTORE PUSH1 0x20 ADD PUSH1 0x1 DUP3 ADD DUP1 SLOAD PUSH2 0x27D6 SWAP1 PUSH2 0x4398 JUMP JUMPDEST DUP1 PUSH1 0x1F ADD PUSH1 0x20 DUP1 SWAP2 DIV MUL PUSH1 0x20 ADD PUSH1 0x40 MLOAD SWAP1 DUP2 ADD PUSH1 0x40 MSTORE DUP1 SWAP3 SWAP2 SWAP1 DUP2 DUP2 MSTORE PUSH1 0x20 ADD DUP3 DUP1 SLOAD PUSH2 0x2802 SWAP1 PUSH2 0x4398 JUMP JUMPDEST DUP1 ISZERO PUSH2 0x284F JUMPI DUP1 PUSH1 0x1F LT PUSH2 0x2824 JUMPI PUSH2 0x100 DUP1 DUP4 SLOAD DIV MUL DUP4 MSTORE SWAP2 PUSH1 0x20 ADD SWAP2 PUSH2 0x284F JUMP JUMPDEST DUP3 ADD SWAP2 SWAP1 PUSH1 0x0 MSTORE PUSH1 0x20 PUSH1 0x0 KECCAK256 SWAP1 JUMPDEST DUP2 SLOAD DUP2 MSTORE SWAP1 PUSH1 0x1 ADD SWAP1 PUSH1 0x20 ADD DUP1 DUP4 GT PUSH2 0x2832 JUMPI DUP3 SWAP1 SUB PUSH1 0x1F AND DUP3 ADD SWAP2 JUMPDEST POP POP POP POP POP DUP2 MSTORE PUSH1 0x20 ADD PUSH1 0x2 DUP3 ADD SLOAD DUP2 MSTORE PUSH1 0x20 ADD PUSH1 0x3 DUP3 ADD SLOAD DUP2 MSTORE PUSH1 0x20 ADD PUSH1 0x4 DUP3 ADD PUSH1 0x40 MLOAD DUP1 PUSH1 0xE0 ADD PUSH1 0x40 MSTORE SWAP1 DUP2 PUSH1 0x0 DUP3 ADD PUSH1 0x0 SWAP1 SLOAD SWAP1 PUSH2 0x100 EXP SWAP1 DIV PUSH1 0xFF AND ISZERO ISZERO ISZERO ISZERO DUP2 MSTORE PUSH1 0x20 ADD PUSH1 0x1 DUP3 ADD DUP1 SLOAD PUSH2 0x28A7 SWAP1 PUSH2 0x4398 JUMP JUMPDEST DUP1 PUSH1 0x1F ADD PUSH1 0x20 DUP1 SWAP2 DIV MUL PUSH1 0x20 ADD PUSH1 0x40 MLOAD SWAP1 DUP2 ADD PUSH1 0x40 MSTORE DUP1 SWAP3 SWAP2 SWAP1 DUP2 DUP2 MSTORE PUSH1 0x20 ADD DUP3 DUP1 SLOAD PUSH2 0x28D3 SWAP1 PUSH2 0x4398 JUMP JUMPDEST DUP1 ISZERO PUSH2 0x2920 JUMPI DUP1 PUSH1 0x1F LT PUSH2 0x28F5 JUMPI PUSH2 0x100 DUP1 DUP4 SLOAD DIV MUL DUP4 MSTORE SWAP2 PUSH1 0x20 ADD SWAP2 PUSH2 0x2920 JUMP JUMPDEST DUP3 ADD SWAP2 SWAP1 PUSH1 0x0 MSTORE PUSH1 0x20 PUSH1 0x0 KECCAK256 SWAP1 JUMPDEST DUP2 SLOAD DUP2 MSTORE SWAP1 PUSH1 0x1 ADD SWAP1 PUSH1 0x20 ADD DUP1 DUP4 GT PUSH2 0x2903 JUMPI DUP3 SWAP1 SUB PUSH1 0x1F AND DUP3 ADD SWAP2 JUMPDEST POP POP POP POP POP DUP2 MSTORE PUSH1 0x20 ADD PUSH1 0x2 DUP3 ADD DUP1 SLOAD PUSH2 0x2939 SWAP1 PUSH2 0x4398 JUMP JUMPDEST DUP1 PUSH1 0x1F ADD PUSH1 0x20 DUP1 SWAP2 DIV MUL PUSH1 0x20 ADD PUSH1 0x40 MLOAD SWAP1 DUP2 ADD PUSH1 0x40 MSTORE DUP1 SWAP3 SWAP2 SWAP1 DUP2 DUP2 MSTORE PUSH1 0x20 ADD DUP3 DUP1 SLOAD PUSH2 0x2965 SWAP1 PUSH2 0x4398 JUMP JUMPDEST DUP1 ISZERO PUSH2 0x29B2 JUMPI DUP1 PUSH1 0x1F LT PUSH2 0x2987 JUMPI PUSH2 0x100 DUP1 DUP4 SLOAD DIV MUL DUP4 MSTORE SWAP2 PUSH1 0x20 ADD SWAP2 PUSH2 0x29B2 JUMP JUMPDEST DUP3 ADD SWAP2 SWAP1 PUSH1 0x0 MSTORE PUSH1 0x20 PUSH1 0x0 KECCAK256 SWAP1 JUMPDEST DUP2 SLOAD DUP2 MSTORE SWAP1 PUSH1 0x1 ADD SWAP1 PUSH1 0x20 ADD DUP1 DUP4 GT PUSH2 0x2995 JUMPI DUP3 SWAP1 SUB PUSH1 0x1F AND DUP3 ADD SWAP2 JUMPDEST POP POP POP POP POP DUP2 MSTORE PUSH1 0x20 ADD PUSH1 0x3 DUP3 ADD DUP1 SLOAD PUSH2 0x29CB SWAP1 PUSH2 0x4398 JUMP JUMPDEST DUP1 PUSH1 0x1F ADD PUSH1 0x20 DUP1 SWAP2 DIV MUL PUSH1 0x20 ADD PUSH1 0x40 MLOAD SWAP1 DUP2 ADD PUSH1 0x40 MSTORE DUP1 SWAP3 SWAP2 SWAP1 DUP2 DUP2 MSTORE PUSH1 0x20 ADD DUP3 DUP1 SLOAD PUSH2 0x29F7 SWAP1 PUSH2 0x4398 JUMP JUMPDEST DUP1 ISZERO PUSH2 0x2A44 JUMPI DUP1 PUSH1 0x1F LT PUSH2 0x2A19 JUMPI PUSH2 0x100 DUP1 DUP4 SLOAD DIV MUL DUP4 MSTORE SWAP2 PUSH1 0x20 ADD SWAP2 PUSH2 0x2A44 JUMP JUMPDEST DUP3 ADD SWAP2 SWAP1 PUSH1 0x0 MSTORE PUSH1 0x20 PUSH1 0x0 KECCAK256 SWAP1 JUMPDEST DUP2 SLOAD DUP2 MSTORE SWAP1 PUSH1 0x1 ADD SWAP1 PUSH1 0x20 ADD DUP1 DUP4 GT PUSH2 0x2A27 JUMPI DUP3 SWAP1 SUB PUSH1 0x1F AND DUP3 ADD SWAP2 JUMPDEST POP POP POP POP POP DUP2 MSTORE PUSH1 0x20 ADD PUSH1 0x4 DUP3 ADD SLOAD DUP2 MSTORE PUSH1 0x20 ADD PUSH1 0x5 DUP3 ADD SLOAD DUP2 MSTORE PUSH1 0x20 ADD PUSH1 0x6 DUP3 ADD PUSH1 0x0 SWAP1 SLOAD SWAP1 PUSH2 0x100 EXP SWAP1 DIV PUSH1 0xFF AND PUSH1 0x2 DUP2 GT ISZERO PUSH2 0x2A86 JUMPI PUSH2 0x2A85 PUSH2 0x44DD JUMP JUMPDEST JUMPDEST PUSH1 0x2 DUP2 GT ISZERO PUSH2 0x2A98 JUMPI PUSH2 0x2A97 PUSH2 0x44DD JUMP JUMPDEST JUMPDEST DUP2 MSTORE POP POP DUP2 MSTORE POP POP SWAP1 POP DUP4 ISZERO PUSH2 0x2C8E JUMPI PUSH1 0x40 MLOAD DUP1 PUSH1 0x40 ADD PUSH1 0x40 MSTORE DUP1 PUSH1 0x19 DUP2 MSTORE PUSH1 0x20 ADD PUSH32 0x436F6E67726174756C6174696F6E2C20796F7520776F6E2E0A00000000000000 DUP2 MSTORE POP PUSH1 0x40 MLOAD DUP1 PUSH1 0x40 ADD PUSH1 0x40 MSTORE DUP1 PUSH1 0x9 DUP2 MSTORE PUSH1 0x20 ADD PUSH32 0x54686520776F7264200000000000000000000000000000000000000000000000 DUP2 MSTORE POP DUP3 PUSH1 0x80 ADD MLOAD PUSH1 0x20 ADD MLOAD PUSH1 0x40 MLOAD DUP1 PUSH1 0x40 ADD PUSH1 0x40 MSTORE DUP1 PUSH1 0xD DUP2 MSTORE PUSH1 0x20 ADD PUSH32 0x20697320636F7272656374210A00000000000000000000000000000000000000 DUP2 MSTORE POP PUSH1 0x40 MLOAD DUP1 PUSH1 0x40 ADD PUSH1 0x40 MSTORE DUP1 PUSH1 0x11 DUP2 MSTORE PUSH1 0x20 ADD PUSH32 0x596F752068617665206E6F7720776F6E20000000000000000000000000000000 DUP2 MSTORE POP PUSH2 0x2B96 DUP7 PUSH1 0x60 ADD MLOAD PUSH2 0x241F JUMP JUMPDEST PUSH1 0x40 MLOAD DUP1 PUSH1 0x40 ADD PUSH1 0x40 MSTORE DUP1 PUSH1 0x12 DUP2 MSTORE PUSH1 0x20 ADD PUSH32 0x2067616D657320696E20746F74616C2E0A0A0000000000000000000000000000 DUP2 MSTORE POP PUSH1 0x40 MLOAD DUP1 PUSH1 0x40 ADD PUSH1 0x40 MSTORE DUP1 PUSH1 0x9 DUP2 MSTORE PUSH1 0x20 ADD PUSH32 0x596F752068617665200000000000000000000000000000000000000000000000 DUP2 MSTORE POP PUSH2 0x2C0F DUP10 PUSH1 0x40 ADD MLOAD PUSH2 0x241F JUMP JUMPDEST PUSH1 0x40 MLOAD DUP1 PUSH1 0x40 ADD PUSH1 0x40 MSTORE DUP1 PUSH1 0x12 DUP2 MSTORE PUSH1 0x20 ADD PUSH32 0x20667265652067616D6573206C6566742E0A0000000000000000000000000000 DUP2 MSTORE POP PUSH1 0x40 MLOAD PUSH1 0x20 ADD PUSH2 0x2C5E SWAP11 SWAP10 SWAP9 SWAP8 SWAP7 SWAP6 SWAP5 SWAP4 SWAP3 SWAP2 SWAP1 PUSH2 0x3D76 JUMP JUMPDEST PUSH1 0x40 MLOAD PUSH1 0x20 DUP2 DUP4 SUB SUB DUP2 MSTORE SWAP1 PUSH1 0x40 MSTORE SWAP2 POP PUSH1 0x1 DUP2 PUSH1 0x60 ADD DUP2 DUP2 MLOAD PUSH2 0x2C82 SWAP2 SWAP1 PUSH2 0x4173 JUMP JUMPDEST SWAP2 POP DUP2 DUP2 MSTORE POP POP PUSH2 0x2E1F JUMP JUMPDEST PUSH1 0x40 MLOAD DUP1 PUSH1 0x40 ADD PUSH1 0x40 MSTORE DUP1 PUSH1 0x17 DUP2 MSTORE PUSH1 0x20 ADD PUSH32 0x57656C6C2C20796F7520646964206E6F742077696E2E0A000000000000000000 DUP2 MSTORE POP PUSH1 0x40 MLOAD DUP1 PUSH1 0x40 ADD PUSH1 0x40 MSTORE DUP1 PUSH1 0xD DUP2 MSTORE PUSH1 0x20 ADD PUSH32 0x54686520776F7264207761732000000000000000000000000000000000000000 DUP2 MSTORE POP DUP3 PUSH1 0x80 ADD MLOAD PUSH1 0x20 ADD MLOAD PUSH1 0x40 MLOAD DUP1 PUSH1 0x40 ADD PUSH1 0x40 MSTORE DUP1 PUSH1 0x1F DUP2 MSTORE PUSH1 0x20 ADD PUSH32 0xA416E79776179732C20796F75206861766520616C726561647920776F6E2000 DUP2 MSTORE POP PUSH2 0x2D46 DUP6 PUSH1 0x60 ADD MLOAD PUSH2 0x241F JUMP JUMPDEST PUSH1 0x40 MLOAD DUP1 PUSH1 0x40 ADD PUSH1 0x40 MSTORE DUP1 PUSH1 0x12 DUP2 MSTORE PUSH1 0x20 ADD PUSH32 0x2067616D657320696E20746F74616C2E0A0A0000000000000000000000000000 DUP2 MSTORE POP PUSH1 0x40 MLOAD DUP1 PUSH1 0x40 ADD PUSH1 0x40 MSTORE DUP1 PUSH1 0x9 DUP2 MSTORE PUSH1 0x20 ADD PUSH32 0x596F752068617665200000000000000000000000000000000000000000000000 DUP2 MSTORE POP PUSH2 0x2DBF DUP9 PUSH1 0x40 ADD MLOAD PUSH2 0x241F JUMP JUMPDEST PUSH1 0x40 MLOAD DUP1 PUSH1 0x40 ADD PUSH1 0x40 MSTORE DUP1 PUSH1 0x12 DUP2 MSTORE PUSH1 0x20 ADD PUSH32 0x20667265652067616D6573206C6566742E0A0000000000000000000000000000 DUP2 MSTORE POP PUSH1 0x40 MLOAD PUSH1 0x20 ADD PUSH2 0x2E0D SWAP10 SWAP9 SWAP8 SWAP7 SWAP6 SWAP5 SWAP4 SWAP3 SWAP2 SWAP1 PUSH2 0x3CF7 JUMP JUMPDEST PUSH1 0x40 MLOAD PUSH1 0x20 DUP2 DUP4 SUB SUB DUP2 MSTORE SWAP1 PUSH1 0x40 MSTORE SWAP2 POP JUMPDEST PUSH1 0x40 MLOAD DUP1 PUSH1 0xE0 ADD PUSH1 0x40 MSTORE DUP1 PUSH1 0x0 ISZERO ISZERO DUP2 MSTORE PUSH1 0x20 ADD PUSH1 0x40 MLOAD DUP1 PUSH1 0x20 ADD PUSH1 0x40 MSTORE DUP1 PUSH1 0x0 DUP2 MSTORE POP DUP2 MSTORE PUSH1 0x20 ADD PUSH1 0x40 MLOAD DUP1 PUSH1 0x20 ADD PUSH1 0x40 MSTORE DUP1 PUSH1 0x0 DUP2 MSTORE POP DUP2 MSTORE PUSH1 0x20 ADD PUSH1 0x40 MLOAD DUP1 PUSH1 0x20 ADD PUSH1 0x40 MSTORE DUP1 PUSH1 0x0 DUP2 MSTORE POP DUP2 MSTORE PUSH1 0x20 ADD PUSH1 0x0 DUP2 MSTORE PUSH1 0x20 ADD PUSH1 0x0 DUP2 MSTORE PUSH1 0x20 ADD PUSH1 0x0 PUSH1 0x2 DUP2 GT ISZERO PUSH2 0x2E94 JUMPI PUSH2 0x2E93 PUSH2 0x44DD JUMP JUMPDEST JUMPDEST DUP2 MSTORE POP DUP2 PUSH1 0x80 ADD DUP2 SWAP1 MSTORE POP DUP1 PUSH1 0x4 PUSH1 0x0 CALLER PUSH20 0xFFFFFFFFFFFFFFFFFFFFFFFFFFFFFFFFFFFFFFFF AND PUSH20 0xFFFFFFFFFFFFFFFFFFFFFFFFFFFFFFFFFFFFFFFF AND DUP2 MSTORE PUSH1 0x20 ADD SWAP1 DUP2 MSTORE PUSH1 0x20 ADD PUSH1 0x0 KECCAK256 PUSH1 0x0 DUP3 ADD MLOAD DUP2 PUSH1 0x0 ADD PUSH1 0x0 PUSH2 0x100 EXP DUP2 SLOAD DUP2 PUSH20 0xFFFFFFFFFFFFFFFFFFFFFFFFFFFFFFFFFFFFFFFF MUL NOT AND SWAP1 DUP4 PUSH20 0xFFFFFFFFFFFFFFFFFFFFFFFFFFFFFFFFFFFFFFFF AND MUL OR SWAP1 SSTORE POP PUSH1 0x20 DUP3 ADD MLOAD DUP2 PUSH1 0x1 ADD SWAP1 DUP1 MLOAD SWAP1 PUSH1 0x20 ADD SWAP1 PUSH2 0x2F42 SWAP3 SWAP2 SWAP1 PUSH2 0x3407 JUMP JUMPDEST POP PUSH1 0x40 DUP3 ADD MLOAD DUP2 PUSH1 0x2 ADD SSTORE PUSH1 0x60 DUP3 ADD MLOAD DUP2 PUSH1 0x3 ADD SSTORE PUSH1 0x80 DUP3 ADD MLOAD DUP2 PUSH1 0x4 ADD PUSH1 0x0 DUP3 ADD MLOAD DUP2 PUSH1 0x0 ADD PUSH1 0x0 PUSH2 0x100 EXP DUP2 SLOAD DUP2 PUSH1 0xFF MUL NOT AND SWAP1 DUP4 ISZERO ISZERO MUL OR SWAP1 SSTORE POP PUSH1 0x20 DUP3 ADD MLOAD DUP2 PUSH1 0x1 ADD SWAP1 DUP1 MLOAD SWAP1 PUSH1 0x20 ADD SWAP1 PUSH2 0x2F9C SWAP3 SWAP2 SWAP1 PUSH2 0x3336 JUMP JUMPDEST POP PUSH1 0x40 DUP3 ADD MLOAD DUP2 PUSH1 0x2 ADD SWAP1 DUP1 MLOAD SWAP1 PUSH1 0x20 ADD SWAP1 PUSH2 0x2FB9 SWAP3 SWAP2 SWAP1 PUSH2 0x3336 JUMP JUMPDEST POP PUSH1 0x60 DUP3 ADD MLOAD DUP2 PUSH1 0x3 ADD SWAP1 DUP1 MLOAD SWAP1 PUSH1 0x20 ADD SWAP1 PUSH2 0x2FD6 SWAP3 SWAP2 SWAP1 PUSH2 0x3336 JUMP JUMPDEST POP PUSH1 0x80 DUP3 ADD MLOAD DUP2 PUSH1 0x4 ADD SSTORE PUSH1 0xA0 DUP3 ADD MLOAD DUP2 PUSH1 0x5 ADD SSTORE PUSH1 0xC0 DUP3 ADD MLOAD DUP2 PUSH1 0x6 ADD PUSH1 0x0 PUSH2 0x100 EXP DUP2 SLOAD DUP2 PUSH1 0xFF MUL NOT AND SWAP1 DUP4 PUSH1 0x2 DUP2 GT ISZERO PUSH2 0x3016 JUMPI PUSH2 0x3015 PUSH2 0x44DD JUMP JUMPDEST JUMPDEST MUL OR SWAP1 SSTORE POP POP POP SWAP1 POP POP DUP2 SWAP3 POP POP POP SWAP2 SWAP1 POP JUMP JUMPDEST PUSH1 0x0 DUP1 PUSH1 0x1 SWAP1 POP PUSH1 0x0 PUSH1 0x4 PUSH1 0x0 CALLER PUSH20 0xFFFFFFFFFFFFFFFFFFFFFFFFFFFFFFFFFFFFFFFF AND PUSH20 0xFFFFFFFFFFFFFFFFFFFFFFFFFFFFFFFFFFFFFFFF AND DUP2 MSTORE PUSH1 0x20 ADD SWAP1 DUP2 MSTORE PUSH1 0x20 ADD PUSH1 0x0 KECCAK256 PUSH1 0x4 ADD PUSH1 0x40 MLOAD DUP1 PUSH1 0xE0 ADD PUSH1 0x40 MSTORE SWAP1 DUP2 PUSH1 0x0 DUP3 ADD PUSH1 0x0 SWAP1 SLOAD SWAP1 PUSH2 0x100 EXP SWAP1 DIV PUSH1 0xFF AND ISZERO ISZERO ISZERO ISZERO DUP2 MSTORE PUSH1 0x20 ADD PUSH1 0x1 DUP3 ADD DUP1 SLOAD PUSH2 0x30AB SWAP1 PUSH2 0x4398 JUMP JUMPDEST DUP1 PUSH1 0x1F ADD PUSH1 0x20 DUP1 SWAP2 DIV MUL PUSH1 0x20 ADD PUSH1 0x40 MLOAD SWAP1 DUP2 ADD PUSH1 0x40 MSTORE DUP1 SWAP3 SWAP2 SWAP1 DUP2 DUP2 MSTORE PUSH1 0x20 ADD DUP3 DUP1 SLOAD PUSH2 0x30D7 SWAP1 PUSH2 0x4398 JUMP JUMPDEST DUP1 ISZERO PUSH2 0x3124 JUMPI DUP1 PUSH1 0x1F LT PUSH2 0x30F9 JUMPI PUSH2 0x100 DUP1 DUP4 SLOAD DIV MUL DUP4 MSTORE SWAP2 PUSH1 0x20 ADD SWAP2 PUSH2 0x3124 JUMP JUMPDEST DUP3 ADD SWAP2 SWAP1 PUSH1 0x0 MSTORE PUSH1 0x20 PUSH1 0x0 KECCAK256 SWAP1 JUMPDEST DUP2 SLOAD DUP2 MSTORE SWAP1 PUSH1 0x1 ADD SWAP1 PUSH1 0x20 ADD DUP1 DUP4 GT PUSH2 0x3107 JUMPI DUP3 SWAP1 SUB PUSH1 0x1F AND DUP3 ADD SWAP2 JUMPDEST POP POP POP POP POP DUP2 MSTORE PUSH1 0x20 ADD PUSH1 0x2 DUP3 ADD DUP1 SLOAD PUSH2 0x313D SWAP1 PUSH2 0x4398 JUMP JUMPDEST DUP1 PUSH1 0x1F ADD PUSH1 0x20 DUP1 SWAP2 DIV MUL PUSH1 0x20 ADD PUSH1 0x40 MLOAD SWAP1 DUP2 ADD PUSH1 0x40 MSTORE DUP1 SWAP3 SWAP2 SWAP1 DUP2 DUP2 MSTORE PUSH1 0x20 ADD DUP3 DUP1 SLOAD PUSH2 0x3169 SWAP1 PUSH2 0x4398 JUMP JUMPDEST DUP1 ISZERO PUSH2 0x31B6 JUMPI DUP1 PUSH1 0x1F LT PUSH2 0x318B JUMPI PUSH2 0x100 DUP1 DUP4 SLOAD DIV MUL DUP4 MSTORE SWAP2 PUSH1 0x20 ADD SWAP2 PUSH2 0x31B6 JUMP JUMPDEST DUP3 ADD SWAP2 SWAP1 PUSH1 0x0 MSTORE PUSH1 0x20 PUSH1 0x0 KECCAK256 SWAP1 JUMPDEST DUP2 SLOAD DUP2 MSTORE SWAP1 PUSH1 0x1 ADD SWAP1 PUSH1 0x20 ADD DUP1 DUP4 GT PUSH2 0x3199 JUMPI DUP3 SWAP1 SUB PUSH1 0x1F AND DUP3 ADD SWAP2 JUMPDEST POP POP POP POP POP DUP2 MSTORE PUSH1 0x20 ADD PUSH1 0x3 DUP3 ADD DUP1 SLOAD PUSH2 0x31CF SWAP1 PUSH2 0x4398 JUMP JUMPDEST DUP1 PUSH1 0x1F ADD PUSH1 0x20 DUP1 SWAP2 DIV MUL PUSH1 0x20 ADD PUSH1 0x40 MLOAD SWAP1 DUP2 ADD PUSH1 0x40 MSTORE DUP1 SWAP3 SWAP2 SWAP1 DUP2 DUP2 MSTORE PUSH1 0x20 ADD DUP3 DUP1 SLOAD PUSH2 0x31FB SWAP1 PUSH2 0x4398 JUMP JUMPDEST DUP1 ISZERO PUSH2 0x3248 JUMPI DUP1 PUSH1 0x1F LT PUSH2 0x321D JUMPI PUSH2 0x100 DUP1 DUP4 SLOAD DIV MUL DUP4 MSTORE SWAP2 PUSH1 0x20 ADD SWAP2 PUSH2 0x3248 JUMP JUMPDEST DUP3 ADD SWAP2 SWAP1 PUSH1 0x0 MSTORE PUSH1 0x20 PUSH1 0x0 KECCAK256 SWAP1 JUMPDEST DUP2 SLOAD DUP2 MSTORE SWAP1 PUSH1 0x1 ADD SWAP1 PUSH1 0x20 ADD DUP1 DUP4 GT PUSH2 0x322B JUMPI DUP3 SWAP1 SUB PUSH1 0x1F AND DUP3 ADD SWAP2 JUMPDEST POP POP POP POP POP DUP2 MSTORE PUSH1 0x20 ADD PUSH1 0x4 DUP3 ADD SLOAD DUP2 MSTORE PUSH1 0x20 ADD PUSH1 0x5 DUP3 ADD SLOAD DUP2 MSTORE PUSH1 0x20 ADD PUSH1 0x6 DUP3 ADD PUSH1 0x0 SWAP1 SLOAD SWAP1 PUSH2 0x100 EXP SWAP1 DIV PUSH1 0xFF AND PUSH1 0x2 DUP2 GT ISZERO PUSH2 0x328A JUMPI PUSH2 0x3289 PUSH2 0x44DD JUMP JUMPDEST JUMPDEST PUSH1 0x2 DUP2 GT ISZERO PUSH2 0x329C JUMPI PUSH2 0x329B PUSH2 0x44DD JUMP JUMPDEST JUMPDEST DUP2 MSTORE POP POP SWAP1 POP DUP1 PUSH1 0x20 ADD MLOAD PUSH1 0x40 MLOAD PUSH1 0x20 ADD PUSH2 0x32B7 SWAP2 SWAP1 PUSH2 0x3CE0 JUMP JUMPDEST PUSH1 0x40 MLOAD PUSH1 0x20 DUP2 DUP4 SUB SUB DUP2 MSTORE SWAP1 PUSH1 0x40 MSTORE DUP1 MLOAD SWAP1 PUSH1 0x20 ADD KECCAK256 DUP2 PUSH1 0x40 ADD MLOAD PUSH1 0x40 MLOAD PUSH1 0x20 ADD PUSH2 0x32E2 SWAP2 SWAP1 PUSH2 0x3CE0 JUMP JUMPDEST PUSH1 0x40 MLOAD PUSH1 0x20 DUP2 DUP4 SUB SUB DUP2 MSTORE SWAP1 PUSH1 0x40 MSTORE DUP1 MLOAD SWAP1 PUSH1 0x20 ADD KECCAK256 EQ SWAP2 POP DUP2 SWAP3 POP POP POP SWAP1 JUMP JUMPDEST PUSH1 0x0 DIFFICULTY TIMESTAMP PUSH1 0x40 MLOAD PUSH1 0x20 ADD PUSH2 0x3318 SWAP3 SWAP2 SWAP1 PUSH2 0x3EA4 JUMP JUMPDEST PUSH1 0x40 MLOAD PUSH1 0x20 DUP2 DUP4 SUB SUB DUP2 MSTORE SWAP1 PUSH1 0x40 MSTORE DUP1 MLOAD SWAP1 PUSH1 0x20 ADD KECCAK256 PUSH1 0x0 SHR SWAP1 POP SWAP1 JUMP JUMPDEST DUP3 DUP1 SLOAD PUSH2 0x3342 SWAP1 PUSH2 0x4398 JUMP JUMPDEST SWAP1 PUSH1 0x0 MSTORE PUSH1 0x20 PUSH1 0x0 KECCAK256 SWAP1 PUSH1 0x1F ADD PUSH1 0x20 SWAP1 DIV DUP2 ADD SWAP3 DUP3 PUSH2 0x3364 JUMPI PUSH1 0x0 DUP6 SSTORE PUSH2 0x33AB JUMP JUMPDEST DUP3 PUSH1 0x1F LT PUSH2 0x337D JUMPI DUP1 MLOAD PUSH1 0xFF NOT AND DUP4 DUP1 ADD OR DUP6 SSTORE PUSH2 0x33AB JUMP JUMPDEST DUP3 DUP1 ADD PUSH1 0x1 ADD DUP6 SSTORE DUP3 ISZERO PUSH2 0x33AB JUMPI SWAP2 DUP3 ADD JUMPDEST DUP3 DUP2 GT ISZERO PUSH2 0x33AA JUMPI DUP3 MLOAD DUP3 SSTORE SWAP2 PUSH1 0x20 ADD SWAP2 SWAP1 PUSH1 0x1 ADD SWAP1 PUSH2 0x338F JUMP JUMPDEST JUMPDEST POP SWAP1 POP PUSH2 0x33B8 SWAP2 SWAP1 PUSH2 0x348D JUMP JUMPDEST POP SWAP1 JUMP JUMPDEST PUSH1 0x40 MLOAD DUP1 PUSH1 0xA0 ADD PUSH1 0x40 MSTORE DUP1 PUSH1 0x0 PUSH20 0xFFFFFFFFFFFFFFFFFFFFFFFFFFFFFFFFFFFFFFFF AND DUP2 MSTORE PUSH1 0x20 ADD PUSH1 0x60 DUP2 MSTORE PUSH1 0x20 ADD PUSH1 0x0 DUP2 MSTORE PUSH1 0x20 ADD PUSH1 0x0 DUP2 MSTORE PUSH1 0x20 ADD PUSH2 0x3401 PUSH2 0x34AA JUMP JUMPDEST DUP2 MSTORE POP SWAP1 JUMP JUMPDEST DUP3 DUP1 SLOAD PUSH2 0x3413 SWAP1 PUSH2 0x4398 JUMP JUMPDEST SWAP1 PUSH1 0x0 MSTORE PUSH1 0x20 PUSH1 0x0 KECCAK256 SWAP1 PUSH1 0x1F ADD PUSH1 0x20 SWAP1 DIV DUP2 ADD SWAP3 DUP3 PUSH2 0x3435 JUMPI PUSH1 0x0 DUP6 SSTORE PUSH2 0x347C JUMP JUMPDEST DUP3 PUSH1 0x1F LT PUSH2 0x344E JUMPI DUP1 MLOAD PUSH1 0xFF NOT AND DUP4 DUP1 ADD OR DUP6 SSTORE PUSH2 0x347C JUMP JUMPDEST DUP3 DUP1 ADD PUSH1 0x1 ADD DUP6 SSTORE DUP3 ISZERO PUSH2 0x347C JUMPI SWAP2 DUP3 ADD JUMPDEST DUP3 DUP2 GT ISZERO PUSH2 0x347B JUMPI DUP3 MLOAD DUP3 SSTORE SWAP2 PUSH1 0x20 ADD SWAP2 SWAP1 PUSH1 0x1 ADD SWAP1 PUSH2 0x3460 JUMP JUMPDEST JUMPDEST POP SWAP1 POP PUSH2 0x3489 SWAP2 SWAP1 PUSH2 0x348D JUMP JUMPDEST POP SWAP1 JUMP JUMPDEST JUMPDEST DUP1 DUP3 GT ISZERO PUSH2 0x34A6 JUMPI PUSH1 0x0 DUP2 PUSH1 0x0 SWAP1 SSTORE POP PUSH1 0x1 ADD PUSH2 0x348E JUMP JUMPDEST POP SWAP1 JUMP JUMPDEST PUSH1 0x40 MLOAD DUP1 PUSH1 0xE0 ADD PUSH1 0x40 MSTORE DUP1 PUSH1 0x0 ISZERO ISZERO DUP2 MSTORE PUSH1 0x20 ADD PUSH1 0x60 DUP2 MSTORE PUSH1 0x20 ADD PUSH1 0x60 DUP2 MSTORE PUSH1 0x20 ADD PUSH1 0x60 DUP2 MSTORE PUSH1 0x20 ADD PUSH1 0x0 DUP2 MSTORE PUSH1 0x20 ADD PUSH1 0x0 DUP2 MSTORE PUSH1 0x20 ADD PUSH1 0x0 PUSH1 0x2 DUP2 GT ISZERO PUSH2 0x34F5 JUMPI PUSH2 0x34F4 PUSH2 0x44DD JUMP JUMPDEST JUMPDEST DUP2 MSTORE POP SWAP1 JUMP JUMPDEST PUSH1 0x0 PUSH2 0x350E PUSH2 0x3509 DUP5 PUSH2 0x4093 JUMP JUMPDEST PUSH2 0x406E JUMP JUMPDEST SWAP1 POP DUP3 DUP2 MSTORE PUSH1 0x20 DUP2 ADD DUP5 DUP5 DUP5 ADD GT ISZERO PUSH2 0x352A JUMPI PUSH2 0x3529 PUSH2 0x45A8 JUMP JUMPDEST JUMPDEST PUSH2 0x3535 DUP5 DUP3 DUP6 PUSH2 0x4365 JUMP JUMPDEST POP SWAP4 SWAP3 POP POP POP JUMP JUMPDEST PUSH1 0x0 DUP2 CALLDATALOAD SWAP1 POP PUSH2 0x354C DUP2 PUSH2 0x4883 JUMP JUMPDEST SWAP3 SWAP2 POP POP JUMP JUMPDEST PUSH1 0x0 DUP3 PUSH1 0x1F DUP4 ADD SLT PUSH2 0x3567 JUMPI PUSH2 0x3566 PUSH2 0x459E JUMP JUMPDEST JUMPDEST DUP2 MLOAD PUSH2 0x3577 DUP5 DUP3 PUSH1 0x20 DUP7 ADD PUSH2 0x34FB JUMP JUMPDEST SWAP2 POP POP SWAP3 SWAP2 POP POP JUMP JUMPDEST PUSH1 0x0 DUP2 CALLDATALOAD SWAP1 POP PUSH2 0x358F DUP2 PUSH2 0x489A JUMP JUMPDEST SWAP3 SWAP2 POP POP JUMP JUMPDEST PUSH1 0x0 DUP1 DUP4 PUSH1 0x1F DUP5 ADD SLT PUSH2 0x35AB JUMPI PUSH2 0x35AA PUSH2 0x459E JUMP JUMPDEST JUMPDEST DUP3 CALLDATALOAD SWAP1 POP PUSH8 0xFFFFFFFFFFFFFFFF DUP2 GT ISZERO PUSH2 0x35C8 JUMPI PUSH2 0x35C7 PUSH2 0x4599 JUMP JUMPDEST JUMPDEST PUSH1 0x20 DUP4 ADD SWAP2 POP DUP4 PUSH1 0x1 DUP3 MUL DUP4 ADD GT ISZERO PUSH2 0x35E4 JUMPI PUSH2 0x35E3 PUSH2 0x45A3 JUMP JUMPDEST JUMPDEST SWAP3 POP SWAP3 SWAP1 POP JUMP JUMPDEST PUSH1 0x0 DUP2 CALLDATALOAD SWAP1 POP PUSH2 0x35FA DUP2 PUSH2 0x48AA JUMP JUMPDEST SWAP3 SWAP2 POP POP JUMP JUMPDEST PUSH1 0x0 PUSH1 0x20 DUP3 DUP5 SUB SLT ISZERO PUSH2 0x3616 JUMPI PUSH2 0x3615 PUSH2 0x45B2 JUMP JUMPDEST JUMPDEST PUSH1 0x0 PUSH2 0x3624 DUP5 DUP3 DUP6 ADD PUSH2 0x353D JUMP JUMPDEST SWAP2 POP POP SWAP3 SWAP2 POP POP JUMP JUMPDEST PUSH1 0x0 PUSH1 0x20 DUP3 DUP5 SUB SLT ISZERO PUSH2 0x3643 JUMPI PUSH2 0x3642 PUSH2 0x45B2 JUMP JUMPDEST JUMPDEST PUSH1 0x0 DUP3 ADD MLOAD PUSH8 0xFFFFFFFFFFFFFFFF DUP2 GT ISZERO PUSH2 0x3661 JUMPI PUSH2 0x3660 PUSH2 0x45AD JUMP JUMPDEST JUMPDEST PUSH2 0x366D DUP5 DUP3 DUP6 ADD PUSH2 0x3552 JUMP JUMPDEST SWAP2 POP POP SWAP3 SWAP2 POP POP JUMP JUMPDEST PUSH1 0x0 PUSH1 0x20 DUP3 DUP5 SUB SLT ISZERO PUSH2 0x368C JUMPI PUSH2 0x368B PUSH2 0x45B2 JUMP JUMPDEST JUMPDEST PUSH1 0x0 PUSH2 0x369A DUP5 DUP3 DUP6 ADD PUSH2 0x3580 JUMP JUMPDEST SWAP2 POP POP SWAP3 SWAP2 POP POP JUMP JUMPDEST PUSH1 0x0 DUP1 PUSH1 0x0 PUSH1 0x40 DUP5 DUP7 SUB SLT ISZERO PUSH2 0x36BC JUMPI PUSH2 0x36BB PUSH2 0x45B2 JUMP JUMPDEST JUMPDEST PUSH1 0x0 PUSH2 0x36CA DUP7 DUP3 DUP8 ADD PUSH2 0x35EB JUMP JUMPDEST SWAP4 POP POP PUSH1 0x20 DUP5 ADD CALLDATALOAD PUSH8 0xFFFFFFFFFFFFFFFF DUP2 GT ISZERO PUSH2 0x36EB JUMPI PUSH2 0x36EA PUSH2 0x45AD JUMP JUMPDEST JUMPDEST PUSH2 0x36F7 DUP7 DUP3 DUP8 ADD PUSH2 0x3595 JUMP JUMPDEST SWAP3 POP SWAP3 POP POP SWAP3 POP SWAP3 POP SWAP3 JUMP JUMPDEST PUSH2 0x370C DUP2 PUSH2 0x42BF JUMP JUMPDEST DUP3 MSTORE POP POP JUMP JUMPDEST PUSH2 0x371B DUP2 PUSH2 0x42D1 JUMP JUMPDEST DUP3 MSTORE POP POP JUMP JUMPDEST PUSH2 0x372A DUP2 PUSH2 0x42D1 JUMP JUMPDEST DUP3 MSTORE POP POP JUMP JUMPDEST PUSH1 0x0 PUSH2 0x373B DUP3 PUSH2 0x4103 JUMP JUMPDEST PUSH2 0x3745 DUP2 DUP6 PUSH2 0x4119 JUMP JUMPDEST SWAP4 POP PUSH2 0x3755 DUP2 DUP6 PUSH1 0x20 DUP7 ADD PUSH2 0x4365 JUMP JUMPDEST PUSH2 0x375E DUP2 PUSH2 0x45B7 JUMP JUMPDEST DUP5 ADD SWAP2 POP POP SWAP3 SWAP2 POP POP JUMP JUMPDEST PUSH1 0x0 PUSH2 0x3774 DUP3 PUSH2 0x4103 JUMP JUMPDEST PUSH2 0x377E DUP2 DUP6 PUSH2 0x412A JUMP JUMPDEST SWAP4 POP PUSH2 0x378E DUP2 DUP6 PUSH1 0x20 DUP7 ADD PUSH2 0x4365 JUMP JUMPDEST PUSH2 0x3797 DUP2 PUSH2 0x45B7 JUMP JUMPDEST DUP5 ADD SWAP2 POP POP SWAP3 SWAP2 POP POP JUMP JUMPDEST PUSH1 0x0 PUSH2 0x37AD DUP3 PUSH2 0x4103 JUMP JUMPDEST PUSH2 0x37B7 DUP2 DUP6 PUSH2 0x413B JUMP JUMPDEST SWAP4 POP PUSH2 0x37C7 DUP2 DUP6 PUSH1 0x20 DUP7 ADD PUSH2 0x4365 JUMP JUMPDEST DUP1 DUP5 ADD SWAP2 POP POP SWAP3 SWAP2 POP POP JUMP JUMPDEST PUSH1 0x0 DUP2 SLOAD PUSH2 0x37E0 DUP2 PUSH2 0x4398 JUMP JUMPDEST PUSH2 0x37EA DUP2 DUP7 PUSH2 0x413B JUMP JUMPDEST SWAP5 POP PUSH1 0x1 DUP3 AND PUSH1 0x0 DUP2 EQ PUSH2 0x3805 JUMPI PUSH1 0x1 DUP2 EQ PUSH2 0x3816 JUMPI PUSH2 0x3849 JUMP JUMPDEST PUSH1 0xFF NOT DUP4 AND DUP7 MSTORE DUP2 DUP7 ADD SWAP4 POP PUSH2 0x3849 JUMP JUMPDEST PUSH2 0x381F DUP6 PUSH2 0x40D9 JUMP JUMPDEST PUSH1 0x0 JUMPDEST DUP4 DUP2 LT ISZERO PUSH2 0x3841 JUMPI DUP2 SLOAD DUP2 DUP10 ADD MSTORE PUSH1 0x1 DUP3 ADD SWAP2 POP PUSH1 0x20 DUP2 ADD SWAP1 POP PUSH2 0x3822 JUMP JUMPDEST DUP4 DUP9 ADD SWAP6 POP POP POP JUMPDEST POP POP POP SWAP3 SWAP2 POP POP JUMP JUMPDEST PUSH1 0x0 DUP2 SLOAD PUSH2 0x385F DUP2 PUSH2 0x4398 JUMP JUMPDEST PUSH2 0x3869 DUP2 DUP7 PUSH2 0x412A JUMP JUMPDEST SWAP5 POP PUSH1 0x1 DUP3 AND PUSH1 0x0 DUP2 EQ PUSH2 0x3884 JUMPI PUSH1 0x1 DUP2 EQ PUSH2 0x3896 JUMPI PUSH2 0x38C9 JUMP JUMPDEST PUSH1 0xFF NOT DUP4 AND DUP7 MSTORE PUSH1 0x20 DUP7 ADD SWAP4 POP PUSH2 0x38C9 JUMP JUMPDEST PUSH2 0x389F DUP6 PUSH2 0x40C4 JUMP JUMPDEST PUSH1 0x0 JUMPDEST DUP4 DUP2 LT ISZERO PUSH2 0x38C1 JUMPI DUP2 SLOAD DUP2 DUP10 ADD MSTORE PUSH1 0x1 DUP3 ADD SWAP2 POP PUSH1 0x20 DUP2 ADD SWAP1 POP PUSH2 0x38A2 JUMP JUMPDEST DUP1 DUP9 ADD SWAP6 POP POP POP JUMPDEST POP POP POP SWAP3 SWAP2 POP POP JUMP JUMPDEST PUSH2 0x38DB DUP2 PUSH2 0x4353 JUMP JUMPDEST DUP3 MSTORE POP POP JUMP JUMPDEST PUSH1 0x0 PUSH2 0x38EC DUP3 PUSH2 0x410E JUMP JUMPDEST PUSH2 0x38F6 DUP2 DUP6 PUSH2 0x4146 JUMP JUMPDEST SWAP4 POP PUSH2 0x3906 DUP2 DUP6 PUSH1 0x20 DUP7 ADD PUSH2 0x4365 JUMP JUMPDEST PUSH2 0x390F DUP2 PUSH2 0x45B7 JUMP JUMPDEST DUP5 ADD SWAP2 POP POP SWAP3 SWAP2 POP POP JUMP JUMPDEST PUSH1 0x0 PUSH2 0x3925 DUP3 PUSH2 0x410E JUMP JUMPDEST PUSH2 0x392F DUP2 DUP6 PUSH2 0x4157 JUMP JUMPDEST SWAP4 POP PUSH2 0x393F DUP2 DUP6 PUSH1 0x20 DUP7 ADD PUSH2 0x4365 JUMP JUMPDEST PUSH2 0x3948 DUP2 PUSH2 0x45B7 JUMP JUMPDEST DUP5 ADD SWAP2 POP POP SWAP3 SWAP2 POP POP JUMP JUMPDEST PUSH1 0x0 PUSH2 0x395E DUP3 PUSH2 0x410E JUMP JUMPDEST PUSH2 0x3968 DUP2 DUP6 PUSH2 0x4168 JUMP JUMPDEST SWAP4 POP PUSH2 0x3978 DUP2 DUP6 PUSH1 0x20 DUP7 ADD PUSH2 0x4365 JUMP JUMPDEST DUP1 DUP5 ADD SWAP2 POP POP SWAP3 SWAP2 POP POP JUMP JUMPDEST PUSH1 0x0 DUP2 SLOAD PUSH2 0x3991 DUP2 PUSH2 0x4398 JUMP JUMPDEST PUSH2 0x399B DUP2 DUP7 PUSH2 0x4168 JUMP JUMPDEST SWAP5 POP PUSH1 0x1 DUP3 AND PUSH1 0x0 DUP2 EQ PUSH2 0x39B6 JUMPI PUSH1 0x1 DUP2 EQ PUSH2 0x39C7 JUMPI PUSH2 0x39FA JUMP JUMPDEST PUSH1 0xFF NOT DUP4 AND DUP7 MSTORE DUP2 DUP7 ADD SWAP4 POP PUSH2 0x39FA JUMP JUMPDEST PUSH2 0x39D0 DUP6 PUSH2 0x40EE JUMP JUMPDEST PUSH1 0x0 JUMPDEST DUP4 DUP2 LT ISZERO PUSH2 0x39F2 JUMPI DUP2 SLOAD DUP2 DUP10 ADD MSTORE PUSH1 0x1 DUP3 ADD SWAP2 POP PUSH1 0x20 DUP2 ADD SWAP1 POP PUSH2 0x39D3 JUMP JUMPDEST DUP4 DUP9 ADD SWAP6 POP POP POP JUMPDEST POP POP POP SWAP3 SWAP2 POP POP JUMP JUMPDEST PUSH1 0x0 PUSH2 0x3A10 PUSH1 0x27 DUP4 PUSH2 0x4157 JUMP JUMPDEST SWAP2 POP PUSH2 0x3A1B DUP3 PUSH2 0x45C8 JUMP JUMPDEST PUSH1 0x40 DUP3 ADD SWAP1 POP SWAP2 SWAP1 POP JUMP JUMPDEST PUSH1 0x0 PUSH2 0x3A33 PUSH1 0xB DUP4 PUSH2 0x4168 JUMP JUMPDEST SWAP2 POP PUSH2 0x3A3E DUP3 PUSH2 0x4617 JUMP JUMPDEST PUSH1 0xB DUP3 ADD SWAP1 POP SWAP2 SWAP1 POP JUMP JUMPDEST PUSH1 0x0 PUSH2 0x3A56 PUSH1 0x15 DUP4 PUSH2 0x4168 JUMP JUMPDEST SWAP2 POP PUSH2 0x3A61 DUP3 PUSH2 0x4640 JUMP JUMPDEST PUSH1 0x15 DUP3 ADD SWAP1 POP SWAP2 SWAP1 POP JUMP JUMPDEST PUSH1 0x0 PUSH2 0x3A79 PUSH1 0x2B DUP4 PUSH2 0x4157 JUMP JUMPDEST SWAP2 POP PUSH2 0x3A84 DUP3 PUSH2 0x4669 JUMP JUMPDEST PUSH1 0x40 DUP3 ADD SWAP1 POP SWAP2 SWAP1 POP JUMP JUMPDEST PUSH1 0x0 PUSH2 0x3A9C PUSH1 0x2B DUP4 PUSH2 0x4157 JUMP JUMPDEST SWAP2 POP PUSH2 0x3AA7 DUP3 PUSH2 0x46B8 JUMP JUMPDEST PUSH1 0x40 DUP3 ADD SWAP1 POP SWAP2 SWAP1 POP JUMP JUMPDEST PUSH1 0x0 PUSH2 0x3ABF PUSH1 0x2F DUP4 PUSH2 0x4157 JUMP JUMPDEST SWAP2 POP PUSH2 0x3ACA DUP3 PUSH2 0x4707 JUMP JUMPDEST PUSH1 0x40 DUP3 ADD SWAP1 POP SWAP2 SWAP1 POP JUMP JUMPDEST PUSH1 0x0 PUSH2 0x3AE2 PUSH1 0x23 DUP4 PUSH2 0x4157 JUMP JUMPDEST SWAP2 POP PUSH2 0x3AED DUP3 PUSH2 0x4756 JUMP JUMPDEST PUSH1 0x40 DUP3 ADD SWAP1 POP SWAP2 SWAP1 POP JUMP JUMPDEST PUSH1 0x0 PUSH2 0x3B05 PUSH1 0x0 DUP4 PUSH2 0x4168 JUMP JUMPDEST SWAP2 POP PUSH2 0x3B10 DUP3 PUSH2 0x47A5 JUMP JUMPDEST PUSH1 0x0 DUP3 ADD SWAP1 POP SWAP2 SWAP1 POP JUMP JUMPDEST PUSH1 0x0 PUSH2 0x3B28 PUSH1 0x5E DUP4 PUSH2 0x4157 JUMP JUMPDEST SWAP2 POP PUSH2 0x3B33 DUP3 PUSH2 0x47A8 JUMP JUMPDEST PUSH1 0x60 DUP3 ADD SWAP1 POP SWAP2 SWAP1 POP JUMP JUMPDEST PUSH1 0x0 PUSH2 0x3B4B PUSH1 0x1D DUP4 PUSH2 0x4157 JUMP JUMPDEST SWAP2 POP PUSH2 0x3B56 DUP3 PUSH2 0x481D JUMP JUMPDEST PUSH1 0x20 DUP3 ADD SWAP1 POP SWAP2 SWAP1 POP JUMP JUMPDEST PUSH1 0x0 PUSH2 0x3B6E PUSH1 0xB DUP4 PUSH2 0x4168 JUMP JUMPDEST SWAP2 POP PUSH2 0x3B79 DUP3 PUSH2 0x4846 JUMP JUMPDEST PUSH1 0xB DUP3 ADD SWAP1 POP SWAP2 SWAP1 POP JUMP JUMPDEST PUSH1 0x0 PUSH1 0xE0 DUP4 ADD PUSH1 0x0 DUP4 ADD MLOAD PUSH2 0x3B9C PUSH1 0x0 DUP7 ADD DUP3 PUSH2 0x3712 JUMP JUMPDEST POP PUSH1 0x20 DUP4 ADD MLOAD DUP5 DUP3 SUB PUSH1 0x20 DUP7 ADD MSTORE PUSH2 0x3BB4 DUP3 DUP3 PUSH2 0x3730 JUMP JUMPDEST SWAP2 POP POP PUSH1 0x40 DUP4 ADD MLOAD DUP5 DUP3 SUB PUSH1 0x40 DUP7 ADD MSTORE PUSH2 0x3BCE DUP3 DUP3 PUSH2 0x3730 JUMP JUMPDEST SWAP2 POP POP PUSH1 0x60 DUP4 ADD MLOAD DUP5 DUP3 SUB PUSH1 0x60 DUP7 ADD MSTORE PUSH2 0x3BE8 DUP3 DUP3 PUSH2 0x3730 JUMP JUMPDEST SWAP2 POP POP PUSH1 0x80 DUP4 ADD MLOAD PUSH2 0x3BFD PUSH1 0x80 DUP7 ADD DUP3 PUSH2 0x3CAB JUMP JUMPDEST POP PUSH1 0xA0 DUP4 ADD MLOAD PUSH2 0x3C10 PUSH1 0xA0 DUP7 ADD DUP3 PUSH2 0x3CAB JUMP JUMPDEST POP PUSH1 0xC0 DUP4 ADD MLOAD PUSH2 0x3C23 PUSH1 0xC0 DUP7 ADD DUP3 PUSH2 0x38D2 JUMP JUMPDEST POP DUP1 SWAP2 POP POP SWAP3 SWAP2 POP POP JUMP JUMPDEST PUSH1 0x0 PUSH1 0xA0 DUP4 ADD PUSH1 0x0 DUP4 ADD MLOAD PUSH2 0x3C46 PUSH1 0x0 DUP7 ADD DUP3 PUSH2 0x3703 JUMP JUMPDEST POP PUSH1 0x20 DUP4 ADD MLOAD DUP5 DUP3 SUB PUSH1 0x20 DUP7 ADD MSTORE PUSH2 0x3C5E DUP3 DUP3 PUSH2 0x38E1 JUMP JUMPDEST SWAP2 POP POP PUSH1 0x40 DUP4 ADD MLOAD PUSH2 0x3C73 PUSH1 0x40 DUP7 ADD DUP3 PUSH2 0x3CAB JUMP JUMPDEST POP PUSH1 0x60 DUP4 ADD MLOAD PUSH2 0x3C86 PUSH1 0x60 DUP7 ADD DUP3 PUSH2 0x3CAB JUMP JUMPDEST POP PUSH1 0x80 DUP4 ADD MLOAD DUP5 DUP3 SUB PUSH1 0x80 DUP7 ADD MSTORE PUSH2 0x3C9E DUP3 DUP3 PUSH2 0x3B84 JUMP JUMPDEST SWAP2 POP POP DUP1 SWAP2 POP POP SWAP3 SWAP2 POP POP JUMP JUMPDEST PUSH2 0x3CB4 DUP2 PUSH2 0x433C JUMP JUMPDEST DUP3 MSTORE POP POP JUMP JUMPDEST PUSH2 0x3CC3 DUP2 PUSH2 0x433C JUMP JUMPDEST DUP3 MSTORE POP POP JUMP JUMPDEST PUSH2 0x3CDA PUSH2 0x3CD5 DUP3 PUSH2 0x433C JUMP JUMPDEST PUSH2 0x4444 JUMP JUMPDEST DUP3 MSTORE POP POP JUMP JUMPDEST PUSH1 0x0 PUSH2 0x3CEC DUP3 DUP5 PUSH2 0x37A2 JUMP JUMPDEST SWAP2 POP DUP2 SWAP1 POP SWAP3 SWAP2 POP POP JUMP JUMPDEST PUSH1 0x0 PUSH2 0x3D03 DUP3 DUP13 PUSH2 0x37A2 JUMP JUMPDEST SWAP2 POP PUSH2 0x3D0F DUP3 DUP12 PUSH2 0x37A2 JUMP JUMPDEST SWAP2 POP PUSH2 0x3D1B DUP3 DUP11 PUSH2 0x37A2 JUMP JUMPDEST SWAP2 POP PUSH2 0x3D27 DUP3 DUP10 PUSH2 0x37A2 JUMP JUMPDEST SWAP2 POP PUSH2 0x3D33 DUP3 DUP9 PUSH2 0x37A2 JUMP JUMPDEST SWAP2 POP PUSH2 0x3D3F DUP3 DUP8 PUSH2 0x37A2 JUMP JUMPDEST SWAP2 POP PUSH2 0x3D4B DUP3 DUP7 PUSH2 0x37A2 JUMP JUMPDEST SWAP2 POP PUSH2 0x3D57 DUP3 DUP6 PUSH2 0x37A2 JUMP JUMPDEST SWAP2 POP PUSH2 0x3D63 DUP3 DUP5 PUSH2 0x37A2 JUMP JUMPDEST SWAP2 POP DUP2 SWAP1 POP SWAP11 SWAP10 POP POP POP POP POP POP POP POP POP POP JUMP JUMPDEST PUSH1 0x0 PUSH2 0x3D82 DUP3 DUP14 PUSH2 0x37A2 JUMP JUMPDEST SWAP2 POP PUSH2 0x3D8E DUP3 DUP13 PUSH2 0x37A2 JUMP JUMPDEST SWAP2 POP PUSH2 0x3D9A DUP3 DUP12 PUSH2 0x37A2 JUMP JUMPDEST SWAP2 POP PUSH2 0x3DA6 DUP3 DUP11 PUSH2 0x37A2 JUMP JUMPDEST SWAP2 POP PUSH2 0x3DB2 DUP3 DUP10 PUSH2 0x37A2 JUMP JUMPDEST SWAP2 POP PUSH2 0x3DBE DUP3 DUP9 PUSH2 0x37A2 JUMP JUMPDEST SWAP2 POP PUSH2 0x3DCA DUP3 DUP8 PUSH2 0x37A2 JUMP JUMPDEST SWAP2 POP PUSH2 0x3DD6 DUP3 DUP7 PUSH2 0x37A2 JUMP JUMPDEST SWAP2 POP PUSH2 0x3DE2 DUP3 DUP6 PUSH2 0x37A2 JUMP JUMPDEST SWAP2 POP PUSH2 0x3DEE DUP3 DUP5 PUSH2 0x37A2 JUMP JUMPDEST SWAP2 POP DUP2 SWAP1 POP SWAP12 SWAP11 POP POP POP POP POP POP POP POP POP POP POP JUMP JUMPDEST PUSH1 0x0 PUSH2 0x3E0E DUP3 DUP5 PUSH2 0x37A2 JUMP JUMPDEST SWAP2 POP PUSH2 0x3E19 DUP3 PUSH2 0x3AF8 JUMP JUMPDEST SWAP2 POP DUP2 SWAP1 POP SWAP3 SWAP2 POP POP JUMP JUMPDEST PUSH1 0x0 PUSH2 0x3E30 DUP3 DUP5 PUSH2 0x37D3 JUMP JUMPDEST SWAP2 POP DUP2 SWAP1 POP SWAP3 SWAP2 POP POP JUMP JUMPDEST PUSH1 0x0 PUSH2 0x3E47 DUP3 DUP5 PUSH2 0x3984 JUMP JUMPDEST SWAP2 POP DUP2 SWAP1 POP SWAP3 SWAP2 POP POP JUMP JUMPDEST PUSH1 0x0 PUSH2 0x3E5D DUP3 PUSH2 0x3A49 JUMP JUMPDEST SWAP2 POP PUSH2 0x3E69 DUP3 DUP7 PUSH2 0x3953 JUMP JUMPDEST SWAP2 POP PUSH2 0x3E74 DUP3 PUSH2 0x3B61 JUMP JUMPDEST SWAP2 POP PUSH2 0x3E80 DUP3 DUP6 PUSH2 0x3953 JUMP JUMPDEST SWAP2 POP PUSH2 0x3E8B DUP3 PUSH2 0x3A26 JUMP JUMPDEST SWAP2 POP PUSH2 0x3E97 DUP3 DUP5 PUSH2 0x3953 JUMP JUMPDEST SWAP2 POP DUP2 SWAP1 POP SWAP5 SWAP4 POP POP POP POP JUMP JUMPDEST PUSH1 0x0 PUSH2 0x3EB0 DUP3 DUP6 PUSH2 0x3CC9 JUMP JUMPDEST PUSH1 0x20 DUP3 ADD SWAP2 POP PUSH2 0x3EC0 DUP3 DUP5 PUSH2 0x3CC9 JUMP JUMPDEST PUSH1 0x20 DUP3 ADD SWAP2 POP DUP2 SWAP1 POP SWAP4 SWAP3 POP POP POP JUMP JUMPDEST PUSH1 0x0 PUSH1 0x20 DUP3 ADD SWAP1 POP PUSH2 0x3EE5 PUSH1 0x0 DUP4 ADD DUP5 PUSH2 0x3721 JUMP JUMPDEST SWAP3 SWAP2 POP POP JUMP JUMPDEST PUSH1 0x0 PUSH1 0x20 DUP3 ADD SWAP1 POP DUP2 DUP2 SUB PUSH1 0x0 DUP4 ADD MSTORE PUSH2 0x3F05 DUP2 DUP5 PUSH2 0x3769 JUMP JUMPDEST SWAP1 POP SWAP3 SWAP2 POP POP JUMP JUMPDEST PUSH1 0x0 PUSH1 0x20 DUP3 ADD SWAP1 POP DUP2 DUP2 SUB PUSH1 0x0 DUP4 ADD MSTORE PUSH2 0x3F27 DUP2 DUP5 PUSH2 0x3852 JUMP JUMPDEST SWAP1 POP SWAP3 SWAP2 POP POP JUMP JUMPDEST PUSH1 0x0 PUSH1 0x20 DUP3 ADD SWAP1 POP DUP2 DUP2 SUB PUSH1 0x0 DUP4 ADD MSTORE PUSH2 0x3F49 DUP2 DUP5 PUSH2 0x391A JUMP JUMPDEST SWAP1 POP SWAP3 SWAP2 POP POP JUMP JUMPDEST PUSH1 0x0 PUSH1 0x20 DUP3 ADD SWAP1 POP DUP2 DUP2 SUB PUSH1 0x0 DUP4 ADD MSTORE PUSH2 0x3F6A DUP2 PUSH2 0x3A03 JUMP JUMPDEST SWAP1 POP SWAP2 SWAP1 POP JUMP JUMPDEST PUSH1 0x0 PUSH1 0x20 DUP3 ADD SWAP1 POP DUP2 DUP2 SUB PUSH1 0x0 DUP4 ADD MSTORE PUSH2 0x3F8A DUP2 PUSH2 0x3A6C JUMP JUMPDEST SWAP1 POP SWAP2 SWAP1 POP JUMP JUMPDEST PUSH1 0x0 PUSH1 0x20 DUP3 ADD SWAP1 POP DUP2 DUP2 SUB PUSH1 0x0 DUP4 ADD MSTORE PUSH2 0x3FAA DUP2 PUSH2 0x3A8F JUMP JUMPDEST SWAP1 POP SWAP2 SWAP1 POP JUMP JUMPDEST PUSH1 0x0 PUSH1 0x20 DUP3 ADD SWAP1 POP DUP2 DUP2 SUB PUSH1 0x0 DUP4 ADD MSTORE PUSH2 0x3FCA DUP2 PUSH2 0x3AB2 JUMP JUMPDEST SWAP1 POP SWAP2 SWAP1 POP JUMP JUMPDEST PUSH1 0x0 PUSH1 0x20 DUP3 ADD SWAP1 POP DUP2 DUP2 SUB PUSH1 0x0 DUP4 ADD MSTORE PUSH2 0x3FEA DUP2 PUSH2 0x3AD5 JUMP JUMPDEST SWAP1 POP SWAP2 SWAP1 POP JUMP JUMPDEST PUSH1 0x0 PUSH1 0x20 DUP3 ADD SWAP1 POP DUP2 DUP2 SUB PUSH1 0x0 DUP4 ADD MSTORE PUSH2 0x400A DUP2 PUSH2 0x3B1B JUMP JUMPDEST SWAP1 POP SWAP2 SWAP1 POP JUMP JUMPDEST PUSH1 0x0 PUSH1 0x20 DUP3 ADD SWAP1 POP DUP2 DUP2 SUB PUSH1 0x0 DUP4 ADD MSTORE PUSH2 0x402A DUP2 PUSH2 0x3B3E JUMP JUMPDEST SWAP1 POP SWAP2 SWAP1 POP JUMP JUMPDEST PUSH1 0x0 PUSH1 0x20 DUP3 ADD SWAP1 POP DUP2 DUP2 SUB PUSH1 0x0 DUP4 ADD MSTORE PUSH2 0x404B DUP2 DUP5 PUSH2 0x3C2E JUMP JUMPDEST SWAP1 POP SWAP3 SWAP2 POP POP JUMP JUMPDEST PUSH1 0x0 PUSH1 0x20 DUP3 ADD SWAP1 POP PUSH2 0x4068 PUSH1 0x0 DUP4 ADD DUP5 PUSH2 0x3CBA JUMP JUMPDEST SWAP3 SWAP2 POP POP JUMP JUMPDEST PUSH1 0x0 PUSH2 0x4078 PUSH2 0x4089 JUMP JUMPDEST SWAP1 POP PUSH2 0x4084 DUP3 DUP3 PUSH2 0x43CA JUMP JUMPDEST SWAP2 SWAP1 POP JUMP JUMPDEST PUSH1 0x0 PUSH1 0x40 MLOAD SWAP1 POP SWAP1 JUMP JUMPDEST PUSH1 0x0 PUSH8 0xFFFFFFFFFFFFFFFF DUP3 GT ISZERO PUSH2 0x40AE JUMPI PUSH2 0x40AD PUSH2 0x456A JUMP JUMPDEST JUMPDEST PUSH2 0x40B7 DUP3 PUSH2 0x45B7 JUMP JUMPDEST SWAP1 POP PUSH1 0x20 DUP2 ADD SWAP1 POP SWAP2 SWAP1 POP JUMP JUMPDEST PUSH1 0x0 DUP2 SWAP1 POP DUP2 PUSH1 0x0 MSTORE PUSH1 0x20 PUSH1 0x0 KECCAK256 SWAP1 POP SWAP2 SWAP1 POP JUMP JUMPDEST PUSH1 0x0 DUP2 SWAP1 POP DUP2 PUSH1 0x0 MSTORE PUSH1 0x20 PUSH1 0x0 KECCAK256 SWAP1 POP SWAP2 SWAP1 POP JUMP JUMPDEST PUSH1 0x0 DUP2 SWAP1 POP DUP2 PUSH1 0x0 MSTORE PUSH1 0x20 PUSH1 0x0 KECCAK256 SWAP1 POP SWAP2 SWAP1 POP JUMP JUMPDEST PUSH1 0x0 DUP2 MLOAD SWAP1 POP SWAP2 SWAP1 POP JUMP JUMPDEST PUSH1 0x0 DUP2 MLOAD SWAP1 POP SWAP2 SWAP1 POP JUMP JUMPDEST PUSH1 0x0 DUP3 DUP3 MSTORE PUSH1 0x20 DUP3 ADD SWAP1 POP SWAP3 SWAP2 POP POP JUMP JUMPDEST PUSH1 0x0 DUP3 DUP3 MSTORE PUSH1 0x20 DUP3 ADD SWAP1 POP SWAP3 SWAP2 POP POP JUMP JUMPDEST PUSH1 0x0 DUP2 SWAP1 POP SWAP3 SWAP2 POP POP JUMP JUMPDEST PUSH1 0x0 DUP3 DUP3 MSTORE PUSH1 0x20 DUP3 ADD SWAP1 POP SWAP3 SWAP2 POP POP JUMP JUMPDEST PUSH1 0x0 DUP3 DUP3 MSTORE PUSH1 0x20 DUP3 ADD SWAP1 POP SWAP3 SWAP2 POP POP JUMP JUMPDEST PUSH1 0x0 DUP2 SWAP1 POP SWAP3 SWAP2 POP POP JUMP JUMPDEST PUSH1 0x0 PUSH2 0x417E DUP3 PUSH2 0x433C JUMP JUMPDEST SWAP2 POP PUSH2 0x4189 DUP4 PUSH2 0x433C JUMP JUMPDEST SWAP3 POP DUP3 PUSH32 0xFFFFFFFFFFFFFFFFFFFFFFFFFFFFFFFFFFFFFFFFFFFFFFFFFFFFFFFFFFFFFFFF SUB DUP3 GT ISZERO PUSH2 0x41BE JUMPI PUSH2 0x41BD PUSH2 0x447F JUMP JUMPDEST JUMPDEST DUP3 DUP3 ADD SWAP1 POP SWAP3 SWAP2 POP POP JUMP JUMPDEST PUSH1 0x0 PUSH2 0x41D4 DUP3 PUSH2 0x4346 JUMP JUMPDEST SWAP2 POP PUSH2 0x41DF DUP4 PUSH2 0x4346 JUMP JUMPDEST SWAP3 POP DUP3 PUSH1 0xFF SUB DUP3 GT ISZERO PUSH2 0x41F5 JUMPI PUSH2 0x41F4 PUSH2 0x447F JUMP JUMPDEST JUMPDEST DUP3 DUP3 ADD SWAP1 POP SWAP3 SWAP2 POP POP JUMP JUMPDEST PUSH1 0x0 PUSH2 0x420B DUP3 PUSH2 0x433C JUMP JUMPDEST SWAP2 POP PUSH2 0x4216 DUP4 PUSH2 0x433C JUMP JUMPDEST SWAP3 POP DUP3 PUSH2 0x4226 JUMPI PUSH2 0x4225 PUSH2 0x44AE JUMP JUMPDEST JUMPDEST DUP3 DUP3 DIV SWAP1 POP SWAP3 SWAP2 POP POP JUMP JUMPDEST PUSH1 0x0 PUSH2 0x423C DUP3 PUSH2 0x433C JUMP JUMPDEST SWAP2 POP PUSH2 0x4247 DUP4 PUSH2 0x433C JUMP JUMPDEST SWAP3 POP DUP2 PUSH32 0xFFFFFFFFFFFFFFFFFFFFFFFFFFFFFFFFFFFFFFFFFFFFFFFFFFFFFFFFFFFFFFFF DIV DUP4 GT DUP3 ISZERO ISZERO AND ISZERO PUSH2 0x4280 JUMPI PUSH2 0x427F PUSH2 0x447F JUMP JUMPDEST JUMPDEST DUP3 DUP3 MUL SWAP1 POP SWAP3 SWAP2 POP POP JUMP JUMPDEST PUSH1 0x0 PUSH2 0x4296 DUP3 PUSH2 0x433C JUMP JUMPDEST SWAP2 POP PUSH2 0x42A1 DUP4 PUSH2 0x433C JUMP JUMPDEST SWAP3 POP DUP3 DUP3 LT ISZERO PUSH2 0x42B4 JUMPI PUSH2 0x42B3 PUSH2 0x447F JUMP JUMPDEST JUMPDEST DUP3 DUP3 SUB SWAP1 POP SWAP3 SWAP2 POP POP JUMP JUMPDEST PUSH1 0x0 PUSH2 0x42CA DUP3 PUSH2 0x431C JUMP JUMPDEST SWAP1 POP SWAP2 SWAP1 POP JUMP JUMPDEST PUSH1 0x0 DUP2 ISZERO ISZERO SWAP1 POP SWAP2 SWAP1 POP JUMP JUMPDEST PUSH1 0x0 PUSH32 0xFF00000000000000000000000000000000000000000000000000000000000000 DUP3 AND SWAP1 POP SWAP2 SWAP1 POP JUMP JUMPDEST PUSH1 0x0 DUP2 SWAP1 POP PUSH2 0x4317 DUP3 PUSH2 0x486F JUMP JUMPDEST SWAP2 SWAP1 POP JUMP JUMPDEST PUSH1 0x0 PUSH20 0xFFFFFFFFFFFFFFFFFFFFFFFFFFFFFFFFFFFFFFFF DUP3 AND SWAP1 POP SWAP2 SWAP1 POP JUMP JUMPDEST PUSH1 0x0 DUP2 SWAP1 POP SWAP2 SWAP1 POP JUMP JUMPDEST PUSH1 0x0 PUSH1 0xFF DUP3 AND SWAP1 POP SWAP2 SWAP1 POP JUMP JUMPDEST PUSH1 0x0 PUSH2 0x435E DUP3 PUSH2 0x4309 JUMP JUMPDEST SWAP1 POP SWAP2 SWAP1 POP JUMP JUMPDEST PUSH1 0x0 JUMPDEST DUP4 DUP2 LT ISZERO PUSH2 0x4383 JUMPI DUP1 DUP3 ADD MLOAD DUP2 DUP5 ADD MSTORE PUSH1 0x20 DUP2 ADD SWAP1 POP PUSH2 0x4368 JUMP JUMPDEST DUP4 DUP2 GT ISZERO PUSH2 0x4392 JUMPI PUSH1 0x0 DUP5 DUP5 ADD MSTORE JUMPDEST POP POP POP POP JUMP JUMPDEST PUSH1 0x0 PUSH1 0x2 DUP3 DIV SWAP1 POP PUSH1 0x1 DUP3 AND DUP1 PUSH2 0x43B0 JUMPI PUSH1 0x7F DUP3 AND SWAP2 POP JUMPDEST PUSH1 0x20 DUP3 LT DUP2 EQ ISZERO PUSH2 0x43C4 JUMPI PUSH2 0x43C3 PUSH2 0x450C JUMP JUMPDEST JUMPDEST POP SWAP2 SWAP1 POP JUMP JUMPDEST PUSH2 0x43D3 DUP3 PUSH2 0x45B7 JUMP JUMPDEST DUP2 ADD DUP2 DUP2 LT PUSH8 0xFFFFFFFFFFFFFFFF DUP3 GT OR ISZERO PUSH2 0x43F2 JUMPI PUSH2 0x43F1 PUSH2 0x456A JUMP JUMPDEST JUMPDEST DUP1 PUSH1 0x40 MSTORE POP POP POP JUMP JUMPDEST PUSH1 0x0 PUSH2 0x4406 DUP3 PUSH2 0x433C JUMP JUMPDEST SWAP2 POP PUSH32 0xFFFFFFFFFFFFFFFFFFFFFFFFFFFFFFFFFFFFFFFFFFFFFFFFFFFFFFFFFFFFFFFF DUP3 EQ ISZERO PUSH2 0x4439 JUMPI PUSH2 0x4438 PUSH2 0x447F JUMP JUMPDEST JUMPDEST PUSH1 0x1 DUP3 ADD SWAP1 POP SWAP2 SWAP1 POP JUMP JUMPDEST PUSH1 0x0 DUP2 SWAP1 POP SWAP2 SWAP1 POP JUMP JUMPDEST PUSH1 0x0 PUSH2 0x4459 DUP3 PUSH2 0x433C JUMP JUMPDEST SWAP2 POP PUSH2 0x4464 DUP4 PUSH2 0x433C JUMP JUMPDEST SWAP3 POP DUP3 PUSH2 0x4474 JUMPI PUSH2 0x4473 PUSH2 0x44AE JUMP JUMPDEST JUMPDEST DUP3 DUP3 MOD SWAP1 POP SWAP3 SWAP2 POP POP JUMP JUMPDEST PUSH32 0x4E487B7100000000000000000000000000000000000000000000000000000000 PUSH1 0x0 MSTORE PUSH1 0x11 PUSH1 0x4 MSTORE PUSH1 0x24 PUSH1 0x0 REVERT JUMPDEST PUSH32 0x4E487B7100000000000000000000000000000000000000000000000000000000 PUSH1 0x0 MSTORE PUSH1 0x12 PUSH1 0x4 MSTORE PUSH1 0x24 PUSH1 0x0 REVERT JUMPDEST PUSH32 0x4E487B7100000000000000000000000000000000000000000000000000000000 PUSH1 0x0 MSTORE PUSH1 0x21 PUSH1 0x4 MSTORE PUSH1 0x24 PUSH1 0x0 REVERT JUMPDEST PUSH32 0x4E487B7100000000000000000000000000000000000000000000000000000000 PUSH1 0x0 MSTORE PUSH1 0x22 PUSH1 0x4 MSTORE PUSH1 0x24 PUSH1 0x0 REVERT JUMPDEST PUSH32 0x4E487B7100000000000000000000000000000000000000000000000000000000 PUSH1 0x0 MSTORE PUSH1 0x32 PUSH1 0x4 MSTORE PUSH1 0x24 PUSH1 0x0 REVERT JUMPDEST PUSH32 0x4E487B7100000000000000000000000000000000000000000000000000000000 PUSH1 0x0 MSTORE PUSH1 0x41 PUSH1 0x4 MSTORE PUSH1 0x24 PUSH1 0x0 REVERT JUMPDEST PUSH1 0x0 DUP1 REVERT JUMPDEST PUSH1 0x0 DUP1 REVERT JUMPDEST PUSH1 0x0 DUP1 REVERT JUMPDEST PUSH1 0x0 DUP1 REVERT JUMPDEST PUSH1 0x0 DUP1 REVERT JUMPDEST PUSH1 0x0 DUP1 REVERT JUMPDEST PUSH1 0x0 PUSH1 0x1F NOT PUSH1 0x1F DUP4 ADD AND SWAP1 POP SWAP2 SWAP1 POP JUMP JUMPDEST PUSH32 0x596F752068617665206E6F20667265652067616D6573206C6566742E20506179 PUSH1 0x0 DUP3 ADD MSTORE PUSH32 0x2066697273742E00000000000000000000000000000000000000000000000000 PUSH1 0x20 DUP3 ADD MSTORE POP JUMP JUMPDEST PUSH32 0xA20332067616D65733A20000000000000000000000000000000000000000000 PUSH1 0x0 DUP3 ADD MSTORE POP JUMP JUMPDEST PUSH32 0x47616D6520636F7374733A0A20312067616D653A200000000000000000000000 PUSH1 0x0 DUP3 ADD MSTORE POP JUMP JUMPDEST PUSH32 0x596F752068617665206E6F74207061796564207965742E2043616C6C20706179 PUSH1 0x0 DUP3 ADD MSTORE PUSH32 0x5F67616D65206669727374000000000000000000000000000000000000000000 PUSH1 0x20 DUP3 ADD MSTORE POP JUMP JUMPDEST PUSH32 0x596F75206861766520616C7265616479207374617274656420612067616D652C PUSH1 0x0 DUP3 ADD MSTORE PUSH32 0x2066696E6973682069742E000000000000000000000000000000000000000000 PUSH1 0x20 DUP3 ADD MSTORE POP JUMP JUMPDEST PUSH32 0x4E6F2067616D652069732072756E6E696E67207269676874206E6F772C20796F PUSH1 0x0 DUP3 ADD MSTORE PUSH32 0x752063616E6E6F742067756573732E0000000000000000000000000000000000 PUSH1 0x20 DUP3 ADD MSTORE POP JUMP JUMPDEST PUSH32 0x596F7527766520616C726561647920677565737365642074686174206C657474 PUSH1 0x0 DUP3 ADD MSTORE PUSH32 0x65722E0000000000000000000000000000000000000000000000000000000000 PUSH1 0x20 DUP3 ADD MSTORE POP JUMP JUMPDEST POP JUMP JUMPDEST PUSH32 0x526571756573746564206C6576656C206F6620646966666963756C7479206E6F PUSH1 0x0 DUP3 ADD MSTORE PUSH32 0x7420617661696C61626C652E2043686F6F7365206265747765656E2028456173 PUSH1 0x20 DUP3 ADD MSTORE PUSH32 0x793A302C204E6F726D616C3A312C204368616C6C656E67696E673A32292E0000 PUSH1 0x40 DUP3 ADD MSTORE POP JUMP JUMPDEST PUSH32 0x4E6F2067616D652069732072756E6E696E67207269676874206E6F772E000000 PUSH1 0x0 DUP3 ADD MSTORE POP JUMP JUMPDEST PUSH32 0xA20322067616D65733A20000000000000000000000000000000000000000000 PUSH1 0x0 DUP3 ADD MSTORE POP JUMP JUMPDEST PUSH1 0x3 DUP2 LT PUSH2 0x4880 JUMPI PUSH2 0x487F PUSH2 0x44DD JUMP JUMPDEST JUMPDEST POP JUMP JUMPDEST PUSH2 0x488C DUP2 PUSH2 0x42DD JUMP JUMPDEST DUP2 EQ PUSH2 0x4897 JUMPI PUSH1 0x0 DUP1 REVERT JUMPDEST POP JUMP JUMPDEST PUSH1 0x3 DUP2 LT PUSH2 0x48A7 JUMPI PUSH1 0x0 DUP1 REVERT JUMPDEST POP JUMP JUMPDEST PUSH2 0x48B3 DUP2 PUSH2 0x433C JUMP JUMPDEST DUP2 EQ PUSH2 0x48BE JUMPI PUSH1 0x0 DUP1 REVERT JUMPDEST POP JUMP INVALID LOG2 PUSH5 0x6970667358 0x22 SLT KECCAK256 0xB2 0xBD PUSH2 0x18EC CODECOPY 0xE2 0xB2 CALLER MUL STOP 0xAA SIGNEXTEND PUSH16 0xBF6BCEE1BD1D9545A28DB20A01117657 0xDF JUMP PUSH5 0x736F6C6343 STOP ADDMOD SMOD STOP CALLER "
		},
		"gasEstimates": {
			"creation": {
				"codeDepositCost": "3735800",
				"executionCost": "infinite",
				"totalCost": "infinite"
			},
			"external": {
				"": "174",
				"get_game_costs()": "infinite",
				"get_hint()": "infinite",
				"get_player_info()": "infinite",
				"guess(bytes1)": "infinite",
				"pay_game(uint256,string)": "infinite",
				"print_word()": "infinite",
				"remaining_lifes()": "4859",
				"start_game(uint8)": "infinite"
			},
			"internal": {
				"alreadyGuessed(bytes1)": "infinite",
				"check_words()": "infinite",
				"end_game(bool)": "infinite",
				"initialize_word(uint256)": "infinite",
				"random()": "infinite",
				"send_to_owner(uint256)": "infinite",
				"set_word(bytes calldata)": "infinite",
				"store_new_player(string calldata)": "infinite",
				"uint2str(uint256)": "infinite"
			}
		},
		"methodIdentifiers": {
			"get_game_costs()": "a27633f0",
			"get_hint()": "fd33209a",
			"get_player_info()": "ff92c89f",
			"guess(bytes1)": "c3d72cc7",
			"pay_game(uint256,string)": "2adcea85",
			"print_word()": "5bb9fae1",
			"remaining_lifes()": "69fd50f5",
			"start_game(uint8)": "4bada13c"
		}
	},
	"abi": [
		{
			"inputs": [],
			"stateMutability": "payable",
			"type": "constructor"
		},
		{
			"stateMutability": "payable",
			"type": "fallback"
		},
		{
			"inputs": [],
			"name": "get_game_costs",
			"outputs": [
				{
					"internalType": "string",
					"name": "",
					"type": "string"
				}
			],
			"stateMutability": "view",
			"type": "function"
		},
		{
			"inputs": [],
			"name": "get_hint",
			"outputs": [
				{
					"internalType": "bytes",
					"name": "ret",
					"type": "bytes"
				}
			],
			"stateMutability": "nonpayable",
			"type": "function"
		},
		{
			"inputs": [],
			"name": "get_player_info",
			"outputs": [
				{
					"components": [
						{
							"internalType": "address",
							"name": "player_address",
							"type": "address"
						},
						{
							"internalType": "string",
							"name": "nickname",
							"type": "string"
						},
						{
							"internalType": "uint256",
							"name": "free_games",
							"type": "uint256"
						},
						{
							"internalType": "uint256",
							"name": "won_games",
							"type": "uint256"
						},
						{
							"components": [
								{
									"internalType": "bool",
									"name": "started",
									"type": "bool"
								},
								{
									"internalType": "bytes",
									"name": "true_word",
									"type": "bytes"
								},
								{
									"internalType": "bytes",
									"name": "current_word",
									"type": "bytes"
								},
								{
									"internalType": "bytes",
									"name": "tried_letters",
									"type": "bytes"
								},
								{
									"internalType": "uint256",
									"name": "word_length",
									"type": "uint256"
								},
								{
									"internalType": "uint256",
									"name": "remaining_lifes",
									"type": "uint256"
								},
								{
									"internalType": "enum hangman.LevelDifficulty",
									"name": "level",
									"type": "uint8"
								}
							],
							"internalType": "struct hangman.Game",
							"name": "game",
							"type": "tuple"
						}
					],
					"internalType": "struct hangman.Player",
					"name": "",
					"type": "tuple"
				}
			],
			"stateMutability": "view",
			"type": "function"
		},
		{
			"inputs": [
				{
					"internalType": "bytes1",
					"name": "letter",
					"type": "bytes1"
				}
			],
			"name": "guess",
			"outputs": [
				{
					"internalType": "string",
					"name": "",
					"type": "string"
				}
			],
			"stateMutability": "nonpayable",
			"type": "function"
		},
		{
			"inputs": [
				{
					"internalType": "uint256",
					"name": "amount",
					"type": "uint256"
				},
				{
					"internalType": "string",
					"name": "nickname",
					"type": "string"
				}
			],
			"name": "pay_game",
			"outputs": [
				{
					"internalType": "bool",
					"name": "success",
					"type": "bool"
				}
			],
			"stateMutability": "payable",
			"type": "function"
		},
		{
			"inputs": [],
			"name": "print_word",
			"outputs": [
				{
					"internalType": "string",
					"name": "",
					"type": "string"
				}
			],
			"stateMutability": "view",
			"type": "function"
		},
		{
			"inputs": [],
			"name": "remaining_lifes",
			"outputs": [
				{
					"internalType": "uint256",
					"name": "",
					"type": "uint256"
				}
			],
			"stateMutability": "view",
			"type": "function"
		},
		{
			"inputs": [
				{
					"internalType": "enum hangman.LevelDifficulty",
					"name": "_level",
					"type": "uint8"
				}
			],
			"name": "start_game",
			"outputs": [],
			"stateMutability": "nonpayable",
			"type": "function"
		},
		{
			"stateMutability": "payable",
			"type": "receive"
		}
	]
}