{
	"data": {
		"bytecode": {
			"linkReferences": {
				"contracts/LibraryRandomWords.sol": {
					"WordGenerator": [
						{
							"length": 20,
							"start": 1575
						}
					]
				}
			},
			"object": "6080604052604051806060016040528061c35062ffffff16815260200162015f9062ffffff1681526020016201d4c062ffffff168152506001906003620000489291906200008f565b50336000806101000a81548173ffffffffffffffffffffffffffffffffffffffff021916908373ffffffffffffffffffffffffffffffffffffffff160217905550620000fa565b8260038101928215620000c8579160200282015b82811115620000c7578251829062ffffff16905591602001919060010190620000a3565b5b509050620000d79190620000db565b5090565b5b80821115620000f6576000816000905550600101620000dc565b5090565b61243d806200010a6000396000f3fe60806040526004361061007f5760003560e01c80639373fc951161004e5780639373fc9514610137578063a27633f014610160578063c3d72cc71461018b578063fd33209a146101c857610086565b80634bada13c146100885780635bb9fae1146100b157806369fd50f5146100dc5780637e452e351461010757610086565b3661008657005b005b34801561009457600080fd5b506100af60048036038101906100aa9190611899565b6101f3565b005b3480156100bd57600080fd5b506100c661061e565b6040516100d39190611c3f565b60405180910390f35b3480156100e857600080fd5b506100f1610689565b6040516100fe9190611cc1565b60405180910390f35b610121600480360381019061011c91906118c6565b6109c2565b60405161012e9190611be7565b60405180910390f35b34801561014357600080fd5b5061015e600480360381019061015991906117c7565b610a0a565b005b34801561016c57600080fd5b50610175610a0e565b6040516101829190611c3f565b60405180910390f35b34801561019757600080fd5b506101b260048036038101906101ad9190611823565b610a98565b6040516101bf9190611be7565b60405180910390f35b3480156101d457600080fd5b506101dd611002565b6040516101ea9190611c02565b60405180910390f35b600060028111156102075761020661211a565b5b81600281111561021a5761021961211a565b5b1015801561024b57506002808111156102365761023561211a565b5b8160028111156102495761024861211a565b5b105b61028a576040517f08c379a000000000000000000000000000000000000000000000000000000000815260040161028190611ca1565b60405180910390fd5b6000600460003373ffffffffffffffffffffffffffffffffffffffff1673ffffffffffffffffffffffffffffffffffffffff1681526020019081526020016000206004016040518060c00160405290816000820180546102e990611fd5565b80601f016020809104026020016040519081016040528092919081815260200182805461031590611fd5565b80156103625780601f1061033757610100808354040283529160200191610362565b820191906000526020600020905b81548152906001019060200180831161034557829003601f168201915b5050505050815260200160018201805461037b90611fd5565b80601f01602080910402602001604051908101604052809291908181526020018280546103a790611fd5565b80156103f45780601f106103c9576101008083540402835291602001916103f4565b820191906000526020600020905b8154815290600101906020018083116103d757829003601f168201915b5050505050815260200160028201805461040d90611fd5565b80601f016020809104026020016040519081016040528092919081815260200182805461043990611fd5565b80156104865780601f1061045b57610100808354040283529160200191610486565b820191906000526020600020905b81548152906001019060200180831161046957829003601f168201915b5050505050815260200160038201548152602001600482015481526020016005820160009054906101000a900460ff1660028111156104c8576104c761211a565b5b60028111156104da576104d961211a565b5b815250509050818160a0019060028111156104f8576104f761211a565b5b9081600281111561050c5761050b61211a565b5b81525050600081608001818152505073__$2b6706dabec950b317ee88d4c8081ae11f$__63f56841836040518163ffffffff1660e01b815260040160006040518083038186803b15801561055f57600080fd5b505af4158015610573573d6000803e3d6000fd5b505050506040513d6000823e3d601f19601f8201168201806040525081019061059c9190611850565b816000018190525080600001515181606001818152505060405180602001604052806000815250816020018190525060005b81606001518110156106195781602001516040516020016105ef9190611b47565b6040516020818303038152906040528260200181905250808061061190612038565b9150506105ce565b505050565b6060600460003373ffffffffffffffffffffffffffffffffffffffff1673ffffffffffffffffffffffffffffffffffffffff1681526020019081526020016000206004016001016040516020016106759190611c1d565b604051602081830303815290604052905090565b6000806000600460003373ffffffffffffffffffffffffffffffffffffffff1673ffffffffffffffffffffffffffffffffffffffff1681526020019081526020016000206004016040518060c00160405290816000820180546106eb90611fd5565b80601f016020809104026020016040519081016040528092919081815260200182805461071790611fd5565b80156107645780601f1061073957610100808354040283529160200191610764565b820191906000526020600020905b81548152906001019060200180831161074757829003601f168201915b5050505050815260200160018201805461077d90611fd5565b80601f01602080910402602001604051908101604052809291908181526020018280546107a990611fd5565b80156107f65780601f106107cb576101008083540402835291602001916107f6565b820191906000526020600020905b8154815290600101906020018083116107d957829003601f168201915b5050505050815260200160028201805461080f90611fd5565b80601f016020809104026020016040519081016040528092919081815260200182805461083b90611fd5565b80156108885780601f1061085d57610100808354040283529160200191610888565b820191906000526020600020905b81548152906001019060200180831161086b57829003601f168201915b5050505050815260200160038201548152602001600482015481526020016005820160009054906101000a900460ff1660028111156108ca576108c961211a565b5b60028111156108dc576108db61211a565b5b815250509050600060028111156108f6576108f561211a565b5b8160a00151600281111561090d5761090c61211a565b5b141561092b57806080015160056109249190611ede565b91506109ba565b6001600281111561093f5761093e61211a565b5b8160a0015160028111156109565761095561211a565b5b1415610974578060800151600461096d9190611ede565b91506109b9565b6002808111156109875761098661211a565b5b8160a00151600281111561099e5761099d61211a565b5b14156109b857806080015160036109b59190611ede565b91505b5b5b819250505090565b600060016000600381106109d9576109d8612178565b5b01548210156109eb5760009050610a05565b8134146109f757600080fd5b610a00826112f4565b600190505b919050565b5050565b60606000610a316001600060038110610a2a57610a29612178565b5b015461135e565b610a4f60018060038110610a4857610a47612178565b5b015461135e565b610a6e6001600260038110610a6757610a66612178565b5b015461135e565b604051602001610a8093929190611b69565b60405160208183030381529060405290508091505090565b600080600460003373ffffffffffffffffffffffffffffffffffffffff1673ffffffffffffffffffffffffffffffffffffffff1681526020019081526020016000206004016040518060c0016040529081600082018054610af890611fd5565b80601f0160208091040260200160405190810160405280929190818152602001828054610b2490611fd5565b8015610b715780601f10610b4657610100808354040283529160200191610b71565b820191906000526020600020905b815481529060010190602001808311610b5457829003601f168201915b50505050508152602001600182018054610b8a90611fd5565b80601f0160208091040260200160405190810160405280929190818152602001828054610bb690611fd5565b8015610c035780601f10610bd857610100808354040283529160200191610c03565b820191906000526020600020905b815481529060010190602001808311610be657829003601f168201915b50505050508152602001600282018054610c1c90611fd5565b80601f0160208091040260200160405190810160405280929190818152602001828054610c4890611fd5565b8015610c955780601f10610c6a57610100808354040283529160200191610c95565b820191906000526020600020905b815481529060010190602001808311610c7857829003601f168201915b5050505050815260200160038201548152602001600482015481526020016005820160009054906101000a900460ff166002811115610cd757610cd661211a565b5b6002811115610ce957610ce861211a565b5b81525050905060006002811115610d0357610d0261211a565b5b8160a001516002811115610d1a57610d1961211a565b5b148015610d2b575060038160800151145b80610d6e575060016002811115610d4557610d4461211a565b5b8160a001516002811115610d5c57610d5b61211a565b5b148015610d6d575060048160800151145b5b80610db05750600280811115610d8757610d8661211a565b5b8160a001516002811115610d9e57610d9d61211a565b5b148015610daf575060058160800151145b5b610def576040517f08c379a0000000000000000000000000000000000000000000000000000000008152600401610de690611c61565b60405180910390fd5b610df8836114e7565b610e37576040517f08c379a0000000000000000000000000000000000000000000000000000000008152600401610e2e90611c81565b60405180910390fd5b6000816060015167ffffffffffffffff811115610e5757610e566121a7565b5b6040519080825280601f01601f191660200182016040528015610e895781602001600182028036833780820191505090505b5090506000805b8360600151811015610fcd5783600001518181518110610eb357610eb2612178565b5b602001015160f81c60f81b7effffffffffffffffffffffffffffffffffffffffffffffffffffffffffffff1916867effffffffffffffffffffffffffffffffffffffffffffffffffffffffffffff19161415610f555785838281518110610f1d57610f1c612178565b5b60200101907effffffffffffffffffffffffffffffffffffffffffffffffffffffffffffff1916908160001a90535060019150610fba565b83600001518181518110610f6c57610f6b612178565b5b602001015160f81c60f81b838281518110610f8a57610f89612178565b5b60200101907effffffffffffffffffffffffffffffffffffffffffffffffffffffffffffff1916908160001a9053505b8080610fc590612038565b915050610e90565b5081836020018190525080610ff757600183608001818151610fef9190611dc6565b915081815250505b809350505050919050565b600080600460003373ffffffffffffffffffffffffffffffffffffffff1673ffffffffffffffffffffffffffffffffffffffff1681526020019081526020016000206004016040518060c001604052908160008201805461106290611fd5565b80601f016020809104026020016040519081016040528092919081815260200182805461108e90611fd5565b80156110db5780601f106110b0576101008083540402835291602001916110db565b820191906000526020600020905b8154815290600101906020018083116110be57829003601f168201915b505050505081526020016001820180546110f490611fd5565b80601f016020809104026020016040519081016040528092919081815260200182805461112090611fd5565b801561116d5780601f106111425761010080835404028352916020019161116d565b820191906000526020600020905b81548152906001019060200180831161115057829003601f168201915b5050505050815260200160028201805461118690611fd5565b80601f01602080910402602001604051908101604052809291908181526020018280546111b290611fd5565b80156111ff5780601f106111d4576101008083540402835291602001916111ff565b820191906000526020600020905b8154815290600101906020018083116111e257829003601f168201915b5050505050815260200160038201548152602001600482015481526020016005820160009054906101000a900460ff1660028111156112415761124061211a565b5b60028111156112535761125261211a565b5b81525050905060008160600151611268611660565b611272919061208b565b905060008260000151828151811061128d5761128c612178565b5b602001015160f81c60f81b90505b6112a4816114e7565b156112eb5782606001516112b6611660565b6112c0919061208b565b9150826000015182815181106112d9576112d8612178565b5b602001015160f81c60f81b905061129b565b80935050505090565b60008054906101000a900473ffffffffffffffffffffffffffffffffffffffff1673ffffffffffffffffffffffffffffffffffffffff166108fc829081150290604051600060405180830381858888f1935050505015801561135a573d6000803e3d6000fd5b5050565b606060008214156113a6576040518060400160405280600181526020017f300000000000000000000000000000000000000000000000000000000000000081525090506114e2565b600082905060005b600082146113d85780806113c190612038565b915050600a826113d19190611e53565b91506113ae565b60008167ffffffffffffffff8111156113f4576113f36121a7565b5b6040519080825280601f01601f1916602001820160405280156114265781602001600182028036833780820191505090505b50905060008290505b600086146114da576001816114449190611ede565b90506000600a80886114569190611e53565b6114609190611e84565b8761146b9190611ede565b60306114779190611e1c565b905060008160f81b90508084848151811061149557611494612178565b5b60200101907effffffffffffffffffffffffffffffffffffffffffffffffffffffffffffff1916908160001a905350600a886114d19190611e53565b9750505061142f565b819450505050505b919050565b6000806000905060005b600460003373ffffffffffffffffffffffffffffffffffffffff1673ffffffffffffffffffffffffffffffffffffffff168152602001908152602001600020600401600201805461154190611fd5565b905081101561165657600460003373ffffffffffffffffffffffffffffffffffffffff1673ffffffffffffffffffffffffffffffffffffffff16815260200190815260200160002060040160020181815461159b90611fd5565b81106115aa576115a9612178565b5b8154600116156115c95790600052602060002090602091828204019190065b9054901a7f0100000000000000000000000000000000000000000000000000000000000000027effffffffffffffffffffffffffffffffffffffffffffffffffffffffffffff1916847effffffffffffffffffffffffffffffffffffffffffffffffffffffffffffff191614156116435760019150611656565b808061164e90612038565b9150506114f1565b5080915050919050565b60004442604051602001611675929190611bbb565b6040516020818303038152906040528051906020012060001c905090565b60006116a66116a184611d01565b611cdc565b9050828152602081018484840111156116c2576116c16121db565b5b6116cd848285611fa2565b509392505050565b60006116e86116e384611d32565b611cdc565b905082815260208101848484011115611704576117036121db565b5b61170f848285611f93565b509392505050565b600081359050611726816123b2565b92915050565b60008135905061173b816123c9565b92915050565b600082601f830112611756576117556121d6565b5b8151611766848260208601611693565b91505092915050565b60008135905061177e816123e0565b92915050565b600082601f830112611799576117986121d6565b5b81356117a98482602086016116d5565b91505092915050565b6000813590506117c1816123f0565b92915050565b600080604083850312156117de576117dd6121e5565b5b60006117ec85828601611717565b925050602083013567ffffffffffffffff81111561180d5761180c6121e0565b5b61181985828601611784565b9150509250929050565b600060208284031215611839576118386121e5565b5b60006118478482850161172c565b91505092915050565b600060208284031215611866576118656121e5565b5b600082015167ffffffffffffffff811115611884576118836121e0565b5b61189084828501611741565b91505092915050565b6000602082840312156118af576118ae6121e5565b5b60006118bd8482850161176f565b91505092915050565b6000602082840312156118dc576118db6121e5565b5b60006118ea848285016117b2565b91505092915050565b6118fc81611f24565b82525050565b61190b81611f30565b82525050565b600061191c82611d78565b6119268185611d9f565b9350611936818560208601611fa2565b80840191505092915050565b6000815461194f81611fd5565b6119598186611d8e565b945060018216600081146119745760018114611986576119b9565b60ff19831686526020860193506119b9565b61198f85611d63565b60005b838110156119b157815481890152600182019150602081019050611992565b808801955050505b50505092915050565b60006119cd82611d83565b6119d78185611daa565b93506119e7818560208601611fa2565b6119f0816121ea565b840191505092915050565b6000611a0682611d83565b611a108185611dbb565b9350611a20818560208601611fa2565b80840191505092915050565b6000611a39600b83611dbb565b9150611a44826121fb565b600b82019050919050565b6000611a5c601583611dbb565b9150611a6782612224565b601582019050919050565b6000611a7f602183611daa565b9150611a8a8261224d565b604082019050919050565b6000611aa2602383611daa565b9150611aad8261229c565b604082019050919050565b6000611ac5605e83611daa565b9150611ad0826122eb565b606082019050919050565b6000611ae8600183611dbb565b9150611af382612360565b600182019050919050565b6000611b0b600b83611dbb565b9150611b1682612389565b600b82019050919050565b611b2a81611f7c565b82525050565b611b41611b3c82611f7c565b612081565b82525050565b6000611b538284611911565b9150611b5e82611adb565b915081905092915050565b6000611b7482611a4f565b9150611b8082866119fb565b9150611b8b82611afe565b9150611b9782856119fb565b9150611ba282611a2c565b9150611bae82846119fb565b9150819050949350505050565b6000611bc78285611b30565b602082019150611bd78284611b30565b6020820191508190509392505050565b6000602082019050611bfc60008301846118f3565b92915050565b6000602082019050611c176000830184611902565b92915050565b60006020820190508181036000830152611c378184611942565b905092915050565b60006020820190508181036000830152611c5981846119c2565b905092915050565b60006020820190508181036000830152611c7a81611a72565b9050919050565b60006020820190508181036000830152611c9a81611a95565b9050919050565b60006020820190508181036000830152611cba81611ab8565b9050919050565b6000602082019050611cd66000830184611b21565b92915050565b6000611ce6611cf7565b9050611cf28282612007565b919050565b6000604051905090565b600067ffffffffffffffff821115611d1c57611d1b6121a7565b5b611d25826121ea565b9050602081019050919050565b600067ffffffffffffffff821115611d4d57611d4c6121a7565b5b611d56826121ea565b9050602081019050919050565b60008190508160005260206000209050919050565b600081519050919050565b600081519050919050565b600082825260208201905092915050565b600081905092915050565b600082825260208201905092915050565b600081905092915050565b6000611dd182611f7c565b9150611ddc83611f7c565b9250827fffffffffffffffffffffffffffffffffffffffffffffffffffffffffffffffff03821115611e1157611e106120bc565b5b828201905092915050565b6000611e2782611f86565b9150611e3283611f86565b92508260ff03821115611e4857611e476120bc565b5b828201905092915050565b6000611e5e82611f7c565b9150611e6983611f7c565b925082611e7957611e786120eb565b5b828204905092915050565b6000611e8f82611f7c565b9150611e9a83611f7c565b9250817fffffffffffffffffffffffffffffffffffffffffffffffffffffffffffffffff0483118215151615611ed357611ed26120bc565b5b828202905092915050565b6000611ee982611f7c565b9150611ef483611f7c565b925082821015611f0757611f066120bc565b5b828203905092915050565b6000611f1d82611f5c565b9050919050565b60008115159050919050565b60007fff0000000000000000000000000000000000000000000000000000000000000082169050919050565b600073ffffffffffffffffffffffffffffffffffffffff82169050919050565b6000819050919050565b600060ff82169050919050565b82818337600083830152505050565b60005b83811015611fc0578082015181840152602081019050611fa5565b83811115611fcf576000848401525b50505050565b60006002820490506001821680611fed57607f821691505b6020821081141561200157612000612149565b5b50919050565b612010826121ea565b810181811067ffffffffffffffff8211171561202f5761202e6121a7565b5b80604052505050565b600061204382611f7c565b91507fffffffffffffffffffffffffffffffffffffffffffffffffffffffffffffffff821415612076576120756120bc565b5b600182019050919050565b6000819050919050565b600061209682611f7c565b91506120a183611f7c565b9250826120b1576120b06120eb565b5b828206905092915050565b7f4e487b7100000000000000000000000000000000000000000000000000000000600052601160045260246000fd5b7f4e487b7100000000000000000000000000000000000000000000000000000000600052601260045260246000fd5b7f4e487b7100000000000000000000000000000000000000000000000000000000600052602160045260246000fd5b7f4e487b7100000000000000000000000000000000000000000000000000000000600052602260045260246000fd5b7f4e487b7100000000000000000000000000000000000000000000000000000000600052603260045260246000fd5b7f4e487b7100000000000000000000000000000000000000000000000000000000600052604160045260246000fd5b600080fd5b600080fd5b600080fd5b600080fd5b6000601f19601f8301169050919050565b7f0a20332067616d65733a20000000000000000000000000000000000000000000600082015250565b7f47616d6520636f7374733a0a20312067616d653a200000000000000000000000600082015250565b7f596f752063616e20646f206265747465722e204e6f206775657373206c65667460008201527f2e00000000000000000000000000000000000000000000000000000000000000602082015250565b7f596f7527766520616c726561647920677565737365642074686174206c65747460008201527f65722e0000000000000000000000000000000000000000000000000000000000602082015250565b7f526571756573746564206c6576656c206f6620646966666963756c7479206e6f60008201527f7420617661696c61626c652e2043686f6f7365206265747765656e202845617360208201527f793a302c204e6f726d616c3a312c204368616c6c656e67696e673a32292e0000604082015250565b7f5f00000000000000000000000000000000000000000000000000000000000000600082015250565b7f0a20322067616d65733a20000000000000000000000000000000000000000000600082015250565b6123bb81611f12565b81146123c657600080fd5b50565b6123d281611f30565b81146123dd57600080fd5b50565b600381106123ed57600080fd5b50565b6123f981611f7c565b811461240457600080fd5b5056fea2646970667358221220f84d5f09b594dc60a2db9945f28f84a4c83e2952246fa737532e719a3b6256a764736f6c63430008070033",
			"opcodes": "PUSH1 0x80 PUSH1 0x40 MSTORE PUSH1 0x40 MLOAD DUP1 PUSH1 0x60 ADD PUSH1 0x40 MSTORE DUP1 PUSH2 0xC350 PUSH3 0xFFFFFF AND DUP2 MSTORE PUSH1 0x20 ADD PUSH3 0x15F90 PUSH3 0xFFFFFF AND DUP2 MSTORE PUSH1 0x20 ADD PUSH3 0x1D4C0 PUSH3 0xFFFFFF AND DUP2 MSTORE POP PUSH1 0x1 SWAP1 PUSH1 0x3 PUSH3 0x48 SWAP3 SWAP2 SWAP1 PUSH3 0x8F JUMP JUMPDEST POP CALLER PUSH1 0x0 DUP1 PUSH2 0x100 EXP DUP2 SLOAD DUP2 PUSH20 0xFFFFFFFFFFFFFFFFFFFFFFFFFFFFFFFFFFFFFFFF MUL NOT AND SWAP1 DUP4 PUSH20 0xFFFFFFFFFFFFFFFFFFFFFFFFFFFFFFFFFFFFFFFF AND MUL OR SWAP1 SSTORE POP PUSH3 0xFA JUMP JUMPDEST DUP3 PUSH1 0x3 DUP2 ADD SWAP3 DUP3 ISZERO PUSH3 0xC8 JUMPI SWAP2 PUSH1 0x20 MUL DUP3 ADD JUMPDEST DUP3 DUP2 GT ISZERO PUSH3 0xC7 JUMPI DUP3 MLOAD DUP3 SWAP1 PUSH3 0xFFFFFF AND SWAP1 SSTORE SWAP2 PUSH1 0x20 ADD SWAP2 SWAP1 PUSH1 0x1 ADD SWAP1 PUSH3 0xA3 JUMP JUMPDEST JUMPDEST POP SWAP1 POP PUSH3 0xD7 SWAP2 SWAP1 PUSH3 0xDB JUMP JUMPDEST POP SWAP1 JUMP JUMPDEST JUMPDEST DUP1 DUP3 GT ISZERO PUSH3 0xF6 JUMPI PUSH1 0x0 DUP2 PUSH1 0x0 SWAP1 SSTORE POP PUSH1 0x1 ADD PUSH3 0xDC JUMP JUMPDEST POP SWAP1 JUMP JUMPDEST PUSH2 0x243D DUP1 PUSH3 0x10A PUSH1 0x0 CODECOPY PUSH1 0x0 RETURN INVALID PUSH1 0x80 PUSH1 0x40 MSTORE PUSH1 0x4 CALLDATASIZE LT PUSH2 0x7F JUMPI PUSH1 0x0 CALLDATALOAD PUSH1 0xE0 SHR DUP1 PUSH4 0x9373FC95 GT PUSH2 0x4E JUMPI DUP1 PUSH4 0x9373FC95 EQ PUSH2 0x137 JUMPI DUP1 PUSH4 0xA27633F0 EQ PUSH2 0x160 JUMPI DUP1 PUSH4 0xC3D72CC7 EQ PUSH2 0x18B JUMPI DUP1 PUSH4 0xFD33209A EQ PUSH2 0x1C8 JUMPI PUSH2 0x86 JUMP JUMPDEST DUP1 PUSH4 0x4BADA13C EQ PUSH2 0x88 JUMPI DUP1 PUSH4 0x5BB9FAE1 EQ PUSH2 0xB1 JUMPI DUP1 PUSH4 0x69FD50F5 EQ PUSH2 0xDC JUMPI DUP1 PUSH4 0x7E452E35 EQ PUSH2 0x107 JUMPI PUSH2 0x86 JUMP JUMPDEST CALLDATASIZE PUSH2 0x86 JUMPI STOP JUMPDEST STOP JUMPDEST CALLVALUE DUP1 ISZERO PUSH2 0x94 JUMPI PUSH1 0x0 DUP1 REVERT JUMPDEST POP PUSH2 0xAF PUSH1 0x4 DUP1 CALLDATASIZE SUB DUP2 ADD SWAP1 PUSH2 0xAA SWAP2 SWAP1 PUSH2 0x1899 JUMP JUMPDEST PUSH2 0x1F3 JUMP JUMPDEST STOP JUMPDEST CALLVALUE DUP1 ISZERO PUSH2 0xBD JUMPI PUSH1 0x0 DUP1 REVERT JUMPDEST POP PUSH2 0xC6 PUSH2 0x61E JUMP JUMPDEST PUSH1 0x40 MLOAD PUSH2 0xD3 SWAP2 SWAP1 PUSH2 0x1C3F JUMP JUMPDEST PUSH1 0x40 MLOAD DUP1 SWAP2 SUB SWAP1 RETURN JUMPDEST CALLVALUE DUP1 ISZERO PUSH2 0xE8 JUMPI PUSH1 0x0 DUP1 REVERT JUMPDEST POP PUSH2 0xF1 PUSH2 0x689 JUMP JUMPDEST PUSH1 0x40 MLOAD PUSH2 0xFE SWAP2 SWAP1 PUSH2 0x1CC1 JUMP JUMPDEST PUSH1 0x40 MLOAD DUP1 SWAP2 SUB SWAP1 RETURN JUMPDEST PUSH2 0x121 PUSH1 0x4 DUP1 CALLDATASIZE SUB DUP2 ADD SWAP1 PUSH2 0x11C SWAP2 SWAP1 PUSH2 0x18C6 JUMP JUMPDEST PUSH2 0x9C2 JUMP JUMPDEST PUSH1 0x40 MLOAD PUSH2 0x12E SWAP2 SWAP1 PUSH2 0x1BE7 JUMP JUMPDEST PUSH1 0x40 MLOAD DUP1 SWAP2 SUB SWAP1 RETURN JUMPDEST CALLVALUE DUP1 ISZERO PUSH2 0x143 JUMPI PUSH1 0x0 DUP1 REVERT JUMPDEST POP PUSH2 0x15E PUSH1 0x4 DUP1 CALLDATASIZE SUB DUP2 ADD SWAP1 PUSH2 0x159 SWAP2 SWAP1 PUSH2 0x17C7 JUMP JUMPDEST PUSH2 0xA0A JUMP JUMPDEST STOP JUMPDEST CALLVALUE DUP1 ISZERO PUSH2 0x16C JUMPI PUSH1 0x0 DUP1 REVERT JUMPDEST POP PUSH2 0x175 PUSH2 0xA0E JUMP JUMPDEST PUSH1 0x40 MLOAD PUSH2 0x182 SWAP2 SWAP1 PUSH2 0x1C3F JUMP JUMPDEST PUSH1 0x40 MLOAD DUP1 SWAP2 SUB SWAP1 RETURN JUMPDEST CALLVALUE DUP1 ISZERO PUSH2 0x197 JUMPI PUSH1 0x0 DUP1 REVERT JUMPDEST POP PUSH2 0x1B2 PUSH1 0x4 DUP1 CALLDATASIZE SUB DUP2 ADD SWAP1 PUSH2 0x1AD SWAP2 SWAP1 PUSH2 0x1823 JUMP JUMPDEST PUSH2 0xA98 JUMP JUMPDEST PUSH1 0x40 MLOAD PUSH2 0x1BF SWAP2 SWAP1 PUSH2 0x1BE7 JUMP JUMPDEST PUSH1 0x40 MLOAD DUP1 SWAP2 SUB SWAP1 RETURN JUMPDEST CALLVALUE DUP1 ISZERO PUSH2 0x1D4 JUMPI PUSH1 0x0 DUP1 REVERT JUMPDEST POP PUSH2 0x1DD PUSH2 0x1002 JUMP JUMPDEST PUSH1 0x40 MLOAD PUSH2 0x1EA SWAP2 SWAP1 PUSH2 0x1C02 JUMP JUMPDEST PUSH1 0x40 MLOAD DUP1 SWAP2 SUB SWAP1 RETURN JUMPDEST PUSH1 0x0 PUSH1 0x2 DUP2 GT ISZERO PUSH2 0x207 JUMPI PUSH2 0x206 PUSH2 0x211A JUMP JUMPDEST JUMPDEST DUP2 PUSH1 0x2 DUP2 GT ISZERO PUSH2 0x21A JUMPI PUSH2 0x219 PUSH2 0x211A JUMP JUMPDEST JUMPDEST LT ISZERO DUP1 ISZERO PUSH2 0x24B JUMPI POP PUSH1 0x2 DUP1 DUP2 GT ISZERO PUSH2 0x236 JUMPI PUSH2 0x235 PUSH2 0x211A JUMP JUMPDEST JUMPDEST DUP2 PUSH1 0x2 DUP2 GT ISZERO PUSH2 0x249 JUMPI PUSH2 0x248 PUSH2 0x211A JUMP JUMPDEST JUMPDEST LT JUMPDEST PUSH2 0x28A JUMPI PUSH1 0x40 MLOAD PUSH32 0x8C379A000000000000000000000000000000000000000000000000000000000 DUP2 MSTORE PUSH1 0x4 ADD PUSH2 0x281 SWAP1 PUSH2 0x1CA1 JUMP JUMPDEST PUSH1 0x40 MLOAD DUP1 SWAP2 SUB SWAP1 REVERT JUMPDEST PUSH1 0x0 PUSH1 0x4 PUSH1 0x0 CALLER PUSH20 0xFFFFFFFFFFFFFFFFFFFFFFFFFFFFFFFFFFFFFFFF AND PUSH20 0xFFFFFFFFFFFFFFFFFFFFFFFFFFFFFFFFFFFFFFFF AND DUP2 MSTORE PUSH1 0x20 ADD SWAP1 DUP2 MSTORE PUSH1 0x20 ADD PUSH1 0x0 KECCAK256 PUSH1 0x4 ADD PUSH1 0x40 MLOAD DUP1 PUSH1 0xC0 ADD PUSH1 0x40 MSTORE SWAP1 DUP2 PUSH1 0x0 DUP3 ADD DUP1 SLOAD PUSH2 0x2E9 SWAP1 PUSH2 0x1FD5 JUMP JUMPDEST DUP1 PUSH1 0x1F ADD PUSH1 0x20 DUP1 SWAP2 DIV MUL PUSH1 0x20 ADD PUSH1 0x40 MLOAD SWAP1 DUP2 ADD PUSH1 0x40 MSTORE DUP1 SWAP3 SWAP2 SWAP1 DUP2 DUP2 MSTORE PUSH1 0x20 ADD DUP3 DUP1 SLOAD PUSH2 0x315 SWAP1 PUSH2 0x1FD5 JUMP JUMPDEST DUP1 ISZERO PUSH2 0x362 JUMPI DUP1 PUSH1 0x1F LT PUSH2 0x337 JUMPI PUSH2 0x100 DUP1 DUP4 SLOAD DIV MUL DUP4 MSTORE SWAP2 PUSH1 0x20 ADD SWAP2 PUSH2 0x362 JUMP JUMPDEST DUP3 ADD SWAP2 SWAP1 PUSH1 0x0 MSTORE PUSH1 0x20 PUSH1 0x0 KECCAK256 SWAP1 JUMPDEST DUP2 SLOAD DUP2 MSTORE SWAP1 PUSH1 0x1 ADD SWAP1 PUSH1 0x20 ADD DUP1 DUP4 GT PUSH2 0x345 JUMPI DUP3 SWAP1 SUB PUSH1 0x1F AND DUP3 ADD SWAP2 JUMPDEST POP POP POP POP POP DUP2 MSTORE PUSH1 0x20 ADD PUSH1 0x1 DUP3 ADD DUP1 SLOAD PUSH2 0x37B SWAP1 PUSH2 0x1FD5 JUMP JUMPDEST DUP1 PUSH1 0x1F ADD PUSH1 0x20 DUP1 SWAP2 DIV MUL PUSH1 0x20 ADD PUSH1 0x40 MLOAD SWAP1 DUP2 ADD PUSH1 0x40 MSTORE DUP1 SWAP3 SWAP2 SWAP1 DUP2 DUP2 MSTORE PUSH1 0x20 ADD DUP3 DUP1 SLOAD PUSH2 0x3A7 SWAP1 PUSH2 0x1FD5 JUMP JUMPDEST DUP1 ISZERO PUSH2 0x3F4 JUMPI DUP1 PUSH1 0x1F LT PUSH2 0x3C9 JUMPI PUSH2 0x100 DUP1 DUP4 SLOAD DIV MUL DUP4 MSTORE SWAP2 PUSH1 0x20 ADD SWAP2 PUSH2 0x3F4 JUMP JUMPDEST DUP3 ADD SWAP2 SWAP1 PUSH1 0x0 MSTORE PUSH1 0x20 PUSH1 0x0 KECCAK256 SWAP1 JUMPDEST DUP2 SLOAD DUP2 MSTORE SWAP1 PUSH1 0x1 ADD SWAP1 PUSH1 0x20 ADD DUP1 DUP4 GT PUSH2 0x3D7 JUMPI DUP3 SWAP1 SUB PUSH1 0x1F AND DUP3 ADD SWAP2 JUMPDEST POP POP POP POP POP DUP2 MSTORE PUSH1 0x20 ADD PUSH1 0x2 DUP3 ADD DUP1 SLOAD PUSH2 0x40D SWAP1 PUSH2 0x1FD5 JUMP JUMPDEST DUP1 PUSH1 0x1F ADD PUSH1 0x20 DUP1 SWAP2 DIV MUL PUSH1 0x20 ADD PUSH1 0x40 MLOAD SWAP1 DUP2 ADD PUSH1 0x40 MSTORE DUP1 SWAP3 SWAP2 SWAP1 DUP2 DUP2 MSTORE PUSH1 0x20 ADD DUP3 DUP1 SLOAD PUSH2 0x439 SWAP1 PUSH2 0x1FD5 JUMP JUMPDEST DUP1 ISZERO PUSH2 0x486 JUMPI DUP1 PUSH1 0x1F LT PUSH2 0x45B JUMPI PUSH2 0x100 DUP1 DUP4 SLOAD DIV MUL DUP4 MSTORE SWAP2 PUSH1 0x20 ADD SWAP2 PUSH2 0x486 JUMP JUMPDEST DUP3 ADD SWAP2 SWAP1 PUSH1 0x0 MSTORE PUSH1 0x20 PUSH1 0x0 KECCAK256 SWAP1 JUMPDEST DUP2 SLOAD DUP2 MSTORE SWAP1 PUSH1 0x1 ADD SWAP1 PUSH1 0x20 ADD DUP1 DUP4 GT PUSH2 0x469 JUMPI DUP3 SWAP1 SUB PUSH1 0x1F AND DUP3 ADD SWAP2 JUMPDEST POP POP POP POP POP DUP2 MSTORE PUSH1 0x20 ADD PUSH1 0x3 DUP3 ADD SLOAD DUP2 MSTORE PUSH1 0x20 ADD PUSH1 0x4 DUP3 ADD SLOAD DUP2 MSTORE PUSH1 0x20 ADD PUSH1 0x5 DUP3 ADD PUSH1 0x0 SWAP1 SLOAD SWAP1 PUSH2 0x100 EXP SWAP1 DIV PUSH1 0xFF AND PUSH1 0x2 DUP2 GT ISZERO PUSH2 0x4C8 JUMPI PUSH2 0x4C7 PUSH2 0x211A JUMP JUMPDEST JUMPDEST PUSH1 0x2 DUP2 GT ISZERO PUSH2 0x4DA JUMPI PUSH2 0x4D9 PUSH2 0x211A JUMP JUMPDEST JUMPDEST DUP2 MSTORE POP POP SWAP1 POP DUP2 DUP2 PUSH1 0xA0 ADD SWAP1 PUSH1 0x2 DUP2 GT ISZERO PUSH2 0x4F8 JUMPI PUSH2 0x4F7 PUSH2 0x211A JUMP JUMPDEST JUMPDEST SWAP1 DUP2 PUSH1 0x2 DUP2 GT ISZERO PUSH2 0x50C JUMPI PUSH2 0x50B PUSH2 0x211A JUMP JUMPDEST JUMPDEST DUP2 MSTORE POP POP PUSH1 0x0 DUP2 PUSH1 0x80 ADD DUP2 DUP2 MSTORE POP POP PUSH20 0x0 PUSH4 0xF5684183 PUSH1 0x40 MLOAD DUP2 PUSH4 0xFFFFFFFF AND PUSH1 0xE0 SHL DUP2 MSTORE PUSH1 0x4 ADD PUSH1 0x0 PUSH1 0x40 MLOAD DUP1 DUP4 SUB DUP2 DUP7 DUP1 EXTCODESIZE ISZERO DUP1 ISZERO PUSH2 0x55F JUMPI PUSH1 0x0 DUP1 REVERT JUMPDEST POP GAS DELEGATECALL ISZERO DUP1 ISZERO PUSH2 0x573 JUMPI RETURNDATASIZE PUSH1 0x0 DUP1 RETURNDATACOPY RETURNDATASIZE PUSH1 0x0 REVERT JUMPDEST POP POP POP POP PUSH1 0x40 MLOAD RETURNDATASIZE PUSH1 0x0 DUP3 RETURNDATACOPY RETURNDATASIZE PUSH1 0x1F NOT PUSH1 0x1F DUP3 ADD AND DUP3 ADD DUP1 PUSH1 0x40 MSTORE POP DUP2 ADD SWAP1 PUSH2 0x59C SWAP2 SWAP1 PUSH2 0x1850 JUMP JUMPDEST DUP2 PUSH1 0x0 ADD DUP2 SWAP1 MSTORE POP DUP1 PUSH1 0x0 ADD MLOAD MLOAD DUP2 PUSH1 0x60 ADD DUP2 DUP2 MSTORE POP POP PUSH1 0x40 MLOAD DUP1 PUSH1 0x20 ADD PUSH1 0x40 MSTORE DUP1 PUSH1 0x0 DUP2 MSTORE POP DUP2 PUSH1 0x20 ADD DUP2 SWAP1 MSTORE POP PUSH1 0x0 JUMPDEST DUP2 PUSH1 0x60 ADD MLOAD DUP2 LT ISZERO PUSH2 0x619 JUMPI DUP2 PUSH1 0x20 ADD MLOAD PUSH1 0x40 MLOAD PUSH1 0x20 ADD PUSH2 0x5EF SWAP2 SWAP1 PUSH2 0x1B47 JUMP JUMPDEST PUSH1 0x40 MLOAD PUSH1 0x20 DUP2 DUP4 SUB SUB DUP2 MSTORE SWAP1 PUSH1 0x40 MSTORE DUP3 PUSH1 0x20 ADD DUP2 SWAP1 MSTORE POP DUP1 DUP1 PUSH2 0x611 SWAP1 PUSH2 0x2038 JUMP JUMPDEST SWAP2 POP POP PUSH2 0x5CE JUMP JUMPDEST POP POP POP JUMP JUMPDEST PUSH1 0x60 PUSH1 0x4 PUSH1 0x0 CALLER PUSH20 0xFFFFFFFFFFFFFFFFFFFFFFFFFFFFFFFFFFFFFFFF AND PUSH20 0xFFFFFFFFFFFFFFFFFFFFFFFFFFFFFFFFFFFFFFFF AND DUP2 MSTORE PUSH1 0x20 ADD SWAP1 DUP2 MSTORE PUSH1 0x20 ADD PUSH1 0x0 KECCAK256 PUSH1 0x4 ADD PUSH1 0x1 ADD PUSH1 0x40 MLOAD PUSH1 0x20 ADD PUSH2 0x675 SWAP2 SWAP1 PUSH2 0x1C1D JUMP JUMPDEST PUSH1 0x40 MLOAD PUSH1 0x20 DUP2 DUP4 SUB SUB DUP2 MSTORE SWAP1 PUSH1 0x40 MSTORE SWAP1 POP SWAP1 JUMP JUMPDEST PUSH1 0x0 DUP1 PUSH1 0x0 PUSH1 0x4 PUSH1 0x0 CALLER PUSH20 0xFFFFFFFFFFFFFFFFFFFFFFFFFFFFFFFFFFFFFFFF AND PUSH20 0xFFFFFFFFFFFFFFFFFFFFFFFFFFFFFFFFFFFFFFFF AND DUP2 MSTORE PUSH1 0x20 ADD SWAP1 DUP2 MSTORE PUSH1 0x20 ADD PUSH1 0x0 KECCAK256 PUSH1 0x4 ADD PUSH1 0x40 MLOAD DUP1 PUSH1 0xC0 ADD PUSH1 0x40 MSTORE SWAP1 DUP2 PUSH1 0x0 DUP3 ADD DUP1 SLOAD PUSH2 0x6EB SWAP1 PUSH2 0x1FD5 JUMP JUMPDEST DUP1 PUSH1 0x1F ADD PUSH1 0x20 DUP1 SWAP2 DIV MUL PUSH1 0x20 ADD PUSH1 0x40 MLOAD SWAP1 DUP2 ADD PUSH1 0x40 MSTORE DUP1 SWAP3 SWAP2 SWAP1 DUP2 DUP2 MSTORE PUSH1 0x20 ADD DUP3 DUP1 SLOAD PUSH2 0x717 SWAP1 PUSH2 0x1FD5 JUMP JUMPDEST DUP1 ISZERO PUSH2 0x764 JUMPI DUP1 PUSH1 0x1F LT PUSH2 0x739 JUMPI PUSH2 0x100 DUP1 DUP4 SLOAD DIV MUL DUP4 MSTORE SWAP2 PUSH1 0x20 ADD SWAP2 PUSH2 0x764 JUMP JUMPDEST DUP3 ADD SWAP2 SWAP1 PUSH1 0x0 MSTORE PUSH1 0x20 PUSH1 0x0 KECCAK256 SWAP1 JUMPDEST DUP2 SLOAD DUP2 MSTORE SWAP1 PUSH1 0x1 ADD SWAP1 PUSH1 0x20 ADD DUP1 DUP4 GT PUSH2 0x747 JUMPI DUP3 SWAP1 SUB PUSH1 0x1F AND DUP3 ADD SWAP2 JUMPDEST POP POP POP POP POP DUP2 MSTORE PUSH1 0x20 ADD PUSH1 0x1 DUP3 ADD DUP1 SLOAD PUSH2 0x77D SWAP1 PUSH2 0x1FD5 JUMP JUMPDEST DUP1 PUSH1 0x1F ADD PUSH1 0x20 DUP1 SWAP2 DIV MUL PUSH1 0x20 ADD PUSH1 0x40 MLOAD SWAP1 DUP2 ADD PUSH1 0x40 MSTORE DUP1 SWAP3 SWAP2 SWAP1 DUP2 DUP2 MSTORE PUSH1 0x20 ADD DUP3 DUP1 SLOAD PUSH2 0x7A9 SWAP1 PUSH2 0x1FD5 JUMP JUMPDEST DUP1 ISZERO PUSH2 0x7F6 JUMPI DUP1 PUSH1 0x1F LT PUSH2 0x7CB JUMPI PUSH2 0x100 DUP1 DUP4 SLOAD DIV MUL DUP4 MSTORE SWAP2 PUSH1 0x20 ADD SWAP2 PUSH2 0x7F6 JUMP JUMPDEST DUP3 ADD SWAP2 SWAP1 PUSH1 0x0 MSTORE PUSH1 0x20 PUSH1 0x0 KECCAK256 SWAP1 JUMPDEST DUP2 SLOAD DUP2 MSTORE SWAP1 PUSH1 0x1 ADD SWAP1 PUSH1 0x20 ADD DUP1 DUP4 GT PUSH2 0x7D9 JUMPI DUP3 SWAP1 SUB PUSH1 0x1F AND DUP3 ADD SWAP2 JUMPDEST POP POP POP POP POP DUP2 MSTORE PUSH1 0x20 ADD PUSH1 0x2 DUP3 ADD DUP1 SLOAD PUSH2 0x80F SWAP1 PUSH2 0x1FD5 JUMP JUMPDEST DUP1 PUSH1 0x1F ADD PUSH1 0x20 DUP1 SWAP2 DIV MUL PUSH1 0x20 ADD PUSH1 0x40 MLOAD SWAP1 DUP2 ADD PUSH1 0x40 MSTORE DUP1 SWAP3 SWAP2 SWAP1 DUP2 DUP2 MSTORE PUSH1 0x20 ADD DUP3 DUP1 SLOAD PUSH2 0x83B SWAP1 PUSH2 0x1FD5 JUMP JUMPDEST DUP1 ISZERO PUSH2 0x888 JUMPI DUP1 PUSH1 0x1F LT PUSH2 0x85D JUMPI PUSH2 0x100 DUP1 DUP4 SLOAD DIV MUL DUP4 MSTORE SWAP2 PUSH1 0x20 ADD SWAP2 PUSH2 0x888 JUMP JUMPDEST DUP3 ADD SWAP2 SWAP1 PUSH1 0x0 MSTORE PUSH1 0x20 PUSH1 0x0 KECCAK256 SWAP1 JUMPDEST DUP2 SLOAD DUP2 MSTORE SWAP1 PUSH1 0x1 ADD SWAP1 PUSH1 0x20 ADD DUP1 DUP4 GT PUSH2 0x86B JUMPI DUP3 SWAP1 SUB PUSH1 0x1F AND DUP3 ADD SWAP2 JUMPDEST POP POP POP POP POP DUP2 MSTORE PUSH1 0x20 ADD PUSH1 0x3 DUP3 ADD SLOAD DUP2 MSTORE PUSH1 0x20 ADD PUSH1 0x4 DUP3 ADD SLOAD DUP2 MSTORE PUSH1 0x20 ADD PUSH1 0x5 DUP3 ADD PUSH1 0x0 SWAP1 SLOAD SWAP1 PUSH2 0x100 EXP SWAP1 DIV PUSH1 0xFF AND PUSH1 0x2 DUP2 GT ISZERO PUSH2 0x8CA JUMPI PUSH2 0x8C9 PUSH2 0x211A JUMP JUMPDEST JUMPDEST PUSH1 0x2 DUP2 GT ISZERO PUSH2 0x8DC JUMPI PUSH2 0x8DB PUSH2 0x211A JUMP JUMPDEST JUMPDEST DUP2 MSTORE POP POP SWAP1 POP PUSH1 0x0 PUSH1 0x2 DUP2 GT ISZERO PUSH2 0x8F6 JUMPI PUSH2 0x8F5 PUSH2 0x211A JUMP JUMPDEST JUMPDEST DUP2 PUSH1 0xA0 ADD MLOAD PUSH1 0x2 DUP2 GT ISZERO PUSH2 0x90D JUMPI PUSH2 0x90C PUSH2 0x211A JUMP JUMPDEST JUMPDEST EQ ISZERO PUSH2 0x92B JUMPI DUP1 PUSH1 0x80 ADD MLOAD PUSH1 0x5 PUSH2 0x924 SWAP2 SWAP1 PUSH2 0x1EDE JUMP JUMPDEST SWAP2 POP PUSH2 0x9BA JUMP JUMPDEST PUSH1 0x1 PUSH1 0x2 DUP2 GT ISZERO PUSH2 0x93F JUMPI PUSH2 0x93E PUSH2 0x211A JUMP JUMPDEST JUMPDEST DUP2 PUSH1 0xA0 ADD MLOAD PUSH1 0x2 DUP2 GT ISZERO PUSH2 0x956 JUMPI PUSH2 0x955 PUSH2 0x211A JUMP JUMPDEST JUMPDEST EQ ISZERO PUSH2 0x974 JUMPI DUP1 PUSH1 0x80 ADD MLOAD PUSH1 0x4 PUSH2 0x96D SWAP2 SWAP1 PUSH2 0x1EDE JUMP JUMPDEST SWAP2 POP PUSH2 0x9B9 JUMP JUMPDEST PUSH1 0x2 DUP1 DUP2 GT ISZERO PUSH2 0x987 JUMPI PUSH2 0x986 PUSH2 0x211A JUMP JUMPDEST JUMPDEST DUP2 PUSH1 0xA0 ADD MLOAD PUSH1 0x2 DUP2 GT ISZERO PUSH2 0x99E JUMPI PUSH2 0x99D PUSH2 0x211A JUMP JUMPDEST JUMPDEST EQ ISZERO PUSH2 0x9B8 JUMPI DUP1 PUSH1 0x80 ADD MLOAD PUSH1 0x3 PUSH2 0x9B5 SWAP2 SWAP1 PUSH2 0x1EDE JUMP JUMPDEST SWAP2 POP JUMPDEST JUMPDEST JUMPDEST DUP2 SWAP3 POP POP POP SWAP1 JUMP JUMPDEST PUSH1 0x0 PUSH1 0x1 PUSH1 0x0 PUSH1 0x3 DUP2 LT PUSH2 0x9D9 JUMPI PUSH2 0x9D8 PUSH2 0x2178 JUMP JUMPDEST JUMPDEST ADD SLOAD DUP3 LT ISZERO PUSH2 0x9EB JUMPI PUSH1 0x0 SWAP1 POP PUSH2 0xA05 JUMP JUMPDEST DUP2 CALLVALUE EQ PUSH2 0x9F7 JUMPI PUSH1 0x0 DUP1 REVERT JUMPDEST PUSH2 0xA00 DUP3 PUSH2 0x12F4 JUMP JUMPDEST PUSH1 0x1 SWAP1 POP JUMPDEST SWAP2 SWAP1 POP JUMP JUMPDEST POP POP JUMP JUMPDEST PUSH1 0x60 PUSH1 0x0 PUSH2 0xA31 PUSH1 0x1 PUSH1 0x0 PUSH1 0x3 DUP2 LT PUSH2 0xA2A JUMPI PUSH2 0xA29 PUSH2 0x2178 JUMP JUMPDEST JUMPDEST ADD SLOAD PUSH2 0x135E JUMP JUMPDEST PUSH2 0xA4F PUSH1 0x1 DUP1 PUSH1 0x3 DUP2 LT PUSH2 0xA48 JUMPI PUSH2 0xA47 PUSH2 0x2178 JUMP JUMPDEST JUMPDEST ADD SLOAD PUSH2 0x135E JUMP JUMPDEST PUSH2 0xA6E PUSH1 0x1 PUSH1 0x2 PUSH1 0x3 DUP2 LT PUSH2 0xA67 JUMPI PUSH2 0xA66 PUSH2 0x2178 JUMP JUMPDEST JUMPDEST ADD SLOAD PUSH2 0x135E JUMP JUMPDEST PUSH1 0x40 MLOAD PUSH1 0x20 ADD PUSH2 0xA80 SWAP4 SWAP3 SWAP2 SWAP1 PUSH2 0x1B69 JUMP JUMPDEST PUSH1 0x40 MLOAD PUSH1 0x20 DUP2 DUP4 SUB SUB DUP2 MSTORE SWAP1 PUSH1 0x40 MSTORE SWAP1 POP DUP1 SWAP2 POP POP SWAP1 JUMP JUMPDEST PUSH1 0x0 DUP1 PUSH1 0x4 PUSH1 0x0 CALLER PUSH20 0xFFFFFFFFFFFFFFFFFFFFFFFFFFFFFFFFFFFFFFFF AND PUSH20 0xFFFFFFFFFFFFFFFFFFFFFFFFFFFFFFFFFFFFFFFF AND DUP2 MSTORE PUSH1 0x20 ADD SWAP1 DUP2 MSTORE PUSH1 0x20 ADD PUSH1 0x0 KECCAK256 PUSH1 0x4 ADD PUSH1 0x40 MLOAD DUP1 PUSH1 0xC0 ADD PUSH1 0x40 MSTORE SWAP1 DUP2 PUSH1 0x0 DUP3 ADD DUP1 SLOAD PUSH2 0xAF8 SWAP1 PUSH2 0x1FD5 JUMP JUMPDEST DUP1 PUSH1 0x1F ADD PUSH1 0x20 DUP1 SWAP2 DIV MUL PUSH1 0x20 ADD PUSH1 0x40 MLOAD SWAP1 DUP2 ADD PUSH1 0x40 MSTORE DUP1 SWAP3 SWAP2 SWAP1 DUP2 DUP2 MSTORE PUSH1 0x20 ADD DUP3 DUP1 SLOAD PUSH2 0xB24 SWAP1 PUSH2 0x1FD5 JUMP JUMPDEST DUP1 ISZERO PUSH2 0xB71 JUMPI DUP1 PUSH1 0x1F LT PUSH2 0xB46 JUMPI PUSH2 0x100 DUP1 DUP4 SLOAD DIV MUL DUP4 MSTORE SWAP2 PUSH1 0x20 ADD SWAP2 PUSH2 0xB71 JUMP JUMPDEST DUP3 ADD SWAP2 SWAP1 PUSH1 0x0 MSTORE PUSH1 0x20 PUSH1 0x0 KECCAK256 SWAP1 JUMPDEST DUP2 SLOAD DUP2 MSTORE SWAP1 PUSH1 0x1 ADD SWAP1 PUSH1 0x20 ADD DUP1 DUP4 GT PUSH2 0xB54 JUMPI DUP3 SWAP1 SUB PUSH1 0x1F AND DUP3 ADD SWAP2 JUMPDEST POP POP POP POP POP DUP2 MSTORE PUSH1 0x20 ADD PUSH1 0x1 DUP3 ADD DUP1 SLOAD PUSH2 0xB8A SWAP1 PUSH2 0x1FD5 JUMP JUMPDEST DUP1 PUSH1 0x1F ADD PUSH1 0x20 DUP1 SWAP2 DIV MUL PUSH1 0x20 ADD PUSH1 0x40 MLOAD SWAP1 DUP2 ADD PUSH1 0x40 MSTORE DUP1 SWAP3 SWAP2 SWAP1 DUP2 DUP2 MSTORE PUSH1 0x20 ADD DUP3 DUP1 SLOAD PUSH2 0xBB6 SWAP1 PUSH2 0x1FD5 JUMP JUMPDEST DUP1 ISZERO PUSH2 0xC03 JUMPI DUP1 PUSH1 0x1F LT PUSH2 0xBD8 JUMPI PUSH2 0x100 DUP1 DUP4 SLOAD DIV MUL DUP4 MSTORE SWAP2 PUSH1 0x20 ADD SWAP2 PUSH2 0xC03 JUMP JUMPDEST DUP3 ADD SWAP2 SWAP1 PUSH1 0x0 MSTORE PUSH1 0x20 PUSH1 0x0 KECCAK256 SWAP1 JUMPDEST DUP2 SLOAD DUP2 MSTORE SWAP1 PUSH1 0x1 ADD SWAP1 PUSH1 0x20 ADD DUP1 DUP4 GT PUSH2 0xBE6 JUMPI DUP3 SWAP1 SUB PUSH1 0x1F AND DUP3 ADD SWAP2 JUMPDEST POP POP POP POP POP DUP2 MSTORE PUSH1 0x20 ADD PUSH1 0x2 DUP3 ADD DUP1 SLOAD PUSH2 0xC1C SWAP1 PUSH2 0x1FD5 JUMP JUMPDEST DUP1 PUSH1 0x1F ADD PUSH1 0x20 DUP1 SWAP2 DIV MUL PUSH1 0x20 ADD PUSH1 0x40 MLOAD SWAP1 DUP2 ADD PUSH1 0x40 MSTORE DUP1 SWAP3 SWAP2 SWAP1 DUP2 DUP2 MSTORE PUSH1 0x20 ADD DUP3 DUP1 SLOAD PUSH2 0xC48 SWAP1 PUSH2 0x1FD5 JUMP JUMPDEST DUP1 ISZERO PUSH2 0xC95 JUMPI DUP1 PUSH1 0x1F LT PUSH2 0xC6A JUMPI PUSH2 0x100 DUP1 DUP4 SLOAD DIV MUL DUP4 MSTORE SWAP2 PUSH1 0x20 ADD SWAP2 PUSH2 0xC95 JUMP JUMPDEST DUP3 ADD SWAP2 SWAP1 PUSH1 0x0 MSTORE PUSH1 0x20 PUSH1 0x0 KECCAK256 SWAP1 JUMPDEST DUP2 SLOAD DUP2 MSTORE SWAP1 PUSH1 0x1 ADD SWAP1 PUSH1 0x20 ADD DUP1 DUP4 GT PUSH2 0xC78 JUMPI DUP3 SWAP1 SUB PUSH1 0x1F AND DUP3 ADD SWAP2 JUMPDEST POP POP POP POP POP DUP2 MSTORE PUSH1 0x20 ADD PUSH1 0x3 DUP3 ADD SLOAD DUP2 MSTORE PUSH1 0x20 ADD PUSH1 0x4 DUP3 ADD SLOAD DUP2 MSTORE PUSH1 0x20 ADD PUSH1 0x5 DUP3 ADD PUSH1 0x0 SWAP1 SLOAD SWAP1 PUSH2 0x100 EXP SWAP1 DIV PUSH1 0xFF AND PUSH1 0x2 DUP2 GT ISZERO PUSH2 0xCD7 JUMPI PUSH2 0xCD6 PUSH2 0x211A JUMP JUMPDEST JUMPDEST PUSH1 0x2 DUP2 GT ISZERO PUSH2 0xCE9 JUMPI PUSH2 0xCE8 PUSH2 0x211A JUMP JUMPDEST JUMPDEST DUP2 MSTORE POP POP SWAP1 POP PUSH1 0x0 PUSH1 0x2 DUP2 GT ISZERO PUSH2 0xD03 JUMPI PUSH2 0xD02 PUSH2 0x211A JUMP JUMPDEST JUMPDEST DUP2 PUSH1 0xA0 ADD MLOAD PUSH1 0x2 DUP2 GT ISZERO PUSH2 0xD1A JUMPI PUSH2 0xD19 PUSH2 0x211A JUMP JUMPDEST JUMPDEST EQ DUP1 ISZERO PUSH2 0xD2B JUMPI POP PUSH1 0x3 DUP2 PUSH1 0x80 ADD MLOAD EQ JUMPDEST DUP1 PUSH2 0xD6E JUMPI POP PUSH1 0x1 PUSH1 0x2 DUP2 GT ISZERO PUSH2 0xD45 JUMPI PUSH2 0xD44 PUSH2 0x211A JUMP JUMPDEST JUMPDEST DUP2 PUSH1 0xA0 ADD MLOAD PUSH1 0x2 DUP2 GT ISZERO PUSH2 0xD5C JUMPI PUSH2 0xD5B PUSH2 0x211A JUMP JUMPDEST JUMPDEST EQ DUP1 ISZERO PUSH2 0xD6D JUMPI POP PUSH1 0x4 DUP2 PUSH1 0x80 ADD MLOAD EQ JUMPDEST JUMPDEST DUP1 PUSH2 0xDB0 JUMPI POP PUSH1 0x2 DUP1 DUP2 GT ISZERO PUSH2 0xD87 JUMPI PUSH2 0xD86 PUSH2 0x211A JUMP JUMPDEST JUMPDEST DUP2 PUSH1 0xA0 ADD MLOAD PUSH1 0x2 DUP2 GT ISZERO PUSH2 0xD9E JUMPI PUSH2 0xD9D PUSH2 0x211A JUMP JUMPDEST JUMPDEST EQ DUP1 ISZERO PUSH2 0xDAF JUMPI POP PUSH1 0x5 DUP2 PUSH1 0x80 ADD MLOAD EQ JUMPDEST JUMPDEST PUSH2 0xDEF JUMPI PUSH1 0x40 MLOAD PUSH32 0x8C379A000000000000000000000000000000000000000000000000000000000 DUP2 MSTORE PUSH1 0x4 ADD PUSH2 0xDE6 SWAP1 PUSH2 0x1C61 JUMP JUMPDEST PUSH1 0x40 MLOAD DUP1 SWAP2 SUB SWAP1 REVERT JUMPDEST PUSH2 0xDF8 DUP4 PUSH2 0x14E7 JUMP JUMPDEST PUSH2 0xE37 JUMPI PUSH1 0x40 MLOAD PUSH32 0x8C379A000000000000000000000000000000000000000000000000000000000 DUP2 MSTORE PUSH1 0x4 ADD PUSH2 0xE2E SWAP1 PUSH2 0x1C81 JUMP JUMPDEST PUSH1 0x40 MLOAD DUP1 SWAP2 SUB SWAP1 REVERT JUMPDEST PUSH1 0x0 DUP2 PUSH1 0x60 ADD MLOAD PUSH8 0xFFFFFFFFFFFFFFFF DUP2 GT ISZERO PUSH2 0xE57 JUMPI PUSH2 0xE56 PUSH2 0x21A7 JUMP JUMPDEST JUMPDEST PUSH1 0x40 MLOAD SWAP1 DUP1 DUP3 MSTORE DUP1 PUSH1 0x1F ADD PUSH1 0x1F NOT AND PUSH1 0x20 ADD DUP3 ADD PUSH1 0x40 MSTORE DUP1 ISZERO PUSH2 0xE89 JUMPI DUP2 PUSH1 0x20 ADD PUSH1 0x1 DUP3 MUL DUP1 CALLDATASIZE DUP4 CALLDATACOPY DUP1 DUP3 ADD SWAP2 POP POP SWAP1 POP JUMPDEST POP SWAP1 POP PUSH1 0x0 DUP1 JUMPDEST DUP4 PUSH1 0x60 ADD MLOAD DUP2 LT ISZERO PUSH2 0xFCD JUMPI DUP4 PUSH1 0x0 ADD MLOAD DUP2 DUP2 MLOAD DUP2 LT PUSH2 0xEB3 JUMPI PUSH2 0xEB2 PUSH2 0x2178 JUMP JUMPDEST JUMPDEST PUSH1 0x20 ADD ADD MLOAD PUSH1 0xF8 SHR PUSH1 0xF8 SHL PUSH31 0xFFFFFFFFFFFFFFFFFFFFFFFFFFFFFFFFFFFFFFFFFFFFFFFFFFFFFFFFFFFFFF NOT AND DUP7 PUSH31 0xFFFFFFFFFFFFFFFFFFFFFFFFFFFFFFFFFFFFFFFFFFFFFFFFFFFFFFFFFFFFFF NOT AND EQ ISZERO PUSH2 0xF55 JUMPI DUP6 DUP4 DUP3 DUP2 MLOAD DUP2 LT PUSH2 0xF1D JUMPI PUSH2 0xF1C PUSH2 0x2178 JUMP JUMPDEST JUMPDEST PUSH1 0x20 ADD ADD SWAP1 PUSH31 0xFFFFFFFFFFFFFFFFFFFFFFFFFFFFFFFFFFFFFFFFFFFFFFFFFFFFFFFFFFFFFF NOT AND SWAP1 DUP2 PUSH1 0x0 BYTE SWAP1 MSTORE8 POP PUSH1 0x1 SWAP2 POP PUSH2 0xFBA JUMP JUMPDEST DUP4 PUSH1 0x0 ADD MLOAD DUP2 DUP2 MLOAD DUP2 LT PUSH2 0xF6C JUMPI PUSH2 0xF6B PUSH2 0x2178 JUMP JUMPDEST JUMPDEST PUSH1 0x20 ADD ADD MLOAD PUSH1 0xF8 SHR PUSH1 0xF8 SHL DUP4 DUP3 DUP2 MLOAD DUP2 LT PUSH2 0xF8A JUMPI PUSH2 0xF89 PUSH2 0x2178 JUMP JUMPDEST JUMPDEST PUSH1 0x20 ADD ADD SWAP1 PUSH31 0xFFFFFFFFFFFFFFFFFFFFFFFFFFFFFFFFFFFFFFFFFFFFFFFFFFFFFFFFFFFFFF NOT AND SWAP1 DUP2 PUSH1 0x0 BYTE SWAP1 MSTORE8 POP JUMPDEST DUP1 DUP1 PUSH2 0xFC5 SWAP1 PUSH2 0x2038 JUMP JUMPDEST SWAP2 POP POP PUSH2 0xE90 JUMP JUMPDEST POP DUP2 DUP4 PUSH1 0x20 ADD DUP2 SWAP1 MSTORE POP DUP1 PUSH2 0xFF7 JUMPI PUSH1 0x1 DUP4 PUSH1 0x80 ADD DUP2 DUP2 MLOAD PUSH2 0xFEF SWAP2 SWAP1 PUSH2 0x1DC6 JUMP JUMPDEST SWAP2 POP DUP2 DUP2 MSTORE POP POP JUMPDEST DUP1 SWAP4 POP POP POP POP SWAP2 SWAP1 POP JUMP JUMPDEST PUSH1 0x0 DUP1 PUSH1 0x4 PUSH1 0x0 CALLER PUSH20 0xFFFFFFFFFFFFFFFFFFFFFFFFFFFFFFFFFFFFFFFF AND PUSH20 0xFFFFFFFFFFFFFFFFFFFFFFFFFFFFFFFFFFFFFFFF AND DUP2 MSTORE PUSH1 0x20 ADD SWAP1 DUP2 MSTORE PUSH1 0x20 ADD PUSH1 0x0 KECCAK256 PUSH1 0x4 ADD PUSH1 0x40 MLOAD DUP1 PUSH1 0xC0 ADD PUSH1 0x40 MSTORE SWAP1 DUP2 PUSH1 0x0 DUP3 ADD DUP1 SLOAD PUSH2 0x1062 SWAP1 PUSH2 0x1FD5 JUMP JUMPDEST DUP1 PUSH1 0x1F ADD PUSH1 0x20 DUP1 SWAP2 DIV MUL PUSH1 0x20 ADD PUSH1 0x40 MLOAD SWAP1 DUP2 ADD PUSH1 0x40 MSTORE DUP1 SWAP3 SWAP2 SWAP1 DUP2 DUP2 MSTORE PUSH1 0x20 ADD DUP3 DUP1 SLOAD PUSH2 0x108E SWAP1 PUSH2 0x1FD5 JUMP JUMPDEST DUP1 ISZERO PUSH2 0x10DB JUMPI DUP1 PUSH1 0x1F LT PUSH2 0x10B0 JUMPI PUSH2 0x100 DUP1 DUP4 SLOAD DIV MUL DUP4 MSTORE SWAP2 PUSH1 0x20 ADD SWAP2 PUSH2 0x10DB JUMP JUMPDEST DUP3 ADD SWAP2 SWAP1 PUSH1 0x0 MSTORE PUSH1 0x20 PUSH1 0x0 KECCAK256 SWAP1 JUMPDEST DUP2 SLOAD DUP2 MSTORE SWAP1 PUSH1 0x1 ADD SWAP1 PUSH1 0x20 ADD DUP1 DUP4 GT PUSH2 0x10BE JUMPI DUP3 SWAP1 SUB PUSH1 0x1F AND DUP3 ADD SWAP2 JUMPDEST POP POP POP POP POP DUP2 MSTORE PUSH1 0x20 ADD PUSH1 0x1 DUP3 ADD DUP1 SLOAD PUSH2 0x10F4 SWAP1 PUSH2 0x1FD5 JUMP JUMPDEST DUP1 PUSH1 0x1F ADD PUSH1 0x20 DUP1 SWAP2 DIV MUL PUSH1 0x20 ADD PUSH1 0x40 MLOAD SWAP1 DUP2 ADD PUSH1 0x40 MSTORE DUP1 SWAP3 SWAP2 SWAP1 DUP2 DUP2 MSTORE PUSH1 0x20 ADD DUP3 DUP1 SLOAD PUSH2 0x1120 SWAP1 PUSH2 0x1FD5 JUMP JUMPDEST DUP1 ISZERO PUSH2 0x116D JUMPI DUP1 PUSH1 0x1F LT PUSH2 0x1142 JUMPI PUSH2 0x100 DUP1 DUP4 SLOAD DIV MUL DUP4 MSTORE SWAP2 PUSH1 0x20 ADD SWAP2 PUSH2 0x116D JUMP JUMPDEST DUP3 ADD SWAP2 SWAP1 PUSH1 0x0 MSTORE PUSH1 0x20 PUSH1 0x0 KECCAK256 SWAP1 JUMPDEST DUP2 SLOAD DUP2 MSTORE SWAP1 PUSH1 0x1 ADD SWAP1 PUSH1 0x20 ADD DUP1 DUP4 GT PUSH2 0x1150 JUMPI DUP3 SWAP1 SUB PUSH1 0x1F AND DUP3 ADD SWAP2 JUMPDEST POP POP POP POP POP DUP2 MSTORE PUSH1 0x20 ADD PUSH1 0x2 DUP3 ADD DUP1 SLOAD PUSH2 0x1186 SWAP1 PUSH2 0x1FD5 JUMP JUMPDEST DUP1 PUSH1 0x1F ADD PUSH1 0x20 DUP1 SWAP2 DIV MUL PUSH1 0x20 ADD PUSH1 0x40 MLOAD SWAP1 DUP2 ADD PUSH1 0x40 MSTORE DUP1 SWAP3 SWAP2 SWAP1 DUP2 DUP2 MSTORE PUSH1 0x20 ADD DUP3 DUP1 SLOAD PUSH2 0x11B2 SWAP1 PUSH2 0x1FD5 JUMP JUMPDEST DUP1 ISZERO PUSH2 0x11FF JUMPI DUP1 PUSH1 0x1F LT PUSH2 0x11D4 JUMPI PUSH2 0x100 DUP1 DUP4 SLOAD DIV MUL DUP4 MSTORE SWAP2 PUSH1 0x20 ADD SWAP2 PUSH2 0x11FF JUMP JUMPDEST DUP3 ADD SWAP2 SWAP1 PUSH1 0x0 MSTORE PUSH1 0x20 PUSH1 0x0 KECCAK256 SWAP1 JUMPDEST DUP2 SLOAD DUP2 MSTORE SWAP1 PUSH1 0x1 ADD SWAP1 PUSH1 0x20 ADD DUP1 DUP4 GT PUSH2 0x11E2 JUMPI DUP3 SWAP1 SUB PUSH1 0x1F AND DUP3 ADD SWAP2 JUMPDEST POP POP POP POP POP DUP2 MSTORE PUSH1 0x20 ADD PUSH1 0x3 DUP3 ADD SLOAD DUP2 MSTORE PUSH1 0x20 ADD PUSH1 0x4 DUP3 ADD SLOAD DUP2 MSTORE PUSH1 0x20 ADD PUSH1 0x5 DUP3 ADD PUSH1 0x0 SWAP1 SLOAD SWAP1 PUSH2 0x100 EXP SWAP1 DIV PUSH1 0xFF AND PUSH1 0x2 DUP2 GT ISZERO PUSH2 0x1241 JUMPI PUSH2 0x1240 PUSH2 0x211A JUMP JUMPDEST JUMPDEST PUSH1 0x2 DUP2 GT ISZERO PUSH2 0x1253 JUMPI PUSH2 0x1252 PUSH2 0x211A JUMP JUMPDEST JUMPDEST DUP2 MSTORE POP POP SWAP1 POP PUSH1 0x0 DUP2 PUSH1 0x60 ADD MLOAD PUSH2 0x1268 PUSH2 0x1660 JUMP JUMPDEST PUSH2 0x1272 SWAP2 SWAP1 PUSH2 0x208B JUMP JUMPDEST SWAP1 POP PUSH1 0x0 DUP3 PUSH1 0x0 ADD MLOAD DUP3 DUP2 MLOAD DUP2 LT PUSH2 0x128D JUMPI PUSH2 0x128C PUSH2 0x2178 JUMP JUMPDEST JUMPDEST PUSH1 0x20 ADD ADD MLOAD PUSH1 0xF8 SHR PUSH1 0xF8 SHL SWAP1 POP JUMPDEST PUSH2 0x12A4 DUP2 PUSH2 0x14E7 JUMP JUMPDEST ISZERO PUSH2 0x12EB JUMPI DUP3 PUSH1 0x60 ADD MLOAD PUSH2 0x12B6 PUSH2 0x1660 JUMP JUMPDEST PUSH2 0x12C0 SWAP2 SWAP1 PUSH2 0x208B JUMP JUMPDEST SWAP2 POP DUP3 PUSH1 0x0 ADD MLOAD DUP3 DUP2 MLOAD DUP2 LT PUSH2 0x12D9 JUMPI PUSH2 0x12D8 PUSH2 0x2178 JUMP JUMPDEST JUMPDEST PUSH1 0x20 ADD ADD MLOAD PUSH1 0xF8 SHR PUSH1 0xF8 SHL SWAP1 POP PUSH2 0x129B JUMP JUMPDEST DUP1 SWAP4 POP POP POP POP SWAP1 JUMP JUMPDEST PUSH1 0x0 DUP1 SLOAD SWAP1 PUSH2 0x100 EXP SWAP1 DIV PUSH20 0xFFFFFFFFFFFFFFFFFFFFFFFFFFFFFFFFFFFFFFFF AND PUSH20 0xFFFFFFFFFFFFFFFFFFFFFFFFFFFFFFFFFFFFFFFF AND PUSH2 0x8FC DUP3 SWAP1 DUP2 ISZERO MUL SWAP1 PUSH1 0x40 MLOAD PUSH1 0x0 PUSH1 0x40 MLOAD DUP1 DUP4 SUB DUP2 DUP6 DUP9 DUP9 CALL SWAP4 POP POP POP POP ISZERO DUP1 ISZERO PUSH2 0x135A JUMPI RETURNDATASIZE PUSH1 0x0 DUP1 RETURNDATACOPY RETURNDATASIZE PUSH1 0x0 REVERT JUMPDEST POP POP JUMP JUMPDEST PUSH1 0x60 PUSH1 0x0 DUP3 EQ ISZERO PUSH2 0x13A6 JUMPI PUSH1 0x40 MLOAD DUP1 PUSH1 0x40 ADD PUSH1 0x40 MSTORE DUP1 PUSH1 0x1 DUP2 MSTORE PUSH1 0x20 ADD PUSH32 0x3000000000000000000000000000000000000000000000000000000000000000 DUP2 MSTORE POP SWAP1 POP PUSH2 0x14E2 JUMP JUMPDEST PUSH1 0x0 DUP3 SWAP1 POP PUSH1 0x0 JUMPDEST PUSH1 0x0 DUP3 EQ PUSH2 0x13D8 JUMPI DUP1 DUP1 PUSH2 0x13C1 SWAP1 PUSH2 0x2038 JUMP JUMPDEST SWAP2 POP POP PUSH1 0xA DUP3 PUSH2 0x13D1 SWAP2 SWAP1 PUSH2 0x1E53 JUMP JUMPDEST SWAP2 POP PUSH2 0x13AE JUMP JUMPDEST PUSH1 0x0 DUP2 PUSH8 0xFFFFFFFFFFFFFFFF DUP2 GT ISZERO PUSH2 0x13F4 JUMPI PUSH2 0x13F3 PUSH2 0x21A7 JUMP JUMPDEST JUMPDEST PUSH1 0x40 MLOAD SWAP1 DUP1 DUP3 MSTORE DUP1 PUSH1 0x1F ADD PUSH1 0x1F NOT AND PUSH1 0x20 ADD DUP3 ADD PUSH1 0x40 MSTORE DUP1 ISZERO PUSH2 0x1426 JUMPI DUP2 PUSH1 0x20 ADD PUSH1 0x1 DUP3 MUL DUP1 CALLDATASIZE DUP4 CALLDATACOPY DUP1 DUP3 ADD SWAP2 POP POP SWAP1 POP JUMPDEST POP SWAP1 POP PUSH1 0x0 DUP3 SWAP1 POP JUMPDEST PUSH1 0x0 DUP7 EQ PUSH2 0x14DA JUMPI PUSH1 0x1 DUP2 PUSH2 0x1444 SWAP2 SWAP1 PUSH2 0x1EDE JUMP JUMPDEST SWAP1 POP PUSH1 0x0 PUSH1 0xA DUP1 DUP9 PUSH2 0x1456 SWAP2 SWAP1 PUSH2 0x1E53 JUMP JUMPDEST PUSH2 0x1460 SWAP2 SWAP1 PUSH2 0x1E84 JUMP JUMPDEST DUP8 PUSH2 0x146B SWAP2 SWAP1 PUSH2 0x1EDE JUMP JUMPDEST PUSH1 0x30 PUSH2 0x1477 SWAP2 SWAP1 PUSH2 0x1E1C JUMP JUMPDEST SWAP1 POP PUSH1 0x0 DUP2 PUSH1 0xF8 SHL SWAP1 POP DUP1 DUP5 DUP5 DUP2 MLOAD DUP2 LT PUSH2 0x1495 JUMPI PUSH2 0x1494 PUSH2 0x2178 JUMP JUMPDEST JUMPDEST PUSH1 0x20 ADD ADD SWAP1 PUSH31 0xFFFFFFFFFFFFFFFFFFFFFFFFFFFFFFFFFFFFFFFFFFFFFFFFFFFFFFFFFFFFFF NOT AND SWAP1 DUP2 PUSH1 0x0 BYTE SWAP1 MSTORE8 POP PUSH1 0xA DUP9 PUSH2 0x14D1 SWAP2 SWAP1 PUSH2 0x1E53 JUMP JUMPDEST SWAP8 POP POP POP PUSH2 0x142F JUMP JUMPDEST DUP2 SWAP5 POP POP POP POP POP JUMPDEST SWAP2 SWAP1 POP JUMP JUMPDEST PUSH1 0x0 DUP1 PUSH1 0x0 SWAP1 POP PUSH1 0x0 JUMPDEST PUSH1 0x4 PUSH1 0x0 CALLER PUSH20 0xFFFFFFFFFFFFFFFFFFFFFFFFFFFFFFFFFFFFFFFF AND PUSH20 0xFFFFFFFFFFFFFFFFFFFFFFFFFFFFFFFFFFFFFFFF AND DUP2 MSTORE PUSH1 0x20 ADD SWAP1 DUP2 MSTORE PUSH1 0x20 ADD PUSH1 0x0 KECCAK256 PUSH1 0x4 ADD PUSH1 0x2 ADD DUP1 SLOAD PUSH2 0x1541 SWAP1 PUSH2 0x1FD5 JUMP JUMPDEST SWAP1 POP DUP2 LT ISZERO PUSH2 0x1656 JUMPI PUSH1 0x4 PUSH1 0x0 CALLER PUSH20 0xFFFFFFFFFFFFFFFFFFFFFFFFFFFFFFFFFFFFFFFF AND PUSH20 0xFFFFFFFFFFFFFFFFFFFFFFFFFFFFFFFFFFFFFFFF AND DUP2 MSTORE PUSH1 0x20 ADD SWAP1 DUP2 MSTORE PUSH1 0x20 ADD PUSH1 0x0 KECCAK256 PUSH1 0x4 ADD PUSH1 0x2 ADD DUP2 DUP2 SLOAD PUSH2 0x159B SWAP1 PUSH2 0x1FD5 JUMP JUMPDEST DUP2 LT PUSH2 0x15AA JUMPI PUSH2 0x15A9 PUSH2 0x2178 JUMP JUMPDEST JUMPDEST DUP2 SLOAD PUSH1 0x1 AND ISZERO PUSH2 0x15C9 JUMPI SWAP1 PUSH1 0x0 MSTORE PUSH1 0x20 PUSH1 0x0 KECCAK256 SWAP1 PUSH1 0x20 SWAP2 DUP3 DUP3 DIV ADD SWAP2 SWAP1 MOD JUMPDEST SWAP1 SLOAD SWAP1 BYTE PUSH32 0x100000000000000000000000000000000000000000000000000000000000000 MUL PUSH31 0xFFFFFFFFFFFFFFFFFFFFFFFFFFFFFFFFFFFFFFFFFFFFFFFFFFFFFFFFFFFFFF NOT AND DUP5 PUSH31 0xFFFFFFFFFFFFFFFFFFFFFFFFFFFFFFFFFFFFFFFFFFFFFFFFFFFFFFFFFFFFFF NOT AND EQ ISZERO PUSH2 0x1643 JUMPI PUSH1 0x1 SWAP2 POP PUSH2 0x1656 JUMP JUMPDEST DUP1 DUP1 PUSH2 0x164E SWAP1 PUSH2 0x2038 JUMP JUMPDEST SWAP2 POP POP PUSH2 0x14F1 JUMP JUMPDEST POP DUP1 SWAP2 POP POP SWAP2 SWAP1 POP JUMP JUMPDEST PUSH1 0x0 DIFFICULTY TIMESTAMP PUSH1 0x40 MLOAD PUSH1 0x20 ADD PUSH2 0x1675 SWAP3 SWAP2 SWAP1 PUSH2 0x1BBB JUMP JUMPDEST PUSH1 0x40 MLOAD PUSH1 0x20 DUP2 DUP4 SUB SUB DUP2 MSTORE SWAP1 PUSH1 0x40 MSTORE DUP1 MLOAD SWAP1 PUSH1 0x20 ADD KECCAK256 PUSH1 0x0 SHR SWAP1 POP SWAP1 JUMP JUMPDEST PUSH1 0x0 PUSH2 0x16A6 PUSH2 0x16A1 DUP5 PUSH2 0x1D01 JUMP JUMPDEST PUSH2 0x1CDC JUMP JUMPDEST SWAP1 POP DUP3 DUP2 MSTORE PUSH1 0x20 DUP2 ADD DUP5 DUP5 DUP5 ADD GT ISZERO PUSH2 0x16C2 JUMPI PUSH2 0x16C1 PUSH2 0x21DB JUMP JUMPDEST JUMPDEST PUSH2 0x16CD DUP5 DUP3 DUP6 PUSH2 0x1FA2 JUMP JUMPDEST POP SWAP4 SWAP3 POP POP POP JUMP JUMPDEST PUSH1 0x0 PUSH2 0x16E8 PUSH2 0x16E3 DUP5 PUSH2 0x1D32 JUMP JUMPDEST PUSH2 0x1CDC JUMP JUMPDEST SWAP1 POP DUP3 DUP2 MSTORE PUSH1 0x20 DUP2 ADD DUP5 DUP5 DUP5 ADD GT ISZERO PUSH2 0x1704 JUMPI PUSH2 0x1703 PUSH2 0x21DB JUMP JUMPDEST JUMPDEST PUSH2 0x170F DUP5 DUP3 DUP6 PUSH2 0x1F93 JUMP JUMPDEST POP SWAP4 SWAP3 POP POP POP JUMP JUMPDEST PUSH1 0x0 DUP2 CALLDATALOAD SWAP1 POP PUSH2 0x1726 DUP2 PUSH2 0x23B2 JUMP JUMPDEST SWAP3 SWAP2 POP POP JUMP JUMPDEST PUSH1 0x0 DUP2 CALLDATALOAD SWAP1 POP PUSH2 0x173B DUP2 PUSH2 0x23C9 JUMP JUMPDEST SWAP3 SWAP2 POP POP JUMP JUMPDEST PUSH1 0x0 DUP3 PUSH1 0x1F DUP4 ADD SLT PUSH2 0x1756 JUMPI PUSH2 0x1755 PUSH2 0x21D6 JUMP JUMPDEST JUMPDEST DUP2 MLOAD PUSH2 0x1766 DUP5 DUP3 PUSH1 0x20 DUP7 ADD PUSH2 0x1693 JUMP JUMPDEST SWAP2 POP POP SWAP3 SWAP2 POP POP JUMP JUMPDEST PUSH1 0x0 DUP2 CALLDATALOAD SWAP1 POP PUSH2 0x177E DUP2 PUSH2 0x23E0 JUMP JUMPDEST SWAP3 SWAP2 POP POP JUMP JUMPDEST PUSH1 0x0 DUP3 PUSH1 0x1F DUP4 ADD SLT PUSH2 0x1799 JUMPI PUSH2 0x1798 PUSH2 0x21D6 JUMP JUMPDEST JUMPDEST DUP2 CALLDATALOAD PUSH2 0x17A9 DUP5 DUP3 PUSH1 0x20 DUP7 ADD PUSH2 0x16D5 JUMP JUMPDEST SWAP2 POP POP SWAP3 SWAP2 POP POP JUMP JUMPDEST PUSH1 0x0 DUP2 CALLDATALOAD SWAP1 POP PUSH2 0x17C1 DUP2 PUSH2 0x23F0 JUMP JUMPDEST SWAP3 SWAP2 POP POP JUMP JUMPDEST PUSH1 0x0 DUP1 PUSH1 0x40 DUP4 DUP6 SUB SLT ISZERO PUSH2 0x17DE JUMPI PUSH2 0x17DD PUSH2 0x21E5 JUMP JUMPDEST JUMPDEST PUSH1 0x0 PUSH2 0x17EC DUP6 DUP3 DUP7 ADD PUSH2 0x1717 JUMP JUMPDEST SWAP3 POP POP PUSH1 0x20 DUP4 ADD CALLDATALOAD PUSH8 0xFFFFFFFFFFFFFFFF DUP2 GT ISZERO PUSH2 0x180D JUMPI PUSH2 0x180C PUSH2 0x21E0 JUMP JUMPDEST JUMPDEST PUSH2 0x1819 DUP6 DUP3 DUP7 ADD PUSH2 0x1784 JUMP JUMPDEST SWAP2 POP POP SWAP3 POP SWAP3 SWAP1 POP JUMP JUMPDEST PUSH1 0x0 PUSH1 0x20 DUP3 DUP5 SUB SLT ISZERO PUSH2 0x1839 JUMPI PUSH2 0x1838 PUSH2 0x21E5 JUMP JUMPDEST JUMPDEST PUSH1 0x0 PUSH2 0x1847 DUP5 DUP3 DUP6 ADD PUSH2 0x172C JUMP JUMPDEST SWAP2 POP POP SWAP3 SWAP2 POP POP JUMP JUMPDEST PUSH1 0x0 PUSH1 0x20 DUP3 DUP5 SUB SLT ISZERO PUSH2 0x1866 JUMPI PUSH2 0x1865 PUSH2 0x21E5 JUMP JUMPDEST JUMPDEST PUSH1 0x0 DUP3 ADD MLOAD PUSH8 0xFFFFFFFFFFFFFFFF DUP2 GT ISZERO PUSH2 0x1884 JUMPI PUSH2 0x1883 PUSH2 0x21E0 JUMP JUMPDEST JUMPDEST PUSH2 0x1890 DUP5 DUP3 DUP6 ADD PUSH2 0x1741 JUMP JUMPDEST SWAP2 POP POP SWAP3 SWAP2 POP POP JUMP JUMPDEST PUSH1 0x0 PUSH1 0x20 DUP3 DUP5 SUB SLT ISZERO PUSH2 0x18AF JUMPI PUSH2 0x18AE PUSH2 0x21E5 JUMP JUMPDEST JUMPDEST PUSH1 0x0 PUSH2 0x18BD DUP5 DUP3 DUP6 ADD PUSH2 0x176F JUMP JUMPDEST SWAP2 POP POP SWAP3 SWAP2 POP POP JUMP JUMPDEST PUSH1 0x0 PUSH1 0x20 DUP3 DUP5 SUB SLT ISZERO PUSH2 0x18DC JUMPI PUSH2 0x18DB PUSH2 0x21E5 JUMP JUMPDEST JUMPDEST PUSH1 0x0 PUSH2 0x18EA DUP5 DUP3 DUP6 ADD PUSH2 0x17B2 JUMP JUMPDEST SWAP2 POP POP SWAP3 SWAP2 POP POP JUMP JUMPDEST PUSH2 0x18FC DUP2 PUSH2 0x1F24 JUMP JUMPDEST DUP3 MSTORE POP POP JUMP JUMPDEST PUSH2 0x190B DUP2 PUSH2 0x1F30 JUMP JUMPDEST DUP3 MSTORE POP POP JUMP JUMPDEST PUSH1 0x0 PUSH2 0x191C DUP3 PUSH2 0x1D78 JUMP JUMPDEST PUSH2 0x1926 DUP2 DUP6 PUSH2 0x1D9F JUMP JUMPDEST SWAP4 POP PUSH2 0x1936 DUP2 DUP6 PUSH1 0x20 DUP7 ADD PUSH2 0x1FA2 JUMP JUMPDEST DUP1 DUP5 ADD SWAP2 POP POP SWAP3 SWAP2 POP POP JUMP JUMPDEST PUSH1 0x0 DUP2 SLOAD PUSH2 0x194F DUP2 PUSH2 0x1FD5 JUMP JUMPDEST PUSH2 0x1959 DUP2 DUP7 PUSH2 0x1D8E JUMP JUMPDEST SWAP5 POP PUSH1 0x1 DUP3 AND PUSH1 0x0 DUP2 EQ PUSH2 0x1974 JUMPI PUSH1 0x1 DUP2 EQ PUSH2 0x1986 JUMPI PUSH2 0x19B9 JUMP JUMPDEST PUSH1 0xFF NOT DUP4 AND DUP7 MSTORE PUSH1 0x20 DUP7 ADD SWAP4 POP PUSH2 0x19B9 JUMP JUMPDEST PUSH2 0x198F DUP6 PUSH2 0x1D63 JUMP JUMPDEST PUSH1 0x0 JUMPDEST DUP4 DUP2 LT ISZERO PUSH2 0x19B1 JUMPI DUP2 SLOAD DUP2 DUP10 ADD MSTORE PUSH1 0x1 DUP3 ADD SWAP2 POP PUSH1 0x20 DUP2 ADD SWAP1 POP PUSH2 0x1992 JUMP JUMPDEST DUP1 DUP9 ADD SWAP6 POP POP POP JUMPDEST POP POP POP SWAP3 SWAP2 POP POP JUMP JUMPDEST PUSH1 0x0 PUSH2 0x19CD DUP3 PUSH2 0x1D83 JUMP JUMPDEST PUSH2 0x19D7 DUP2 DUP6 PUSH2 0x1DAA JUMP JUMPDEST SWAP4 POP PUSH2 0x19E7 DUP2 DUP6 PUSH1 0x20 DUP7 ADD PUSH2 0x1FA2 JUMP JUMPDEST PUSH2 0x19F0 DUP2 PUSH2 0x21EA JUMP JUMPDEST DUP5 ADD SWAP2 POP POP SWAP3 SWAP2 POP POP JUMP JUMPDEST PUSH1 0x0 PUSH2 0x1A06 DUP3 PUSH2 0x1D83 JUMP JUMPDEST PUSH2 0x1A10 DUP2 DUP6 PUSH2 0x1DBB JUMP JUMPDEST SWAP4 POP PUSH2 0x1A20 DUP2 DUP6 PUSH1 0x20 DUP7 ADD PUSH2 0x1FA2 JUMP JUMPDEST DUP1 DUP5 ADD SWAP2 POP POP SWAP3 SWAP2 POP POP JUMP JUMPDEST PUSH1 0x0 PUSH2 0x1A39 PUSH1 0xB DUP4 PUSH2 0x1DBB JUMP JUMPDEST SWAP2 POP PUSH2 0x1A44 DUP3 PUSH2 0x21FB JUMP JUMPDEST PUSH1 0xB DUP3 ADD SWAP1 POP SWAP2 SWAP1 POP JUMP JUMPDEST PUSH1 0x0 PUSH2 0x1A5C PUSH1 0x15 DUP4 PUSH2 0x1DBB JUMP JUMPDEST SWAP2 POP PUSH2 0x1A67 DUP3 PUSH2 0x2224 JUMP JUMPDEST PUSH1 0x15 DUP3 ADD SWAP1 POP SWAP2 SWAP1 POP JUMP JUMPDEST PUSH1 0x0 PUSH2 0x1A7F PUSH1 0x21 DUP4 PUSH2 0x1DAA JUMP JUMPDEST SWAP2 POP PUSH2 0x1A8A DUP3 PUSH2 0x224D JUMP JUMPDEST PUSH1 0x40 DUP3 ADD SWAP1 POP SWAP2 SWAP1 POP JUMP JUMPDEST PUSH1 0x0 PUSH2 0x1AA2 PUSH1 0x23 DUP4 PUSH2 0x1DAA JUMP JUMPDEST SWAP2 POP PUSH2 0x1AAD DUP3 PUSH2 0x229C JUMP JUMPDEST PUSH1 0x40 DUP3 ADD SWAP1 POP SWAP2 SWAP1 POP JUMP JUMPDEST PUSH1 0x0 PUSH2 0x1AC5 PUSH1 0x5E DUP4 PUSH2 0x1DAA JUMP JUMPDEST SWAP2 POP PUSH2 0x1AD0 DUP3 PUSH2 0x22EB JUMP JUMPDEST PUSH1 0x60 DUP3 ADD SWAP1 POP SWAP2 SWAP1 POP JUMP JUMPDEST PUSH1 0x0 PUSH2 0x1AE8 PUSH1 0x1 DUP4 PUSH2 0x1DBB JUMP JUMPDEST SWAP2 POP PUSH2 0x1AF3 DUP3 PUSH2 0x2360 JUMP JUMPDEST PUSH1 0x1 DUP3 ADD SWAP1 POP SWAP2 SWAP1 POP JUMP JUMPDEST PUSH1 0x0 PUSH2 0x1B0B PUSH1 0xB DUP4 PUSH2 0x1DBB JUMP JUMPDEST SWAP2 POP PUSH2 0x1B16 DUP3 PUSH2 0x2389 JUMP JUMPDEST PUSH1 0xB DUP3 ADD SWAP1 POP SWAP2 SWAP1 POP JUMP JUMPDEST PUSH2 0x1B2A DUP2 PUSH2 0x1F7C JUMP JUMPDEST DUP3 MSTORE POP POP JUMP JUMPDEST PUSH2 0x1B41 PUSH2 0x1B3C DUP3 PUSH2 0x1F7C JUMP JUMPDEST PUSH2 0x2081 JUMP JUMPDEST DUP3 MSTORE POP POP JUMP JUMPDEST PUSH1 0x0 PUSH2 0x1B53 DUP3 DUP5 PUSH2 0x1911 JUMP JUMPDEST SWAP2 POP PUSH2 0x1B5E DUP3 PUSH2 0x1ADB JUMP JUMPDEST SWAP2 POP DUP2 SWAP1 POP SWAP3 SWAP2 POP POP JUMP JUMPDEST PUSH1 0x0 PUSH2 0x1B74 DUP3 PUSH2 0x1A4F JUMP JUMPDEST SWAP2 POP PUSH2 0x1B80 DUP3 DUP7 PUSH2 0x19FB JUMP JUMPDEST SWAP2 POP PUSH2 0x1B8B DUP3 PUSH2 0x1AFE JUMP JUMPDEST SWAP2 POP PUSH2 0x1B97 DUP3 DUP6 PUSH2 0x19FB JUMP JUMPDEST SWAP2 POP PUSH2 0x1BA2 DUP3 PUSH2 0x1A2C JUMP JUMPDEST SWAP2 POP PUSH2 0x1BAE DUP3 DUP5 PUSH2 0x19FB JUMP JUMPDEST SWAP2 POP DUP2 SWAP1 POP SWAP5 SWAP4 POP POP POP POP JUMP JUMPDEST PUSH1 0x0 PUSH2 0x1BC7 DUP3 DUP6 PUSH2 0x1B30 JUMP JUMPDEST PUSH1 0x20 DUP3 ADD SWAP2 POP PUSH2 0x1BD7 DUP3 DUP5 PUSH2 0x1B30 JUMP JUMPDEST PUSH1 0x20 DUP3 ADD SWAP2 POP DUP2 SWAP1 POP SWAP4 SWAP3 POP POP POP JUMP JUMPDEST PUSH1 0x0 PUSH1 0x20 DUP3 ADD SWAP1 POP PUSH2 0x1BFC PUSH1 0x0 DUP4 ADD DUP5 PUSH2 0x18F3 JUMP JUMPDEST SWAP3 SWAP2 POP POP JUMP JUMPDEST PUSH1 0x0 PUSH1 0x20 DUP3 ADD SWAP1 POP PUSH2 0x1C17 PUSH1 0x0 DUP4 ADD DUP5 PUSH2 0x1902 JUMP JUMPDEST SWAP3 SWAP2 POP POP JUMP JUMPDEST PUSH1 0x0 PUSH1 0x20 DUP3 ADD SWAP1 POP DUP2 DUP2 SUB PUSH1 0x0 DUP4 ADD MSTORE PUSH2 0x1C37 DUP2 DUP5 PUSH2 0x1942 JUMP JUMPDEST SWAP1 POP SWAP3 SWAP2 POP POP JUMP JUMPDEST PUSH1 0x0 PUSH1 0x20 DUP3 ADD SWAP1 POP DUP2 DUP2 SUB PUSH1 0x0 DUP4 ADD MSTORE PUSH2 0x1C59 DUP2 DUP5 PUSH2 0x19C2 JUMP JUMPDEST SWAP1 POP SWAP3 SWAP2 POP POP JUMP JUMPDEST PUSH1 0x0 PUSH1 0x20 DUP3 ADD SWAP1 POP DUP2 DUP2 SUB PUSH1 0x0 DUP4 ADD MSTORE PUSH2 0x1C7A DUP2 PUSH2 0x1A72 JUMP JUMPDEST SWAP1 POP SWAP2 SWAP1 POP JUMP JUMPDEST PUSH1 0x0 PUSH1 0x20 DUP3 ADD SWAP1 POP DUP2 DUP2 SUB PUSH1 0x0 DUP4 ADD MSTORE PUSH2 0x1C9A DUP2 PUSH2 0x1A95 JUMP JUMPDEST SWAP1 POP SWAP2 SWAP1 POP JUMP JUMPDEST PUSH1 0x0 PUSH1 0x20 DUP3 ADD SWAP1 POP DUP2 DUP2 SUB PUSH1 0x0 DUP4 ADD MSTORE PUSH2 0x1CBA DUP2 PUSH2 0x1AB8 JUMP JUMPDEST SWAP1 POP SWAP2 SWAP1 POP JUMP JUMPDEST PUSH1 0x0 PUSH1 0x20 DUP3 ADD SWAP1 POP PUSH2 0x1CD6 PUSH1 0x0 DUP4 ADD DUP5 PUSH2 0x1B21 JUMP JUMPDEST SWAP3 SWAP2 POP POP JUMP JUMPDEST PUSH1 0x0 PUSH2 0x1CE6 PUSH2 0x1CF7 JUMP JUMPDEST SWAP1 POP PUSH2 0x1CF2 DUP3 DUP3 PUSH2 0x2007 JUMP JUMPDEST SWAP2 SWAP1 POP JUMP JUMPDEST PUSH1 0x0 PUSH1 0x40 MLOAD SWAP1 POP SWAP1 JUMP JUMPDEST PUSH1 0x0 PUSH8 0xFFFFFFFFFFFFFFFF DUP3 GT ISZERO PUSH2 0x1D1C JUMPI PUSH2 0x1D1B PUSH2 0x21A7 JUMP JUMPDEST JUMPDEST PUSH2 0x1D25 DUP3 PUSH2 0x21EA JUMP JUMPDEST SWAP1 POP PUSH1 0x20 DUP2 ADD SWAP1 POP SWAP2 SWAP1 POP JUMP JUMPDEST PUSH1 0x0 PUSH8 0xFFFFFFFFFFFFFFFF DUP3 GT ISZERO PUSH2 0x1D4D JUMPI PUSH2 0x1D4C PUSH2 0x21A7 JUMP JUMPDEST JUMPDEST PUSH2 0x1D56 DUP3 PUSH2 0x21EA JUMP JUMPDEST SWAP1 POP PUSH1 0x20 DUP2 ADD SWAP1 POP SWAP2 SWAP1 POP JUMP JUMPDEST PUSH1 0x0 DUP2 SWAP1 POP DUP2 PUSH1 0x0 MSTORE PUSH1 0x20 PUSH1 0x0 KECCAK256 SWAP1 POP SWAP2 SWAP1 POP JUMP JUMPDEST PUSH1 0x0 DUP2 MLOAD SWAP1 POP SWAP2 SWAP1 POP JUMP JUMPDEST PUSH1 0x0 DUP2 MLOAD SWAP1 POP SWAP2 SWAP1 POP JUMP JUMPDEST PUSH1 0x0 DUP3 DUP3 MSTORE PUSH1 0x20 DUP3 ADD SWAP1 POP SWAP3 SWAP2 POP POP JUMP JUMPDEST PUSH1 0x0 DUP2 SWAP1 POP SWAP3 SWAP2 POP POP JUMP JUMPDEST PUSH1 0x0 DUP3 DUP3 MSTORE PUSH1 0x20 DUP3 ADD SWAP1 POP SWAP3 SWAP2 POP POP JUMP JUMPDEST PUSH1 0x0 DUP2 SWAP1 POP SWAP3 SWAP2 POP POP JUMP JUMPDEST PUSH1 0x0 PUSH2 0x1DD1 DUP3 PUSH2 0x1F7C JUMP JUMPDEST SWAP2 POP PUSH2 0x1DDC DUP4 PUSH2 0x1F7C JUMP JUMPDEST SWAP3 POP DUP3 PUSH32 0xFFFFFFFFFFFFFFFFFFFFFFFFFFFFFFFFFFFFFFFFFFFFFFFFFFFFFFFFFFFFFFFF SUB DUP3 GT ISZERO PUSH2 0x1E11 JUMPI PUSH2 0x1E10 PUSH2 0x20BC JUMP JUMPDEST JUMPDEST DUP3 DUP3 ADD SWAP1 POP SWAP3 SWAP2 POP POP JUMP JUMPDEST PUSH1 0x0 PUSH2 0x1E27 DUP3 PUSH2 0x1F86 JUMP JUMPDEST SWAP2 POP PUSH2 0x1E32 DUP4 PUSH2 0x1F86 JUMP JUMPDEST SWAP3 POP DUP3 PUSH1 0xFF SUB DUP3 GT ISZERO PUSH2 0x1E48 JUMPI PUSH2 0x1E47 PUSH2 0x20BC JUMP JUMPDEST JUMPDEST DUP3 DUP3 ADD SWAP1 POP SWAP3 SWAP2 POP POP JUMP JUMPDEST PUSH1 0x0 PUSH2 0x1E5E DUP3 PUSH2 0x1F7C JUMP JUMPDEST SWAP2 POP PUSH2 0x1E69 DUP4 PUSH2 0x1F7C JUMP JUMPDEST SWAP3 POP DUP3 PUSH2 0x1E79 JUMPI PUSH2 0x1E78 PUSH2 0x20EB JUMP JUMPDEST JUMPDEST DUP3 DUP3 DIV SWAP1 POP SWAP3 SWAP2 POP POP JUMP JUMPDEST PUSH1 0x0 PUSH2 0x1E8F DUP3 PUSH2 0x1F7C JUMP JUMPDEST SWAP2 POP PUSH2 0x1E9A DUP4 PUSH2 0x1F7C JUMP JUMPDEST SWAP3 POP DUP2 PUSH32 0xFFFFFFFFFFFFFFFFFFFFFFFFFFFFFFFFFFFFFFFFFFFFFFFFFFFFFFFFFFFFFFFF DIV DUP4 GT DUP3 ISZERO ISZERO AND ISZERO PUSH2 0x1ED3 JUMPI PUSH2 0x1ED2 PUSH2 0x20BC JUMP JUMPDEST JUMPDEST DUP3 DUP3 MUL SWAP1 POP SWAP3 SWAP2 POP POP JUMP JUMPDEST PUSH1 0x0 PUSH2 0x1EE9 DUP3 PUSH2 0x1F7C JUMP JUMPDEST SWAP2 POP PUSH2 0x1EF4 DUP4 PUSH2 0x1F7C JUMP JUMPDEST SWAP3 POP DUP3 DUP3 LT ISZERO PUSH2 0x1F07 JUMPI PUSH2 0x1F06 PUSH2 0x20BC JUMP JUMPDEST JUMPDEST DUP3 DUP3 SUB SWAP1 POP SWAP3 SWAP2 POP POP JUMP JUMPDEST PUSH1 0x0 PUSH2 0x1F1D DUP3 PUSH2 0x1F5C JUMP JUMPDEST SWAP1 POP SWAP2 SWAP1 POP JUMP JUMPDEST PUSH1 0x0 DUP2 ISZERO ISZERO SWAP1 POP SWAP2 SWAP1 POP JUMP JUMPDEST PUSH1 0x0 PUSH32 0xFF00000000000000000000000000000000000000000000000000000000000000 DUP3 AND SWAP1 POP SWAP2 SWAP1 POP JUMP JUMPDEST PUSH1 0x0 PUSH20 0xFFFFFFFFFFFFFFFFFFFFFFFFFFFFFFFFFFFFFFFF DUP3 AND SWAP1 POP SWAP2 SWAP1 POP JUMP JUMPDEST PUSH1 0x0 DUP2 SWAP1 POP SWAP2 SWAP1 POP JUMP JUMPDEST PUSH1 0x0 PUSH1 0xFF DUP3 AND SWAP1 POP SWAP2 SWAP1 POP JUMP JUMPDEST DUP3 DUP2 DUP4 CALLDATACOPY PUSH1 0x0 DUP4 DUP4 ADD MSTORE POP POP POP JUMP JUMPDEST PUSH1 0x0 JUMPDEST DUP4 DUP2 LT ISZERO PUSH2 0x1FC0 JUMPI DUP1 DUP3 ADD MLOAD DUP2 DUP5 ADD MSTORE PUSH1 0x20 DUP2 ADD SWAP1 POP PUSH2 0x1FA5 JUMP JUMPDEST DUP4 DUP2 GT ISZERO PUSH2 0x1FCF JUMPI PUSH1 0x0 DUP5 DUP5 ADD MSTORE JUMPDEST POP POP POP POP JUMP JUMPDEST PUSH1 0x0 PUSH1 0x2 DUP3 DIV SWAP1 POP PUSH1 0x1 DUP3 AND DUP1 PUSH2 0x1FED JUMPI PUSH1 0x7F DUP3 AND SWAP2 POP JUMPDEST PUSH1 0x20 DUP3 LT DUP2 EQ ISZERO PUSH2 0x2001 JUMPI PUSH2 0x2000 PUSH2 0x2149 JUMP JUMPDEST JUMPDEST POP SWAP2 SWAP1 POP JUMP JUMPDEST PUSH2 0x2010 DUP3 PUSH2 0x21EA JUMP JUMPDEST DUP2 ADD DUP2 DUP2 LT PUSH8 0xFFFFFFFFFFFFFFFF DUP3 GT OR ISZERO PUSH2 0x202F JUMPI PUSH2 0x202E PUSH2 0x21A7 JUMP JUMPDEST JUMPDEST DUP1 PUSH1 0x40 MSTORE POP POP POP JUMP JUMPDEST PUSH1 0x0 PUSH2 0x2043 DUP3 PUSH2 0x1F7C JUMP JUMPDEST SWAP2 POP PUSH32 0xFFFFFFFFFFFFFFFFFFFFFFFFFFFFFFFFFFFFFFFFFFFFFFFFFFFFFFFFFFFFFFFF DUP3 EQ ISZERO PUSH2 0x2076 JUMPI PUSH2 0x2075 PUSH2 0x20BC JUMP JUMPDEST JUMPDEST PUSH1 0x1 DUP3 ADD SWAP1 POP SWAP2 SWAP1 POP JUMP JUMPDEST PUSH1 0x0 DUP2 SWAP1 POP SWAP2 SWAP1 POP JUMP JUMPDEST PUSH1 0x0 PUSH2 0x2096 DUP3 PUSH2 0x1F7C JUMP JUMPDEST SWAP2 POP PUSH2 0x20A1 DUP4 PUSH2 0x1F7C JUMP JUMPDEST SWAP3 POP DUP3 PUSH2 0x20B1 JUMPI PUSH2 0x20B0 PUSH2 0x20EB JUMP JUMPDEST JUMPDEST DUP3 DUP3 MOD SWAP1 POP SWAP3 SWAP2 POP POP JUMP JUMPDEST PUSH32 0x4E487B7100000000000000000000000000000000000000000000000000000000 PUSH1 0x0 MSTORE PUSH1 0x11 PUSH1 0x4 MSTORE PUSH1 0x24 PUSH1 0x0 REVERT JUMPDEST PUSH32 0x4E487B7100000000000000000000000000000000000000000000000000000000 PUSH1 0x0 MSTORE PUSH1 0x12 PUSH1 0x4 MSTORE PUSH1 0x24 PUSH1 0x0 REVERT JUMPDEST PUSH32 0x4E487B7100000000000000000000000000000000000000000000000000000000 PUSH1 0x0 MSTORE PUSH1 0x21 PUSH1 0x4 MSTORE PUSH1 0x24 PUSH1 0x0 REVERT JUMPDEST PUSH32 0x4E487B7100000000000000000000000000000000000000000000000000000000 PUSH1 0x0 MSTORE PUSH1 0x22 PUSH1 0x4 MSTORE PUSH1 0x24 PUSH1 0x0 REVERT JUMPDEST PUSH32 0x4E487B7100000000000000000000000000000000000000000000000000000000 PUSH1 0x0 MSTORE PUSH1 0x32 PUSH1 0x4 MSTORE PUSH1 0x24 PUSH1 0x0 REVERT JUMPDEST PUSH32 0x4E487B7100000000000000000000000000000000000000000000000000000000 PUSH1 0x0 MSTORE PUSH1 0x41 PUSH1 0x4 MSTORE PUSH1 0x24 PUSH1 0x0 REVERT JUMPDEST PUSH1 0x0 DUP1 REVERT JUMPDEST PUSH1 0x0 DUP1 REVERT JUMPDEST PUSH1 0x0 DUP1 REVERT JUMPDEST PUSH1 0x0 DUP1 REVERT JUMPDEST PUSH1 0x0 PUSH1 0x1F NOT PUSH1 0x1F DUP4 ADD AND SWAP1 POP SWAP2 SWAP1 POP JUMP JUMPDEST PUSH32 0xA20332067616D65733A20000000000000000000000000000000000000000000 PUSH1 0x0 DUP3 ADD MSTORE POP JUMP JUMPDEST PUSH32 0x47616D6520636F7374733A0A20312067616D653A200000000000000000000000 PUSH1 0x0 DUP3 ADD MSTORE POP JUMP JUMPDEST PUSH32 0x596F752063616E20646F206265747465722E204E6F206775657373206C656674 PUSH1 0x0 DUP3 ADD MSTORE PUSH32 0x2E00000000000000000000000000000000000000000000000000000000000000 PUSH1 0x20 DUP3 ADD MSTORE POP JUMP JUMPDEST PUSH32 0x596F7527766520616C726561647920677565737365642074686174206C657474 PUSH1 0x0 DUP3 ADD MSTORE PUSH32 0x65722E0000000000000000000000000000000000000000000000000000000000 PUSH1 0x20 DUP3 ADD MSTORE POP JUMP JUMPDEST PUSH32 0x526571756573746564206C6576656C206F6620646966666963756C7479206E6F PUSH1 0x0 DUP3 ADD MSTORE PUSH32 0x7420617661696C61626C652E2043686F6F7365206265747765656E2028456173 PUSH1 0x20 DUP3 ADD MSTORE PUSH32 0x793A302C204E6F726D616C3A312C204368616C6C656E67696E673A32292E0000 PUSH1 0x40 DUP3 ADD MSTORE POP JUMP JUMPDEST PUSH32 0x5F00000000000000000000000000000000000000000000000000000000000000 PUSH1 0x0 DUP3 ADD MSTORE POP JUMP JUMPDEST PUSH32 0xA20322067616D65733A20000000000000000000000000000000000000000000 PUSH1 0x0 DUP3 ADD MSTORE POP JUMP JUMPDEST PUSH2 0x23BB DUP2 PUSH2 0x1F12 JUMP JUMPDEST DUP2 EQ PUSH2 0x23C6 JUMPI PUSH1 0x0 DUP1 REVERT JUMPDEST POP JUMP JUMPDEST PUSH2 0x23D2 DUP2 PUSH2 0x1F30 JUMP JUMPDEST DUP2 EQ PUSH2 0x23DD JUMPI PUSH1 0x0 DUP1 REVERT JUMPDEST POP JUMP JUMPDEST PUSH1 0x3 DUP2 LT PUSH2 0x23ED JUMPI PUSH1 0x0 DUP1 REVERT JUMPDEST POP JUMP JUMPDEST PUSH2 0x23F9 DUP2 PUSH2 0x1F7C JUMP JUMPDEST DUP2 EQ PUSH2 0x2404 JUMPI PUSH1 0x0 DUP1 REVERT JUMPDEST POP JUMP INVALID LOG2 PUSH5 0x6970667358 0x22 SLT KECCAK256 0xF8 0x4D 0x5F MULMOD 0xB5 SWAP5 0xDC PUSH1 0xA2 0xDB SWAP10 GASLIMIT CALLCODE DUP16 DUP5 LOG4 0xC8 RETURNDATACOPY 0x29 MSTORE 0x24 PUSH16 0xA737532E719A3B6256A764736F6C6343 STOP ADDMOD SMOD STOP CALLER "
		},
		"gasEstimates": {
			"creation": {
				"codeDepositCost": "1855400",
				"executionCost": "infinite",
				"totalCost": "infinite"
			},
			"external": {
				"": "174",
				"get_game_costs()": "infinite",
				"get_hint()": "infinite",
				"guess(bytes1)": "infinite",
				"pay_game(uint256)": "infinite",
				"print_word()": "infinite",
				"remaining_lifes()": "infinite",
				"start_game(uint8)": "infinite",
				"storeNewPlayer(address,string)": "infinite"
			},
			"internal": {
				"alreadyGuessed(bytes1)": "infinite",
				"check_words()": "infinite",
				"random()": "infinite",
				"send_to_owner(uint256)": "infinite",
				"set_word(bytes memory)": "infinite",
				"uint2str(uint256)": "infinite"
			}
		},
		"methodIdentifiers": {
			"get_game_costs()": "a27633f0",
			"get_hint()": "fd33209a",
			"guess(bytes1)": "c3d72cc7",
			"pay_game(uint256)": "7e452e35",
			"print_word()": "5bb9fae1",
			"remaining_lifes()": "69fd50f5",
			"start_game(uint8)": "4bada13c",
			"storeNewPlayer(address,string)": "9373fc95"
		}
	},
	"abi": [
		{
			"inputs": [],
			"stateMutability": "payable",
			"type": "constructor"
		},
		{
			"stateMutability": "payable",
			"type": "fallback"
		},
		{
			"inputs": [],
			"name": "get_game_costs",
			"outputs": [
				{
					"internalType": "string",
					"name": "",
					"type": "string"
				}
			],
			"stateMutability": "view",
			"type": "function"
		},
		{
			"inputs": [],
			"name": "get_hint",
			"outputs": [
				{
					"internalType": "bytes1",
					"name": "",
					"type": "bytes1"
				}
			],
			"stateMutability": "view",
			"type": "function"
		},
		{
			"inputs": [
				{
					"internalType": "bytes1",
					"name": "letter",
					"type": "bytes1"
				}
			],
			"name": "guess",
			"outputs": [
				{
					"internalType": "bool",
					"name": "",
					"type": "bool"
				}
			],
			"stateMutability": "view",
			"type": "function"
		},
		{
			"inputs": [
				{
					"internalType": "uint256",
					"name": "amount",
					"type": "uint256"
				}
			],
			"name": "pay_game",
			"outputs": [
				{
					"internalType": "bool",
					"name": "success",
					"type": "bool"
				}
			],
			"stateMutability": "payable",
			"type": "function"
		},
		{
			"inputs": [],
			"name": "print_word",
			"outputs": [
				{
					"internalType": "string",
					"name": "",
					"type": "string"
				}
			],
			"stateMutability": "view",
			"type": "function"
		},
		{
			"inputs": [],
			"name": "remaining_lifes",
			"outputs": [
				{
					"internalType": "uint256",
					"name": "",
					"type": "uint256"
				}
			],
			"stateMutability": "view",
			"type": "function"
		},
		{
			"inputs": [
				{
					"internalType": "enum hangman.LevelDifficulty",
					"name": "_level",
					"type": "uint8"
				}
			],
			"name": "start_game",
			"outputs": [],
			"stateMutability": "view",
			"type": "function"
		},
		{
			"inputs": [
				{
					"internalType": "address",
					"name": "player_address",
					"type": "address"
				},
				{
					"internalType": "string",
					"name": "nickname",
					"type": "string"
				}
			],
			"name": "storeNewPlayer",
			"outputs": [],
			"stateMutability": "nonpayable",
			"type": "function"
		},
		{
			"stateMutability": "payable",
			"type": "receive"
		}
	]
}