{
	"data": {
		"bytecode": {
			"linkReferences": {
				"contracts/LibraryRandomWords.sol": {
					"WordGenerator": [
						{
							"length": 20,
							"start": 2062
						}
					]
				}
			},
			"object": "6080604052604051806060016040528061c35062ffffff16815260200162015f9062ffffff1681526020016201d4c062ffffff168152506001906003620000489291906200008f565b50336000806101000a81548173ffffffffffffffffffffffffffffffffffffffff021916908373ffffffffffffffffffffffffffffffffffffffff160217905550620000fa565b8260038101928215620000c8579160200282015b82811115620000c7578251829062ffffff16905591602001919060010190620000a3565b5b509050620000d79190620000db565b5090565b5b80821115620000f6576000816000905550600101620000dc565b5090565b61203c806200010a6000396000f3fe6080604052600436106100745760003560e01c8063a27633f01161004e578063a27633f014610101578063c3d72cc71461012c578063fd33209a14610169578063ff92c89f146101945761007b565b80632adcea851461007d5780634bada13c146100ad5780635bb9fae1146100d65761007b565b3661007b57005b005b61009760048036038101906100929190611544565b6101bf565b6040516100a491906119a2565b60405180910390f35b3480156100b957600080fd5b506100d460048036038101906100cf9190611517565b610417565b005b3480156100e257600080fd5b506100eb6108e6565b6040516100f891906119d8565b60405180910390f35b34801561010d57600080fd5b506101166109bb565b60405161012391906119d8565b60405180910390f35b34801561013857600080fd5b50610153600480360381019061014e91906114a1565b610a45565b60405161016091906119a2565b60405180910390f35b34801561017557600080fd5b5061017e610a4c565b60405161018b91906119bd565b60405180910390f35b3480156101a057600080fd5b506101a9610a51565b6040516101b691906119fa565b60405180910390f35b600060016000600381106101d6576101d5611eb3565b5b01548310156101e85760009050610411565b8234146101f457600080fd5b6101fd83610dbd565b6040518060200160405280600081525080519060200120600460003373ffffffffffffffffffffffffffffffffffffffff1673ffffffffffffffffffffffffffffffffffffffff1681526020019081526020016000206001016040516102639190611939565b6040518091039020141561027b5761027a82610e27565b5b60016002600381106102905761028f611eb3565b5b01548310610329576000600360016002600381106102b1576102b0611eb3565b5b0154856102be9190611ba4565b6102c89190611bd5565b905080600460003373ffffffffffffffffffffffffffffffffffffffff1673ffffffffffffffffffffffffffffffffffffffff168152602001908152602001600020600201600082825461031c9190611b17565b925050819055505061040c565b6001806003811061033d5761033c611eb3565b5b015483106103aa5760006002905080600460003373ffffffffffffffffffffffffffffffffffffffff1673ffffffffffffffffffffffffffffffffffffffff168152602001908152602001600020600201600082825461039d9190611b17565b925050819055505061040b565b60006001905080600460003373ffffffffffffffffffffffffffffffffffffffff1673ffffffffffffffffffffffffffffffffffffffff16815260200190815260200160002060020160008282546104029190611b17565b92505081905550505b5b600190505b92915050565b6000600460003373ffffffffffffffffffffffffffffffffffffffff1673ffffffffffffffffffffffffffffffffffffffff1681526020019081526020016000206004016040518060c001604052908160008201805461047690611d4b565b80601f01602080910402602001604051908101604052809291908181526020018280546104a290611d4b565b80156104ef5780601f106104c4576101008083540402835291602001916104ef565b820191906000526020600020905b8154815290600101906020018083116104d257829003601f168201915b5050505050815260200160018201805461050890611d4b565b80601f016020809104026020016040519081016040528092919081815260200182805461053490611d4b565b80156105815780601f1061055657610100808354040283529160200191610581565b820191906000526020600020905b81548152906001019060200180831161056457829003601f168201915b5050505050815260200160028201548152602001600382015481526020016004820160009054906101000a900460ff1660028111156105c3576105c2611e55565b5b60028111156105d5576105d4611e55565b5b81526020016005820180546105e990611d4b565b80601f016020809104026020016040519081016040528092919081815260200182805461061590611d4b565b80156106625780601f1061063757610100808354040283529160200191610662565b820191906000526020600020905b81548152906001019060200180831161064557829003601f168201915b50505050508152505090506001600460003373ffffffffffffffffffffffffffffffffffffffff1673ffffffffffffffffffffffffffffffffffffffff16815260200190815260200160002060020160008282546106c09190611c2f565b9250508190555081816080019060028111156106df576106de611e55565b5b908160028111156106f3576106f2611e55565b5b81525050600081606001818152505073__$2b6706dabec950b317ee88d4c8081ae11f$__63f56841836040518163ffffffff1660e01b815260040160006040518083038186803b15801561074657600080fd5b505af415801561075a573d6000803e3d6000fd5b505050506040513d6000823e3d601f19601f8201168201806040525081019061078391906114ce565b816000018190525080600001515181604001818152505060405180602001604052806000815250816020018190525060005b81604001518110156108005781602001516040516020016107d69190611917565b604051602081830303815290604052826020018190525080806107f890611dae565b9150506107b5565b5080600460003373ffffffffffffffffffffffffffffffffffffffff1673ffffffffffffffffffffffffffffffffffffffff16815260200190815260200160002060040160008201518160000190805190602001906108609291906111c6565b50602082015181600101908051906020019061087d9291906111c6565b50604082015181600201556060820151816003015560808201518160040160006101000a81548160ff021916908360028111156108bd576108bc611e55565b5b021790555060a08201518160050190805190602001906108de9291906111c6565b509050505050565b6060600460003373ffffffffffffffffffffffffffffffffffffffff1673ffffffffffffffffffffffffffffffffffffffff168152602001908152602001600020600401600001805461093890611d4b565b80601f016020809104026020016040519081016040528092919081815260200182805461096490611d4b565b80156109b15780601f10610986576101008083540402835291602001916109b1565b820191906000526020600020905b81548152906001019060200180831161099457829003601f168201915b5050505050905090565b606060006109de60016000600381106109d7576109d6611eb3565b5b015461103d565b6109fc600180600381106109f5576109f4611eb3565b5b015461103d565b610a1b6001600260038110610a1457610a13611eb3565b5b015461103d565b604051602001610a2d93929190611950565b60405160208183030381529060405290508091505090565b6000919050565b600090565b610a5961124c565b600460003373ffffffffffffffffffffffffffffffffffffffff1673ffffffffffffffffffffffffffffffffffffffff1681526020019081526020016000206040518060a00160405290816000820160009054906101000a900473ffffffffffffffffffffffffffffffffffffffff1673ffffffffffffffffffffffffffffffffffffffff1673ffffffffffffffffffffffffffffffffffffffff168152602001600182018054610b0990611d4b565b80601f0160208091040260200160405190810160405280929190818152602001828054610b3590611d4b565b8015610b825780601f10610b5757610100808354040283529160200191610b82565b820191906000526020600020905b815481529060010190602001808311610b6557829003601f168201915b505050505081526020016002820154815260200160038201548152602001600482016040518060c0016040529081600082018054610bbf90611d4b565b80601f0160208091040260200160405190810160405280929190818152602001828054610beb90611d4b565b8015610c385780601f10610c0d57610100808354040283529160200191610c38565b820191906000526020600020905b815481529060010190602001808311610c1b57829003601f168201915b50505050508152602001600182018054610c5190611d4b565b80601f0160208091040260200160405190810160405280929190818152602001828054610c7d90611d4b565b8015610cca5780601f10610c9f57610100808354040283529160200191610cca565b820191906000526020600020905b815481529060010190602001808311610cad57829003601f168201915b5050505050815260200160028201548152602001600382015481526020016004820160009054906101000a900460ff166002811115610d0c57610d0b611e55565b5b6002811115610d1e57610d1d611e55565b5b8152602001600582018054610d3290611d4b565b80601f0160208091040260200160405190810160405280929190818152602001828054610d5e90611d4b565b8015610dab5780601f10610d8057610100808354040283529160200191610dab565b820191906000526020600020905b815481529060010190602001808311610d8e57829003601f168201915b50505050508152505081525050905090565b60008054906101000a900473ffffffffffffffffffffffffffffffffffffffff1673ffffffffffffffffffffffffffffffffffffffff166108fc829081150290604051600060405180830381858888f19350505050158015610e23573d6000803e3d6000fd5b5050565b60006040518060a001604052803373ffffffffffffffffffffffffffffffffffffffff16815260200183815260200160008152602001600081526020016040518060c00160405280604051806020016040528060008152508152602001604051806020016040528060008152508152602001600081526020016000815260200160006002811115610ebb57610eba611e55565b5b815260200160405180602001604052806000815250815250815250905080600460003373ffffffffffffffffffffffffffffffffffffffff1673ffffffffffffffffffffffffffffffffffffffff16815260200190815260200160002060008201518160000160006101000a81548173ffffffffffffffffffffffffffffffffffffffff021916908373ffffffffffffffffffffffffffffffffffffffff1602179055506020820151816001019080519060200190610f7b929190611297565b5060408201518160020155606082015181600301556080820151816004016000820151816000019080519060200190610fb59291906111c6565b506020820151816001019080519060200190610fd29291906111c6565b50604082015181600201556060820151816003015560808201518160040160006101000a81548160ff0219169083600281111561101257611011611e55565b5b021790555060a08201518160050190805190602001906110339291906111c6565b5050509050505050565b60606000821415611085576040518060400160405280600181526020017f300000000000000000000000000000000000000000000000000000000000000081525090506111c1565b600082905060005b600082146110b75780806110a090611dae565b915050600a826110b09190611ba4565b915061108d565b60008167ffffffffffffffff8111156110d3576110d2611ee2565b5b6040519080825280601f01601f1916602001820160405280156111055781602001600182028036833780820191505090505b50905060008290505b600086146111b9576001816111239190611c2f565b90506000600a80886111359190611ba4565b61113f9190611bd5565b8761114a9190611c2f565b60306111569190611b6d565b905060008160f81b90508084848151811061117457611173611eb3565b5b60200101907effffffffffffffffffffffffffffffffffffffffffffffffffffffffffffff1916908160001a905350600a886111b09190611ba4565b9750505061110e565b819450505050505b919050565b8280546111d290611d4b565b90600052602060002090601f0160209004810192826111f4576000855561123b565b82601f1061120d57805160ff191683800117855561123b565b8280016001018555821561123b579182015b8281111561123a57825182559160200191906001019061121f565b5b509050611248919061131d565b5090565b6040518060a00160405280600073ffffffffffffffffffffffffffffffffffffffff16815260200160608152602001600081526020016000815260200161129161133a565b81525090565b8280546112a390611d4b565b90600052602060002090601f0160209004810192826112c5576000855561130c565b82601f106112de57805160ff191683800117855561130c565b8280016001018555821561130c579182015b8281111561130b5782518255916020019190600101906112f0565b5b509050611319919061131d565b5090565b5b8082111561133657600081600090555060010161131e565b5090565b6040518060c00160405280606081526020016060815260200160008152602001600081526020016000600281111561137557611374611e55565b5b8152602001606081525090565b600061139561139084611a41565b611a1c565b9050828152602081018484840111156113b1576113b0611f16565b5b6113bc848285611d18565b509392505050565b60006113d76113d284611a72565b611a1c565b9050828152602081018484840111156113f3576113f2611f16565b5b6113fe848285611d09565b509392505050565b60008135905061141581611fc8565b92915050565b600082601f8301126114305761142f611f11565b5b8151611440848260208601611382565b91505092915050565b60008135905061145881611fdf565b92915050565b600082601f83011261147357611472611f11565b5b81356114838482602086016113c4565b91505092915050565b60008135905061149b81611fef565b92915050565b6000602082840312156114b7576114b6611f20565b5b60006114c584828501611406565b91505092915050565b6000602082840312156114e4576114e3611f20565b5b600082015167ffffffffffffffff81111561150257611501611f1b565b5b61150e8482850161141b565b91505092915050565b60006020828403121561152d5761152c611f20565b5b600061153b84828501611449565b91505092915050565b6000806040838503121561155b5761155a611f20565b5b60006115698582860161148c565b925050602083013567ffffffffffffffff81111561158a57611589611f1b565b5b6115968582860161145e565b9150509250929050565b6115a981611c63565b82525050565b6115b881611c75565b82525050565b6115c781611c81565b82525050565b60006115d882611ab8565b6115e28185611ace565b93506115f2818560208601611d18565b6115fb81611f25565b840191505092915050565b600061161182611ab8565b61161b8185611adf565b935061162b818560208601611d18565b80840191505092915050565b6000815461164481611d4b565b61164e8186611adf565b94506001821660008114611669576001811461167a576116ad565b60ff198316865281860193506116ad565b61168385611aa3565b60005b838110156116a557815481890152600182019150602081019050611686565b838801955050505b50505092915050565b6116bf81611cf7565b82525050565b60006116d082611ac3565b6116da8185611aea565b93506116ea818560208601611d18565b6116f381611f25565b840191505092915050565b600061170982611ac3565b6117138185611afb565b9350611723818560208601611d18565b61172c81611f25565b840191505092915050565b600061174282611ac3565b61174c8185611b0c565b935061175c818560208601611d18565b80840191505092915050565b6000611775600b83611b0c565b915061178082611f36565b600b82019050919050565b6000611798601583611b0c565b91506117a382611f5f565b601582019050919050565b60006117bb600083611b0c565b91506117c682611f88565b600082019050919050565b60006117de600b83611b0c565b91506117e982611f8b565b600b82019050919050565b600060c083016000830151848203600086015261181182826115cd565b9150506020830151848203602086015261182b82826115cd565b91505060408301516118406040860182611908565b5060608301516118536060860182611908565b50608083015161186660808601826116b6565b5060a083015184820360a086015261187e82826115cd565b9150508091505092915050565b600060a0830160008301516118a360008601826115a0565b50602083015184820360208601526118bb82826116c5565b91505060408301516118d06040860182611908565b5060608301516118e36060860182611908565b50608083015184820360808601526118fb82826117f4565b9150508091505092915050565b61191181611ce0565b82525050565b60006119238284611606565b915061192e826117ae565b915081905092915050565b60006119458284611637565b915081905092915050565b600061195b8261178b565b91506119678286611737565b9150611972826117d1565b915061197e8285611737565b915061198982611768565b91506119958284611737565b9150819050949350505050565b60006020820190506119b760008301846115af565b92915050565b60006020820190506119d260008301846115be565b92915050565b600060208201905081810360008301526119f281846116fe565b905092915050565b60006020820190508181036000830152611a14818461188b565b905092915050565b6000611a26611a37565b9050611a328282611d7d565b919050565b6000604051905090565b600067ffffffffffffffff821115611a5c57611a5b611ee2565b5b611a6582611f25565b9050602081019050919050565b600067ffffffffffffffff821115611a8d57611a8c611ee2565b5b611a9682611f25565b9050602081019050919050565b60008190508160005260206000209050919050565b600081519050919050565b600081519050919050565b600082825260208201905092915050565b600081905092915050565b600082825260208201905092915050565b600082825260208201905092915050565b600081905092915050565b6000611b2282611ce0565b9150611b2d83611ce0565b9250827fffffffffffffffffffffffffffffffffffffffffffffffffffffffffffffffff03821115611b6257611b61611df7565b5b828201905092915050565b6000611b7882611cea565b9150611b8383611cea565b92508260ff03821115611b9957611b98611df7565b5b828201905092915050565b6000611baf82611ce0565b9150611bba83611ce0565b925082611bca57611bc9611e26565b5b828204905092915050565b6000611be082611ce0565b9150611beb83611ce0565b9250817fffffffffffffffffffffffffffffffffffffffffffffffffffffffffffffffff0483118215151615611c2457611c23611df7565b5b828202905092915050565b6000611c3a82611ce0565b9150611c4583611ce0565b925082821015611c5857611c57611df7565b5b828203905092915050565b6000611c6e82611cc0565b9050919050565b60008115159050919050565b60007fff0000000000000000000000000000000000000000000000000000000000000082169050919050565b6000819050611cbb82611fb4565b919050565b600073ffffffffffffffffffffffffffffffffffffffff82169050919050565b6000819050919050565b600060ff82169050919050565b6000611d0282611cad565b9050919050565b82818337600083830152505050565b60005b83811015611d36578082015181840152602081019050611d1b565b83811115611d45576000848401525b50505050565b60006002820490506001821680611d6357607f821691505b60208210811415611d7757611d76611e84565b5b50919050565b611d8682611f25565b810181811067ffffffffffffffff82111715611da557611da4611ee2565b5b80604052505050565b6000611db982611ce0565b91507fffffffffffffffffffffffffffffffffffffffffffffffffffffffffffffffff821415611dec57611deb611df7565b5b600182019050919050565b7f4e487b7100000000000000000000000000000000000000000000000000000000600052601160045260246000fd5b7f4e487b7100000000000000000000000000000000000000000000000000000000600052601260045260246000fd5b7f4e487b7100000000000000000000000000000000000000000000000000000000600052602160045260246000fd5b7f4e487b7100000000000000000000000000000000000000000000000000000000600052602260045260246000fd5b7f4e487b7100000000000000000000000000000000000000000000000000000000600052603260045260246000fd5b7f4e487b7100000000000000000000000000000000000000000000000000000000600052604160045260246000fd5b600080fd5b600080fd5b600080fd5b600080fd5b6000601f19601f8301169050919050565b7f0a20332067616d65733a20000000000000000000000000000000000000000000600082015250565b7f47616d6520636f7374733a0a20312067616d653a200000000000000000000000600082015250565b50565b7f0a20322067616d65733a20000000000000000000000000000000000000000000600082015250565b60038110611fc557611fc4611e55565b5b50565b611fd181611c81565b8114611fdc57600080fd5b50565b60038110611fec57600080fd5b50565b611ff881611ce0565b811461200357600080fd5b5056fea264697066735822122011baad5bc4d58fabf708a62cc233ce66887b73deacd7dc2f93469af8e983ad7064736f6c63430008070033",
			"opcodes": "PUSH1 0x80 PUSH1 0x40 MSTORE PUSH1 0x40 MLOAD DUP1 PUSH1 0x60 ADD PUSH1 0x40 MSTORE DUP1 PUSH2 0xC350 PUSH3 0xFFFFFF AND DUP2 MSTORE PUSH1 0x20 ADD PUSH3 0x15F90 PUSH3 0xFFFFFF AND DUP2 MSTORE PUSH1 0x20 ADD PUSH3 0x1D4C0 PUSH3 0xFFFFFF AND DUP2 MSTORE POP PUSH1 0x1 SWAP1 PUSH1 0x3 PUSH3 0x48 SWAP3 SWAP2 SWAP1 PUSH3 0x8F JUMP JUMPDEST POP CALLER PUSH1 0x0 DUP1 PUSH2 0x100 EXP DUP2 SLOAD DUP2 PUSH20 0xFFFFFFFFFFFFFFFFFFFFFFFFFFFFFFFFFFFFFFFF MUL NOT AND SWAP1 DUP4 PUSH20 0xFFFFFFFFFFFFFFFFFFFFFFFFFFFFFFFFFFFFFFFF AND MUL OR SWAP1 SSTORE POP PUSH3 0xFA JUMP JUMPDEST DUP3 PUSH1 0x3 DUP2 ADD SWAP3 DUP3 ISZERO PUSH3 0xC8 JUMPI SWAP2 PUSH1 0x20 MUL DUP3 ADD JUMPDEST DUP3 DUP2 GT ISZERO PUSH3 0xC7 JUMPI DUP3 MLOAD DUP3 SWAP1 PUSH3 0xFFFFFF AND SWAP1 SSTORE SWAP2 PUSH1 0x20 ADD SWAP2 SWAP1 PUSH1 0x1 ADD SWAP1 PUSH3 0xA3 JUMP JUMPDEST JUMPDEST POP SWAP1 POP PUSH3 0xD7 SWAP2 SWAP1 PUSH3 0xDB JUMP JUMPDEST POP SWAP1 JUMP JUMPDEST JUMPDEST DUP1 DUP3 GT ISZERO PUSH3 0xF6 JUMPI PUSH1 0x0 DUP2 PUSH1 0x0 SWAP1 SSTORE POP PUSH1 0x1 ADD PUSH3 0xDC JUMP JUMPDEST POP SWAP1 JUMP JUMPDEST PUSH2 0x203C DUP1 PUSH3 0x10A PUSH1 0x0 CODECOPY PUSH1 0x0 RETURN INVALID PUSH1 0x80 PUSH1 0x40 MSTORE PUSH1 0x4 CALLDATASIZE LT PUSH2 0x74 JUMPI PUSH1 0x0 CALLDATALOAD PUSH1 0xE0 SHR DUP1 PUSH4 0xA27633F0 GT PUSH2 0x4E JUMPI DUP1 PUSH4 0xA27633F0 EQ PUSH2 0x101 JUMPI DUP1 PUSH4 0xC3D72CC7 EQ PUSH2 0x12C JUMPI DUP1 PUSH4 0xFD33209A EQ PUSH2 0x169 JUMPI DUP1 PUSH4 0xFF92C89F EQ PUSH2 0x194 JUMPI PUSH2 0x7B JUMP JUMPDEST DUP1 PUSH4 0x2ADCEA85 EQ PUSH2 0x7D JUMPI DUP1 PUSH4 0x4BADA13C EQ PUSH2 0xAD JUMPI DUP1 PUSH4 0x5BB9FAE1 EQ PUSH2 0xD6 JUMPI PUSH2 0x7B JUMP JUMPDEST CALLDATASIZE PUSH2 0x7B JUMPI STOP JUMPDEST STOP JUMPDEST PUSH2 0x97 PUSH1 0x4 DUP1 CALLDATASIZE SUB DUP2 ADD SWAP1 PUSH2 0x92 SWAP2 SWAP1 PUSH2 0x1544 JUMP JUMPDEST PUSH2 0x1BF JUMP JUMPDEST PUSH1 0x40 MLOAD PUSH2 0xA4 SWAP2 SWAP1 PUSH2 0x19A2 JUMP JUMPDEST PUSH1 0x40 MLOAD DUP1 SWAP2 SUB SWAP1 RETURN JUMPDEST CALLVALUE DUP1 ISZERO PUSH2 0xB9 JUMPI PUSH1 0x0 DUP1 REVERT JUMPDEST POP PUSH2 0xD4 PUSH1 0x4 DUP1 CALLDATASIZE SUB DUP2 ADD SWAP1 PUSH2 0xCF SWAP2 SWAP1 PUSH2 0x1517 JUMP JUMPDEST PUSH2 0x417 JUMP JUMPDEST STOP JUMPDEST CALLVALUE DUP1 ISZERO PUSH2 0xE2 JUMPI PUSH1 0x0 DUP1 REVERT JUMPDEST POP PUSH2 0xEB PUSH2 0x8E6 JUMP JUMPDEST PUSH1 0x40 MLOAD PUSH2 0xF8 SWAP2 SWAP1 PUSH2 0x19D8 JUMP JUMPDEST PUSH1 0x40 MLOAD DUP1 SWAP2 SUB SWAP1 RETURN JUMPDEST CALLVALUE DUP1 ISZERO PUSH2 0x10D JUMPI PUSH1 0x0 DUP1 REVERT JUMPDEST POP PUSH2 0x116 PUSH2 0x9BB JUMP JUMPDEST PUSH1 0x40 MLOAD PUSH2 0x123 SWAP2 SWAP1 PUSH2 0x19D8 JUMP JUMPDEST PUSH1 0x40 MLOAD DUP1 SWAP2 SUB SWAP1 RETURN JUMPDEST CALLVALUE DUP1 ISZERO PUSH2 0x138 JUMPI PUSH1 0x0 DUP1 REVERT JUMPDEST POP PUSH2 0x153 PUSH1 0x4 DUP1 CALLDATASIZE SUB DUP2 ADD SWAP1 PUSH2 0x14E SWAP2 SWAP1 PUSH2 0x14A1 JUMP JUMPDEST PUSH2 0xA45 JUMP JUMPDEST PUSH1 0x40 MLOAD PUSH2 0x160 SWAP2 SWAP1 PUSH2 0x19A2 JUMP JUMPDEST PUSH1 0x40 MLOAD DUP1 SWAP2 SUB SWAP1 RETURN JUMPDEST CALLVALUE DUP1 ISZERO PUSH2 0x175 JUMPI PUSH1 0x0 DUP1 REVERT JUMPDEST POP PUSH2 0x17E PUSH2 0xA4C JUMP JUMPDEST PUSH1 0x40 MLOAD PUSH2 0x18B SWAP2 SWAP1 PUSH2 0x19BD JUMP JUMPDEST PUSH1 0x40 MLOAD DUP1 SWAP2 SUB SWAP1 RETURN JUMPDEST CALLVALUE DUP1 ISZERO PUSH2 0x1A0 JUMPI PUSH1 0x0 DUP1 REVERT JUMPDEST POP PUSH2 0x1A9 PUSH2 0xA51 JUMP JUMPDEST PUSH1 0x40 MLOAD PUSH2 0x1B6 SWAP2 SWAP1 PUSH2 0x19FA JUMP JUMPDEST PUSH1 0x40 MLOAD DUP1 SWAP2 SUB SWAP1 RETURN JUMPDEST PUSH1 0x0 PUSH1 0x1 PUSH1 0x0 PUSH1 0x3 DUP2 LT PUSH2 0x1D6 JUMPI PUSH2 0x1D5 PUSH2 0x1EB3 JUMP JUMPDEST JUMPDEST ADD SLOAD DUP4 LT ISZERO PUSH2 0x1E8 JUMPI PUSH1 0x0 SWAP1 POP PUSH2 0x411 JUMP JUMPDEST DUP3 CALLVALUE EQ PUSH2 0x1F4 JUMPI PUSH1 0x0 DUP1 REVERT JUMPDEST PUSH2 0x1FD DUP4 PUSH2 0xDBD JUMP JUMPDEST PUSH1 0x40 MLOAD DUP1 PUSH1 0x20 ADD PUSH1 0x40 MSTORE DUP1 PUSH1 0x0 DUP2 MSTORE POP DUP1 MLOAD SWAP1 PUSH1 0x20 ADD KECCAK256 PUSH1 0x4 PUSH1 0x0 CALLER PUSH20 0xFFFFFFFFFFFFFFFFFFFFFFFFFFFFFFFFFFFFFFFF AND PUSH20 0xFFFFFFFFFFFFFFFFFFFFFFFFFFFFFFFFFFFFFFFF AND DUP2 MSTORE PUSH1 0x20 ADD SWAP1 DUP2 MSTORE PUSH1 0x20 ADD PUSH1 0x0 KECCAK256 PUSH1 0x1 ADD PUSH1 0x40 MLOAD PUSH2 0x263 SWAP2 SWAP1 PUSH2 0x1939 JUMP JUMPDEST PUSH1 0x40 MLOAD DUP1 SWAP2 SUB SWAP1 KECCAK256 EQ ISZERO PUSH2 0x27B JUMPI PUSH2 0x27A DUP3 PUSH2 0xE27 JUMP JUMPDEST JUMPDEST PUSH1 0x1 PUSH1 0x2 PUSH1 0x3 DUP2 LT PUSH2 0x290 JUMPI PUSH2 0x28F PUSH2 0x1EB3 JUMP JUMPDEST JUMPDEST ADD SLOAD DUP4 LT PUSH2 0x329 JUMPI PUSH1 0x0 PUSH1 0x3 PUSH1 0x1 PUSH1 0x2 PUSH1 0x3 DUP2 LT PUSH2 0x2B1 JUMPI PUSH2 0x2B0 PUSH2 0x1EB3 JUMP JUMPDEST JUMPDEST ADD SLOAD DUP6 PUSH2 0x2BE SWAP2 SWAP1 PUSH2 0x1BA4 JUMP JUMPDEST PUSH2 0x2C8 SWAP2 SWAP1 PUSH2 0x1BD5 JUMP JUMPDEST SWAP1 POP DUP1 PUSH1 0x4 PUSH1 0x0 CALLER PUSH20 0xFFFFFFFFFFFFFFFFFFFFFFFFFFFFFFFFFFFFFFFF AND PUSH20 0xFFFFFFFFFFFFFFFFFFFFFFFFFFFFFFFFFFFFFFFF AND DUP2 MSTORE PUSH1 0x20 ADD SWAP1 DUP2 MSTORE PUSH1 0x20 ADD PUSH1 0x0 KECCAK256 PUSH1 0x2 ADD PUSH1 0x0 DUP3 DUP3 SLOAD PUSH2 0x31C SWAP2 SWAP1 PUSH2 0x1B17 JUMP JUMPDEST SWAP3 POP POP DUP2 SWAP1 SSTORE POP POP PUSH2 0x40C JUMP JUMPDEST PUSH1 0x1 DUP1 PUSH1 0x3 DUP2 LT PUSH2 0x33D JUMPI PUSH2 0x33C PUSH2 0x1EB3 JUMP JUMPDEST JUMPDEST ADD SLOAD DUP4 LT PUSH2 0x3AA JUMPI PUSH1 0x0 PUSH1 0x2 SWAP1 POP DUP1 PUSH1 0x4 PUSH1 0x0 CALLER PUSH20 0xFFFFFFFFFFFFFFFFFFFFFFFFFFFFFFFFFFFFFFFF AND PUSH20 0xFFFFFFFFFFFFFFFFFFFFFFFFFFFFFFFFFFFFFFFF AND DUP2 MSTORE PUSH1 0x20 ADD SWAP1 DUP2 MSTORE PUSH1 0x20 ADD PUSH1 0x0 KECCAK256 PUSH1 0x2 ADD PUSH1 0x0 DUP3 DUP3 SLOAD PUSH2 0x39D SWAP2 SWAP1 PUSH2 0x1B17 JUMP JUMPDEST SWAP3 POP POP DUP2 SWAP1 SSTORE POP POP PUSH2 0x40B JUMP JUMPDEST PUSH1 0x0 PUSH1 0x1 SWAP1 POP DUP1 PUSH1 0x4 PUSH1 0x0 CALLER PUSH20 0xFFFFFFFFFFFFFFFFFFFFFFFFFFFFFFFFFFFFFFFF AND PUSH20 0xFFFFFFFFFFFFFFFFFFFFFFFFFFFFFFFFFFFFFFFF AND DUP2 MSTORE PUSH1 0x20 ADD SWAP1 DUP2 MSTORE PUSH1 0x20 ADD PUSH1 0x0 KECCAK256 PUSH1 0x2 ADD PUSH1 0x0 DUP3 DUP3 SLOAD PUSH2 0x402 SWAP2 SWAP1 PUSH2 0x1B17 JUMP JUMPDEST SWAP3 POP POP DUP2 SWAP1 SSTORE POP POP JUMPDEST JUMPDEST PUSH1 0x1 SWAP1 POP JUMPDEST SWAP3 SWAP2 POP POP JUMP JUMPDEST PUSH1 0x0 PUSH1 0x4 PUSH1 0x0 CALLER PUSH20 0xFFFFFFFFFFFFFFFFFFFFFFFFFFFFFFFFFFFFFFFF AND PUSH20 0xFFFFFFFFFFFFFFFFFFFFFFFFFFFFFFFFFFFFFFFF AND DUP2 MSTORE PUSH1 0x20 ADD SWAP1 DUP2 MSTORE PUSH1 0x20 ADD PUSH1 0x0 KECCAK256 PUSH1 0x4 ADD PUSH1 0x40 MLOAD DUP1 PUSH1 0xC0 ADD PUSH1 0x40 MSTORE SWAP1 DUP2 PUSH1 0x0 DUP3 ADD DUP1 SLOAD PUSH2 0x476 SWAP1 PUSH2 0x1D4B JUMP JUMPDEST DUP1 PUSH1 0x1F ADD PUSH1 0x20 DUP1 SWAP2 DIV MUL PUSH1 0x20 ADD PUSH1 0x40 MLOAD SWAP1 DUP2 ADD PUSH1 0x40 MSTORE DUP1 SWAP3 SWAP2 SWAP1 DUP2 DUP2 MSTORE PUSH1 0x20 ADD DUP3 DUP1 SLOAD PUSH2 0x4A2 SWAP1 PUSH2 0x1D4B JUMP JUMPDEST DUP1 ISZERO PUSH2 0x4EF JUMPI DUP1 PUSH1 0x1F LT PUSH2 0x4C4 JUMPI PUSH2 0x100 DUP1 DUP4 SLOAD DIV MUL DUP4 MSTORE SWAP2 PUSH1 0x20 ADD SWAP2 PUSH2 0x4EF JUMP JUMPDEST DUP3 ADD SWAP2 SWAP1 PUSH1 0x0 MSTORE PUSH1 0x20 PUSH1 0x0 KECCAK256 SWAP1 JUMPDEST DUP2 SLOAD DUP2 MSTORE SWAP1 PUSH1 0x1 ADD SWAP1 PUSH1 0x20 ADD DUP1 DUP4 GT PUSH2 0x4D2 JUMPI DUP3 SWAP1 SUB PUSH1 0x1F AND DUP3 ADD SWAP2 JUMPDEST POP POP POP POP POP DUP2 MSTORE PUSH1 0x20 ADD PUSH1 0x1 DUP3 ADD DUP1 SLOAD PUSH2 0x508 SWAP1 PUSH2 0x1D4B JUMP JUMPDEST DUP1 PUSH1 0x1F ADD PUSH1 0x20 DUP1 SWAP2 DIV MUL PUSH1 0x20 ADD PUSH1 0x40 MLOAD SWAP1 DUP2 ADD PUSH1 0x40 MSTORE DUP1 SWAP3 SWAP2 SWAP1 DUP2 DUP2 MSTORE PUSH1 0x20 ADD DUP3 DUP1 SLOAD PUSH2 0x534 SWAP1 PUSH2 0x1D4B JUMP JUMPDEST DUP1 ISZERO PUSH2 0x581 JUMPI DUP1 PUSH1 0x1F LT PUSH2 0x556 JUMPI PUSH2 0x100 DUP1 DUP4 SLOAD DIV MUL DUP4 MSTORE SWAP2 PUSH1 0x20 ADD SWAP2 PUSH2 0x581 JUMP JUMPDEST DUP3 ADD SWAP2 SWAP1 PUSH1 0x0 MSTORE PUSH1 0x20 PUSH1 0x0 KECCAK256 SWAP1 JUMPDEST DUP2 SLOAD DUP2 MSTORE SWAP1 PUSH1 0x1 ADD SWAP1 PUSH1 0x20 ADD DUP1 DUP4 GT PUSH2 0x564 JUMPI DUP3 SWAP1 SUB PUSH1 0x1F AND DUP3 ADD SWAP2 JUMPDEST POP POP POP POP POP DUP2 MSTORE PUSH1 0x20 ADD PUSH1 0x2 DUP3 ADD SLOAD DUP2 MSTORE PUSH1 0x20 ADD PUSH1 0x3 DUP3 ADD SLOAD DUP2 MSTORE PUSH1 0x20 ADD PUSH1 0x4 DUP3 ADD PUSH1 0x0 SWAP1 SLOAD SWAP1 PUSH2 0x100 EXP SWAP1 DIV PUSH1 0xFF AND PUSH1 0x2 DUP2 GT ISZERO PUSH2 0x5C3 JUMPI PUSH2 0x5C2 PUSH2 0x1E55 JUMP JUMPDEST JUMPDEST PUSH1 0x2 DUP2 GT ISZERO PUSH2 0x5D5 JUMPI PUSH2 0x5D4 PUSH2 0x1E55 JUMP JUMPDEST JUMPDEST DUP2 MSTORE PUSH1 0x20 ADD PUSH1 0x5 DUP3 ADD DUP1 SLOAD PUSH2 0x5E9 SWAP1 PUSH2 0x1D4B JUMP JUMPDEST DUP1 PUSH1 0x1F ADD PUSH1 0x20 DUP1 SWAP2 DIV MUL PUSH1 0x20 ADD PUSH1 0x40 MLOAD SWAP1 DUP2 ADD PUSH1 0x40 MSTORE DUP1 SWAP3 SWAP2 SWAP1 DUP2 DUP2 MSTORE PUSH1 0x20 ADD DUP3 DUP1 SLOAD PUSH2 0x615 SWAP1 PUSH2 0x1D4B JUMP JUMPDEST DUP1 ISZERO PUSH2 0x662 JUMPI DUP1 PUSH1 0x1F LT PUSH2 0x637 JUMPI PUSH2 0x100 DUP1 DUP4 SLOAD DIV MUL DUP4 MSTORE SWAP2 PUSH1 0x20 ADD SWAP2 PUSH2 0x662 JUMP JUMPDEST DUP3 ADD SWAP2 SWAP1 PUSH1 0x0 MSTORE PUSH1 0x20 PUSH1 0x0 KECCAK256 SWAP1 JUMPDEST DUP2 SLOAD DUP2 MSTORE SWAP1 PUSH1 0x1 ADD SWAP1 PUSH1 0x20 ADD DUP1 DUP4 GT PUSH2 0x645 JUMPI DUP3 SWAP1 SUB PUSH1 0x1F AND DUP3 ADD SWAP2 JUMPDEST POP POP POP POP POP DUP2 MSTORE POP POP SWAP1 POP PUSH1 0x1 PUSH1 0x4 PUSH1 0x0 CALLER PUSH20 0xFFFFFFFFFFFFFFFFFFFFFFFFFFFFFFFFFFFFFFFF AND PUSH20 0xFFFFFFFFFFFFFFFFFFFFFFFFFFFFFFFFFFFFFFFF AND DUP2 MSTORE PUSH1 0x20 ADD SWAP1 DUP2 MSTORE PUSH1 0x20 ADD PUSH1 0x0 KECCAK256 PUSH1 0x2 ADD PUSH1 0x0 DUP3 DUP3 SLOAD PUSH2 0x6C0 SWAP2 SWAP1 PUSH2 0x1C2F JUMP JUMPDEST SWAP3 POP POP DUP2 SWAP1 SSTORE POP DUP2 DUP2 PUSH1 0x80 ADD SWAP1 PUSH1 0x2 DUP2 GT ISZERO PUSH2 0x6DF JUMPI PUSH2 0x6DE PUSH2 0x1E55 JUMP JUMPDEST JUMPDEST SWAP1 DUP2 PUSH1 0x2 DUP2 GT ISZERO PUSH2 0x6F3 JUMPI PUSH2 0x6F2 PUSH2 0x1E55 JUMP JUMPDEST JUMPDEST DUP2 MSTORE POP POP PUSH1 0x0 DUP2 PUSH1 0x60 ADD DUP2 DUP2 MSTORE POP POP PUSH20 0x0 PUSH4 0xF5684183 PUSH1 0x40 MLOAD DUP2 PUSH4 0xFFFFFFFF AND PUSH1 0xE0 SHL DUP2 MSTORE PUSH1 0x4 ADD PUSH1 0x0 PUSH1 0x40 MLOAD DUP1 DUP4 SUB DUP2 DUP7 DUP1 EXTCODESIZE ISZERO DUP1 ISZERO PUSH2 0x746 JUMPI PUSH1 0x0 DUP1 REVERT JUMPDEST POP GAS DELEGATECALL ISZERO DUP1 ISZERO PUSH2 0x75A JUMPI RETURNDATASIZE PUSH1 0x0 DUP1 RETURNDATACOPY RETURNDATASIZE PUSH1 0x0 REVERT JUMPDEST POP POP POP POP PUSH1 0x40 MLOAD RETURNDATASIZE PUSH1 0x0 DUP3 RETURNDATACOPY RETURNDATASIZE PUSH1 0x1F NOT PUSH1 0x1F DUP3 ADD AND DUP3 ADD DUP1 PUSH1 0x40 MSTORE POP DUP2 ADD SWAP1 PUSH2 0x783 SWAP2 SWAP1 PUSH2 0x14CE JUMP JUMPDEST DUP2 PUSH1 0x0 ADD DUP2 SWAP1 MSTORE POP DUP1 PUSH1 0x0 ADD MLOAD MLOAD DUP2 PUSH1 0x40 ADD DUP2 DUP2 MSTORE POP POP PUSH1 0x40 MLOAD DUP1 PUSH1 0x20 ADD PUSH1 0x40 MSTORE DUP1 PUSH1 0x0 DUP2 MSTORE POP DUP2 PUSH1 0x20 ADD DUP2 SWAP1 MSTORE POP PUSH1 0x0 JUMPDEST DUP2 PUSH1 0x40 ADD MLOAD DUP2 LT ISZERO PUSH2 0x800 JUMPI DUP2 PUSH1 0x20 ADD MLOAD PUSH1 0x40 MLOAD PUSH1 0x20 ADD PUSH2 0x7D6 SWAP2 SWAP1 PUSH2 0x1917 JUMP JUMPDEST PUSH1 0x40 MLOAD PUSH1 0x20 DUP2 DUP4 SUB SUB DUP2 MSTORE SWAP1 PUSH1 0x40 MSTORE DUP3 PUSH1 0x20 ADD DUP2 SWAP1 MSTORE POP DUP1 DUP1 PUSH2 0x7F8 SWAP1 PUSH2 0x1DAE JUMP JUMPDEST SWAP2 POP POP PUSH2 0x7B5 JUMP JUMPDEST POP DUP1 PUSH1 0x4 PUSH1 0x0 CALLER PUSH20 0xFFFFFFFFFFFFFFFFFFFFFFFFFFFFFFFFFFFFFFFF AND PUSH20 0xFFFFFFFFFFFFFFFFFFFFFFFFFFFFFFFFFFFFFFFF AND DUP2 MSTORE PUSH1 0x20 ADD SWAP1 DUP2 MSTORE PUSH1 0x20 ADD PUSH1 0x0 KECCAK256 PUSH1 0x4 ADD PUSH1 0x0 DUP3 ADD MLOAD DUP2 PUSH1 0x0 ADD SWAP1 DUP1 MLOAD SWAP1 PUSH1 0x20 ADD SWAP1 PUSH2 0x860 SWAP3 SWAP2 SWAP1 PUSH2 0x11C6 JUMP JUMPDEST POP PUSH1 0x20 DUP3 ADD MLOAD DUP2 PUSH1 0x1 ADD SWAP1 DUP1 MLOAD SWAP1 PUSH1 0x20 ADD SWAP1 PUSH2 0x87D SWAP3 SWAP2 SWAP1 PUSH2 0x11C6 JUMP JUMPDEST POP PUSH1 0x40 DUP3 ADD MLOAD DUP2 PUSH1 0x2 ADD SSTORE PUSH1 0x60 DUP3 ADD MLOAD DUP2 PUSH1 0x3 ADD SSTORE PUSH1 0x80 DUP3 ADD MLOAD DUP2 PUSH1 0x4 ADD PUSH1 0x0 PUSH2 0x100 EXP DUP2 SLOAD DUP2 PUSH1 0xFF MUL NOT AND SWAP1 DUP4 PUSH1 0x2 DUP2 GT ISZERO PUSH2 0x8BD JUMPI PUSH2 0x8BC PUSH2 0x1E55 JUMP JUMPDEST JUMPDEST MUL OR SWAP1 SSTORE POP PUSH1 0xA0 DUP3 ADD MLOAD DUP2 PUSH1 0x5 ADD SWAP1 DUP1 MLOAD SWAP1 PUSH1 0x20 ADD SWAP1 PUSH2 0x8DE SWAP3 SWAP2 SWAP1 PUSH2 0x11C6 JUMP JUMPDEST POP SWAP1 POP POP POP POP JUMP JUMPDEST PUSH1 0x60 PUSH1 0x4 PUSH1 0x0 CALLER PUSH20 0xFFFFFFFFFFFFFFFFFFFFFFFFFFFFFFFFFFFFFFFF AND PUSH20 0xFFFFFFFFFFFFFFFFFFFFFFFFFFFFFFFFFFFFFFFF AND DUP2 MSTORE PUSH1 0x20 ADD SWAP1 DUP2 MSTORE PUSH1 0x20 ADD PUSH1 0x0 KECCAK256 PUSH1 0x4 ADD PUSH1 0x0 ADD DUP1 SLOAD PUSH2 0x938 SWAP1 PUSH2 0x1D4B JUMP JUMPDEST DUP1 PUSH1 0x1F ADD PUSH1 0x20 DUP1 SWAP2 DIV MUL PUSH1 0x20 ADD PUSH1 0x40 MLOAD SWAP1 DUP2 ADD PUSH1 0x40 MSTORE DUP1 SWAP3 SWAP2 SWAP1 DUP2 DUP2 MSTORE PUSH1 0x20 ADD DUP3 DUP1 SLOAD PUSH2 0x964 SWAP1 PUSH2 0x1D4B JUMP JUMPDEST DUP1 ISZERO PUSH2 0x9B1 JUMPI DUP1 PUSH1 0x1F LT PUSH2 0x986 JUMPI PUSH2 0x100 DUP1 DUP4 SLOAD DIV MUL DUP4 MSTORE SWAP2 PUSH1 0x20 ADD SWAP2 PUSH2 0x9B1 JUMP JUMPDEST DUP3 ADD SWAP2 SWAP1 PUSH1 0x0 MSTORE PUSH1 0x20 PUSH1 0x0 KECCAK256 SWAP1 JUMPDEST DUP2 SLOAD DUP2 MSTORE SWAP1 PUSH1 0x1 ADD SWAP1 PUSH1 0x20 ADD DUP1 DUP4 GT PUSH2 0x994 JUMPI DUP3 SWAP1 SUB PUSH1 0x1F AND DUP3 ADD SWAP2 JUMPDEST POP POP POP POP POP SWAP1 POP SWAP1 JUMP JUMPDEST PUSH1 0x60 PUSH1 0x0 PUSH2 0x9DE PUSH1 0x1 PUSH1 0x0 PUSH1 0x3 DUP2 LT PUSH2 0x9D7 JUMPI PUSH2 0x9D6 PUSH2 0x1EB3 JUMP JUMPDEST JUMPDEST ADD SLOAD PUSH2 0x103D JUMP JUMPDEST PUSH2 0x9FC PUSH1 0x1 DUP1 PUSH1 0x3 DUP2 LT PUSH2 0x9F5 JUMPI PUSH2 0x9F4 PUSH2 0x1EB3 JUMP JUMPDEST JUMPDEST ADD SLOAD PUSH2 0x103D JUMP JUMPDEST PUSH2 0xA1B PUSH1 0x1 PUSH1 0x2 PUSH1 0x3 DUP2 LT PUSH2 0xA14 JUMPI PUSH2 0xA13 PUSH2 0x1EB3 JUMP JUMPDEST JUMPDEST ADD SLOAD PUSH2 0x103D JUMP JUMPDEST PUSH1 0x40 MLOAD PUSH1 0x20 ADD PUSH2 0xA2D SWAP4 SWAP3 SWAP2 SWAP1 PUSH2 0x1950 JUMP JUMPDEST PUSH1 0x40 MLOAD PUSH1 0x20 DUP2 DUP4 SUB SUB DUP2 MSTORE SWAP1 PUSH1 0x40 MSTORE SWAP1 POP DUP1 SWAP2 POP POP SWAP1 JUMP JUMPDEST PUSH1 0x0 SWAP2 SWAP1 POP JUMP JUMPDEST PUSH1 0x0 SWAP1 JUMP JUMPDEST PUSH2 0xA59 PUSH2 0x124C JUMP JUMPDEST PUSH1 0x4 PUSH1 0x0 CALLER PUSH20 0xFFFFFFFFFFFFFFFFFFFFFFFFFFFFFFFFFFFFFFFF AND PUSH20 0xFFFFFFFFFFFFFFFFFFFFFFFFFFFFFFFFFFFFFFFF AND DUP2 MSTORE PUSH1 0x20 ADD SWAP1 DUP2 MSTORE PUSH1 0x20 ADD PUSH1 0x0 KECCAK256 PUSH1 0x40 MLOAD DUP1 PUSH1 0xA0 ADD PUSH1 0x40 MSTORE SWAP1 DUP2 PUSH1 0x0 DUP3 ADD PUSH1 0x0 SWAP1 SLOAD SWAP1 PUSH2 0x100 EXP SWAP1 DIV PUSH20 0xFFFFFFFFFFFFFFFFFFFFFFFFFFFFFFFFFFFFFFFF AND PUSH20 0xFFFFFFFFFFFFFFFFFFFFFFFFFFFFFFFFFFFFFFFF AND PUSH20 0xFFFFFFFFFFFFFFFFFFFFFFFFFFFFFFFFFFFFFFFF AND DUP2 MSTORE PUSH1 0x20 ADD PUSH1 0x1 DUP3 ADD DUP1 SLOAD PUSH2 0xB09 SWAP1 PUSH2 0x1D4B JUMP JUMPDEST DUP1 PUSH1 0x1F ADD PUSH1 0x20 DUP1 SWAP2 DIV MUL PUSH1 0x20 ADD PUSH1 0x40 MLOAD SWAP1 DUP2 ADD PUSH1 0x40 MSTORE DUP1 SWAP3 SWAP2 SWAP1 DUP2 DUP2 MSTORE PUSH1 0x20 ADD DUP3 DUP1 SLOAD PUSH2 0xB35 SWAP1 PUSH2 0x1D4B JUMP JUMPDEST DUP1 ISZERO PUSH2 0xB82 JUMPI DUP1 PUSH1 0x1F LT PUSH2 0xB57 JUMPI PUSH2 0x100 DUP1 DUP4 SLOAD DIV MUL DUP4 MSTORE SWAP2 PUSH1 0x20 ADD SWAP2 PUSH2 0xB82 JUMP JUMPDEST DUP3 ADD SWAP2 SWAP1 PUSH1 0x0 MSTORE PUSH1 0x20 PUSH1 0x0 KECCAK256 SWAP1 JUMPDEST DUP2 SLOAD DUP2 MSTORE SWAP1 PUSH1 0x1 ADD SWAP1 PUSH1 0x20 ADD DUP1 DUP4 GT PUSH2 0xB65 JUMPI DUP3 SWAP1 SUB PUSH1 0x1F AND DUP3 ADD SWAP2 JUMPDEST POP POP POP POP POP DUP2 MSTORE PUSH1 0x20 ADD PUSH1 0x2 DUP3 ADD SLOAD DUP2 MSTORE PUSH1 0x20 ADD PUSH1 0x3 DUP3 ADD SLOAD DUP2 MSTORE PUSH1 0x20 ADD PUSH1 0x4 DUP3 ADD PUSH1 0x40 MLOAD DUP1 PUSH1 0xC0 ADD PUSH1 0x40 MSTORE SWAP1 DUP2 PUSH1 0x0 DUP3 ADD DUP1 SLOAD PUSH2 0xBBF SWAP1 PUSH2 0x1D4B JUMP JUMPDEST DUP1 PUSH1 0x1F ADD PUSH1 0x20 DUP1 SWAP2 DIV MUL PUSH1 0x20 ADD PUSH1 0x40 MLOAD SWAP1 DUP2 ADD PUSH1 0x40 MSTORE DUP1 SWAP3 SWAP2 SWAP1 DUP2 DUP2 MSTORE PUSH1 0x20 ADD DUP3 DUP1 SLOAD PUSH2 0xBEB SWAP1 PUSH2 0x1D4B JUMP JUMPDEST DUP1 ISZERO PUSH2 0xC38 JUMPI DUP1 PUSH1 0x1F LT PUSH2 0xC0D JUMPI PUSH2 0x100 DUP1 DUP4 SLOAD DIV MUL DUP4 MSTORE SWAP2 PUSH1 0x20 ADD SWAP2 PUSH2 0xC38 JUMP JUMPDEST DUP3 ADD SWAP2 SWAP1 PUSH1 0x0 MSTORE PUSH1 0x20 PUSH1 0x0 KECCAK256 SWAP1 JUMPDEST DUP2 SLOAD DUP2 MSTORE SWAP1 PUSH1 0x1 ADD SWAP1 PUSH1 0x20 ADD DUP1 DUP4 GT PUSH2 0xC1B JUMPI DUP3 SWAP1 SUB PUSH1 0x1F AND DUP3 ADD SWAP2 JUMPDEST POP POP POP POP POP DUP2 MSTORE PUSH1 0x20 ADD PUSH1 0x1 DUP3 ADD DUP1 SLOAD PUSH2 0xC51 SWAP1 PUSH2 0x1D4B JUMP JUMPDEST DUP1 PUSH1 0x1F ADD PUSH1 0x20 DUP1 SWAP2 DIV MUL PUSH1 0x20 ADD PUSH1 0x40 MLOAD SWAP1 DUP2 ADD PUSH1 0x40 MSTORE DUP1 SWAP3 SWAP2 SWAP1 DUP2 DUP2 MSTORE PUSH1 0x20 ADD DUP3 DUP1 SLOAD PUSH2 0xC7D SWAP1 PUSH2 0x1D4B JUMP JUMPDEST DUP1 ISZERO PUSH2 0xCCA JUMPI DUP1 PUSH1 0x1F LT PUSH2 0xC9F JUMPI PUSH2 0x100 DUP1 DUP4 SLOAD DIV MUL DUP4 MSTORE SWAP2 PUSH1 0x20 ADD SWAP2 PUSH2 0xCCA JUMP JUMPDEST DUP3 ADD SWAP2 SWAP1 PUSH1 0x0 MSTORE PUSH1 0x20 PUSH1 0x0 KECCAK256 SWAP1 JUMPDEST DUP2 SLOAD DUP2 MSTORE SWAP1 PUSH1 0x1 ADD SWAP1 PUSH1 0x20 ADD DUP1 DUP4 GT PUSH2 0xCAD JUMPI DUP3 SWAP1 SUB PUSH1 0x1F AND DUP3 ADD SWAP2 JUMPDEST POP POP POP POP POP DUP2 MSTORE PUSH1 0x20 ADD PUSH1 0x2 DUP3 ADD SLOAD DUP2 MSTORE PUSH1 0x20 ADD PUSH1 0x3 DUP3 ADD SLOAD DUP2 MSTORE PUSH1 0x20 ADD PUSH1 0x4 DUP3 ADD PUSH1 0x0 SWAP1 SLOAD SWAP1 PUSH2 0x100 EXP SWAP1 DIV PUSH1 0xFF AND PUSH1 0x2 DUP2 GT ISZERO PUSH2 0xD0C JUMPI PUSH2 0xD0B PUSH2 0x1E55 JUMP JUMPDEST JUMPDEST PUSH1 0x2 DUP2 GT ISZERO PUSH2 0xD1E JUMPI PUSH2 0xD1D PUSH2 0x1E55 JUMP JUMPDEST JUMPDEST DUP2 MSTORE PUSH1 0x20 ADD PUSH1 0x5 DUP3 ADD DUP1 SLOAD PUSH2 0xD32 SWAP1 PUSH2 0x1D4B JUMP JUMPDEST DUP1 PUSH1 0x1F ADD PUSH1 0x20 DUP1 SWAP2 DIV MUL PUSH1 0x20 ADD PUSH1 0x40 MLOAD SWAP1 DUP2 ADD PUSH1 0x40 MSTORE DUP1 SWAP3 SWAP2 SWAP1 DUP2 DUP2 MSTORE PUSH1 0x20 ADD DUP3 DUP1 SLOAD PUSH2 0xD5E SWAP1 PUSH2 0x1D4B JUMP JUMPDEST DUP1 ISZERO PUSH2 0xDAB JUMPI DUP1 PUSH1 0x1F LT PUSH2 0xD80 JUMPI PUSH2 0x100 DUP1 DUP4 SLOAD DIV MUL DUP4 MSTORE SWAP2 PUSH1 0x20 ADD SWAP2 PUSH2 0xDAB JUMP JUMPDEST DUP3 ADD SWAP2 SWAP1 PUSH1 0x0 MSTORE PUSH1 0x20 PUSH1 0x0 KECCAK256 SWAP1 JUMPDEST DUP2 SLOAD DUP2 MSTORE SWAP1 PUSH1 0x1 ADD SWAP1 PUSH1 0x20 ADD DUP1 DUP4 GT PUSH2 0xD8E JUMPI DUP3 SWAP1 SUB PUSH1 0x1F AND DUP3 ADD SWAP2 JUMPDEST POP POP POP POP POP DUP2 MSTORE POP POP DUP2 MSTORE POP POP SWAP1 POP SWAP1 JUMP JUMPDEST PUSH1 0x0 DUP1 SLOAD SWAP1 PUSH2 0x100 EXP SWAP1 DIV PUSH20 0xFFFFFFFFFFFFFFFFFFFFFFFFFFFFFFFFFFFFFFFF AND PUSH20 0xFFFFFFFFFFFFFFFFFFFFFFFFFFFFFFFFFFFFFFFF AND PUSH2 0x8FC DUP3 SWAP1 DUP2 ISZERO MUL SWAP1 PUSH1 0x40 MLOAD PUSH1 0x0 PUSH1 0x40 MLOAD DUP1 DUP4 SUB DUP2 DUP6 DUP9 DUP9 CALL SWAP4 POP POP POP POP ISZERO DUP1 ISZERO PUSH2 0xE23 JUMPI RETURNDATASIZE PUSH1 0x0 DUP1 RETURNDATACOPY RETURNDATASIZE PUSH1 0x0 REVERT JUMPDEST POP POP JUMP JUMPDEST PUSH1 0x0 PUSH1 0x40 MLOAD DUP1 PUSH1 0xA0 ADD PUSH1 0x40 MSTORE DUP1 CALLER PUSH20 0xFFFFFFFFFFFFFFFFFFFFFFFFFFFFFFFFFFFFFFFF AND DUP2 MSTORE PUSH1 0x20 ADD DUP4 DUP2 MSTORE PUSH1 0x20 ADD PUSH1 0x0 DUP2 MSTORE PUSH1 0x20 ADD PUSH1 0x0 DUP2 MSTORE PUSH1 0x20 ADD PUSH1 0x40 MLOAD DUP1 PUSH1 0xC0 ADD PUSH1 0x40 MSTORE DUP1 PUSH1 0x40 MLOAD DUP1 PUSH1 0x20 ADD PUSH1 0x40 MSTORE DUP1 PUSH1 0x0 DUP2 MSTORE POP DUP2 MSTORE PUSH1 0x20 ADD PUSH1 0x40 MLOAD DUP1 PUSH1 0x20 ADD PUSH1 0x40 MSTORE DUP1 PUSH1 0x0 DUP2 MSTORE POP DUP2 MSTORE PUSH1 0x20 ADD PUSH1 0x0 DUP2 MSTORE PUSH1 0x20 ADD PUSH1 0x0 DUP2 MSTORE PUSH1 0x20 ADD PUSH1 0x0 PUSH1 0x2 DUP2 GT ISZERO PUSH2 0xEBB JUMPI PUSH2 0xEBA PUSH2 0x1E55 JUMP JUMPDEST JUMPDEST DUP2 MSTORE PUSH1 0x20 ADD PUSH1 0x40 MLOAD DUP1 PUSH1 0x20 ADD PUSH1 0x40 MSTORE DUP1 PUSH1 0x0 DUP2 MSTORE POP DUP2 MSTORE POP DUP2 MSTORE POP SWAP1 POP DUP1 PUSH1 0x4 PUSH1 0x0 CALLER PUSH20 0xFFFFFFFFFFFFFFFFFFFFFFFFFFFFFFFFFFFFFFFF AND PUSH20 0xFFFFFFFFFFFFFFFFFFFFFFFFFFFFFFFFFFFFFFFF AND DUP2 MSTORE PUSH1 0x20 ADD SWAP1 DUP2 MSTORE PUSH1 0x20 ADD PUSH1 0x0 KECCAK256 PUSH1 0x0 DUP3 ADD MLOAD DUP2 PUSH1 0x0 ADD PUSH1 0x0 PUSH2 0x100 EXP DUP2 SLOAD DUP2 PUSH20 0xFFFFFFFFFFFFFFFFFFFFFFFFFFFFFFFFFFFFFFFF MUL NOT AND SWAP1 DUP4 PUSH20 0xFFFFFFFFFFFFFFFFFFFFFFFFFFFFFFFFFFFFFFFF AND MUL OR SWAP1 SSTORE POP PUSH1 0x20 DUP3 ADD MLOAD DUP2 PUSH1 0x1 ADD SWAP1 DUP1 MLOAD SWAP1 PUSH1 0x20 ADD SWAP1 PUSH2 0xF7B SWAP3 SWAP2 SWAP1 PUSH2 0x1297 JUMP JUMPDEST POP PUSH1 0x40 DUP3 ADD MLOAD DUP2 PUSH1 0x2 ADD SSTORE PUSH1 0x60 DUP3 ADD MLOAD DUP2 PUSH1 0x3 ADD SSTORE PUSH1 0x80 DUP3 ADD MLOAD DUP2 PUSH1 0x4 ADD PUSH1 0x0 DUP3 ADD MLOAD DUP2 PUSH1 0x0 ADD SWAP1 DUP1 MLOAD SWAP1 PUSH1 0x20 ADD SWAP1 PUSH2 0xFB5 SWAP3 SWAP2 SWAP1 PUSH2 0x11C6 JUMP JUMPDEST POP PUSH1 0x20 DUP3 ADD MLOAD DUP2 PUSH1 0x1 ADD SWAP1 DUP1 MLOAD SWAP1 PUSH1 0x20 ADD SWAP1 PUSH2 0xFD2 SWAP3 SWAP2 SWAP1 PUSH2 0x11C6 JUMP JUMPDEST POP PUSH1 0x40 DUP3 ADD MLOAD DUP2 PUSH1 0x2 ADD SSTORE PUSH1 0x60 DUP3 ADD MLOAD DUP2 PUSH1 0x3 ADD SSTORE PUSH1 0x80 DUP3 ADD MLOAD DUP2 PUSH1 0x4 ADD PUSH1 0x0 PUSH2 0x100 EXP DUP2 SLOAD DUP2 PUSH1 0xFF MUL NOT AND SWAP1 DUP4 PUSH1 0x2 DUP2 GT ISZERO PUSH2 0x1012 JUMPI PUSH2 0x1011 PUSH2 0x1E55 JUMP JUMPDEST JUMPDEST MUL OR SWAP1 SSTORE POP PUSH1 0xA0 DUP3 ADD MLOAD DUP2 PUSH1 0x5 ADD SWAP1 DUP1 MLOAD SWAP1 PUSH1 0x20 ADD SWAP1 PUSH2 0x1033 SWAP3 SWAP2 SWAP1 PUSH2 0x11C6 JUMP JUMPDEST POP POP POP SWAP1 POP POP POP POP JUMP JUMPDEST PUSH1 0x60 PUSH1 0x0 DUP3 EQ ISZERO PUSH2 0x1085 JUMPI PUSH1 0x40 MLOAD DUP1 PUSH1 0x40 ADD PUSH1 0x40 MSTORE DUP1 PUSH1 0x1 DUP2 MSTORE PUSH1 0x20 ADD PUSH32 0x3000000000000000000000000000000000000000000000000000000000000000 DUP2 MSTORE POP SWAP1 POP PUSH2 0x11C1 JUMP JUMPDEST PUSH1 0x0 DUP3 SWAP1 POP PUSH1 0x0 JUMPDEST PUSH1 0x0 DUP3 EQ PUSH2 0x10B7 JUMPI DUP1 DUP1 PUSH2 0x10A0 SWAP1 PUSH2 0x1DAE JUMP JUMPDEST SWAP2 POP POP PUSH1 0xA DUP3 PUSH2 0x10B0 SWAP2 SWAP1 PUSH2 0x1BA4 JUMP JUMPDEST SWAP2 POP PUSH2 0x108D JUMP JUMPDEST PUSH1 0x0 DUP2 PUSH8 0xFFFFFFFFFFFFFFFF DUP2 GT ISZERO PUSH2 0x10D3 JUMPI PUSH2 0x10D2 PUSH2 0x1EE2 JUMP JUMPDEST JUMPDEST PUSH1 0x40 MLOAD SWAP1 DUP1 DUP3 MSTORE DUP1 PUSH1 0x1F ADD PUSH1 0x1F NOT AND PUSH1 0x20 ADD DUP3 ADD PUSH1 0x40 MSTORE DUP1 ISZERO PUSH2 0x1105 JUMPI DUP2 PUSH1 0x20 ADD PUSH1 0x1 DUP3 MUL DUP1 CALLDATASIZE DUP4 CALLDATACOPY DUP1 DUP3 ADD SWAP2 POP POP SWAP1 POP JUMPDEST POP SWAP1 POP PUSH1 0x0 DUP3 SWAP1 POP JUMPDEST PUSH1 0x0 DUP7 EQ PUSH2 0x11B9 JUMPI PUSH1 0x1 DUP2 PUSH2 0x1123 SWAP2 SWAP1 PUSH2 0x1C2F JUMP JUMPDEST SWAP1 POP PUSH1 0x0 PUSH1 0xA DUP1 DUP9 PUSH2 0x1135 SWAP2 SWAP1 PUSH2 0x1BA4 JUMP JUMPDEST PUSH2 0x113F SWAP2 SWAP1 PUSH2 0x1BD5 JUMP JUMPDEST DUP8 PUSH2 0x114A SWAP2 SWAP1 PUSH2 0x1C2F JUMP JUMPDEST PUSH1 0x30 PUSH2 0x1156 SWAP2 SWAP1 PUSH2 0x1B6D JUMP JUMPDEST SWAP1 POP PUSH1 0x0 DUP2 PUSH1 0xF8 SHL SWAP1 POP DUP1 DUP5 DUP5 DUP2 MLOAD DUP2 LT PUSH2 0x1174 JUMPI PUSH2 0x1173 PUSH2 0x1EB3 JUMP JUMPDEST JUMPDEST PUSH1 0x20 ADD ADD SWAP1 PUSH31 0xFFFFFFFFFFFFFFFFFFFFFFFFFFFFFFFFFFFFFFFFFFFFFFFFFFFFFFFFFFFFFF NOT AND SWAP1 DUP2 PUSH1 0x0 BYTE SWAP1 MSTORE8 POP PUSH1 0xA DUP9 PUSH2 0x11B0 SWAP2 SWAP1 PUSH2 0x1BA4 JUMP JUMPDEST SWAP8 POP POP POP PUSH2 0x110E JUMP JUMPDEST DUP2 SWAP5 POP POP POP POP POP JUMPDEST SWAP2 SWAP1 POP JUMP JUMPDEST DUP3 DUP1 SLOAD PUSH2 0x11D2 SWAP1 PUSH2 0x1D4B JUMP JUMPDEST SWAP1 PUSH1 0x0 MSTORE PUSH1 0x20 PUSH1 0x0 KECCAK256 SWAP1 PUSH1 0x1F ADD PUSH1 0x20 SWAP1 DIV DUP2 ADD SWAP3 DUP3 PUSH2 0x11F4 JUMPI PUSH1 0x0 DUP6 SSTORE PUSH2 0x123B JUMP JUMPDEST DUP3 PUSH1 0x1F LT PUSH2 0x120D JUMPI DUP1 MLOAD PUSH1 0xFF NOT AND DUP4 DUP1 ADD OR DUP6 SSTORE PUSH2 0x123B JUMP JUMPDEST DUP3 DUP1 ADD PUSH1 0x1 ADD DUP6 SSTORE DUP3 ISZERO PUSH2 0x123B JUMPI SWAP2 DUP3 ADD JUMPDEST DUP3 DUP2 GT ISZERO PUSH2 0x123A JUMPI DUP3 MLOAD DUP3 SSTORE SWAP2 PUSH1 0x20 ADD SWAP2 SWAP1 PUSH1 0x1 ADD SWAP1 PUSH2 0x121F JUMP JUMPDEST JUMPDEST POP SWAP1 POP PUSH2 0x1248 SWAP2 SWAP1 PUSH2 0x131D JUMP JUMPDEST POP SWAP1 JUMP JUMPDEST PUSH1 0x40 MLOAD DUP1 PUSH1 0xA0 ADD PUSH1 0x40 MSTORE DUP1 PUSH1 0x0 PUSH20 0xFFFFFFFFFFFFFFFFFFFFFFFFFFFFFFFFFFFFFFFF AND DUP2 MSTORE PUSH1 0x20 ADD PUSH1 0x60 DUP2 MSTORE PUSH1 0x20 ADD PUSH1 0x0 DUP2 MSTORE PUSH1 0x20 ADD PUSH1 0x0 DUP2 MSTORE PUSH1 0x20 ADD PUSH2 0x1291 PUSH2 0x133A JUMP JUMPDEST DUP2 MSTORE POP SWAP1 JUMP JUMPDEST DUP3 DUP1 SLOAD PUSH2 0x12A3 SWAP1 PUSH2 0x1D4B JUMP JUMPDEST SWAP1 PUSH1 0x0 MSTORE PUSH1 0x20 PUSH1 0x0 KECCAK256 SWAP1 PUSH1 0x1F ADD PUSH1 0x20 SWAP1 DIV DUP2 ADD SWAP3 DUP3 PUSH2 0x12C5 JUMPI PUSH1 0x0 DUP6 SSTORE PUSH2 0x130C JUMP JUMPDEST DUP3 PUSH1 0x1F LT PUSH2 0x12DE JUMPI DUP1 MLOAD PUSH1 0xFF NOT AND DUP4 DUP1 ADD OR DUP6 SSTORE PUSH2 0x130C JUMP JUMPDEST DUP3 DUP1 ADD PUSH1 0x1 ADD DUP6 SSTORE DUP3 ISZERO PUSH2 0x130C JUMPI SWAP2 DUP3 ADD JUMPDEST DUP3 DUP2 GT ISZERO PUSH2 0x130B JUMPI DUP3 MLOAD DUP3 SSTORE SWAP2 PUSH1 0x20 ADD SWAP2 SWAP1 PUSH1 0x1 ADD SWAP1 PUSH2 0x12F0 JUMP JUMPDEST JUMPDEST POP SWAP1 POP PUSH2 0x1319 SWAP2 SWAP1 PUSH2 0x131D JUMP JUMPDEST POP SWAP1 JUMP JUMPDEST JUMPDEST DUP1 DUP3 GT ISZERO PUSH2 0x1336 JUMPI PUSH1 0x0 DUP2 PUSH1 0x0 SWAP1 SSTORE POP PUSH1 0x1 ADD PUSH2 0x131E JUMP JUMPDEST POP SWAP1 JUMP JUMPDEST PUSH1 0x40 MLOAD DUP1 PUSH1 0xC0 ADD PUSH1 0x40 MSTORE DUP1 PUSH1 0x60 DUP2 MSTORE PUSH1 0x20 ADD PUSH1 0x60 DUP2 MSTORE PUSH1 0x20 ADD PUSH1 0x0 DUP2 MSTORE PUSH1 0x20 ADD PUSH1 0x0 DUP2 MSTORE PUSH1 0x20 ADD PUSH1 0x0 PUSH1 0x2 DUP2 GT ISZERO PUSH2 0x1375 JUMPI PUSH2 0x1374 PUSH2 0x1E55 JUMP JUMPDEST JUMPDEST DUP2 MSTORE PUSH1 0x20 ADD PUSH1 0x60 DUP2 MSTORE POP SWAP1 JUMP JUMPDEST PUSH1 0x0 PUSH2 0x1395 PUSH2 0x1390 DUP5 PUSH2 0x1A41 JUMP JUMPDEST PUSH2 0x1A1C JUMP JUMPDEST SWAP1 POP DUP3 DUP2 MSTORE PUSH1 0x20 DUP2 ADD DUP5 DUP5 DUP5 ADD GT ISZERO PUSH2 0x13B1 JUMPI PUSH2 0x13B0 PUSH2 0x1F16 JUMP JUMPDEST JUMPDEST PUSH2 0x13BC DUP5 DUP3 DUP6 PUSH2 0x1D18 JUMP JUMPDEST POP SWAP4 SWAP3 POP POP POP JUMP JUMPDEST PUSH1 0x0 PUSH2 0x13D7 PUSH2 0x13D2 DUP5 PUSH2 0x1A72 JUMP JUMPDEST PUSH2 0x1A1C JUMP JUMPDEST SWAP1 POP DUP3 DUP2 MSTORE PUSH1 0x20 DUP2 ADD DUP5 DUP5 DUP5 ADD GT ISZERO PUSH2 0x13F3 JUMPI PUSH2 0x13F2 PUSH2 0x1F16 JUMP JUMPDEST JUMPDEST PUSH2 0x13FE DUP5 DUP3 DUP6 PUSH2 0x1D09 JUMP JUMPDEST POP SWAP4 SWAP3 POP POP POP JUMP JUMPDEST PUSH1 0x0 DUP2 CALLDATALOAD SWAP1 POP PUSH2 0x1415 DUP2 PUSH2 0x1FC8 JUMP JUMPDEST SWAP3 SWAP2 POP POP JUMP JUMPDEST PUSH1 0x0 DUP3 PUSH1 0x1F DUP4 ADD SLT PUSH2 0x1430 JUMPI PUSH2 0x142F PUSH2 0x1F11 JUMP JUMPDEST JUMPDEST DUP2 MLOAD PUSH2 0x1440 DUP5 DUP3 PUSH1 0x20 DUP7 ADD PUSH2 0x1382 JUMP JUMPDEST SWAP2 POP POP SWAP3 SWAP2 POP POP JUMP JUMPDEST PUSH1 0x0 DUP2 CALLDATALOAD SWAP1 POP PUSH2 0x1458 DUP2 PUSH2 0x1FDF JUMP JUMPDEST SWAP3 SWAP2 POP POP JUMP JUMPDEST PUSH1 0x0 DUP3 PUSH1 0x1F DUP4 ADD SLT PUSH2 0x1473 JUMPI PUSH2 0x1472 PUSH2 0x1F11 JUMP JUMPDEST JUMPDEST DUP2 CALLDATALOAD PUSH2 0x1483 DUP5 DUP3 PUSH1 0x20 DUP7 ADD PUSH2 0x13C4 JUMP JUMPDEST SWAP2 POP POP SWAP3 SWAP2 POP POP JUMP JUMPDEST PUSH1 0x0 DUP2 CALLDATALOAD SWAP1 POP PUSH2 0x149B DUP2 PUSH2 0x1FEF JUMP JUMPDEST SWAP3 SWAP2 POP POP JUMP JUMPDEST PUSH1 0x0 PUSH1 0x20 DUP3 DUP5 SUB SLT ISZERO PUSH2 0x14B7 JUMPI PUSH2 0x14B6 PUSH2 0x1F20 JUMP JUMPDEST JUMPDEST PUSH1 0x0 PUSH2 0x14C5 DUP5 DUP3 DUP6 ADD PUSH2 0x1406 JUMP JUMPDEST SWAP2 POP POP SWAP3 SWAP2 POP POP JUMP JUMPDEST PUSH1 0x0 PUSH1 0x20 DUP3 DUP5 SUB SLT ISZERO PUSH2 0x14E4 JUMPI PUSH2 0x14E3 PUSH2 0x1F20 JUMP JUMPDEST JUMPDEST PUSH1 0x0 DUP3 ADD MLOAD PUSH8 0xFFFFFFFFFFFFFFFF DUP2 GT ISZERO PUSH2 0x1502 JUMPI PUSH2 0x1501 PUSH2 0x1F1B JUMP JUMPDEST JUMPDEST PUSH2 0x150E DUP5 DUP3 DUP6 ADD PUSH2 0x141B JUMP JUMPDEST SWAP2 POP POP SWAP3 SWAP2 POP POP JUMP JUMPDEST PUSH1 0x0 PUSH1 0x20 DUP3 DUP5 SUB SLT ISZERO PUSH2 0x152D JUMPI PUSH2 0x152C PUSH2 0x1F20 JUMP JUMPDEST JUMPDEST PUSH1 0x0 PUSH2 0x153B DUP5 DUP3 DUP6 ADD PUSH2 0x1449 JUMP JUMPDEST SWAP2 POP POP SWAP3 SWAP2 POP POP JUMP JUMPDEST PUSH1 0x0 DUP1 PUSH1 0x40 DUP4 DUP6 SUB SLT ISZERO PUSH2 0x155B JUMPI PUSH2 0x155A PUSH2 0x1F20 JUMP JUMPDEST JUMPDEST PUSH1 0x0 PUSH2 0x1569 DUP6 DUP3 DUP7 ADD PUSH2 0x148C JUMP JUMPDEST SWAP3 POP POP PUSH1 0x20 DUP4 ADD CALLDATALOAD PUSH8 0xFFFFFFFFFFFFFFFF DUP2 GT ISZERO PUSH2 0x158A JUMPI PUSH2 0x1589 PUSH2 0x1F1B JUMP JUMPDEST JUMPDEST PUSH2 0x1596 DUP6 DUP3 DUP7 ADD PUSH2 0x145E JUMP JUMPDEST SWAP2 POP POP SWAP3 POP SWAP3 SWAP1 POP JUMP JUMPDEST PUSH2 0x15A9 DUP2 PUSH2 0x1C63 JUMP JUMPDEST DUP3 MSTORE POP POP JUMP JUMPDEST PUSH2 0x15B8 DUP2 PUSH2 0x1C75 JUMP JUMPDEST DUP3 MSTORE POP POP JUMP JUMPDEST PUSH2 0x15C7 DUP2 PUSH2 0x1C81 JUMP JUMPDEST DUP3 MSTORE POP POP JUMP JUMPDEST PUSH1 0x0 PUSH2 0x15D8 DUP3 PUSH2 0x1AB8 JUMP JUMPDEST PUSH2 0x15E2 DUP2 DUP6 PUSH2 0x1ACE JUMP JUMPDEST SWAP4 POP PUSH2 0x15F2 DUP2 DUP6 PUSH1 0x20 DUP7 ADD PUSH2 0x1D18 JUMP JUMPDEST PUSH2 0x15FB DUP2 PUSH2 0x1F25 JUMP JUMPDEST DUP5 ADD SWAP2 POP POP SWAP3 SWAP2 POP POP JUMP JUMPDEST PUSH1 0x0 PUSH2 0x1611 DUP3 PUSH2 0x1AB8 JUMP JUMPDEST PUSH2 0x161B DUP2 DUP6 PUSH2 0x1ADF JUMP JUMPDEST SWAP4 POP PUSH2 0x162B DUP2 DUP6 PUSH1 0x20 DUP7 ADD PUSH2 0x1D18 JUMP JUMPDEST DUP1 DUP5 ADD SWAP2 POP POP SWAP3 SWAP2 POP POP JUMP JUMPDEST PUSH1 0x0 DUP2 SLOAD PUSH2 0x1644 DUP2 PUSH2 0x1D4B JUMP JUMPDEST PUSH2 0x164E DUP2 DUP7 PUSH2 0x1ADF JUMP JUMPDEST SWAP5 POP PUSH1 0x1 DUP3 AND PUSH1 0x0 DUP2 EQ PUSH2 0x1669 JUMPI PUSH1 0x1 DUP2 EQ PUSH2 0x167A JUMPI PUSH2 0x16AD JUMP JUMPDEST PUSH1 0xFF NOT DUP4 AND DUP7 MSTORE DUP2 DUP7 ADD SWAP4 POP PUSH2 0x16AD JUMP JUMPDEST PUSH2 0x1683 DUP6 PUSH2 0x1AA3 JUMP JUMPDEST PUSH1 0x0 JUMPDEST DUP4 DUP2 LT ISZERO PUSH2 0x16A5 JUMPI DUP2 SLOAD DUP2 DUP10 ADD MSTORE PUSH1 0x1 DUP3 ADD SWAP2 POP PUSH1 0x20 DUP2 ADD SWAP1 POP PUSH2 0x1686 JUMP JUMPDEST DUP4 DUP9 ADD SWAP6 POP POP POP JUMPDEST POP POP POP SWAP3 SWAP2 POP POP JUMP JUMPDEST PUSH2 0x16BF DUP2 PUSH2 0x1CF7 JUMP JUMPDEST DUP3 MSTORE POP POP JUMP JUMPDEST PUSH1 0x0 PUSH2 0x16D0 DUP3 PUSH2 0x1AC3 JUMP JUMPDEST PUSH2 0x16DA DUP2 DUP6 PUSH2 0x1AEA JUMP JUMPDEST SWAP4 POP PUSH2 0x16EA DUP2 DUP6 PUSH1 0x20 DUP7 ADD PUSH2 0x1D18 JUMP JUMPDEST PUSH2 0x16F3 DUP2 PUSH2 0x1F25 JUMP JUMPDEST DUP5 ADD SWAP2 POP POP SWAP3 SWAP2 POP POP JUMP JUMPDEST PUSH1 0x0 PUSH2 0x1709 DUP3 PUSH2 0x1AC3 JUMP JUMPDEST PUSH2 0x1713 DUP2 DUP6 PUSH2 0x1AFB JUMP JUMPDEST SWAP4 POP PUSH2 0x1723 DUP2 DUP6 PUSH1 0x20 DUP7 ADD PUSH2 0x1D18 JUMP JUMPDEST PUSH2 0x172C DUP2 PUSH2 0x1F25 JUMP JUMPDEST DUP5 ADD SWAP2 POP POP SWAP3 SWAP2 POP POP JUMP JUMPDEST PUSH1 0x0 PUSH2 0x1742 DUP3 PUSH2 0x1AC3 JUMP JUMPDEST PUSH2 0x174C DUP2 DUP6 PUSH2 0x1B0C JUMP JUMPDEST SWAP4 POP PUSH2 0x175C DUP2 DUP6 PUSH1 0x20 DUP7 ADD PUSH2 0x1D18 JUMP JUMPDEST DUP1 DUP5 ADD SWAP2 POP POP SWAP3 SWAP2 POP POP JUMP JUMPDEST PUSH1 0x0 PUSH2 0x1775 PUSH1 0xB DUP4 PUSH2 0x1B0C JUMP JUMPDEST SWAP2 POP PUSH2 0x1780 DUP3 PUSH2 0x1F36 JUMP JUMPDEST PUSH1 0xB DUP3 ADD SWAP1 POP SWAP2 SWAP1 POP JUMP JUMPDEST PUSH1 0x0 PUSH2 0x1798 PUSH1 0x15 DUP4 PUSH2 0x1B0C JUMP JUMPDEST SWAP2 POP PUSH2 0x17A3 DUP3 PUSH2 0x1F5F JUMP JUMPDEST PUSH1 0x15 DUP3 ADD SWAP1 POP SWAP2 SWAP1 POP JUMP JUMPDEST PUSH1 0x0 PUSH2 0x17BB PUSH1 0x0 DUP4 PUSH2 0x1B0C JUMP JUMPDEST SWAP2 POP PUSH2 0x17C6 DUP3 PUSH2 0x1F88 JUMP JUMPDEST PUSH1 0x0 DUP3 ADD SWAP1 POP SWAP2 SWAP1 POP JUMP JUMPDEST PUSH1 0x0 PUSH2 0x17DE PUSH1 0xB DUP4 PUSH2 0x1B0C JUMP JUMPDEST SWAP2 POP PUSH2 0x17E9 DUP3 PUSH2 0x1F8B JUMP JUMPDEST PUSH1 0xB DUP3 ADD SWAP1 POP SWAP2 SWAP1 POP JUMP JUMPDEST PUSH1 0x0 PUSH1 0xC0 DUP4 ADD PUSH1 0x0 DUP4 ADD MLOAD DUP5 DUP3 SUB PUSH1 0x0 DUP7 ADD MSTORE PUSH2 0x1811 DUP3 DUP3 PUSH2 0x15CD JUMP JUMPDEST SWAP2 POP POP PUSH1 0x20 DUP4 ADD MLOAD DUP5 DUP3 SUB PUSH1 0x20 DUP7 ADD MSTORE PUSH2 0x182B DUP3 DUP3 PUSH2 0x15CD JUMP JUMPDEST SWAP2 POP POP PUSH1 0x40 DUP4 ADD MLOAD PUSH2 0x1840 PUSH1 0x40 DUP7 ADD DUP3 PUSH2 0x1908 JUMP JUMPDEST POP PUSH1 0x60 DUP4 ADD MLOAD PUSH2 0x1853 PUSH1 0x60 DUP7 ADD DUP3 PUSH2 0x1908 JUMP JUMPDEST POP PUSH1 0x80 DUP4 ADD MLOAD PUSH2 0x1866 PUSH1 0x80 DUP7 ADD DUP3 PUSH2 0x16B6 JUMP JUMPDEST POP PUSH1 0xA0 DUP4 ADD MLOAD DUP5 DUP3 SUB PUSH1 0xA0 DUP7 ADD MSTORE PUSH2 0x187E DUP3 DUP3 PUSH2 0x15CD JUMP JUMPDEST SWAP2 POP POP DUP1 SWAP2 POP POP SWAP3 SWAP2 POP POP JUMP JUMPDEST PUSH1 0x0 PUSH1 0xA0 DUP4 ADD PUSH1 0x0 DUP4 ADD MLOAD PUSH2 0x18A3 PUSH1 0x0 DUP7 ADD DUP3 PUSH2 0x15A0 JUMP JUMPDEST POP PUSH1 0x20 DUP4 ADD MLOAD DUP5 DUP3 SUB PUSH1 0x20 DUP7 ADD MSTORE PUSH2 0x18BB DUP3 DUP3 PUSH2 0x16C5 JUMP JUMPDEST SWAP2 POP POP PUSH1 0x40 DUP4 ADD MLOAD PUSH2 0x18D0 PUSH1 0x40 DUP7 ADD DUP3 PUSH2 0x1908 JUMP JUMPDEST POP PUSH1 0x60 DUP4 ADD MLOAD PUSH2 0x18E3 PUSH1 0x60 DUP7 ADD DUP3 PUSH2 0x1908 JUMP JUMPDEST POP PUSH1 0x80 DUP4 ADD MLOAD DUP5 DUP3 SUB PUSH1 0x80 DUP7 ADD MSTORE PUSH2 0x18FB DUP3 DUP3 PUSH2 0x17F4 JUMP JUMPDEST SWAP2 POP POP DUP1 SWAP2 POP POP SWAP3 SWAP2 POP POP JUMP JUMPDEST PUSH2 0x1911 DUP2 PUSH2 0x1CE0 JUMP JUMPDEST DUP3 MSTORE POP POP JUMP JUMPDEST PUSH1 0x0 PUSH2 0x1923 DUP3 DUP5 PUSH2 0x1606 JUMP JUMPDEST SWAP2 POP PUSH2 0x192E DUP3 PUSH2 0x17AE JUMP JUMPDEST SWAP2 POP DUP2 SWAP1 POP SWAP3 SWAP2 POP POP JUMP JUMPDEST PUSH1 0x0 PUSH2 0x1945 DUP3 DUP5 PUSH2 0x1637 JUMP JUMPDEST SWAP2 POP DUP2 SWAP1 POP SWAP3 SWAP2 POP POP JUMP JUMPDEST PUSH1 0x0 PUSH2 0x195B DUP3 PUSH2 0x178B JUMP JUMPDEST SWAP2 POP PUSH2 0x1967 DUP3 DUP7 PUSH2 0x1737 JUMP JUMPDEST SWAP2 POP PUSH2 0x1972 DUP3 PUSH2 0x17D1 JUMP JUMPDEST SWAP2 POP PUSH2 0x197E DUP3 DUP6 PUSH2 0x1737 JUMP JUMPDEST SWAP2 POP PUSH2 0x1989 DUP3 PUSH2 0x1768 JUMP JUMPDEST SWAP2 POP PUSH2 0x1995 DUP3 DUP5 PUSH2 0x1737 JUMP JUMPDEST SWAP2 POP DUP2 SWAP1 POP SWAP5 SWAP4 POP POP POP POP JUMP JUMPDEST PUSH1 0x0 PUSH1 0x20 DUP3 ADD SWAP1 POP PUSH2 0x19B7 PUSH1 0x0 DUP4 ADD DUP5 PUSH2 0x15AF JUMP JUMPDEST SWAP3 SWAP2 POP POP JUMP JUMPDEST PUSH1 0x0 PUSH1 0x20 DUP3 ADD SWAP1 POP PUSH2 0x19D2 PUSH1 0x0 DUP4 ADD DUP5 PUSH2 0x15BE JUMP JUMPDEST SWAP3 SWAP2 POP POP JUMP JUMPDEST PUSH1 0x0 PUSH1 0x20 DUP3 ADD SWAP1 POP DUP2 DUP2 SUB PUSH1 0x0 DUP4 ADD MSTORE PUSH2 0x19F2 DUP2 DUP5 PUSH2 0x16FE JUMP JUMPDEST SWAP1 POP SWAP3 SWAP2 POP POP JUMP JUMPDEST PUSH1 0x0 PUSH1 0x20 DUP3 ADD SWAP1 POP DUP2 DUP2 SUB PUSH1 0x0 DUP4 ADD MSTORE PUSH2 0x1A14 DUP2 DUP5 PUSH2 0x188B JUMP JUMPDEST SWAP1 POP SWAP3 SWAP2 POP POP JUMP JUMPDEST PUSH1 0x0 PUSH2 0x1A26 PUSH2 0x1A37 JUMP JUMPDEST SWAP1 POP PUSH2 0x1A32 DUP3 DUP3 PUSH2 0x1D7D JUMP JUMPDEST SWAP2 SWAP1 POP JUMP JUMPDEST PUSH1 0x0 PUSH1 0x40 MLOAD SWAP1 POP SWAP1 JUMP JUMPDEST PUSH1 0x0 PUSH8 0xFFFFFFFFFFFFFFFF DUP3 GT ISZERO PUSH2 0x1A5C JUMPI PUSH2 0x1A5B PUSH2 0x1EE2 JUMP JUMPDEST JUMPDEST PUSH2 0x1A65 DUP3 PUSH2 0x1F25 JUMP JUMPDEST SWAP1 POP PUSH1 0x20 DUP2 ADD SWAP1 POP SWAP2 SWAP1 POP JUMP JUMPDEST PUSH1 0x0 PUSH8 0xFFFFFFFFFFFFFFFF DUP3 GT ISZERO PUSH2 0x1A8D JUMPI PUSH2 0x1A8C PUSH2 0x1EE2 JUMP JUMPDEST JUMPDEST PUSH2 0x1A96 DUP3 PUSH2 0x1F25 JUMP JUMPDEST SWAP1 POP PUSH1 0x20 DUP2 ADD SWAP1 POP SWAP2 SWAP1 POP JUMP JUMPDEST PUSH1 0x0 DUP2 SWAP1 POP DUP2 PUSH1 0x0 MSTORE PUSH1 0x20 PUSH1 0x0 KECCAK256 SWAP1 POP SWAP2 SWAP1 POP JUMP JUMPDEST PUSH1 0x0 DUP2 MLOAD SWAP1 POP SWAP2 SWAP1 POP JUMP JUMPDEST PUSH1 0x0 DUP2 MLOAD SWAP1 POP SWAP2 SWAP1 POP JUMP JUMPDEST PUSH1 0x0 DUP3 DUP3 MSTORE PUSH1 0x20 DUP3 ADD SWAP1 POP SWAP3 SWAP2 POP POP JUMP JUMPDEST PUSH1 0x0 DUP2 SWAP1 POP SWAP3 SWAP2 POP POP JUMP JUMPDEST PUSH1 0x0 DUP3 DUP3 MSTORE PUSH1 0x20 DUP3 ADD SWAP1 POP SWAP3 SWAP2 POP POP JUMP JUMPDEST PUSH1 0x0 DUP3 DUP3 MSTORE PUSH1 0x20 DUP3 ADD SWAP1 POP SWAP3 SWAP2 POP POP JUMP JUMPDEST PUSH1 0x0 DUP2 SWAP1 POP SWAP3 SWAP2 POP POP JUMP JUMPDEST PUSH1 0x0 PUSH2 0x1B22 DUP3 PUSH2 0x1CE0 JUMP JUMPDEST SWAP2 POP PUSH2 0x1B2D DUP4 PUSH2 0x1CE0 JUMP JUMPDEST SWAP3 POP DUP3 PUSH32 0xFFFFFFFFFFFFFFFFFFFFFFFFFFFFFFFFFFFFFFFFFFFFFFFFFFFFFFFFFFFFFFFF SUB DUP3 GT ISZERO PUSH2 0x1B62 JUMPI PUSH2 0x1B61 PUSH2 0x1DF7 JUMP JUMPDEST JUMPDEST DUP3 DUP3 ADD SWAP1 POP SWAP3 SWAP2 POP POP JUMP JUMPDEST PUSH1 0x0 PUSH2 0x1B78 DUP3 PUSH2 0x1CEA JUMP JUMPDEST SWAP2 POP PUSH2 0x1B83 DUP4 PUSH2 0x1CEA JUMP JUMPDEST SWAP3 POP DUP3 PUSH1 0xFF SUB DUP3 GT ISZERO PUSH2 0x1B99 JUMPI PUSH2 0x1B98 PUSH2 0x1DF7 JUMP JUMPDEST JUMPDEST DUP3 DUP3 ADD SWAP1 POP SWAP3 SWAP2 POP POP JUMP JUMPDEST PUSH1 0x0 PUSH2 0x1BAF DUP3 PUSH2 0x1CE0 JUMP JUMPDEST SWAP2 POP PUSH2 0x1BBA DUP4 PUSH2 0x1CE0 JUMP JUMPDEST SWAP3 POP DUP3 PUSH2 0x1BCA JUMPI PUSH2 0x1BC9 PUSH2 0x1E26 JUMP JUMPDEST JUMPDEST DUP3 DUP3 DIV SWAP1 POP SWAP3 SWAP2 POP POP JUMP JUMPDEST PUSH1 0x0 PUSH2 0x1BE0 DUP3 PUSH2 0x1CE0 JUMP JUMPDEST SWAP2 POP PUSH2 0x1BEB DUP4 PUSH2 0x1CE0 JUMP JUMPDEST SWAP3 POP DUP2 PUSH32 0xFFFFFFFFFFFFFFFFFFFFFFFFFFFFFFFFFFFFFFFFFFFFFFFFFFFFFFFFFFFFFFFF DIV DUP4 GT DUP3 ISZERO ISZERO AND ISZERO PUSH2 0x1C24 JUMPI PUSH2 0x1C23 PUSH2 0x1DF7 JUMP JUMPDEST JUMPDEST DUP3 DUP3 MUL SWAP1 POP SWAP3 SWAP2 POP POP JUMP JUMPDEST PUSH1 0x0 PUSH2 0x1C3A DUP3 PUSH2 0x1CE0 JUMP JUMPDEST SWAP2 POP PUSH2 0x1C45 DUP4 PUSH2 0x1CE0 JUMP JUMPDEST SWAP3 POP DUP3 DUP3 LT ISZERO PUSH2 0x1C58 JUMPI PUSH2 0x1C57 PUSH2 0x1DF7 JUMP JUMPDEST JUMPDEST DUP3 DUP3 SUB SWAP1 POP SWAP3 SWAP2 POP POP JUMP JUMPDEST PUSH1 0x0 PUSH2 0x1C6E DUP3 PUSH2 0x1CC0 JUMP JUMPDEST SWAP1 POP SWAP2 SWAP1 POP JUMP JUMPDEST PUSH1 0x0 DUP2 ISZERO ISZERO SWAP1 POP SWAP2 SWAP1 POP JUMP JUMPDEST PUSH1 0x0 PUSH32 0xFF00000000000000000000000000000000000000000000000000000000000000 DUP3 AND SWAP1 POP SWAP2 SWAP1 POP JUMP JUMPDEST PUSH1 0x0 DUP2 SWAP1 POP PUSH2 0x1CBB DUP3 PUSH2 0x1FB4 JUMP JUMPDEST SWAP2 SWAP1 POP JUMP JUMPDEST PUSH1 0x0 PUSH20 0xFFFFFFFFFFFFFFFFFFFFFFFFFFFFFFFFFFFFFFFF DUP3 AND SWAP1 POP SWAP2 SWAP1 POP JUMP JUMPDEST PUSH1 0x0 DUP2 SWAP1 POP SWAP2 SWAP1 POP JUMP JUMPDEST PUSH1 0x0 PUSH1 0xFF DUP3 AND SWAP1 POP SWAP2 SWAP1 POP JUMP JUMPDEST PUSH1 0x0 PUSH2 0x1D02 DUP3 PUSH2 0x1CAD JUMP JUMPDEST SWAP1 POP SWAP2 SWAP1 POP JUMP JUMPDEST DUP3 DUP2 DUP4 CALLDATACOPY PUSH1 0x0 DUP4 DUP4 ADD MSTORE POP POP POP JUMP JUMPDEST PUSH1 0x0 JUMPDEST DUP4 DUP2 LT ISZERO PUSH2 0x1D36 JUMPI DUP1 DUP3 ADD MLOAD DUP2 DUP5 ADD MSTORE PUSH1 0x20 DUP2 ADD SWAP1 POP PUSH2 0x1D1B JUMP JUMPDEST DUP4 DUP2 GT ISZERO PUSH2 0x1D45 JUMPI PUSH1 0x0 DUP5 DUP5 ADD MSTORE JUMPDEST POP POP POP POP JUMP JUMPDEST PUSH1 0x0 PUSH1 0x2 DUP3 DIV SWAP1 POP PUSH1 0x1 DUP3 AND DUP1 PUSH2 0x1D63 JUMPI PUSH1 0x7F DUP3 AND SWAP2 POP JUMPDEST PUSH1 0x20 DUP3 LT DUP2 EQ ISZERO PUSH2 0x1D77 JUMPI PUSH2 0x1D76 PUSH2 0x1E84 JUMP JUMPDEST JUMPDEST POP SWAP2 SWAP1 POP JUMP JUMPDEST PUSH2 0x1D86 DUP3 PUSH2 0x1F25 JUMP JUMPDEST DUP2 ADD DUP2 DUP2 LT PUSH8 0xFFFFFFFFFFFFFFFF DUP3 GT OR ISZERO PUSH2 0x1DA5 JUMPI PUSH2 0x1DA4 PUSH2 0x1EE2 JUMP JUMPDEST JUMPDEST DUP1 PUSH1 0x40 MSTORE POP POP POP JUMP JUMPDEST PUSH1 0x0 PUSH2 0x1DB9 DUP3 PUSH2 0x1CE0 JUMP JUMPDEST SWAP2 POP PUSH32 0xFFFFFFFFFFFFFFFFFFFFFFFFFFFFFFFFFFFFFFFFFFFFFFFFFFFFFFFFFFFFFFFF DUP3 EQ ISZERO PUSH2 0x1DEC JUMPI PUSH2 0x1DEB PUSH2 0x1DF7 JUMP JUMPDEST JUMPDEST PUSH1 0x1 DUP3 ADD SWAP1 POP SWAP2 SWAP1 POP JUMP JUMPDEST PUSH32 0x4E487B7100000000000000000000000000000000000000000000000000000000 PUSH1 0x0 MSTORE PUSH1 0x11 PUSH1 0x4 MSTORE PUSH1 0x24 PUSH1 0x0 REVERT JUMPDEST PUSH32 0x4E487B7100000000000000000000000000000000000000000000000000000000 PUSH1 0x0 MSTORE PUSH1 0x12 PUSH1 0x4 MSTORE PUSH1 0x24 PUSH1 0x0 REVERT JUMPDEST PUSH32 0x4E487B7100000000000000000000000000000000000000000000000000000000 PUSH1 0x0 MSTORE PUSH1 0x21 PUSH1 0x4 MSTORE PUSH1 0x24 PUSH1 0x0 REVERT JUMPDEST PUSH32 0x4E487B7100000000000000000000000000000000000000000000000000000000 PUSH1 0x0 MSTORE PUSH1 0x22 PUSH1 0x4 MSTORE PUSH1 0x24 PUSH1 0x0 REVERT JUMPDEST PUSH32 0x4E487B7100000000000000000000000000000000000000000000000000000000 PUSH1 0x0 MSTORE PUSH1 0x32 PUSH1 0x4 MSTORE PUSH1 0x24 PUSH1 0x0 REVERT JUMPDEST PUSH32 0x4E487B7100000000000000000000000000000000000000000000000000000000 PUSH1 0x0 MSTORE PUSH1 0x41 PUSH1 0x4 MSTORE PUSH1 0x24 PUSH1 0x0 REVERT JUMPDEST PUSH1 0x0 DUP1 REVERT JUMPDEST PUSH1 0x0 DUP1 REVERT JUMPDEST PUSH1 0x0 DUP1 REVERT JUMPDEST PUSH1 0x0 DUP1 REVERT JUMPDEST PUSH1 0x0 PUSH1 0x1F NOT PUSH1 0x1F DUP4 ADD AND SWAP1 POP SWAP2 SWAP1 POP JUMP JUMPDEST PUSH32 0xA20332067616D65733A20000000000000000000000000000000000000000000 PUSH1 0x0 DUP3 ADD MSTORE POP JUMP JUMPDEST PUSH32 0x47616D6520636F7374733A0A20312067616D653A200000000000000000000000 PUSH1 0x0 DUP3 ADD MSTORE POP JUMP JUMPDEST POP JUMP JUMPDEST PUSH32 0xA20322067616D65733A20000000000000000000000000000000000000000000 PUSH1 0x0 DUP3 ADD MSTORE POP JUMP JUMPDEST PUSH1 0x3 DUP2 LT PUSH2 0x1FC5 JUMPI PUSH2 0x1FC4 PUSH2 0x1E55 JUMP JUMPDEST JUMPDEST POP JUMP JUMPDEST PUSH2 0x1FD1 DUP2 PUSH2 0x1C81 JUMP JUMPDEST DUP2 EQ PUSH2 0x1FDC JUMPI PUSH1 0x0 DUP1 REVERT JUMPDEST POP JUMP JUMPDEST PUSH1 0x3 DUP2 LT PUSH2 0x1FEC JUMPI PUSH1 0x0 DUP1 REVERT JUMPDEST POP JUMP JUMPDEST PUSH2 0x1FF8 DUP2 PUSH2 0x1CE0 JUMP JUMPDEST DUP2 EQ PUSH2 0x2003 JUMPI PUSH1 0x0 DUP1 REVERT JUMPDEST POP JUMP INVALID LOG2 PUSH5 0x6970667358 0x22 SLT KECCAK256 GT 0xBA 0xAD JUMPDEST 0xC4 0xD5 DUP16 0xAB 0xF7 ADDMOD 0xA6 0x2C 0xC2 CALLER 0xCE PUSH7 0x887B73DEACD7DC 0x2F SWAP4 CHAINID SWAP11 0xF8 0xE9 DUP4 0xAD PUSH17 0x64736F6C63430008070033000000000000 "
		},
		"gasEstimates": {
			"creation": {
				"codeDepositCost": "1650400",
				"executionCost": "infinite",
				"totalCost": "infinite"
			},
			"external": {
				"": "152",
				"get_game_costs()": "infinite",
				"get_hint()": "379",
				"get_player_info()": "infinite",
				"guess(bytes1)": "628",
				"pay_game(uint256,string)": "infinite",
				"print_word()": "infinite",
				"start_game(uint8)": "infinite"
			},
			"internal": {
				"check_words()": "infinite",
				"random()": "infinite",
				"send_to_owner(uint256)": "infinite",
				"set_word(bytes memory)": "infinite",
				"store_new_player(string memory)": "infinite",
				"uint2str(uint256)": "infinite"
			}
		},
		"methodIdentifiers": {
			"get_game_costs()": "a27633f0",
			"get_hint()": "fd33209a",
			"get_player_info()": "ff92c89f",
			"guess(bytes1)": "c3d72cc7",
			"pay_game(uint256,string)": "2adcea85",
			"print_word()": "5bb9fae1",
			"start_game(uint8)": "4bada13c"
		}
	},
	"abi": [
		{
			"inputs": [],
			"stateMutability": "payable",
			"type": "constructor"
		},
		{
			"stateMutability": "payable",
			"type": "fallback"
		},
		{
			"inputs": [],
			"name": "get_game_costs",
			"outputs": [
				{
					"internalType": "string",
					"name": "",
					"type": "string"
				}
			],
			"stateMutability": "view",
			"type": "function"
		},
		{
			"inputs": [],
			"name": "get_hint",
			"outputs": [
				{
					"internalType": "bytes1",
					"name": "",
					"type": "bytes1"
				}
			],
			"stateMutability": "view",
			"type": "function"
		},
		{
			"inputs": [],
			"name": "get_player_info",
			"outputs": [
				{
					"components": [
						{
							"internalType": "address",
							"name": "player_address",
							"type": "address"
						},
						{
							"internalType": "string",
							"name": "nickname",
							"type": "string"
						},
						{
							"internalType": "uint256",
							"name": "free_games",
							"type": "uint256"
						},
						{
							"internalType": "uint256",
							"name": "won_games",
							"type": "uint256"
						},
						{
							"components": [
								{
									"internalType": "bytes",
									"name": "true_word",
									"type": "bytes"
								},
								{
									"internalType": "bytes",
									"name": "current_word",
									"type": "bytes"
								},
								{
									"internalType": "uint256",
									"name": "word_length",
									"type": "uint256"
								},
								{
									"internalType": "uint256",
									"name": "number_failures",
									"type": "uint256"
								},
								{
									"internalType": "enum hangman.LevelDifficulty",
									"name": "level",
									"type": "uint8"
								},
								{
									"internalType": "bytes",
									"name": "tried_letters",
									"type": "bytes"
								}
							],
							"internalType": "struct hangman.Game",
							"name": "game",
							"type": "tuple"
						}
					],
					"internalType": "struct hangman.Player",
					"name": "",
					"type": "tuple"
				}
			],
			"stateMutability": "view",
			"type": "function"
		},
		{
			"inputs": [
				{
					"internalType": "bytes1",
					"name": "letter",
					"type": "bytes1"
				}
			],
			"name": "guess",
			"outputs": [
				{
					"internalType": "bool",
					"name": "",
					"type": "bool"
				}
			],
			"stateMutability": "nonpayable",
			"type": "function"
		},
		{
			"inputs": [
				{
					"internalType": "uint256",
					"name": "amount",
					"type": "uint256"
				},
				{
					"internalType": "string",
					"name": "nickname",
					"type": "string"
				}
			],
			"name": "pay_game",
			"outputs": [
				{
					"internalType": "bool",
					"name": "success",
					"type": "bool"
				}
			],
			"stateMutability": "payable",
			"type": "function"
		},
		{
			"inputs": [],
			"name": "print_word",
			"outputs": [
				{
					"internalType": "string",
					"name": "",
					"type": "string"
				}
			],
			"stateMutability": "view",
			"type": "function"
		},
		{
			"inputs": [
				{
					"internalType": "enum hangman.LevelDifficulty",
					"name": "_level",
					"type": "uint8"
				}
			],
			"name": "start_game",
			"outputs": [],
			"stateMutability": "nonpayable",
			"type": "function"
		},
		{
			"stateMutability": "payable",
			"type": "receive"
		}
	]
}