{
	"data": {
		"bytecode": {
			"linkReferences": {},
			"object": "610559610053600b82828239805160001a607314610046577f4e487b7100000000000000000000000000000000000000000000000000000000600052600060045260246000fd5b30600052607381538281f3fe73000000000000000000000000000000000000000030146080604052600436106100355760003560e01c8063f56841831461003a575b600080fd5b610042610058565b60405161004f91906103ca565b60405180910390f35b606060006040518061014001604052806040518060400160405280600881526020017f657468657265756d00000000000000000000000000000000000000000000000081525081526020016040518060400160405280600881526020017f736f6c696469747900000000000000000000000000000000000000000000000081525081526020016040518060400160405280600581526020017f626c6f636b00000000000000000000000000000000000000000000000000000081525081526020016040518060400160405280600481526020017f676f6c640000000000000000000000000000000000000000000000000000000081525081526020016040518060400160405280600a81526020017f626c6f636b636861696e0000000000000000000000000000000000000000000081525081526020016040518060400160405280600481526020017f686173680000000000000000000000000000000000000000000000000000000081525081526020016040518060400160405280600d81526020017f63727970746f677261706869630000000000000000000000000000000000000081525081526020016040518060400160405280600381526020017f676173000000000000000000000000000000000000000000000000000000000081525081526020016040518060400160405280600581526020017f746f6b656e00000000000000000000000000000000000000000000000000000081525081526020016040518060400160405280600e81526020017f63727970746f63757272656e637900000000000000000000000000000000000081525081525090506000600a6102c26102ed565b6102cc919061045a565b90508181600a81106102e1576102e06104ba565b5b60200201519250505090565b60004442604051602001610302929190610393565b6040516020818303038152906040528051906020012060001c905090565b600061032b826103ec565b61033581856103f7565b935061034581856020860161041d565b61034e816104e9565b840191505092915050565b6000610366600683610408565b9150610371826104fa565b600682019050919050565b61038d61038882610413565b610450565b82525050565b600061039f828561037c565b6020820191506103af828461037c565b6020820191506103be82610359565b91508190509392505050565b600060208201905081810360008301526103e48184610320565b905092915050565b600081519050919050565b600082825260208201905092915050565b600081905092915050565b6000819050919050565b60005b8381101561043b578082015181840152602081019050610420565b8381111561044a576000848401525b50505050565b6000819050919050565b600061046582610413565b915061047083610413565b9250826104805761047f61048b565b5b828206905092915050565b7f4e487b7100000000000000000000000000000000000000000000000000000000600052601260045260246000fd5b7f4e487b7100000000000000000000000000000000000000000000000000000000600052603260045260246000fd5b6000601f19601f8301169050919050565b7f72616e646f6d000000000000000000000000000000000000000000000000000060008201525056fea26469706673582212207faa74d342695977cf53b27b51312b509abb267fa34c85db0ef9dc04cf4b681164736f6c63430008070033",
			"opcodes": "PUSH2 0x559 PUSH2 0x53 PUSH1 0xB DUP3 DUP3 DUP3 CODECOPY DUP1 MLOAD PUSH1 0x0 BYTE PUSH1 0x73 EQ PUSH2 0x46 JUMPI PUSH32 0x4E487B7100000000000000000000000000000000000000000000000000000000 PUSH1 0x0 MSTORE PUSH1 0x0 PUSH1 0x4 MSTORE PUSH1 0x24 PUSH1 0x0 REVERT JUMPDEST ADDRESS PUSH1 0x0 MSTORE PUSH1 0x73 DUP2 MSTORE8 DUP3 DUP2 RETURN INVALID PUSH20 0x0 ADDRESS EQ PUSH1 0x80 PUSH1 0x40 MSTORE PUSH1 0x4 CALLDATASIZE LT PUSH2 0x35 JUMPI PUSH1 0x0 CALLDATALOAD PUSH1 0xE0 SHR DUP1 PUSH4 0xF5684183 EQ PUSH2 0x3A JUMPI JUMPDEST PUSH1 0x0 DUP1 REVERT JUMPDEST PUSH2 0x42 PUSH2 0x58 JUMP JUMPDEST PUSH1 0x40 MLOAD PUSH2 0x4F SWAP2 SWAP1 PUSH2 0x3CA JUMP JUMPDEST PUSH1 0x40 MLOAD DUP1 SWAP2 SUB SWAP1 RETURN JUMPDEST PUSH1 0x60 PUSH1 0x0 PUSH1 0x40 MLOAD DUP1 PUSH2 0x140 ADD PUSH1 0x40 MSTORE DUP1 PUSH1 0x40 MLOAD DUP1 PUSH1 0x40 ADD PUSH1 0x40 MSTORE DUP1 PUSH1 0x8 DUP2 MSTORE PUSH1 0x20 ADD PUSH32 0x657468657265756D000000000000000000000000000000000000000000000000 DUP2 MSTORE POP DUP2 MSTORE PUSH1 0x20 ADD PUSH1 0x40 MLOAD DUP1 PUSH1 0x40 ADD PUSH1 0x40 MSTORE DUP1 PUSH1 0x8 DUP2 MSTORE PUSH1 0x20 ADD PUSH32 0x736F6C6964697479000000000000000000000000000000000000000000000000 DUP2 MSTORE POP DUP2 MSTORE PUSH1 0x20 ADD PUSH1 0x40 MLOAD DUP1 PUSH1 0x40 ADD PUSH1 0x40 MSTORE DUP1 PUSH1 0x5 DUP2 MSTORE PUSH1 0x20 ADD PUSH32 0x626C6F636B000000000000000000000000000000000000000000000000000000 DUP2 MSTORE POP DUP2 MSTORE PUSH1 0x20 ADD PUSH1 0x40 MLOAD DUP1 PUSH1 0x40 ADD PUSH1 0x40 MSTORE DUP1 PUSH1 0x4 DUP2 MSTORE PUSH1 0x20 ADD PUSH32 0x676F6C6400000000000000000000000000000000000000000000000000000000 DUP2 MSTORE POP DUP2 MSTORE PUSH1 0x20 ADD PUSH1 0x40 MLOAD DUP1 PUSH1 0x40 ADD PUSH1 0x40 MSTORE DUP1 PUSH1 0xA DUP2 MSTORE PUSH1 0x20 ADD PUSH32 0x626C6F636B636861696E00000000000000000000000000000000000000000000 DUP2 MSTORE POP DUP2 MSTORE PUSH1 0x20 ADD PUSH1 0x40 MLOAD DUP1 PUSH1 0x40 ADD PUSH1 0x40 MSTORE DUP1 PUSH1 0x4 DUP2 MSTORE PUSH1 0x20 ADD PUSH32 0x6861736800000000000000000000000000000000000000000000000000000000 DUP2 MSTORE POP DUP2 MSTORE PUSH1 0x20 ADD PUSH1 0x40 MLOAD DUP1 PUSH1 0x40 ADD PUSH1 0x40 MSTORE DUP1 PUSH1 0xD DUP2 MSTORE PUSH1 0x20 ADD PUSH32 0x63727970746F6772617068696300000000000000000000000000000000000000 DUP2 MSTORE POP DUP2 MSTORE PUSH1 0x20 ADD PUSH1 0x40 MLOAD DUP1 PUSH1 0x40 ADD PUSH1 0x40 MSTORE DUP1 PUSH1 0x3 DUP2 MSTORE PUSH1 0x20 ADD PUSH32 0x6761730000000000000000000000000000000000000000000000000000000000 DUP2 MSTORE POP DUP2 MSTORE PUSH1 0x20 ADD PUSH1 0x40 MLOAD DUP1 PUSH1 0x40 ADD PUSH1 0x40 MSTORE DUP1 PUSH1 0x5 DUP2 MSTORE PUSH1 0x20 ADD PUSH32 0x746F6B656E000000000000000000000000000000000000000000000000000000 DUP2 MSTORE POP DUP2 MSTORE PUSH1 0x20 ADD PUSH1 0x40 MLOAD DUP1 PUSH1 0x40 ADD PUSH1 0x40 MSTORE DUP1 PUSH1 0xE DUP2 MSTORE PUSH1 0x20 ADD PUSH32 0x63727970746F63757272656E6379000000000000000000000000000000000000 DUP2 MSTORE POP DUP2 MSTORE POP SWAP1 POP PUSH1 0x0 PUSH1 0xA PUSH2 0x2C2 PUSH2 0x2ED JUMP JUMPDEST PUSH2 0x2CC SWAP2 SWAP1 PUSH2 0x45A JUMP JUMPDEST SWAP1 POP DUP2 DUP2 PUSH1 0xA DUP2 LT PUSH2 0x2E1 JUMPI PUSH2 0x2E0 PUSH2 0x4BA JUMP JUMPDEST JUMPDEST PUSH1 0x20 MUL ADD MLOAD SWAP3 POP POP POP SWAP1 JUMP JUMPDEST PUSH1 0x0 DIFFICULTY TIMESTAMP PUSH1 0x40 MLOAD PUSH1 0x20 ADD PUSH2 0x302 SWAP3 SWAP2 SWAP1 PUSH2 0x393 JUMP JUMPDEST PUSH1 0x40 MLOAD PUSH1 0x20 DUP2 DUP4 SUB SUB DUP2 MSTORE SWAP1 PUSH1 0x40 MSTORE DUP1 MLOAD SWAP1 PUSH1 0x20 ADD KECCAK256 PUSH1 0x0 SHR SWAP1 POP SWAP1 JUMP JUMPDEST PUSH1 0x0 PUSH2 0x32B DUP3 PUSH2 0x3EC JUMP JUMPDEST PUSH2 0x335 DUP2 DUP6 PUSH2 0x3F7 JUMP JUMPDEST SWAP4 POP PUSH2 0x345 DUP2 DUP6 PUSH1 0x20 DUP7 ADD PUSH2 0x41D JUMP JUMPDEST PUSH2 0x34E DUP2 PUSH2 0x4E9 JUMP JUMPDEST DUP5 ADD SWAP2 POP POP SWAP3 SWAP2 POP POP JUMP JUMPDEST PUSH1 0x0 PUSH2 0x366 PUSH1 0x6 DUP4 PUSH2 0x408 JUMP JUMPDEST SWAP2 POP PUSH2 0x371 DUP3 PUSH2 0x4FA JUMP JUMPDEST PUSH1 0x6 DUP3 ADD SWAP1 POP SWAP2 SWAP1 POP JUMP JUMPDEST PUSH2 0x38D PUSH2 0x388 DUP3 PUSH2 0x413 JUMP JUMPDEST PUSH2 0x450 JUMP JUMPDEST DUP3 MSTORE POP POP JUMP JUMPDEST PUSH1 0x0 PUSH2 0x39F DUP3 DUP6 PUSH2 0x37C JUMP JUMPDEST PUSH1 0x20 DUP3 ADD SWAP2 POP PUSH2 0x3AF DUP3 DUP5 PUSH2 0x37C JUMP JUMPDEST PUSH1 0x20 DUP3 ADD SWAP2 POP PUSH2 0x3BE DUP3 PUSH2 0x359 JUMP JUMPDEST SWAP2 POP DUP2 SWAP1 POP SWAP4 SWAP3 POP POP POP JUMP JUMPDEST PUSH1 0x0 PUSH1 0x20 DUP3 ADD SWAP1 POP DUP2 DUP2 SUB PUSH1 0x0 DUP4 ADD MSTORE PUSH2 0x3E4 DUP2 DUP5 PUSH2 0x320 JUMP JUMPDEST SWAP1 POP SWAP3 SWAP2 POP POP JUMP JUMPDEST PUSH1 0x0 DUP2 MLOAD SWAP1 POP SWAP2 SWAP1 POP JUMP JUMPDEST PUSH1 0x0 DUP3 DUP3 MSTORE PUSH1 0x20 DUP3 ADD SWAP1 POP SWAP3 SWAP2 POP POP JUMP JUMPDEST PUSH1 0x0 DUP2 SWAP1 POP SWAP3 SWAP2 POP POP JUMP JUMPDEST PUSH1 0x0 DUP2 SWAP1 POP SWAP2 SWAP1 POP JUMP JUMPDEST PUSH1 0x0 JUMPDEST DUP4 DUP2 LT ISZERO PUSH2 0x43B JUMPI DUP1 DUP3 ADD MLOAD DUP2 DUP5 ADD MSTORE PUSH1 0x20 DUP2 ADD SWAP1 POP PUSH2 0x420 JUMP JUMPDEST DUP4 DUP2 GT ISZERO PUSH2 0x44A JUMPI PUSH1 0x0 DUP5 DUP5 ADD MSTORE JUMPDEST POP POP POP POP JUMP JUMPDEST PUSH1 0x0 DUP2 SWAP1 POP SWAP2 SWAP1 POP JUMP JUMPDEST PUSH1 0x0 PUSH2 0x465 DUP3 PUSH2 0x413 JUMP JUMPDEST SWAP2 POP PUSH2 0x470 DUP4 PUSH2 0x413 JUMP JUMPDEST SWAP3 POP DUP3 PUSH2 0x480 JUMPI PUSH2 0x47F PUSH2 0x48B JUMP JUMPDEST JUMPDEST DUP3 DUP3 MOD SWAP1 POP SWAP3 SWAP2 POP POP JUMP JUMPDEST PUSH32 0x4E487B7100000000000000000000000000000000000000000000000000000000 PUSH1 0x0 MSTORE PUSH1 0x12 PUSH1 0x4 MSTORE PUSH1 0x24 PUSH1 0x0 REVERT JUMPDEST PUSH32 0x4E487B7100000000000000000000000000000000000000000000000000000000 PUSH1 0x0 MSTORE PUSH1 0x32 PUSH1 0x4 MSTORE PUSH1 0x24 PUSH1 0x0 REVERT JUMPDEST PUSH1 0x0 PUSH1 0x1F NOT PUSH1 0x1F DUP4 ADD AND SWAP1 POP SWAP2 SWAP1 POP JUMP JUMPDEST PUSH32 0x72616E646F6D0000000000000000000000000000000000000000000000000000 PUSH1 0x0 DUP3 ADD MSTORE POP JUMP INVALID LOG2 PUSH5 0x6970667358 0x22 SLT KECCAK256 PUSH32 0xAA74D342695977CF53B27B51312B509ABB267FA34C85DB0EF9DC04CF4B681164 PUSH20 0x6F6C634300080700330000000000000000000000 "
		},
		"gasEstimates": {
			"creation": {
				"codeDepositCost": "273800",
				"executionCost": "340",
				"totalCost": "274140"
			},
			"external": {
				"randomWord()": "infinite"
			},
			"internal": {
				"random()": "infinite"
			}
		},
		"methodIdentifiers": {
			"randomWord()": "f5684183"
		}
	},
	"abi": [
		{
			"inputs": [],
			"name": "randomWord",
			"outputs": [
				{
					"internalType": "bytes",
					"name": "",
					"type": "bytes"
				}
			],
			"stateMutability": "view",
			"type": "function"
		}
	]
}